{
	"Besic/SolidityExample/simplePaymentChannel.sol": {
		"SimplePaymentChannel": {
			"abi": [
				{
					"inputs": [
						{
							"internalType": "address payable",
							"name": "recipientAddress",
							"type": "address"
						},
						{
							"internalType": "uint256",
							"name": "duration",
							"type": "uint256"
						}
					],
					"stateMutability": "payable",
					"type": "constructor"
				},
				{
					"inputs": [],
					"name": "claimTimeout",
					"outputs": [],
					"stateMutability": "nonpayable",
					"type": "function"
				},
				{
					"inputs": [
						{
							"internalType": "uint256",
							"name": "amount",
							"type": "uint256"
						},
						{
							"internalType": "bytes",
							"name": "signature",
							"type": "bytes"
						}
					],
					"name": "close",
					"outputs": [],
					"stateMutability": "nonpayable",
					"type": "function"
				},
				{
					"inputs": [],
					"name": "expiration",
					"outputs": [
						{
							"internalType": "uint256",
							"name": "",
							"type": "uint256"
						}
					],
					"stateMutability": "view",
					"type": "function"
				},
				{
					"inputs": [
						{
							"internalType": "uint256",
							"name": "newExpiration",
							"type": "uint256"
						}
					],
					"name": "extend",
					"outputs": [],
					"stateMutability": "nonpayable",
					"type": "function"
				},
				{
					"inputs": [],
					"name": "recipient",
					"outputs": [
						{
							"internalType": "address payable",
							"name": "",
							"type": "address"
						}
					],
					"stateMutability": "view",
					"type": "function"
				},
				{
					"inputs": [],
					"name": "sender",
					"outputs": [
						{
							"internalType": "address payable",
							"name": "",
							"type": "address"
						}
					],
					"stateMutability": "view",
					"type": "function"
				}
			],
			"devdoc": {
				"kind": "dev",
				"methods": {},
				"version": 1
			},
			"evm": {
				"assembly": "    /* \"Besic/SolidityExample/simplePaymentChannel.sol\":70:3003  contract SimplePaymentChannel {\r... */\n  mstore(0x40, 0x80)\n    /* \"Besic/SolidityExample/simplePaymentChannel.sol\":343:566  constructor (address payable recipientAddress, uint256 duration)\r... */\n  mload(0x40)\n  sub(codesize, bytecodeSize)\n  dup1\n  bytecodeSize\n  dup4\n  codecopy\n  dup2\n  dup2\n  add\n  0x40\n  mstore\n  dup2\n  add\n  swap1\n  tag_1\n  swap2\n  swap1\n  tag_2\n  jump\t// in\ntag_1:\n    /* \"Besic/SolidityExample/simplePaymentChannel.sol\":458:468  msg.sender */\n  caller\n    /* \"Besic/SolidityExample/simplePaymentChannel.sol\":441:447  sender */\n  0x00\n  dup1\n    /* \"Besic/SolidityExample/simplePaymentChannel.sol\":441:469  sender = payable(msg.sender) */\n  0x0100\n  exp\n  dup2\n  sload\n  dup2\n  0xffffffffffffffffffffffffffffffffffffffff\n  mul\n  not\n  and\n  swap1\n  dup4\n  0xffffffffffffffffffffffffffffffffffffffff\n  and\n  mul\n  or\n  swap1\n  sstore\n  pop\n    /* \"Besic/SolidityExample/simplePaymentChannel.sol\":492:508  recipientAddress */\n  dup2\n    /* \"Besic/SolidityExample/simplePaymentChannel.sol\":480:489  recipient */\n  0x01\n  0x00\n    /* \"Besic/SolidityExample/simplePaymentChannel.sol\":480:508  recipient = recipientAddress */\n  0x0100\n  exp\n  dup2\n  sload\n  dup2\n  0xffffffffffffffffffffffffffffffffffffffff\n  mul\n  not\n  and\n  swap1\n  dup4\n  0xffffffffffffffffffffffffffffffffffffffff\n  and\n  mul\n  or\n  swap1\n  sstore\n  pop\n    /* \"Besic/SolidityExample/simplePaymentChannel.sol\":550:558  duration */\n  dup1\n    /* \"Besic/SolidityExample/simplePaymentChannel.sol\":532:547  block.timestamp */\n  timestamp\n    /* \"Besic/SolidityExample/simplePaymentChannel.sol\":532:558  block.timestamp + duration */\n  tag_5\n  swap2\n  swap1\n  tag_6\n  jump\t// in\ntag_5:\n    /* \"Besic/SolidityExample/simplePaymentChannel.sol\":519:529  expiration */\n  0x02\n    /* \"Besic/SolidityExample/simplePaymentChannel.sol\":519:558  expiration = block.timestamp + duration */\n  dup2\n  swap1\n  sstore\n  pop\n    /* \"Besic/SolidityExample/simplePaymentChannel.sol\":343:566  constructor (address payable recipientAddress, uint256 duration)\r... */\n  pop\n  pop\n    /* \"Besic/SolidityExample/simplePaymentChannel.sol\":70:3003  contract SimplePaymentChannel {\r... */\n  jump(tag_7)\n    /* \"#utility.yul\":7:166   */\ntag_9:\n    /* \"#utility.yul\":72:77   */\n  0x00\n    /* \"#utility.yul\":103:109   */\n  dup2\n    /* \"#utility.yul\":97:110   */\n  mload\n    /* \"#utility.yul\":88:110   */\n  swap1\n  pop\n    /* \"#utility.yul\":119:160   */\n  tag_11\n    /* \"#utility.yul\":154:159   */\n  dup2\n    /* \"#utility.yul\":119:160   */\n  tag_12\n  jump\t// in\ntag_11:\n    /* \"#utility.yul\":7:166   */\n  swap3\n  swap2\n  pop\n  pop\n  jump\t// out\n    /* \"#utility.yul\":172:315   */\ntag_13:\n    /* \"#utility.yul\":229:234   */\n  0x00\n    /* \"#utility.yul\":260:266   */\n  dup2\n    /* \"#utility.yul\":254:267   */\n  mload\n    /* \"#utility.yul\":245:267   */\n  swap1\n  pop\n    /* \"#utility.yul\":276:309   */\n  tag_15\n    /* \"#utility.yul\":303:308   */\n  dup2\n    /* \"#utility.yul\":276:309   */\n  tag_16\n  jump\t// in\ntag_15:\n    /* \"#utility.yul\":172:315   */\n  swap3\n  swap2\n  pop\n  pop\n  jump\t// out\n    /* \"#utility.yul\":321:844   */\ntag_2:\n    /* \"#utility.yul\":408:414   */\n  0x00\n    /* \"#utility.yul\":416:422   */\n  dup1\n    /* \"#utility.yul\":465:467   */\n  0x40\n    /* \"#utility.yul\":453:462   */\n  dup4\n    /* \"#utility.yul\":444:451   */\n  dup6\n    /* \"#utility.yul\":440:463   */\n  sub\n    /* \"#utility.yul\":436:468   */\n  slt\n    /* \"#utility.yul\":433:552   */\n  iszero\n  tag_18\n  jumpi\n    /* \"#utility.yul\":471:550   */\n  tag_19\n  tag_20\n  jump\t// in\ntag_19:\n    /* \"#utility.yul\":433:552   */\ntag_18:\n    /* \"#utility.yul\":591:592   */\n  0x00\n    /* \"#utility.yul\":616:688   */\n  tag_21\n    /* \"#utility.yul\":680:687   */\n  dup6\n    /* \"#utility.yul\":671:677   */\n  dup3\n    /* \"#utility.yul\":660:669   */\n  dup7\n    /* \"#utility.yul\":656:678   */\n  add\n    /* \"#utility.yul\":616:688   */\n  tag_9\n  jump\t// in\ntag_21:\n    /* \"#utility.yul\":606:688   */\n  swap3\n  pop\n    /* \"#utility.yul\":562:698   */\n  pop\n    /* \"#utility.yul\":737:739   */\n  0x20\n    /* \"#utility.yul\":763:827   */\n  tag_22\n    /* \"#utility.yul\":819:826   */\n  dup6\n    /* \"#utility.yul\":810:816   */\n  dup3\n    /* \"#utility.yul\":799:808   */\n  dup7\n    /* \"#utility.yul\":795:817   */\n  add\n    /* \"#utility.yul\":763:827   */\n  tag_13\n  jump\t// in\ntag_22:\n    /* \"#utility.yul\":753:827   */\n  swap2\n  pop\n    /* \"#utility.yul\":708:837   */\n  pop\n    /* \"#utility.yul\":321:844   */\n  swap3\n  pop\n  swap3\n  swap1\n  pop\n  jump\t// out\n    /* \"#utility.yul\":931:1236   */\ntag_6:\n    /* \"#utility.yul\":971:974   */\n  0x00\n    /* \"#utility.yul\":990:1010   */\n  tag_26\n    /* \"#utility.yul\":1008:1009   */\n  dup3\n    /* \"#utility.yul\":990:1010   */\n  tag_27\n  jump\t// in\ntag_26:\n    /* \"#utility.yul\":985:1010   */\n  swap2\n  pop\n    /* \"#utility.yul\":1024:1044   */\n  tag_28\n    /* \"#utility.yul\":1042:1043   */\n  dup4\n    /* \"#utility.yul\":1024:1044   */\n  tag_27\n  jump\t// in\ntag_28:\n    /* \"#utility.yul\":1019:1044   */\n  swap3\n  pop\n    /* \"#utility.yul\":1178:1179   */\n  dup3\n    /* \"#utility.yul\":1110:1176   */\n  0xffffffffffffffffffffffffffffffffffffffffffffffffffffffffffffffff\n    /* \"#utility.yul\":1106:1180   */\n  sub\n    /* \"#utility.yul\":1103:1104   */\n  dup3\n    /* \"#utility.yul\":1100:1181   */\n  gt\n    /* \"#utility.yul\":1097:1204   */\n  iszero\n  tag_29\n  jumpi\n    /* \"#utility.yul\":1184:1202   */\n  tag_30\n  tag_31\n  jump\t// in\ntag_30:\n    /* \"#utility.yul\":1097:1204   */\ntag_29:\n    /* \"#utility.yul\":1228:1229   */\n  dup3\n    /* \"#utility.yul\":1225:1226   */\n  dup3\n    /* \"#utility.yul\":1221:1230   */\n  add\n    /* \"#utility.yul\":1214:1230   */\n  swap1\n  pop\n    /* \"#utility.yul\":931:1236   */\n  swap3\n  swap2\n  pop\n  pop\n  jump\t// out\n    /* \"#utility.yul\":1242:1346   */\ntag_32:\n    /* \"#utility.yul\":1287:1294   */\n  0x00\n    /* \"#utility.yul\":1316:1340   */\n  tag_34\n    /* \"#utility.yul\":1334:1339   */\n  dup3\n    /* \"#utility.yul\":1316:1340   */\n  tag_35\n  jump\t// in\ntag_34:\n    /* \"#utility.yul\":1305:1340   */\n  swap1\n  pop\n    /* \"#utility.yul\":1242:1346   */\n  swap2\n  swap1\n  pop\n  jump\t// out\n    /* \"#utility.yul\":1352:1478   */\ntag_35:\n    /* \"#utility.yul\":1389:1396   */\n  0x00\n    /* \"#utility.yul\":1429:1471   */\n  0xffffffffffffffffffffffffffffffffffffffff\n    /* \"#utility.yul\":1422:1427   */\n  dup3\n    /* \"#utility.yul\":1418:1472   */\n  and\n    /* \"#utility.yul\":1407:1472   */\n  swap1\n  pop\n    /* \"#utility.yul\":1352:1478   */\n  swap2\n  swap1\n  pop\n  jump\t// out\n    /* \"#utility.yul\":1484:1561   */\ntag_27:\n    /* \"#utility.yul\":1521:1528   */\n  0x00\n    /* \"#utility.yul\":1550:1555   */\n  dup2\n    /* \"#utility.yul\":1539:1555   */\n  swap1\n  pop\n    /* \"#utility.yul\":1484:1561   */\n  swap2\n  swap1\n  pop\n  jump\t// out\n    /* \"#utility.yul\":1567:1747   */\ntag_31:\n    /* \"#utility.yul\":1615:1692   */\n  0x4e487b7100000000000000000000000000000000000000000000000000000000\n    /* \"#utility.yul\":1612:1613   */\n  0x00\n    /* \"#utility.yul\":1605:1693   */\n  mstore\n    /* \"#utility.yul\":1712:1716   */\n  0x11\n    /* \"#utility.yul\":1709:1710   */\n  0x04\n    /* \"#utility.yul\":1702:1717   */\n  mstore\n    /* \"#utility.yul\":1736:1740   */\n  0x24\n    /* \"#utility.yul\":1733:1734   */\n  0x00\n    /* \"#utility.yul\":1726:1741   */\n  revert\n    /* \"#utility.yul\":1876:1993   */\ntag_20:\n    /* \"#utility.yul\":1985:1986   */\n  0x00\n    /* \"#utility.yul\":1982:1983   */\n  dup1\n    /* \"#utility.yul\":1975:1987   */\n  revert\n    /* \"#utility.yul\":1999:2137   */\ntag_12:\n    /* \"#utility.yul\":2080:2112   */\n  tag_43\n    /* \"#utility.yul\":2106:2111   */\n  dup2\n    /* \"#utility.yul\":2080:2112   */\n  tag_32\n  jump\t// in\ntag_43:\n    /* \"#utility.yul\":2073:2078   */\n  dup2\n    /* \"#utility.yul\":2070:2113   */\n  eq\n    /* \"#utility.yul\":2060:2131   */\n  tag_44\n  jumpi\n    /* \"#utility.yul\":2127:2128   */\n  0x00\n    /* \"#utility.yul\":2124:2125   */\n  dup1\n    /* \"#utility.yul\":2117:2129   */\n  revert\n    /* \"#utility.yul\":2060:2131   */\ntag_44:\n    /* \"#utility.yul\":1999:2137   */\n  pop\n  jump\t// out\n    /* \"#utility.yul\":2143:2265   */\ntag_16:\n    /* \"#utility.yul\":2216:2240   */\n  tag_46\n    /* \"#utility.yul\":2234:2239   */\n  dup2\n    /* \"#utility.yul\":2216:2240   */\n  tag_27\n  jump\t// in\ntag_46:\n    /* \"#utility.yul\":2209:2214   */\n  dup2\n    /* \"#utility.yul\":2206:2241   */\n  eq\n    /* \"#utility.yul\":2196:2259   */\n  tag_47\n  jumpi\n    /* \"#utility.yul\":2255:2256   */\n  0x00\n    /* \"#utility.yul\":2252:2253   */\n  dup1\n    /* \"#utility.yul\":2245:2257   */\n  revert\n    /* \"#utility.yul\":2196:2259   */\ntag_47:\n    /* \"#utility.yul\":2143:2265   */\n  pop\n  jump\t// out\n    /* \"Besic/SolidityExample/simplePaymentChannel.sol\":70:3003  contract SimplePaymentChannel {\r... */\ntag_7:\n  dataSize(sub_0)\n  dup1\n  dataOffset(sub_0)\n  0x00\n  codecopy\n  0x00\n  return\nstop\n\nsub_0: assembly {\n        /* \"Besic/SolidityExample/simplePaymentChannel.sol\":70:3003  contract SimplePaymentChannel {\r... */\n      mstore(0x40, 0x80)\n      callvalue\n      dup1\n      iszero\n      tag_1\n      jumpi\n      0x00\n      dup1\n      revert\n    tag_1:\n      pop\n      jumpi(tag_2, lt(calldatasize, 0x04))\n      shr(0xe0, calldataload(0x00))\n      dup1\n      0x0e1da6c3\n      eq\n      tag_3\n      jumpi\n      dup1\n      0x415ffba7\n      eq\n      tag_4\n      jumpi\n      dup1\n      0x4665096d\n      eq\n      tag_5\n      jumpi\n      dup1\n      0x66d003ac\n      eq\n      tag_6\n      jumpi\n      dup1\n      0x67e404ce\n      eq\n      tag_7\n      jumpi\n      dup1\n      0x9714378c\n      eq\n      tag_8\n      jumpi\n    tag_2:\n      0x00\n      dup1\n      revert\n        /* \"Besic/SolidityExample/simplePaymentChannel.sol\":1410:1531  function claimTimeout() external {\r... */\n    tag_3:\n      tag_9\n      tag_10\n      jump\t// in\n    tag_9:\n      stop\n        /* \"Besic/SolidityExample/simplePaymentChannel.sol\":781:1021  function close(uint256 amount, bytes memory signature) external {\r... */\n    tag_4:\n      tag_11\n      0x04\n      dup1\n      calldatasize\n      sub\n      dup2\n      add\n      swap1\n      tag_12\n      swap2\n      swap1\n      tag_13\n      jump\t// in\n    tag_12:\n      tag_14\n      jump\t// in\n    tag_11:\n      stop\n        /* \"Besic/SolidityExample/simplePaymentChannel.sol\":261:286  uint256 public expiration */\n    tag_5:\n      tag_15\n      tag_16\n      jump\t// in\n    tag_15:\n      mload(0x40)\n      tag_17\n      swap2\n      swap1\n      tag_18\n      jump\t// in\n    tag_17:\n      mload(0x40)\n      dup1\n      swap2\n      sub\n      swap1\n      return\n        /* \"Besic/SolidityExample/simplePaymentChannel.sol\":181:213  address payable public recipient */\n    tag_6:\n      tag_19\n      tag_20\n      jump\t// in\n    tag_19:\n      mload(0x40)\n      tag_21\n      swap2\n      swap1\n      tag_22\n      jump\t// in\n    tag_21:\n      mload(0x40)\n      dup1\n      swap2\n      sub\n      swap1\n      return\n        /* \"Besic/SolidityExample/simplePaymentChannel.sol\":107:136  address payable public sender */\n    tag_7:\n      tag_23\n      tag_24\n      jump\t// in\n    tag_23:\n      mload(0x40)\n      tag_25\n      swap2\n      swap1\n      tag_22\n      jump\t// in\n    tag_25:\n      mload(0x40)\n      dup1\n      swap2\n      sub\n      swap1\n      return\n        /* \"Besic/SolidityExample/simplePaymentChannel.sol\":1087:1268  function extend(uint256 newExpiration) external {\r... */\n    tag_8:\n      tag_26\n      0x04\n      dup1\n      calldatasize\n      sub\n      dup2\n      add\n      swap1\n      tag_27\n      swap2\n      swap1\n      tag_28\n      jump\t// in\n    tag_27:\n      tag_29\n      jump\t// in\n    tag_26:\n      stop\n        /* \"Besic/SolidityExample/simplePaymentChannel.sol\":1410:1531  function claimTimeout() external {\r... */\n    tag_10:\n        /* \"Besic/SolidityExample/simplePaymentChannel.sol\":1481:1491  expiration */\n      sload(0x02)\n        /* \"Besic/SolidityExample/simplePaymentChannel.sol\":1462:1477  block.timestamp */\n      timestamp\n        /* \"Besic/SolidityExample/simplePaymentChannel.sol\":1462:1491  block.timestamp >= expiration */\n      lt\n      iszero\n        /* \"Besic/SolidityExample/simplePaymentChannel.sol\":1454:1492  require(block.timestamp >= expiration) */\n      tag_31\n      jumpi\n      0x00\n      dup1\n      revert\n    tag_31:\n        /* \"Besic/SolidityExample/simplePaymentChannel.sol\":1516:1522  sender */\n      0x00\n      dup1\n      sload\n      swap1\n      0x0100\n      exp\n      swap1\n      div\n      0xffffffffffffffffffffffffffffffffffffffff\n      and\n        /* \"Besic/SolidityExample/simplePaymentChannel.sol\":1503:1523  selfdestruct(sender) */\n      0xffffffffffffffffffffffffffffffffffffffff\n      and\n      selfdestruct\n        /* \"Besic/SolidityExample/simplePaymentChannel.sol\":781:1021  function close(uint256 amount, bytes memory signature) external {\r... */\n    tag_14:\n        /* \"Besic/SolidityExample/simplePaymentChannel.sol\":878:887  recipient */\n      0x01\n      0x00\n      swap1\n      sload\n      swap1\n      0x0100\n      exp\n      swap1\n      div\n      0xffffffffffffffffffffffffffffffffffffffff\n      and\n        /* \"Besic/SolidityExample/simplePaymentChannel.sol\":864:887  msg.sender == recipient */\n      0xffffffffffffffffffffffffffffffffffffffff\n      and\n        /* \"Besic/SolidityExample/simplePaymentChannel.sol\":864:874  msg.sender */\n      caller\n        /* \"Besic/SolidityExample/simplePaymentChannel.sol\":864:887  msg.sender == recipient */\n      0xffffffffffffffffffffffffffffffffffffffff\n      and\n      eq\n        /* \"Besic/SolidityExample/simplePaymentChannel.sol\":856:888  require(msg.sender == recipient) */\n      tag_33\n      jumpi\n      0x00\n      dup1\n      revert\n    tag_33:\n        /* \"Besic/SolidityExample/simplePaymentChannel.sol\":907:942  isValidSignature(amount, signature) */\n      tag_34\n        /* \"Besic/SolidityExample/simplePaymentChannel.sol\":924:930  amount */\n      dup3\n        /* \"Besic/SolidityExample/simplePaymentChannel.sol\":932:941  signature */\n      dup3\n        /* \"Besic/SolidityExample/simplePaymentChannel.sol\":907:923  isValidSignature */\n      tag_35\n        /* \"Besic/SolidityExample/simplePaymentChannel.sol\":907:942  isValidSignature(amount, signature) */\n      jump\t// in\n    tag_34:\n        /* \"Besic/SolidityExample/simplePaymentChannel.sol\":899:943  require(isValidSignature(amount, signature)) */\n      tag_36\n      jumpi\n      0x00\n      dup1\n      revert\n    tag_36:\n        /* \"Besic/SolidityExample/simplePaymentChannel.sol\":956:965  recipient */\n      0x01\n      0x00\n      swap1\n      sload\n      swap1\n      0x0100\n      exp\n      swap1\n      div\n      0xffffffffffffffffffffffffffffffffffffffff\n      and\n        /* \"Besic/SolidityExample/simplePaymentChannel.sol\":956:974  recipient.transfer */\n      0xffffffffffffffffffffffffffffffffffffffff\n      and\n        /* \"Besic/SolidityExample/simplePaymentChannel.sol\":956:982  recipient.transfer(amount) */\n      0x08fc\n        /* \"Besic/SolidityExample/simplePaymentChannel.sol\":975:981  amount */\n      dup4\n        /* \"Besic/SolidityExample/simplePaymentChannel.sol\":956:982  recipient.transfer(amount) */\n      swap1\n      dup2\n      iszero\n      mul\n      swap1\n      mload(0x40)\n      0x00\n      mload(0x40)\n      dup1\n      dup4\n      sub\n      dup2\n      dup6\n      dup9\n      dup9\n      call\n      swap4\n      pop\n      pop\n      pop\n      pop\n      iszero\n      dup1\n      iszero\n      tag_38\n      jumpi\n      returndatasize\n      0x00\n      dup1\n      returndatacopy\n      revert(0x00, returndatasize)\n    tag_38:\n      pop\n        /* \"Besic/SolidityExample/simplePaymentChannel.sol\":1006:1012  sender */\n      0x00\n      dup1\n      sload\n      swap1\n      0x0100\n      exp\n      swap1\n      div\n      0xffffffffffffffffffffffffffffffffffffffff\n      and\n        /* \"Besic/SolidityExample/simplePaymentChannel.sol\":993:1013  selfdestruct(sender) */\n      0xffffffffffffffffffffffffffffffffffffffff\n      and\n      selfdestruct\n        /* \"Besic/SolidityExample/simplePaymentChannel.sol\":261:286  uint256 public expiration */\n    tag_16:\n      sload(0x02)\n      dup2\n      jump\t// out\n        /* \"Besic/SolidityExample/simplePaymentChannel.sol\":181:213  address payable public recipient */\n    tag_20:\n      0x01\n      0x00\n      swap1\n      sload\n      swap1\n      0x0100\n      exp\n      swap1\n      div\n      0xffffffffffffffffffffffffffffffffffffffff\n      and\n      dup2\n      jump\t// out\n        /* \"Besic/SolidityExample/simplePaymentChannel.sol\":107:136  address payable public sender */\n    tag_24:\n      0x00\n      dup1\n      sload\n      swap1\n      0x0100\n      exp\n      swap1\n      div\n      0xffffffffffffffffffffffffffffffffffffffff\n      and\n      dup2\n      jump\t// out\n        /* \"Besic/SolidityExample/simplePaymentChannel.sol\":1087:1268  function extend(uint256 newExpiration) external {\r... */\n    tag_29:\n        /* \"Besic/SolidityExample/simplePaymentChannel.sol\":1168:1174  sender */\n      0x00\n      dup1\n      sload\n      swap1\n      0x0100\n      exp\n      swap1\n      div\n      0xffffffffffffffffffffffffffffffffffffffff\n      and\n        /* \"Besic/SolidityExample/simplePaymentChannel.sol\":1154:1174  msg.sender == sender */\n      0xffffffffffffffffffffffffffffffffffffffff\n      and\n        /* \"Besic/SolidityExample/simplePaymentChannel.sol\":1154:1164  msg.sender */\n      caller\n        /* \"Besic/SolidityExample/simplePaymentChannel.sol\":1154:1174  msg.sender == sender */\n      0xffffffffffffffffffffffffffffffffffffffff\n      and\n      eq\n        /* \"Besic/SolidityExample/simplePaymentChannel.sol\":1146:1175  require(msg.sender == sender) */\n      tag_40\n      jumpi\n      0x00\n      dup1\n      revert\n    tag_40:\n        /* \"Besic/SolidityExample/simplePaymentChannel.sol\":1210:1220  expiration */\n      sload(0x02)\n        /* \"Besic/SolidityExample/simplePaymentChannel.sol\":1194:1207  newExpiration */\n      dup2\n        /* \"Besic/SolidityExample/simplePaymentChannel.sol\":1194:1220  newExpiration > expiration */\n      gt\n        /* \"Besic/SolidityExample/simplePaymentChannel.sol\":1186:1221  require(newExpiration > expiration) */\n      tag_41\n      jumpi\n      0x00\n      dup1\n      revert\n    tag_41:\n        /* \"Besic/SolidityExample/simplePaymentChannel.sol\":1247:1260  newExpiration */\n      dup1\n        /* \"Besic/SolidityExample/simplePaymentChannel.sol\":1234:1244  expiration */\n      0x02\n        /* \"Besic/SolidityExample/simplePaymentChannel.sol\":1234:1260  expiration = newExpiration */\n      dup2\n      swap1\n      sstore\n      pop\n        /* \"Besic/SolidityExample/simplePaymentChannel.sol\":1087:1268  function extend(uint256 newExpiration) external {\r... */\n      pop\n      jump\t// out\n        /* \"Besic/SolidityExample/simplePaymentChannel.sol\":1539:1881  function isValidSignature(uint256 amount, bytes memory signature)\r... */\n    tag_35:\n        /* \"Besic/SolidityExample/simplePaymentChannel.sol\":1655:1659  bool */\n      0x00\n        /* \"Besic/SolidityExample/simplePaymentChannel.sol\":1677:1692  bytes32 message */\n      dup1\n        /* \"Besic/SolidityExample/simplePaymentChannel.sol\":1695:1746  prefixed(keccak256(abi.encodePacked(this, amount))) */\n      tag_43\n        /* \"Besic/SolidityExample/simplePaymentChannel.sol\":1731:1735  this */\n      address\n        /* \"Besic/SolidityExample/simplePaymentChannel.sol\":1737:1743  amount */\n      dup6\n        /* \"Besic/SolidityExample/simplePaymentChannel.sol\":1714:1744  abi.encodePacked(this, amount) */\n      add(0x20, mload(0x40))\n      tag_44\n      swap3\n      swap2\n      swap1\n      tag_45\n      jump\t// in\n    tag_44:\n      mload(0x40)\n      0x20\n      dup2\n      dup4\n      sub\n      sub\n      dup2\n      mstore\n      swap1\n      0x40\n      mstore\n        /* \"Besic/SolidityExample/simplePaymentChannel.sol\":1704:1745  keccak256(abi.encodePacked(this, amount)) */\n      dup1\n      mload\n      swap1\n      0x20\n      add\n      keccak256\n        /* \"Besic/SolidityExample/simplePaymentChannel.sol\":1695:1703  prefixed */\n      tag_46\n        /* \"Besic/SolidityExample/simplePaymentChannel.sol\":1695:1746  prefixed(keccak256(abi.encodePacked(this, amount))) */\n      jump\t// in\n    tag_43:\n        /* \"Besic/SolidityExample/simplePaymentChannel.sol\":1677:1746  bytes32 message = prefixed(keccak256(abi.encodePacked(this, amount))) */\n      swap1\n      pop\n        /* \"Besic/SolidityExample/simplePaymentChannel.sol\":1867:1873  sender */\n      0x00\n      dup1\n      sload\n      swap1\n      0x0100\n      exp\n      swap1\n      div\n      0xffffffffffffffffffffffffffffffffffffffff\n      and\n        /* \"Besic/SolidityExample/simplePaymentChannel.sol\":1830:1873  recoverSigner(message, signature) == sender */\n      0xffffffffffffffffffffffffffffffffffffffff\n      and\n        /* \"Besic/SolidityExample/simplePaymentChannel.sol\":1830:1863  recoverSigner(message, signature) */\n      tag_47\n        /* \"Besic/SolidityExample/simplePaymentChannel.sol\":1844:1851  message */\n      dup3\n        /* \"Besic/SolidityExample/simplePaymentChannel.sol\":1853:1862  signature */\n      dup6\n        /* \"Besic/SolidityExample/simplePaymentChannel.sol\":1830:1843  recoverSigner */\n      tag_48\n        /* \"Besic/SolidityExample/simplePaymentChannel.sol\":1830:1863  recoverSigner(message, signature) */\n      jump\t// in\n    tag_47:\n        /* \"Besic/SolidityExample/simplePaymentChannel.sol\":1830:1873  recoverSigner(message, signature) == sender */\n      0xffffffffffffffffffffffffffffffffffffffff\n      and\n      eq\n        /* \"Besic/SolidityExample/simplePaymentChannel.sol\":1823:1873  return recoverSigner(message, signature) == sender */\n      swap2\n      pop\n      pop\n        /* \"Besic/SolidityExample/simplePaymentChannel.sol\":1539:1881  function isValidSignature(uint256 amount, bytes memory signature)\r... */\n      swap3\n      swap2\n      pop\n      pop\n      jump\t// out\n        /* \"Besic/SolidityExample/simplePaymentChannel.sol\":2841:3000  function prefixed(bytes32 hash) internal pure returns (bytes32) {\r... */\n    tag_46:\n        /* \"Besic/SolidityExample/simplePaymentChannel.sol\":2896:2903  bytes32 */\n      0x00\n        /* \"Besic/SolidityExample/simplePaymentChannel.sol\":2986:2990  hash */\n      dup2\n        /* \"Besic/SolidityExample/simplePaymentChannel.sol\":2933:2991  abi.encodePacked(\"\\x19Ethereum Signed Message:\\n32\", hash) */\n      add(0x20, mload(0x40))\n      tag_50\n      swap2\n      swap1\n      tag_51\n      jump\t// in\n    tag_50:\n      mload(0x40)\n      0x20\n      dup2\n      dup4\n      sub\n      sub\n      dup2\n      mstore\n      swap1\n      0x40\n      mstore\n        /* \"Besic/SolidityExample/simplePaymentChannel.sol\":2923:2992  keccak256(abi.encodePacked(\"\\x19Ethereum Signed Message:\\n32\", hash)) */\n      dup1\n      mload\n      swap1\n      0x20\n      add\n      keccak256\n        /* \"Besic/SolidityExample/simplePaymentChannel.sol\":2916:2992  return keccak256(abi.encodePacked(\"\\x19Ethereum Signed Message:\\n32\", hash)) */\n      swap1\n      pop\n        /* \"Besic/SolidityExample/simplePaymentChannel.sol\":2841:3000  function prefixed(bytes32 hash) internal pure returns (bytes32) {\r... */\n      swap2\n      swap1\n      pop\n      jump\t// out\n        /* \"Besic/SolidityExample/simplePaymentChannel.sol\":2525:2766  function recoverSigner(bytes32 message, bytes memory sig)\r... */\n    tag_48:\n        /* \"Besic/SolidityExample/simplePaymentChannel.sol\":2633:2640  address */\n      0x00\n        /* \"Besic/SolidityExample/simplePaymentChannel.sol\":2659:2666  uint8 v */\n      dup1\n        /* \"Besic/SolidityExample/simplePaymentChannel.sol\":2668:2677  bytes32 r */\n      0x00\n        /* \"Besic/SolidityExample/simplePaymentChannel.sol\":2679:2688  bytes32 s */\n      dup1\n        /* \"Besic/SolidityExample/simplePaymentChannel.sol\":2692:2711  splitSignature(sig) */\n      tag_53\n        /* \"Besic/SolidityExample/simplePaymentChannel.sol\":2707:2710  sig */\n      dup6\n        /* \"Besic/SolidityExample/simplePaymentChannel.sol\":2692:2706  splitSignature */\n      tag_54\n        /* \"Besic/SolidityExample/simplePaymentChannel.sol\":2692:2711  splitSignature(sig) */\n      jump\t// in\n    tag_53:\n        /* \"Besic/SolidityExample/simplePaymentChannel.sol\":2658:2711  (uint8 v, bytes32 r, bytes32 s) = splitSignature(sig) */\n      swap3\n      pop\n      swap3\n      pop\n      swap3\n      pop\n        /* \"Besic/SolidityExample/simplePaymentChannel.sol\":2731:2758  ecrecover(message, v, r, s) */\n      0x01\n        /* \"Besic/SolidityExample/simplePaymentChannel.sol\":2741:2748  message */\n      dup7\n        /* \"Besic/SolidityExample/simplePaymentChannel.sol\":2750:2751  v */\n      dup5\n        /* \"Besic/SolidityExample/simplePaymentChannel.sol\":2753:2754  r */\n      dup5\n        /* \"Besic/SolidityExample/simplePaymentChannel.sol\":2756:2757  s */\n      dup5\n        /* \"Besic/SolidityExample/simplePaymentChannel.sol\":2731:2758  ecrecover(message, v, r, s) */\n      mload(0x40)\n      0x00\n      dup2\n      mstore\n      0x20\n      add\n      0x40\n      mstore\n      mload(0x40)\n      tag_55\n      swap5\n      swap4\n      swap3\n      swap2\n      swap1\n      tag_56\n      jump\t// in\n    tag_55:\n      0x20\n      mload(0x40)\n      0x20\n      dup2\n      sub\n      swap1\n      dup1\n      dup5\n      sub\n      swap1\n      dup6\n      gas\n      staticcall\n      iszero\n      dup1\n      iszero\n      tag_58\n      jumpi\n      returndatasize\n      0x00\n      dup1\n      returndatacopy\n      revert(0x00, returndatasize)\n    tag_58:\n      pop\n      pop\n      pop\n      mload(sub(mload(0x40), 0x20))\n        /* \"Besic/SolidityExample/simplePaymentChannel.sol\":2724:2758  return ecrecover(message, v, r, s) */\n      swap4\n      pop\n      pop\n      pop\n      pop\n        /* \"Besic/SolidityExample/simplePaymentChannel.sol\":2525:2766  function recoverSigner(bytes32 message, bytes memory sig)\r... */\n      swap3\n      swap2\n      pop\n      pop\n      jump\t// out\n        /* \"Besic/SolidityExample/simplePaymentChannel.sol\":2011:2517  function splitSignature(bytes memory sig)\r... */\n    tag_54:\n        /* \"Besic/SolidityExample/simplePaymentChannel.sol\":2103:2110  uint8 v */\n      0x00\n        /* \"Besic/SolidityExample/simplePaymentChannel.sol\":2112:2121  bytes32 r */\n      dup1\n        /* \"Besic/SolidityExample/simplePaymentChannel.sol\":2123:2132  bytes32 s */\n      0x00\n        /* \"Besic/SolidityExample/simplePaymentChannel.sol\":2172:2174  65 */\n      0x41\n        /* \"Besic/SolidityExample/simplePaymentChannel.sol\":2158:2161  sig */\n      dup5\n        /* \"Besic/SolidityExample/simplePaymentChannel.sol\":2158:2168  sig.length */\n      mload\n        /* \"Besic/SolidityExample/simplePaymentChannel.sol\":2158:2174  sig.length == 65 */\n      eq\n        /* \"Besic/SolidityExample/simplePaymentChannel.sol\":2150:2175  require(sig.length == 65) */\n      tag_60\n      jumpi\n      0x00\n      dup1\n      revert\n    tag_60:\n        /* \"Besic/SolidityExample/simplePaymentChannel.sol\":2288:2290  32 */\n      0x20\n        /* \"Besic/SolidityExample/simplePaymentChannel.sol\":2283:2286  sig */\n      dup5\n        /* \"Besic/SolidityExample/simplePaymentChannel.sol\":2279:2291  add(sig, 32) */\n      add\n        /* \"Besic/SolidityExample/simplePaymentChannel.sol\":2273:2292  mload(add(sig, 32)) */\n      mload\n        /* \"Besic/SolidityExample/simplePaymentChannel.sol\":2268:2292  r := mload(add(sig, 32)) */\n      swap2\n      pop\n        /* \"Besic/SolidityExample/simplePaymentChannel.sol\":2358:2360  64 */\n      0x40\n        /* \"Besic/SolidityExample/simplePaymentChannel.sol\":2353:2356  sig */\n      dup5\n        /* \"Besic/SolidityExample/simplePaymentChannel.sol\":2349:2361  add(sig, 64) */\n      add\n        /* \"Besic/SolidityExample/simplePaymentChannel.sol\":2343:2362  mload(add(sig, 64)) */\n      mload\n        /* \"Besic/SolidityExample/simplePaymentChannel.sol\":2338:2362  s := mload(add(sig, 64)) */\n      swap1\n      pop\n        /* \"Besic/SolidityExample/simplePaymentChannel.sol\":2465:2467  96 */\n      0x60\n        /* \"Besic/SolidityExample/simplePaymentChannel.sol\":2460:2463  sig */\n      dup5\n        /* \"Besic/SolidityExample/simplePaymentChannel.sol\":2456:2468  add(sig, 96) */\n      add\n        /* \"Besic/SolidityExample/simplePaymentChannel.sol\":2450:2469  mload(add(sig, 96)) */\n      mload\n        /* \"Besic/SolidityExample/simplePaymentChannel.sol\":2447:2448  0 */\n      0x00\n        /* \"Besic/SolidityExample/simplePaymentChannel.sol\":2442:2470  byte(0, mload(add(sig, 96))) */\n      byte\n        /* \"Besic/SolidityExample/simplePaymentChannel.sol\":2437:2470  v := byte(0, mload(add(sig, 96))) */\n      swap3\n      pop\n        /* \"Besic/SolidityExample/simplePaymentChannel.sol\":2011:2517  function splitSignature(bytes memory sig)\r... */\n      swap2\n      swap4\n      swap1\n      swap3\n      pop\n      jump\t// out\n        /* \"#utility.yul\":7:417   */\n    tag_62:\n        /* \"#utility.yul\":84:89   */\n      0x00\n        /* \"#utility.yul\":109:174   */\n      tag_64\n        /* \"#utility.yul\":125:173   */\n      tag_65\n        /* \"#utility.yul\":166:172   */\n      dup5\n        /* \"#utility.yul\":125:173   */\n      tag_66\n      jump\t// in\n    tag_65:\n        /* \"#utility.yul\":109:174   */\n      tag_67\n      jump\t// in\n    tag_64:\n        /* \"#utility.yul\":100:174   */\n      swap1\n      pop\n        /* \"#utility.yul\":197:203   */\n      dup3\n        /* \"#utility.yul\":190:195   */\n      dup2\n        /* \"#utility.yul\":183:204   */\n      mstore\n        /* \"#utility.yul\":235:239   */\n      0x20\n        /* \"#utility.yul\":228:233   */\n      dup2\n        /* \"#utility.yul\":224:240   */\n      add\n        /* \"#utility.yul\":273:276   */\n      dup5\n        /* \"#utility.yul\":264:270   */\n      dup5\n        /* \"#utility.yul\":259:262   */\n      dup5\n        /* \"#utility.yul\":255:271   */\n      add\n        /* \"#utility.yul\":252:277   */\n      gt\n        /* \"#utility.yul\":249:361   */\n      iszero\n      tag_68\n      jumpi\n        /* \"#utility.yul\":280:359   */\n      tag_69\n      tag_70\n      jump\t// in\n    tag_69:\n        /* \"#utility.yul\":249:361   */\n    tag_68:\n        /* \"#utility.yul\":370:411   */\n      tag_71\n        /* \"#utility.yul\":404:410   */\n      dup5\n        /* \"#utility.yul\":399:402   */\n      dup3\n        /* \"#utility.yul\":394:397   */\n      dup6\n        /* \"#utility.yul\":370:411   */\n      tag_72\n      jump\t// in\n    tag_71:\n        /* \"#utility.yul\":90:417   */\n      pop\n        /* \"#utility.yul\":7:417   */\n      swap4\n      swap3\n      pop\n      pop\n      pop\n      jump\t// out\n        /* \"#utility.yul\":436:774   */\n    tag_73:\n        /* \"#utility.yul\":491:496   */\n      0x00\n        /* \"#utility.yul\":540:543   */\n      dup3\n        /* \"#utility.yul\":533:537   */\n      0x1f\n        /* \"#utility.yul\":525:531   */\n      dup4\n        /* \"#utility.yul\":521:538   */\n      add\n        /* \"#utility.yul\":517:544   */\n      slt\n        /* \"#utility.yul\":507:629   */\n      tag_75\n      jumpi\n        /* \"#utility.yul\":548:627   */\n      tag_76\n      tag_77\n      jump\t// in\n    tag_76:\n        /* \"#utility.yul\":507:629   */\n    tag_75:\n        /* \"#utility.yul\":665:671   */\n      dup2\n        /* \"#utility.yul\":652:672   */\n      calldataload\n        /* \"#utility.yul\":690:768   */\n      tag_78\n        /* \"#utility.yul\":764:767   */\n      dup5\n        /* \"#utility.yul\":756:762   */\n      dup3\n        /* \"#utility.yul\":749:753   */\n      0x20\n        /* \"#utility.yul\":741:747   */\n      dup7\n        /* \"#utility.yul\":737:754   */\n      add\n        /* \"#utility.yul\":690:768   */\n      tag_62\n      jump\t// in\n    tag_78:\n        /* \"#utility.yul\":681:768   */\n      swap2\n      pop\n        /* \"#utility.yul\":497:774   */\n      pop\n        /* \"#utility.yul\":436:774   */\n      swap3\n      swap2\n      pop\n      pop\n      jump\t// out\n        /* \"#utility.yul\":780:919   */\n    tag_79:\n        /* \"#utility.yul\":826:831   */\n      0x00\n        /* \"#utility.yul\":864:870   */\n      dup2\n        /* \"#utility.yul\":851:871   */\n      calldataload\n        /* \"#utility.yul\":842:871   */\n      swap1\n      pop\n        /* \"#utility.yul\":880:913   */\n      tag_81\n        /* \"#utility.yul\":907:912   */\n      dup2\n        /* \"#utility.yul\":880:913   */\n      tag_82\n      jump\t// in\n    tag_81:\n        /* \"#utility.yul\":780:919   */\n      swap3\n      swap2\n      pop\n      pop\n      jump\t// out\n        /* \"#utility.yul\":925:1254   */\n    tag_28:\n        /* \"#utility.yul\":984:990   */\n      0x00\n        /* \"#utility.yul\":1033:1035   */\n      0x20\n        /* \"#utility.yul\":1021:1030   */\n      dup3\n        /* \"#utility.yul\":1012:1019   */\n      dup5\n        /* \"#utility.yul\":1008:1031   */\n      sub\n        /* \"#utility.yul\":1004:1036   */\n      slt\n        /* \"#utility.yul\":1001:1120   */\n      iszero\n      tag_84\n      jumpi\n        /* \"#utility.yul\":1039:1118   */\n      tag_85\n      tag_86\n      jump\t// in\n    tag_85:\n        /* \"#utility.yul\":1001:1120   */\n    tag_84:\n        /* \"#utility.yul\":1159:1160   */\n      0x00\n        /* \"#utility.yul\":1184:1237   */\n      tag_87\n        /* \"#utility.yul\":1229:1236   */\n      dup5\n        /* \"#utility.yul\":1220:1226   */\n      dup3\n        /* \"#utility.yul\":1209:1218   */\n      dup6\n        /* \"#utility.yul\":1205:1227   */\n      add\n        /* \"#utility.yul\":1184:1237   */\n      tag_79\n      jump\t// in\n    tag_87:\n        /* \"#utility.yul\":1174:1237   */\n      swap2\n      pop\n        /* \"#utility.yul\":1130:1247   */\n      pop\n        /* \"#utility.yul\":925:1254   */\n      swap3\n      swap2\n      pop\n      pop\n      jump\t// out\n        /* \"#utility.yul\":1260:1912   */\n    tag_13:\n        /* \"#utility.yul\":1337:1343   */\n      0x00\n        /* \"#utility.yul\":1345:1351   */\n      dup1\n        /* \"#utility.yul\":1394:1396   */\n      0x40\n        /* \"#utility.yul\":1382:1391   */\n      dup4\n        /* \"#utility.yul\":1373:1380   */\n      dup6\n        /* \"#utility.yul\":1369:1392   */\n      sub\n        /* \"#utility.yul\":1365:1397   */\n      slt\n        /* \"#utility.yul\":1362:1481   */\n      iszero\n      tag_89\n      jumpi\n        /* \"#utility.yul\":1400:1479   */\n      tag_90\n      tag_86\n      jump\t// in\n    tag_90:\n        /* \"#utility.yul\":1362:1481   */\n    tag_89:\n        /* \"#utility.yul\":1520:1521   */\n      0x00\n        /* \"#utility.yul\":1545:1598   */\n      tag_91\n        /* \"#utility.yul\":1590:1597   */\n      dup6\n        /* \"#utility.yul\":1581:1587   */\n      dup3\n        /* \"#utility.yul\":1570:1579   */\n      dup7\n        /* \"#utility.yul\":1566:1588   */\n      add\n        /* \"#utility.yul\":1545:1598   */\n      tag_79\n      jump\t// in\n    tag_91:\n        /* \"#utility.yul\":1535:1598   */\n      swap3\n      pop\n        /* \"#utility.yul\":1491:1608   */\n      pop\n        /* \"#utility.yul\":1675:1677   */\n      0x20\n        /* \"#utility.yul\":1664:1673   */\n      dup4\n        /* \"#utility.yul\":1660:1678   */\n      add\n        /* \"#utility.yul\":1647:1679   */\n      calldataload\n        /* \"#utility.yul\":1706:1724   */\n      0xffffffffffffffff\n        /* \"#utility.yul\":1698:1704   */\n      dup2\n        /* \"#utility.yul\":1695:1725   */\n      gt\n        /* \"#utility.yul\":1692:1809   */\n      iszero\n      tag_92\n      jumpi\n        /* \"#utility.yul\":1728:1807   */\n      tag_93\n      tag_94\n      jump\t// in\n    tag_93:\n        /* \"#utility.yul\":1692:1809   */\n    tag_92:\n        /* \"#utility.yul\":1833:1895   */\n      tag_95\n        /* \"#utility.yul\":1887:1894   */\n      dup6\n        /* \"#utility.yul\":1878:1884   */\n      dup3\n        /* \"#utility.yul\":1867:1876   */\n      dup7\n        /* \"#utility.yul\":1863:1885   */\n      add\n        /* \"#utility.yul\":1833:1895   */\n      tag_73\n      jump\t// in\n    tag_95:\n        /* \"#utility.yul\":1823:1895   */\n      swap2\n      pop\n        /* \"#utility.yul\":1618:1905   */\n      pop\n        /* \"#utility.yul\":1260:1912   */\n      swap3\n      pop\n      swap3\n      swap1\n      pop\n      jump\t// out\n        /* \"#utility.yul\":1918:2060   */\n    tag_96:\n        /* \"#utility.yul\":2021:2053   */\n      tag_98\n        /* \"#utility.yul\":2047:2052   */\n      dup2\n        /* \"#utility.yul\":2021:2053   */\n      tag_99\n      jump\t// in\n    tag_98:\n        /* \"#utility.yul\":2016:2019   */\n      dup3\n        /* \"#utility.yul\":2009:2054   */\n      mstore\n        /* \"#utility.yul\":1918:2060   */\n      pop\n      pop\n      jump\t// out\n        /* \"#utility.yul\":2066:2184   */\n    tag_100:\n        /* \"#utility.yul\":2153:2177   */\n      tag_102\n        /* \"#utility.yul\":2171:2176   */\n      dup2\n        /* \"#utility.yul\":2153:2177   */\n      tag_103\n      jump\t// in\n    tag_102:\n        /* \"#utility.yul\":2148:2151   */\n      dup3\n        /* \"#utility.yul\":2141:2178   */\n      mstore\n        /* \"#utility.yul\":2066:2184   */\n      pop\n      pop\n      jump\t// out\n        /* \"#utility.yul\":2190:2347   */\n    tag_104:\n        /* \"#utility.yul\":2295:2340   */\n      tag_106\n        /* \"#utility.yul\":2315:2339   */\n      tag_107\n        /* \"#utility.yul\":2333:2338   */\n      dup3\n        /* \"#utility.yul\":2315:2339   */\n      tag_103\n      jump\t// in\n    tag_107:\n        /* \"#utility.yul\":2295:2340   */\n      tag_108\n      jump\t// in\n    tag_106:\n        /* \"#utility.yul\":2290:2293   */\n      dup3\n        /* \"#utility.yul\":2283:2341   */\n      mstore\n        /* \"#utility.yul\":2190:2347   */\n      pop\n      pop\n      jump\t// out\n        /* \"#utility.yul\":2353:2579   */\n    tag_109:\n        /* \"#utility.yul\":2486:2572   */\n      tag_111\n        /* \"#utility.yul\":2506:2571   */\n      tag_112\n        /* \"#utility.yul\":2565:2570   */\n      dup3\n        /* \"#utility.yul\":2506:2571   */\n      tag_113\n      jump\t// in\n    tag_112:\n        /* \"#utility.yul\":2486:2572   */\n      tag_114\n      jump\t// in\n    tag_111:\n        /* \"#utility.yul\":2481:2484   */\n      dup3\n        /* \"#utility.yul\":2474:2573   */\n      mstore\n        /* \"#utility.yul\":2353:2579   */\n      pop\n      pop\n      jump\t// out\n        /* \"#utility.yul\":2585:2987   */\n    tag_115:\n        /* \"#utility.yul\":2745:2748   */\n      0x00\n        /* \"#utility.yul\":2766:2851   */\n      tag_117\n        /* \"#utility.yul\":2848:2850   */\n      0x1c\n        /* \"#utility.yul\":2843:2846   */\n      dup4\n        /* \"#utility.yul\":2766:2851   */\n      tag_118\n      jump\t// in\n    tag_117:\n        /* \"#utility.yul\":2759:2851   */\n      swap2\n      pop\n        /* \"#utility.yul\":2860:2953   */\n      tag_119\n        /* \"#utility.yul\":2949:2952   */\n      dup3\n        /* \"#utility.yul\":2860:2953   */\n      tag_120\n      jump\t// in\n    tag_119:\n        /* \"#utility.yul\":2978:2980   */\n      0x1c\n        /* \"#utility.yul\":2973:2976   */\n      dup3\n        /* \"#utility.yul\":2969:2981   */\n      add\n        /* \"#utility.yul\":2962:2981   */\n      swap1\n      pop\n        /* \"#utility.yul\":2585:2987   */\n      swap2\n      swap1\n      pop\n      jump\t// out\n        /* \"#utility.yul\":2993:3111   */\n    tag_121:\n        /* \"#utility.yul\":3080:3104   */\n      tag_123\n        /* \"#utility.yul\":3098:3103   */\n      dup2\n        /* \"#utility.yul\":3080:3104   */\n      tag_124\n      jump\t// in\n    tag_123:\n        /* \"#utility.yul\":3075:3078   */\n      dup3\n        /* \"#utility.yul\":3068:3105   */\n      mstore\n        /* \"#utility.yul\":2993:3111   */\n      pop\n      pop\n      jump\t// out\n        /* \"#utility.yul\":3117:3274   */\n    tag_125:\n        /* \"#utility.yul\":3222:3267   */\n      tag_127\n        /* \"#utility.yul\":3242:3266   */\n      tag_128\n        /* \"#utility.yul\":3260:3265   */\n      dup3\n        /* \"#utility.yul\":3242:3266   */\n      tag_124\n      jump\t// in\n    tag_128:\n        /* \"#utility.yul\":3222:3267   */\n      tag_129\n      jump\t// in\n    tag_127:\n        /* \"#utility.yul\":3217:3220   */\n      dup3\n        /* \"#utility.yul\":3210:3268   */\n      mstore\n        /* \"#utility.yul\":3117:3274   */\n      pop\n      pop\n      jump\t// out\n        /* \"#utility.yul\":3280:3392   */\n    tag_130:\n        /* \"#utility.yul\":3363:3385   */\n      tag_132\n        /* \"#utility.yul\":3379:3384   */\n      dup2\n        /* \"#utility.yul\":3363:3385   */\n      tag_133\n      jump\t// in\n    tag_132:\n        /* \"#utility.yul\":3358:3361   */\n      dup3\n        /* \"#utility.yul\":3351:3386   */\n      mstore\n        /* \"#utility.yul\":3280:3392   */\n      pop\n      pop\n      jump\t// out\n        /* \"#utility.yul\":3398:3851   */\n    tag_45:\n        /* \"#utility.yul\":3566:3569   */\n      0x00\n        /* \"#utility.yul\":3581:3684   */\n      tag_135\n        /* \"#utility.yul\":3680:3683   */\n      dup3\n        /* \"#utility.yul\":3671:3677   */\n      dup6\n        /* \"#utility.yul\":3581:3684   */\n      tag_109\n      jump\t// in\n    tag_135:\n        /* \"#utility.yul\":3709:3711   */\n      0x14\n        /* \"#utility.yul\":3704:3707   */\n      dup3\n        /* \"#utility.yul\":3700:3712   */\n      add\n        /* \"#utility.yul\":3693:3712   */\n      swap2\n      pop\n        /* \"#utility.yul\":3722:3797   */\n      tag_136\n        /* \"#utility.yul\":3793:3796   */\n      dup3\n        /* \"#utility.yul\":3784:3790   */\n      dup5\n        /* \"#utility.yul\":3722:3797   */\n      tag_125\n      jump\t// in\n    tag_136:\n        /* \"#utility.yul\":3822:3824   */\n      0x20\n        /* \"#utility.yul\":3817:3820   */\n      dup3\n        /* \"#utility.yul\":3813:3825   */\n      add\n        /* \"#utility.yul\":3806:3825   */\n      swap2\n      pop\n        /* \"#utility.yul\":3842:3845   */\n      dup2\n        /* \"#utility.yul\":3835:3845   */\n      swap1\n      pop\n        /* \"#utility.yul\":3398:3851   */\n      swap4\n      swap3\n      pop\n      pop\n      pop\n      jump\t// out\n        /* \"#utility.yul\":3857:4379   */\n    tag_51:\n        /* \"#utility.yul\":4070:4073   */\n      0x00\n        /* \"#utility.yul\":4092:4240   */\n      tag_138\n        /* \"#utility.yul\":4236:4239   */\n      dup3\n        /* \"#utility.yul\":4092:4240   */\n      tag_115\n      jump\t// in\n    tag_138:\n        /* \"#utility.yul\":4085:4240   */\n      swap2\n      pop\n        /* \"#utility.yul\":4250:4325   */\n      tag_139\n        /* \"#utility.yul\":4321:4324   */\n      dup3\n        /* \"#utility.yul\":4312:4318   */\n      dup5\n        /* \"#utility.yul\":4250:4325   */\n      tag_104\n      jump\t// in\n    tag_139:\n        /* \"#utility.yul\":4350:4352   */\n      0x20\n        /* \"#utility.yul\":4345:4348   */\n      dup3\n        /* \"#utility.yul\":4341:4353   */\n      add\n        /* \"#utility.yul\":4334:4353   */\n      swap2\n      pop\n        /* \"#utility.yul\":4370:4373   */\n      dup2\n        /* \"#utility.yul\":4363:4373   */\n      swap1\n      pop\n        /* \"#utility.yul\":3857:4379   */\n      swap3\n      swap2\n      pop\n      pop\n      jump\t// out\n        /* \"#utility.yul\":4385:4639   */\n    tag_22:\n        /* \"#utility.yul\":4494:4498   */\n      0x00\n        /* \"#utility.yul\":4532:4534   */\n      0x20\n        /* \"#utility.yul\":4521:4530   */\n      dup3\n        /* \"#utility.yul\":4517:4535   */\n      add\n        /* \"#utility.yul\":4509:4535   */\n      swap1\n      pop\n        /* \"#utility.yul\":4545:4632   */\n      tag_141\n        /* \"#utility.yul\":4629:4630   */\n      0x00\n        /* \"#utility.yul\":4618:4627   */\n      dup4\n        /* \"#utility.yul\":4614:4631   */\n      add\n        /* \"#utility.yul\":4605:4611   */\n      dup5\n        /* \"#utility.yul\":4545:4632   */\n      tag_96\n      jump\t// in\n    tag_141:\n        /* \"#utility.yul\":4385:4639   */\n      swap3\n      swap2\n      pop\n      pop\n      jump\t// out\n        /* \"#utility.yul\":4645:5190   */\n    tag_56:\n        /* \"#utility.yul\":4818:4822   */\n      0x00\n        /* \"#utility.yul\":4856:4859   */\n      0x80\n        /* \"#utility.yul\":4845:4854   */\n      dup3\n        /* \"#utility.yul\":4841:4860   */\n      add\n        /* \"#utility.yul\":4833:4860   */\n      swap1\n      pop\n        /* \"#utility.yul\":4870:4941   */\n      tag_143\n        /* \"#utility.yul\":4938:4939   */\n      0x00\n        /* \"#utility.yul\":4927:4936   */\n      dup4\n        /* \"#utility.yul\":4923:4940   */\n      add\n        /* \"#utility.yul\":4914:4920   */\n      dup8\n        /* \"#utility.yul\":4870:4941   */\n      tag_100\n      jump\t// in\n    tag_143:\n        /* \"#utility.yul\":4951:5019   */\n      tag_144\n        /* \"#utility.yul\":5015:5017   */\n      0x20\n        /* \"#utility.yul\":5004:5013   */\n      dup4\n        /* \"#utility.yul\":5000:5018   */\n      add\n        /* \"#utility.yul\":4991:4997   */\n      dup7\n        /* \"#utility.yul\":4951:5019   */\n      tag_130\n      jump\t// in\n    tag_144:\n        /* \"#utility.yul\":5029:5101   */\n      tag_145\n        /* \"#utility.yul\":5097:5099   */\n      0x40\n        /* \"#utility.yul\":5086:5095   */\n      dup4\n        /* \"#utility.yul\":5082:5100   */\n      add\n        /* \"#utility.yul\":5073:5079   */\n      dup6\n        /* \"#utility.yul\":5029:5101   */\n      tag_100\n      jump\t// in\n    tag_145:\n        /* \"#utility.yul\":5111:5183   */\n      tag_146\n        /* \"#utility.yul\":5179:5181   */\n      0x60\n        /* \"#utility.yul\":5168:5177   */\n      dup4\n        /* \"#utility.yul\":5164:5182   */\n      add\n        /* \"#utility.yul\":5155:5161   */\n      dup5\n        /* \"#utility.yul\":5111:5183   */\n      tag_100\n      jump\t// in\n    tag_146:\n        /* \"#utility.yul\":4645:5190   */\n      swap6\n      swap5\n      pop\n      pop\n      pop\n      pop\n      pop\n      jump\t// out\n        /* \"#utility.yul\":5196:5418   */\n    tag_18:\n        /* \"#utility.yul\":5289:5293   */\n      0x00\n        /* \"#utility.yul\":5327:5329   */\n      0x20\n        /* \"#utility.yul\":5316:5325   */\n      dup3\n        /* \"#utility.yul\":5312:5330   */\n      add\n        /* \"#utility.yul\":5304:5330   */\n      swap1\n      pop\n        /* \"#utility.yul\":5340:5411   */\n      tag_148\n        /* \"#utility.yul\":5408:5409   */\n      0x00\n        /* \"#utility.yul\":5397:5406   */\n      dup4\n        /* \"#utility.yul\":5393:5410   */\n      add\n        /* \"#utility.yul\":5384:5390   */\n      dup5\n        /* \"#utility.yul\":5340:5411   */\n      tag_121\n      jump\t// in\n    tag_148:\n        /* \"#utility.yul\":5196:5418   */\n      swap3\n      swap2\n      pop\n      pop\n      jump\t// out\n        /* \"#utility.yul\":5424:5553   */\n    tag_67:\n        /* \"#utility.yul\":5458:5464   */\n      0x00\n        /* \"#utility.yul\":5485:5505   */\n      tag_150\n      tag_151\n      jump\t// in\n    tag_150:\n        /* \"#utility.yul\":5475:5505   */\n      swap1\n      pop\n        /* \"#utility.yul\":5514:5547   */\n      tag_152\n        /* \"#utility.yul\":5542:5546   */\n      dup3\n        /* \"#utility.yul\":5534:5540   */\n      dup3\n        /* \"#utility.yul\":5514:5547   */\n      tag_153\n      jump\t// in\n    tag_152:\n        /* \"#utility.yul\":5424:5553   */\n      swap2\n      swap1\n      pop\n      jump\t// out\n        /* \"#utility.yul\":5559:5634   */\n    tag_151:\n        /* \"#utility.yul\":5592:5598   */\n      0x00\n        /* \"#utility.yul\":5625:5627   */\n      0x40\n        /* \"#utility.yul\":5619:5628   */\n      mload\n        /* \"#utility.yul\":5609:5628   */\n      swap1\n      pop\n        /* \"#utility.yul\":5559:5634   */\n      swap1\n      jump\t// out\n        /* \"#utility.yul\":5640:5947   */\n    tag_66:\n        /* \"#utility.yul\":5701:5705   */\n      0x00\n        /* \"#utility.yul\":5791:5809   */\n      0xffffffffffffffff\n        /* \"#utility.yul\":5783:5789   */\n      dup3\n        /* \"#utility.yul\":5780:5810   */\n      gt\n        /* \"#utility.yul\":5777:5833   */\n      iszero\n      tag_156\n      jumpi\n        /* \"#utility.yul\":5813:5831   */\n      tag_157\n      tag_158\n      jump\t// in\n    tag_157:\n        /* \"#utility.yul\":5777:5833   */\n    tag_156:\n        /* \"#utility.yul\":5851:5880   */\n      tag_159\n        /* \"#utility.yul\":5873:5879   */\n      dup3\n        /* \"#utility.yul\":5851:5880   */\n      tag_160\n      jump\t// in\n    tag_159:\n        /* \"#utility.yul\":5843:5880   */\n      swap1\n      pop\n        /* \"#utility.yul\":5935:5939   */\n      0x20\n        /* \"#utility.yul\":5929:5933   */\n      dup2\n        /* \"#utility.yul\":5925:5940   */\n      add\n        /* \"#utility.yul\":5917:5940   */\n      swap1\n      pop\n        /* \"#utility.yul\":5640:5947   */\n      swap2\n      swap1\n      pop\n      jump\t// out\n        /* \"#utility.yul\":5953:6101   */\n    tag_118:\n        /* \"#utility.yul\":6055:6066   */\n      0x00\n        /* \"#utility.yul\":6092:6095   */\n      dup2\n        /* \"#utility.yul\":6077:6095   */\n      swap1\n      pop\n        /* \"#utility.yul\":5953:6101   */\n      swap3\n      swap2\n      pop\n      pop\n      jump\t// out\n        /* \"#utility.yul\":6107:6211   */\n    tag_99:\n        /* \"#utility.yul\":6152:6159   */\n      0x00\n        /* \"#utility.yul\":6181:6205   */\n      tag_163\n        /* \"#utility.yul\":6199:6204   */\n      dup3\n        /* \"#utility.yul\":6181:6205   */\n      tag_164\n      jump\t// in\n    tag_163:\n        /* \"#utility.yul\":6170:6205   */\n      swap1\n      pop\n        /* \"#utility.yul\":6107:6211   */\n      swap2\n      swap1\n      pop\n      jump\t// out\n        /* \"#utility.yul\":6217:6294   */\n    tag_103:\n        /* \"#utility.yul\":6254:6261   */\n      0x00\n        /* \"#utility.yul\":6283:6288   */\n      dup2\n        /* \"#utility.yul\":6272:6288   */\n      swap1\n      pop\n        /* \"#utility.yul\":6217:6294   */\n      swap2\n      swap1\n      pop\n      jump\t// out\n        /* \"#utility.yul\":6300:6426   */\n    tag_164:\n        /* \"#utility.yul\":6337:6344   */\n      0x00\n        /* \"#utility.yul\":6377:6419   */\n      0xffffffffffffffffffffffffffffffffffffffff\n        /* \"#utility.yul\":6370:6375   */\n      dup3\n        /* \"#utility.yul\":6366:6420   */\n      and\n        /* \"#utility.yul\":6355:6420   */\n      swap1\n      pop\n        /* \"#utility.yul\":6300:6426   */\n      swap2\n      swap1\n      pop\n      jump\t// out\n        /* \"#utility.yul\":6432:6509   */\n    tag_124:\n        /* \"#utility.yul\":6469:6476   */\n      0x00\n        /* \"#utility.yul\":6498:6503   */\n      dup2\n        /* \"#utility.yul\":6487:6503   */\n      swap1\n      pop\n        /* \"#utility.yul\":6432:6509   */\n      swap2\n      swap1\n      pop\n      jump\t// out\n        /* \"#utility.yul\":6515:6601   */\n    tag_133:\n        /* \"#utility.yul\":6550:6557   */\n      0x00\n        /* \"#utility.yul\":6590:6594   */\n      0xff\n        /* \"#utility.yul\":6583:6588   */\n      dup3\n        /* \"#utility.yul\":6579:6595   */\n      and\n        /* \"#utility.yul\":6568:6595   */\n      swap1\n      pop\n        /* \"#utility.yul\":6515:6601   */\n      swap2\n      swap1\n      pop\n      jump\t// out\n        /* \"#utility.yul\":6607:6761   */\n    tag_113:\n        /* \"#utility.yul\":6685:6694   */\n      0x00\n        /* \"#utility.yul\":6718:6755   */\n      tag_170\n        /* \"#utility.yul\":6749:6754   */\n      dup3\n        /* \"#utility.yul\":6718:6755   */\n      tag_171\n      jump\t// in\n    tag_170:\n        /* \"#utility.yul\":6705:6755   */\n      swap1\n      pop\n        /* \"#utility.yul\":6607:6761   */\n      swap2\n      swap1\n      pop\n      jump\t// out\n        /* \"#utility.yul\":6767:6893   */\n    tag_171:\n        /* \"#utility.yul\":6817:6826   */\n      0x00\n        /* \"#utility.yul\":6850:6887   */\n      tag_173\n        /* \"#utility.yul\":6881:6886   */\n      dup3\n        /* \"#utility.yul\":6850:6887   */\n      tag_174\n      jump\t// in\n    tag_173:\n        /* \"#utility.yul\":6837:6887   */\n      swap1\n      pop\n        /* \"#utility.yul\":6767:6893   */\n      swap2\n      swap1\n      pop\n      jump\t// out\n        /* \"#utility.yul\":6899:7012   */\n    tag_174:\n        /* \"#utility.yul\":6949:6958   */\n      0x00\n        /* \"#utility.yul\":6982:7006   */\n      tag_176\n        /* \"#utility.yul\":7000:7005   */\n      dup3\n        /* \"#utility.yul\":6982:7006   */\n      tag_164\n      jump\t// in\n    tag_176:\n        /* \"#utility.yul\":6969:7006   */\n      swap1\n      pop\n        /* \"#utility.yul\":6899:7012   */\n      swap2\n      swap1\n      pop\n      jump\t// out\n        /* \"#utility.yul\":7018:7172   */\n    tag_72:\n        /* \"#utility.yul\":7102:7108   */\n      dup3\n        /* \"#utility.yul\":7097:7100   */\n      dup2\n        /* \"#utility.yul\":7092:7095   */\n      dup4\n        /* \"#utility.yul\":7079:7109   */\n      calldatacopy\n        /* \"#utility.yul\":7164:7165   */\n      0x00\n        /* \"#utility.yul\":7155:7161   */\n      dup4\n        /* \"#utility.yul\":7150:7153   */\n      dup4\n        /* \"#utility.yul\":7146:7162   */\n      add\n        /* \"#utility.yul\":7139:7166   */\n      mstore\n        /* \"#utility.yul\":7018:7172   */\n      pop\n      pop\n      pop\n      jump\t// out\n        /* \"#utility.yul\":7178:7459   */\n    tag_153:\n        /* \"#utility.yul\":7261:7288   */\n      tag_179\n        /* \"#utility.yul\":7283:7287   */\n      dup3\n        /* \"#utility.yul\":7261:7288   */\n      tag_160\n      jump\t// in\n    tag_179:\n        /* \"#utility.yul\":7253:7259   */\n      dup2\n        /* \"#utility.yul\":7249:7289   */\n      add\n        /* \"#utility.yul\":7391:7397   */\n      dup2\n        /* \"#utility.yul\":7379:7389   */\n      dup2\n        /* \"#utility.yul\":7376:7398   */\n      lt\n        /* \"#utility.yul\":7355:7373   */\n      0xffffffffffffffff\n        /* \"#utility.yul\":7343:7353   */\n      dup3\n        /* \"#utility.yul\":7340:7374   */\n      gt\n        /* \"#utility.yul\":7337:7399   */\n      or\n        /* \"#utility.yul\":7334:7422   */\n      iszero\n      tag_180\n      jumpi\n        /* \"#utility.yul\":7402:7420   */\n      tag_181\n      tag_158\n      jump\t// in\n    tag_181:\n        /* \"#utility.yul\":7334:7422   */\n    tag_180:\n        /* \"#utility.yul\":7442:7452   */\n      dup1\n        /* \"#utility.yul\":7438:7440   */\n      0x40\n        /* \"#utility.yul\":7431:7453   */\n      mstore\n        /* \"#utility.yul\":7221:7459   */\n      pop\n        /* \"#utility.yul\":7178:7459   */\n      pop\n      pop\n      jump\t// out\n        /* \"#utility.yul\":7465:7565   */\n    tag_114:\n        /* \"#utility.yul\":7504:7511   */\n      0x00\n        /* \"#utility.yul\":7533:7559   */\n      tag_183\n        /* \"#utility.yul\":7553:7558   */\n      dup3\n        /* \"#utility.yul\":7533:7559   */\n      tag_184\n      jump\t// in\n    tag_183:\n        /* \"#utility.yul\":7522:7559   */\n      swap1\n      pop\n        /* \"#utility.yul\":7465:7565   */\n      swap2\n      swap1\n      pop\n      jump\t// out\n        /* \"#utility.yul\":7571:7650   */\n    tag_108:\n        /* \"#utility.yul\":7610:7617   */\n      0x00\n        /* \"#utility.yul\":7639:7644   */\n      dup2\n        /* \"#utility.yul\":7628:7644   */\n      swap1\n      pop\n        /* \"#utility.yul\":7571:7650   */\n      swap2\n      swap1\n      pop\n      jump\t// out\n        /* \"#utility.yul\":7656:7750   */\n    tag_184:\n        /* \"#utility.yul\":7695:7702   */\n      0x00\n        /* \"#utility.yul\":7724:7744   */\n      tag_187\n        /* \"#utility.yul\":7738:7743   */\n      dup3\n        /* \"#utility.yul\":7724:7744   */\n      tag_188\n      jump\t// in\n    tag_187:\n        /* \"#utility.yul\":7713:7744   */\n      swap1\n      pop\n        /* \"#utility.yul\":7656:7750   */\n      swap2\n      swap1\n      pop\n      jump\t// out\n        /* \"#utility.yul\":7756:7835   */\n    tag_129:\n        /* \"#utility.yul\":7795:7802   */\n      0x00\n        /* \"#utility.yul\":7824:7829   */\n      dup2\n        /* \"#utility.yul\":7813:7829   */\n      swap1\n      pop\n        /* \"#utility.yul\":7756:7835   */\n      swap2\n      swap1\n      pop\n      jump\t// out\n        /* \"#utility.yul\":7841:8021   */\n    tag_158:\n        /* \"#utility.yul\":7889:7966   */\n      0x4e487b7100000000000000000000000000000000000000000000000000000000\n        /* \"#utility.yul\":7886:7887   */\n      0x00\n        /* \"#utility.yul\":7879:7967   */\n      mstore\n        /* \"#utility.yul\":7986:7990   */\n      0x41\n        /* \"#utility.yul\":7983:7984   */\n      0x04\n        /* \"#utility.yul\":7976:7991   */\n      mstore\n        /* \"#utility.yul\":8010:8014   */\n      0x24\n        /* \"#utility.yul\":8007:8008   */\n      0x00\n        /* \"#utility.yul\":8000:8015   */\n      revert\n        /* \"#utility.yul\":8027:8144   */\n    tag_77:\n        /* \"#utility.yul\":8136:8137   */\n      0x00\n        /* \"#utility.yul\":8133:8134   */\n      dup1\n        /* \"#utility.yul\":8126:8138   */\n      revert\n        /* \"#utility.yul\":8150:8267   */\n    tag_70:\n        /* \"#utility.yul\":8259:8260   */\n      0x00\n        /* \"#utility.yul\":8256:8257   */\n      dup1\n        /* \"#utility.yul\":8249:8261   */\n      revert\n        /* \"#utility.yul\":8273:8390   */\n    tag_94:\n        /* \"#utility.yul\":8382:8383   */\n      0x00\n        /* \"#utility.yul\":8379:8380   */\n      dup1\n        /* \"#utility.yul\":8372:8384   */\n      revert\n        /* \"#utility.yul\":8396:8513   */\n    tag_86:\n        /* \"#utility.yul\":8505:8506   */\n      0x00\n        /* \"#utility.yul\":8502:8503   */\n      dup1\n        /* \"#utility.yul\":8495:8507   */\n      revert\n        /* \"#utility.yul\":8519:8621   */\n    tag_160:\n        /* \"#utility.yul\":8560:8566   */\n      0x00\n        /* \"#utility.yul\":8611:8613   */\n      0x1f\n        /* \"#utility.yul\":8607:8614   */\n      not\n        /* \"#utility.yul\":8602:8604   */\n      0x1f\n        /* \"#utility.yul\":8595:8600   */\n      dup4\n        /* \"#utility.yul\":8591:8605   */\n      add\n        /* \"#utility.yul\":8587:8615   */\n      and\n        /* \"#utility.yul\":8577:8615   */\n      swap1\n      pop\n        /* \"#utility.yul\":8519:8621   */\n      swap2\n      swap1\n      pop\n      jump\t// out\n        /* \"#utility.yul\":8627:8721   */\n    tag_188:\n        /* \"#utility.yul\":8660:8668   */\n      0x00\n        /* \"#utility.yul\":8708:8713   */\n      dup2\n        /* \"#utility.yul\":8704:8706   */\n      0x60\n        /* \"#utility.yul\":8700:8714   */\n      shl\n        /* \"#utility.yul\":8679:8714   */\n      swap1\n      pop\n        /* \"#utility.yul\":8627:8721   */\n      swap2\n      swap1\n      pop\n      jump\t// out\n        /* \"#utility.yul\":8727:8941   */\n    tag_120:\n        /* \"#utility.yul\":8867:8933   */\n      0x19457468657265756d205369676e6564204d6573736167653a0a333200000000\n        /* \"#utility.yul\":8863:8864   */\n      0x00\n        /* \"#utility.yul\":8855:8861   */\n      dup3\n        /* \"#utility.yul\":8851:8865   */\n      add\n        /* \"#utility.yul\":8844:8934   */\n      mstore\n        /* \"#utility.yul\":8727:8941   */\n      pop\n      jump\t// out\n        /* \"#utility.yul\":8947:9069   */\n    tag_82:\n        /* \"#utility.yul\":9020:9044   */\n      tag_199\n        /* \"#utility.yul\":9038:9043   */\n      dup2\n        /* \"#utility.yul\":9020:9044   */\n      tag_124\n      jump\t// in\n    tag_199:\n        /* \"#utility.yul\":9013:9018   */\n      dup2\n        /* \"#utility.yul\":9010:9045   */\n      eq\n        /* \"#utility.yul\":9000:9063   */\n      tag_200\n      jumpi\n        /* \"#utility.yul\":9059:9060   */\n      0x00\n        /* \"#utility.yul\":9056:9057   */\n      dup1\n        /* \"#utility.yul\":9049:9061   */\n      revert\n        /* \"#utility.yul\":9000:9063   */\n    tag_200:\n        /* \"#utility.yul\":8947:9069   */\n      pop\n      jump\t// out\n\n    auxdata: 0xa26469706673582212206751a4bb7ede52327acf00d61334e25a77142d382f898305cd997ddf67ff1bff64736f6c63430008070033\n}\n",
				"bytecode": {
					"linkReferences": {},
					"object": "608060405260405162000b8838038062000b888339818101604052810190620000299190620000f4565b336000806101000a81548173ffffffffffffffffffffffffffffffffffffffff021916908373ffffffffffffffffffffffffffffffffffffffff16021790555081600160006101000a81548173ffffffffffffffffffffffffffffffffffffffff021916908373ffffffffffffffffffffffffffffffffffffffff1602179055508042620000b891906200013b565b60028190555050506200023e565b600081519050620000d7816200020a565b92915050565b600081519050620000ee8162000224565b92915050565b600080604083850312156200010e576200010d62000205565b5b60006200011e85828601620000c6565b92505060206200013185828601620000dd565b9150509250929050565b60006200014882620001cc565b91506200015583620001cc565b9250827fffffffffffffffffffffffffffffffffffffffffffffffffffffffffffffffff038211156200018d576200018c620001d6565b5b828201905092915050565b6000620001a582620001ac565b9050919050565b600073ffffffffffffffffffffffffffffffffffffffff82169050919050565b6000819050919050565b7f4e487b7100000000000000000000000000000000000000000000000000000000600052601160045260246000fd5b600080fd5b620002158162000198565b81146200022157600080fd5b50565b6200022f81620001cc565b81146200023b57600080fd5b50565b61093a806200024e6000396000f3fe608060405234801561001057600080fd5b50600436106100625760003560e01c80630e1da6c314610067578063415ffba7146100715780634665096d1461008d57806366d003ac146100ab57806367e404ce146100c95780639714378c146100e7575b600080fd5b61006f610103565b005b61008b60048036038101906100869190610534565b61014b565b005b61009561025a565b6040516100a291906106e6565b60405180910390f35b6100b3610260565b6040516100c09190610686565b60405180910390f35b6100d1610286565b6040516100de9190610686565b60405180910390f35b61010160048036038101906100fc9190610507565b6102aa565b005b60025442101561011257600080fd5b60008054906101000a900473ffffffffffffffffffffffffffffffffffffffff1673ffffffffffffffffffffffffffffffffffffffff16ff5b600160009054906101000a900473ffffffffffffffffffffffffffffffffffffffff1673ffffffffffffffffffffffffffffffffffffffff163373ffffffffffffffffffffffffffffffffffffffff16146101a557600080fd5b6101af828261031a565b6101b857600080fd5b600160009054906101000a900473ffffffffffffffffffffffffffffffffffffffff1673ffffffffffffffffffffffffffffffffffffffff166108fc839081150290604051600060405180830381858888f19350505050158015610220573d6000803e3d6000fd5b5060008054906101000a900473ffffffffffffffffffffffffffffffffffffffff1673ffffffffffffffffffffffffffffffffffffffff16ff5b60025481565b600160009054906101000a900473ffffffffffffffffffffffffffffffffffffffff1681565b60008054906101000a900473ffffffffffffffffffffffffffffffffffffffff1681565b60008054906101000a900473ffffffffffffffffffffffffffffffffffffffff1673ffffffffffffffffffffffffffffffffffffffff163373ffffffffffffffffffffffffffffffffffffffff161461030257600080fd5b600254811161031057600080fd5b8060028190555050565b60008061034e3085604051602001610333929190610634565b604051602081830303815290604052805190602001206103b1565b905060008054906101000a900473ffffffffffffffffffffffffffffffffffffffff1673ffffffffffffffffffffffffffffffffffffffff1661039182856103e1565b73ffffffffffffffffffffffffffffffffffffffff161491505092915050565b6000816040516020016103c49190610660565b604051602081830303815290604052805190602001209050919050565b6000806000806103f085610450565b9250925092506001868484846040516000815260200160405260405161041994939291906106a1565b6020604051602081039080840390855afa15801561043b573d6000803e3d6000fd5b50505060206040510351935050505092915050565b6000806000604184511461046357600080fd5b6020840151915060408401519050606084015160001a92509193909250565b600061049561049084610726565b610701565b9050828152602081018484840111156104b1576104b0610897565b5b6104bc8482856107eb565b509392505050565b600082601f8301126104d9576104d8610892565b5b81356104e9848260208601610482565b91505092915050565b600081359050610501816108ed565b92915050565b60006020828403121561051d5761051c6108a1565b5b600061052b848285016104f2565b91505092915050565b6000806040838503121561054b5761054a6108a1565b5b6000610559858286016104f2565b925050602083013567ffffffffffffffff81111561057a5761057961089c565b5b610586858286016104c4565b9150509250929050565b61059981610762565b82525050565b6105a881610774565b82525050565b6105bf6105ba82610774565b61083d565b82525050565b6105d66105d1826107b5565b61082b565b82525050565b60006105e9601c83610757565b91506105f4826108c4565b601c82019050919050565b6106088161079e565b82525050565b61061f61061a8261079e565b610859565b82525050565b61062e816107a8565b82525050565b600061064082856105c5565b601482019150610650828461060e565b6020820191508190509392505050565b600061066b826105dc565b915061067782846105ae565b60208201915081905092915050565b600060208201905061069b6000830184610590565b92915050565b60006080820190506106b6600083018761059f565b6106c36020830186610625565b6106d0604083018561059f565b6106dd606083018461059f565b95945050505050565b60006020820190506106fb60008301846105ff565b92915050565b600061070b61071c565b905061071782826107fa565b919050565b6000604051905090565b600067ffffffffffffffff82111561074157610740610863565b5b61074a826108a6565b9050602081019050919050565b600081905092915050565b600061076d8261077e565b9050919050565b6000819050919050565b600073ffffffffffffffffffffffffffffffffffffffff82169050919050565b6000819050919050565b600060ff82169050919050565b60006107c0826107c7565b9050919050565b60006107d2826107d9565b9050919050565b60006107e48261077e565b9050919050565b82818337600083830152505050565b610803826108a6565b810181811067ffffffffffffffff8211171561082257610821610863565b5b80604052505050565b600061083682610847565b9050919050565b6000819050919050565b6000610852826108b7565b9050919050565b6000819050919050565b7f4e487b7100000000000000000000000000000000000000000000000000000000600052604160045260246000fd5b600080fd5b600080fd5b600080fd5b600080fd5b6000601f19601f8301169050919050565b60008160601b9050919050565b7f19457468657265756d205369676e6564204d6573736167653a0a333200000000600082015250565b6108f68161079e565b811461090157600080fd5b5056fea26469706673582212206751a4bb7ede52327acf00d61334e25a77142d382f898305cd997ddf67ff1bff64736f6c63430008070033",
					"opcodes": "PUSH1 0x80 PUSH1 0x40 MSTORE PUSH1 0x40 MLOAD PUSH3 0xB88 CODESIZE SUB DUP1 PUSH3 0xB88 DUP4 CODECOPY DUP2 DUP2 ADD PUSH1 0x40 MSTORE DUP2 ADD SWAP1 PUSH3 0x29 SWAP2 SWAP1 PUSH3 0xF4 JUMP JUMPDEST CALLER PUSH1 0x0 DUP1 PUSH2 0x100 EXP DUP2 SLOAD DUP2 PUSH20 0xFFFFFFFFFFFFFFFFFFFFFFFFFFFFFFFFFFFFFFFF MUL NOT AND SWAP1 DUP4 PUSH20 0xFFFFFFFFFFFFFFFFFFFFFFFFFFFFFFFFFFFFFFFF AND MUL OR SWAP1 SSTORE POP DUP2 PUSH1 0x1 PUSH1 0x0 PUSH2 0x100 EXP DUP2 SLOAD DUP2 PUSH20 0xFFFFFFFFFFFFFFFFFFFFFFFFFFFFFFFFFFFFFFFF MUL NOT AND SWAP1 DUP4 PUSH20 0xFFFFFFFFFFFFFFFFFFFFFFFFFFFFFFFFFFFFFFFF AND MUL OR SWAP1 SSTORE POP DUP1 TIMESTAMP PUSH3 0xB8 SWAP2 SWAP1 PUSH3 0x13B JUMP JUMPDEST PUSH1 0x2 DUP2 SWAP1 SSTORE POP POP POP PUSH3 0x23E JUMP JUMPDEST PUSH1 0x0 DUP2 MLOAD SWAP1 POP PUSH3 0xD7 DUP2 PUSH3 0x20A JUMP JUMPDEST SWAP3 SWAP2 POP POP JUMP JUMPDEST PUSH1 0x0 DUP2 MLOAD SWAP1 POP PUSH3 0xEE DUP2 PUSH3 0x224 JUMP JUMPDEST SWAP3 SWAP2 POP POP JUMP JUMPDEST PUSH1 0x0 DUP1 PUSH1 0x40 DUP4 DUP6 SUB SLT ISZERO PUSH3 0x10E JUMPI PUSH3 0x10D PUSH3 0x205 JUMP JUMPDEST JUMPDEST PUSH1 0x0 PUSH3 0x11E DUP6 DUP3 DUP7 ADD PUSH3 0xC6 JUMP JUMPDEST SWAP3 POP POP PUSH1 0x20 PUSH3 0x131 DUP6 DUP3 DUP7 ADD PUSH3 0xDD JUMP JUMPDEST SWAP2 POP POP SWAP3 POP SWAP3 SWAP1 POP JUMP JUMPDEST PUSH1 0x0 PUSH3 0x148 DUP3 PUSH3 0x1CC JUMP JUMPDEST SWAP2 POP PUSH3 0x155 DUP4 PUSH3 0x1CC JUMP JUMPDEST SWAP3 POP DUP3 PUSH32 0xFFFFFFFFFFFFFFFFFFFFFFFFFFFFFFFFFFFFFFFFFFFFFFFFFFFFFFFFFFFFFFFF SUB DUP3 GT ISZERO PUSH3 0x18D JUMPI PUSH3 0x18C PUSH3 0x1D6 JUMP JUMPDEST JUMPDEST DUP3 DUP3 ADD SWAP1 POP SWAP3 SWAP2 POP POP JUMP JUMPDEST PUSH1 0x0 PUSH3 0x1A5 DUP3 PUSH3 0x1AC JUMP JUMPDEST SWAP1 POP SWAP2 SWAP1 POP JUMP JUMPDEST PUSH1 0x0 PUSH20 0xFFFFFFFFFFFFFFFFFFFFFFFFFFFFFFFFFFFFFFFF DUP3 AND SWAP1 POP SWAP2 SWAP1 POP JUMP JUMPDEST PUSH1 0x0 DUP2 SWAP1 POP SWAP2 SWAP1 POP JUMP JUMPDEST PUSH32 0x4E487B7100000000000000000000000000000000000000000000000000000000 PUSH1 0x0 MSTORE PUSH1 0x11 PUSH1 0x4 MSTORE PUSH1 0x24 PUSH1 0x0 REVERT JUMPDEST PUSH1 0x0 DUP1 REVERT JUMPDEST PUSH3 0x215 DUP2 PUSH3 0x198 JUMP JUMPDEST DUP2 EQ PUSH3 0x221 JUMPI PUSH1 0x0 DUP1 REVERT JUMPDEST POP JUMP JUMPDEST PUSH3 0x22F DUP2 PUSH3 0x1CC JUMP JUMPDEST DUP2 EQ PUSH3 0x23B JUMPI PUSH1 0x0 DUP1 REVERT JUMPDEST POP JUMP JUMPDEST PUSH2 0x93A DUP1 PUSH3 0x24E PUSH1 0x0 CODECOPY PUSH1 0x0 RETURN INVALID PUSH1 0x80 PUSH1 0x40 MSTORE CALLVALUE DUP1 ISZERO PUSH2 0x10 JUMPI PUSH1 0x0 DUP1 REVERT JUMPDEST POP PUSH1 0x4 CALLDATASIZE LT PUSH2 0x62 JUMPI PUSH1 0x0 CALLDATALOAD PUSH1 0xE0 SHR DUP1 PUSH4 0xE1DA6C3 EQ PUSH2 0x67 JUMPI DUP1 PUSH4 0x415FFBA7 EQ PUSH2 0x71 JUMPI DUP1 PUSH4 0x4665096D EQ PUSH2 0x8D JUMPI DUP1 PUSH4 0x66D003AC EQ PUSH2 0xAB JUMPI DUP1 PUSH4 0x67E404CE EQ PUSH2 0xC9 JUMPI DUP1 PUSH4 0x9714378C EQ PUSH2 0xE7 JUMPI JUMPDEST PUSH1 0x0 DUP1 REVERT JUMPDEST PUSH2 0x6F PUSH2 0x103 JUMP JUMPDEST STOP JUMPDEST PUSH2 0x8B PUSH1 0x4 DUP1 CALLDATASIZE SUB DUP2 ADD SWAP1 PUSH2 0x86 SWAP2 SWAP1 PUSH2 0x534 JUMP JUMPDEST PUSH2 0x14B JUMP JUMPDEST STOP JUMPDEST PUSH2 0x95 PUSH2 0x25A JUMP JUMPDEST PUSH1 0x40 MLOAD PUSH2 0xA2 SWAP2 SWAP1 PUSH2 0x6E6 JUMP JUMPDEST PUSH1 0x40 MLOAD DUP1 SWAP2 SUB SWAP1 RETURN JUMPDEST PUSH2 0xB3 PUSH2 0x260 JUMP JUMPDEST PUSH1 0x40 MLOAD PUSH2 0xC0 SWAP2 SWAP1 PUSH2 0x686 JUMP JUMPDEST PUSH1 0x40 MLOAD DUP1 SWAP2 SUB SWAP1 RETURN JUMPDEST PUSH2 0xD1 PUSH2 0x286 JUMP JUMPDEST PUSH1 0x40 MLOAD PUSH2 0xDE SWAP2 SWAP1 PUSH2 0x686 JUMP JUMPDEST PUSH1 0x40 MLOAD DUP1 SWAP2 SUB SWAP1 RETURN JUMPDEST PUSH2 0x101 PUSH1 0x4 DUP1 CALLDATASIZE SUB DUP2 ADD SWAP1 PUSH2 0xFC SWAP2 SWAP1 PUSH2 0x507 JUMP JUMPDEST PUSH2 0x2AA JUMP JUMPDEST STOP JUMPDEST PUSH1 0x2 SLOAD TIMESTAMP LT ISZERO PUSH2 0x112 JUMPI PUSH1 0x0 DUP1 REVERT JUMPDEST PUSH1 0x0 DUP1 SLOAD SWAP1 PUSH2 0x100 EXP SWAP1 DIV PUSH20 0xFFFFFFFFFFFFFFFFFFFFFFFFFFFFFFFFFFFFFFFF AND PUSH20 0xFFFFFFFFFFFFFFFFFFFFFFFFFFFFFFFFFFFFFFFF AND SELFDESTRUCT JUMPDEST PUSH1 0x1 PUSH1 0x0 SWAP1 SLOAD SWAP1 PUSH2 0x100 EXP SWAP1 DIV PUSH20 0xFFFFFFFFFFFFFFFFFFFFFFFFFFFFFFFFFFFFFFFF AND PUSH20 0xFFFFFFFFFFFFFFFFFFFFFFFFFFFFFFFFFFFFFFFF AND CALLER PUSH20 0xFFFFFFFFFFFFFFFFFFFFFFFFFFFFFFFFFFFFFFFF AND EQ PUSH2 0x1A5 JUMPI PUSH1 0x0 DUP1 REVERT JUMPDEST PUSH2 0x1AF DUP3 DUP3 PUSH2 0x31A JUMP JUMPDEST PUSH2 0x1B8 JUMPI PUSH1 0x0 DUP1 REVERT JUMPDEST PUSH1 0x1 PUSH1 0x0 SWAP1 SLOAD SWAP1 PUSH2 0x100 EXP SWAP1 DIV PUSH20 0xFFFFFFFFFFFFFFFFFFFFFFFFFFFFFFFFFFFFFFFF AND PUSH20 0xFFFFFFFFFFFFFFFFFFFFFFFFFFFFFFFFFFFFFFFF AND PUSH2 0x8FC DUP4 SWAP1 DUP2 ISZERO MUL SWAP1 PUSH1 0x40 MLOAD PUSH1 0x0 PUSH1 0x40 MLOAD DUP1 DUP4 SUB DUP2 DUP6 DUP9 DUP9 CALL SWAP4 POP POP POP POP ISZERO DUP1 ISZERO PUSH2 0x220 JUMPI RETURNDATASIZE PUSH1 0x0 DUP1 RETURNDATACOPY RETURNDATASIZE PUSH1 0x0 REVERT JUMPDEST POP PUSH1 0x0 DUP1 SLOAD SWAP1 PUSH2 0x100 EXP SWAP1 DIV PUSH20 0xFFFFFFFFFFFFFFFFFFFFFFFFFFFFFFFFFFFFFFFF AND PUSH20 0xFFFFFFFFFFFFFFFFFFFFFFFFFFFFFFFFFFFFFFFF AND SELFDESTRUCT JUMPDEST PUSH1 0x2 SLOAD DUP2 JUMP JUMPDEST PUSH1 0x1 PUSH1 0x0 SWAP1 SLOAD SWAP1 PUSH2 0x100 EXP SWAP1 DIV PUSH20 0xFFFFFFFFFFFFFFFFFFFFFFFFFFFFFFFFFFFFFFFF AND DUP2 JUMP JUMPDEST PUSH1 0x0 DUP1 SLOAD SWAP1 PUSH2 0x100 EXP SWAP1 DIV PUSH20 0xFFFFFFFFFFFFFFFFFFFFFFFFFFFFFFFFFFFFFFFF AND DUP2 JUMP JUMPDEST PUSH1 0x0 DUP1 SLOAD SWAP1 PUSH2 0x100 EXP SWAP1 DIV PUSH20 0xFFFFFFFFFFFFFFFFFFFFFFFFFFFFFFFFFFFFFFFF AND PUSH20 0xFFFFFFFFFFFFFFFFFFFFFFFFFFFFFFFFFFFFFFFF AND CALLER PUSH20 0xFFFFFFFFFFFFFFFFFFFFFFFFFFFFFFFFFFFFFFFF AND EQ PUSH2 0x302 JUMPI PUSH1 0x0 DUP1 REVERT JUMPDEST PUSH1 0x2 SLOAD DUP2 GT PUSH2 0x310 JUMPI PUSH1 0x0 DUP1 REVERT JUMPDEST DUP1 PUSH1 0x2 DUP2 SWAP1 SSTORE POP POP JUMP JUMPDEST PUSH1 0x0 DUP1 PUSH2 0x34E ADDRESS DUP6 PUSH1 0x40 MLOAD PUSH1 0x20 ADD PUSH2 0x333 SWAP3 SWAP2 SWAP1 PUSH2 0x634 JUMP JUMPDEST PUSH1 0x40 MLOAD PUSH1 0x20 DUP2 DUP4 SUB SUB DUP2 MSTORE SWAP1 PUSH1 0x40 MSTORE DUP1 MLOAD SWAP1 PUSH1 0x20 ADD KECCAK256 PUSH2 0x3B1 JUMP JUMPDEST SWAP1 POP PUSH1 0x0 DUP1 SLOAD SWAP1 PUSH2 0x100 EXP SWAP1 DIV PUSH20 0xFFFFFFFFFFFFFFFFFFFFFFFFFFFFFFFFFFFFFFFF AND PUSH20 0xFFFFFFFFFFFFFFFFFFFFFFFFFFFFFFFFFFFFFFFF AND PUSH2 0x391 DUP3 DUP6 PUSH2 0x3E1 JUMP JUMPDEST PUSH20 0xFFFFFFFFFFFFFFFFFFFFFFFFFFFFFFFFFFFFFFFF AND EQ SWAP2 POP POP SWAP3 SWAP2 POP POP JUMP JUMPDEST PUSH1 0x0 DUP2 PUSH1 0x40 MLOAD PUSH1 0x20 ADD PUSH2 0x3C4 SWAP2 SWAP1 PUSH2 0x660 JUMP JUMPDEST PUSH1 0x40 MLOAD PUSH1 0x20 DUP2 DUP4 SUB SUB DUP2 MSTORE SWAP1 PUSH1 0x40 MSTORE DUP1 MLOAD SWAP1 PUSH1 0x20 ADD KECCAK256 SWAP1 POP SWAP2 SWAP1 POP JUMP JUMPDEST PUSH1 0x0 DUP1 PUSH1 0x0 DUP1 PUSH2 0x3F0 DUP6 PUSH2 0x450 JUMP JUMPDEST SWAP3 POP SWAP3 POP SWAP3 POP PUSH1 0x1 DUP7 DUP5 DUP5 DUP5 PUSH1 0x40 MLOAD PUSH1 0x0 DUP2 MSTORE PUSH1 0x20 ADD PUSH1 0x40 MSTORE PUSH1 0x40 MLOAD PUSH2 0x419 SWAP5 SWAP4 SWAP3 SWAP2 SWAP1 PUSH2 0x6A1 JUMP JUMPDEST PUSH1 0x20 PUSH1 0x40 MLOAD PUSH1 0x20 DUP2 SUB SWAP1 DUP1 DUP5 SUB SWAP1 DUP6 GAS STATICCALL ISZERO DUP1 ISZERO PUSH2 0x43B JUMPI RETURNDATASIZE PUSH1 0x0 DUP1 RETURNDATACOPY RETURNDATASIZE PUSH1 0x0 REVERT JUMPDEST POP POP POP PUSH1 0x20 PUSH1 0x40 MLOAD SUB MLOAD SWAP4 POP POP POP POP SWAP3 SWAP2 POP POP JUMP JUMPDEST PUSH1 0x0 DUP1 PUSH1 0x0 PUSH1 0x41 DUP5 MLOAD EQ PUSH2 0x463 JUMPI PUSH1 0x0 DUP1 REVERT JUMPDEST PUSH1 0x20 DUP5 ADD MLOAD SWAP2 POP PUSH1 0x40 DUP5 ADD MLOAD SWAP1 POP PUSH1 0x60 DUP5 ADD MLOAD PUSH1 0x0 BYTE SWAP3 POP SWAP2 SWAP4 SWAP1 SWAP3 POP JUMP JUMPDEST PUSH1 0x0 PUSH2 0x495 PUSH2 0x490 DUP5 PUSH2 0x726 JUMP JUMPDEST PUSH2 0x701 JUMP JUMPDEST SWAP1 POP DUP3 DUP2 MSTORE PUSH1 0x20 DUP2 ADD DUP5 DUP5 DUP5 ADD GT ISZERO PUSH2 0x4B1 JUMPI PUSH2 0x4B0 PUSH2 0x897 JUMP JUMPDEST JUMPDEST PUSH2 0x4BC DUP5 DUP3 DUP6 PUSH2 0x7EB JUMP JUMPDEST POP SWAP4 SWAP3 POP POP POP JUMP JUMPDEST PUSH1 0x0 DUP3 PUSH1 0x1F DUP4 ADD SLT PUSH2 0x4D9 JUMPI PUSH2 0x4D8 PUSH2 0x892 JUMP JUMPDEST JUMPDEST DUP2 CALLDATALOAD PUSH2 0x4E9 DUP5 DUP3 PUSH1 0x20 DUP7 ADD PUSH2 0x482 JUMP JUMPDEST SWAP2 POP POP SWAP3 SWAP2 POP POP JUMP JUMPDEST PUSH1 0x0 DUP2 CALLDATALOAD SWAP1 POP PUSH2 0x501 DUP2 PUSH2 0x8ED JUMP JUMPDEST SWAP3 SWAP2 POP POP JUMP JUMPDEST PUSH1 0x0 PUSH1 0x20 DUP3 DUP5 SUB SLT ISZERO PUSH2 0x51D JUMPI PUSH2 0x51C PUSH2 0x8A1 JUMP JUMPDEST JUMPDEST PUSH1 0x0 PUSH2 0x52B DUP5 DUP3 DUP6 ADD PUSH2 0x4F2 JUMP JUMPDEST SWAP2 POP POP SWAP3 SWAP2 POP POP JUMP JUMPDEST PUSH1 0x0 DUP1 PUSH1 0x40 DUP4 DUP6 SUB SLT ISZERO PUSH2 0x54B JUMPI PUSH2 0x54A PUSH2 0x8A1 JUMP JUMPDEST JUMPDEST PUSH1 0x0 PUSH2 0x559 DUP6 DUP3 DUP7 ADD PUSH2 0x4F2 JUMP JUMPDEST SWAP3 POP POP PUSH1 0x20 DUP4 ADD CALLDATALOAD PUSH8 0xFFFFFFFFFFFFFFFF DUP2 GT ISZERO PUSH2 0x57A JUMPI PUSH2 0x579 PUSH2 0x89C JUMP JUMPDEST JUMPDEST PUSH2 0x586 DUP6 DUP3 DUP7 ADD PUSH2 0x4C4 JUMP JUMPDEST SWAP2 POP POP SWAP3 POP SWAP3 SWAP1 POP JUMP JUMPDEST PUSH2 0x599 DUP2 PUSH2 0x762 JUMP JUMPDEST DUP3 MSTORE POP POP JUMP JUMPDEST PUSH2 0x5A8 DUP2 PUSH2 0x774 JUMP JUMPDEST DUP3 MSTORE POP POP JUMP JUMPDEST PUSH2 0x5BF PUSH2 0x5BA DUP3 PUSH2 0x774 JUMP JUMPDEST PUSH2 0x83D JUMP JUMPDEST DUP3 MSTORE POP POP JUMP JUMPDEST PUSH2 0x5D6 PUSH2 0x5D1 DUP3 PUSH2 0x7B5 JUMP JUMPDEST PUSH2 0x82B JUMP JUMPDEST DUP3 MSTORE POP POP JUMP JUMPDEST PUSH1 0x0 PUSH2 0x5E9 PUSH1 0x1C DUP4 PUSH2 0x757 JUMP JUMPDEST SWAP2 POP PUSH2 0x5F4 DUP3 PUSH2 0x8C4 JUMP JUMPDEST PUSH1 0x1C DUP3 ADD SWAP1 POP SWAP2 SWAP1 POP JUMP JUMPDEST PUSH2 0x608 DUP2 PUSH2 0x79E JUMP JUMPDEST DUP3 MSTORE POP POP JUMP JUMPDEST PUSH2 0x61F PUSH2 0x61A DUP3 PUSH2 0x79E JUMP JUMPDEST PUSH2 0x859 JUMP JUMPDEST DUP3 MSTORE POP POP JUMP JUMPDEST PUSH2 0x62E DUP2 PUSH2 0x7A8 JUMP JUMPDEST DUP3 MSTORE POP POP JUMP JUMPDEST PUSH1 0x0 PUSH2 0x640 DUP3 DUP6 PUSH2 0x5C5 JUMP JUMPDEST PUSH1 0x14 DUP3 ADD SWAP2 POP PUSH2 0x650 DUP3 DUP5 PUSH2 0x60E JUMP JUMPDEST PUSH1 0x20 DUP3 ADD SWAP2 POP DUP2 SWAP1 POP SWAP4 SWAP3 POP POP POP JUMP JUMPDEST PUSH1 0x0 PUSH2 0x66B DUP3 PUSH2 0x5DC JUMP JUMPDEST SWAP2 POP PUSH2 0x677 DUP3 DUP5 PUSH2 0x5AE JUMP JUMPDEST PUSH1 0x20 DUP3 ADD SWAP2 POP DUP2 SWAP1 POP SWAP3 SWAP2 POP POP JUMP JUMPDEST PUSH1 0x0 PUSH1 0x20 DUP3 ADD SWAP1 POP PUSH2 0x69B PUSH1 0x0 DUP4 ADD DUP5 PUSH2 0x590 JUMP JUMPDEST SWAP3 SWAP2 POP POP JUMP JUMPDEST PUSH1 0x0 PUSH1 0x80 DUP3 ADD SWAP1 POP PUSH2 0x6B6 PUSH1 0x0 DUP4 ADD DUP8 PUSH2 0x59F JUMP JUMPDEST PUSH2 0x6C3 PUSH1 0x20 DUP4 ADD DUP7 PUSH2 0x625 JUMP JUMPDEST PUSH2 0x6D0 PUSH1 0x40 DUP4 ADD DUP6 PUSH2 0x59F JUMP JUMPDEST PUSH2 0x6DD PUSH1 0x60 DUP4 ADD DUP5 PUSH2 0x59F JUMP JUMPDEST SWAP6 SWAP5 POP POP POP POP POP JUMP JUMPDEST PUSH1 0x0 PUSH1 0x20 DUP3 ADD SWAP1 POP PUSH2 0x6FB PUSH1 0x0 DUP4 ADD DUP5 PUSH2 0x5FF JUMP JUMPDEST SWAP3 SWAP2 POP POP JUMP JUMPDEST PUSH1 0x0 PUSH2 0x70B PUSH2 0x71C JUMP JUMPDEST SWAP1 POP PUSH2 0x717 DUP3 DUP3 PUSH2 0x7FA JUMP JUMPDEST SWAP2 SWAP1 POP JUMP JUMPDEST PUSH1 0x0 PUSH1 0x40 MLOAD SWAP1 POP SWAP1 JUMP JUMPDEST PUSH1 0x0 PUSH8 0xFFFFFFFFFFFFFFFF DUP3 GT ISZERO PUSH2 0x741 JUMPI PUSH2 0x740 PUSH2 0x863 JUMP JUMPDEST JUMPDEST PUSH2 0x74A DUP3 PUSH2 0x8A6 JUMP JUMPDEST SWAP1 POP PUSH1 0x20 DUP2 ADD SWAP1 POP SWAP2 SWAP1 POP JUMP JUMPDEST PUSH1 0x0 DUP2 SWAP1 POP SWAP3 SWAP2 POP POP JUMP JUMPDEST PUSH1 0x0 PUSH2 0x76D DUP3 PUSH2 0x77E JUMP JUMPDEST SWAP1 POP SWAP2 SWAP1 POP JUMP JUMPDEST PUSH1 0x0 DUP2 SWAP1 POP SWAP2 SWAP1 POP JUMP JUMPDEST PUSH1 0x0 PUSH20 0xFFFFFFFFFFFFFFFFFFFFFFFFFFFFFFFFFFFFFFFF DUP3 AND SWAP1 POP SWAP2 SWAP1 POP JUMP JUMPDEST PUSH1 0x0 DUP2 SWAP1 POP SWAP2 SWAP1 POP JUMP JUMPDEST PUSH1 0x0 PUSH1 0xFF DUP3 AND SWAP1 POP SWAP2 SWAP1 POP JUMP JUMPDEST PUSH1 0x0 PUSH2 0x7C0 DUP3 PUSH2 0x7C7 JUMP JUMPDEST SWAP1 POP SWAP2 SWAP1 POP JUMP JUMPDEST PUSH1 0x0 PUSH2 0x7D2 DUP3 PUSH2 0x7D9 JUMP JUMPDEST SWAP1 POP SWAP2 SWAP1 POP JUMP JUMPDEST PUSH1 0x0 PUSH2 0x7E4 DUP3 PUSH2 0x77E JUMP JUMPDEST SWAP1 POP SWAP2 SWAP1 POP JUMP JUMPDEST DUP3 DUP2 DUP4 CALLDATACOPY PUSH1 0x0 DUP4 DUP4 ADD MSTORE POP POP POP JUMP JUMPDEST PUSH2 0x803 DUP3 PUSH2 0x8A6 JUMP JUMPDEST DUP2 ADD DUP2 DUP2 LT PUSH8 0xFFFFFFFFFFFFFFFF DUP3 GT OR ISZERO PUSH2 0x822 JUMPI PUSH2 0x821 PUSH2 0x863 JUMP JUMPDEST JUMPDEST DUP1 PUSH1 0x40 MSTORE POP POP POP JUMP JUMPDEST PUSH1 0x0 PUSH2 0x836 DUP3 PUSH2 0x847 JUMP JUMPDEST SWAP1 POP SWAP2 SWAP1 POP JUMP JUMPDEST PUSH1 0x0 DUP2 SWAP1 POP SWAP2 SWAP1 POP JUMP JUMPDEST PUSH1 0x0 PUSH2 0x852 DUP3 PUSH2 0x8B7 JUMP JUMPDEST SWAP1 POP SWAP2 SWAP1 POP JUMP JUMPDEST PUSH1 0x0 DUP2 SWAP1 POP SWAP2 SWAP1 POP JUMP JUMPDEST PUSH32 0x4E487B7100000000000000000000000000000000000000000000000000000000 PUSH1 0x0 MSTORE PUSH1 0x41 PUSH1 0x4 MSTORE PUSH1 0x24 PUSH1 0x0 REVERT JUMPDEST PUSH1 0x0 DUP1 REVERT JUMPDEST PUSH1 0x0 DUP1 REVERT JUMPDEST PUSH1 0x0 DUP1 REVERT JUMPDEST PUSH1 0x0 DUP1 REVERT JUMPDEST PUSH1 0x0 PUSH1 0x1F NOT PUSH1 0x1F DUP4 ADD AND SWAP1 POP SWAP2 SWAP1 POP JUMP JUMPDEST PUSH1 0x0 DUP2 PUSH1 0x60 SHL SWAP1 POP SWAP2 SWAP1 POP JUMP JUMPDEST PUSH32 0x19457468657265756D205369676E6564204D6573736167653A0A333200000000 PUSH1 0x0 DUP3 ADD MSTORE POP JUMP JUMPDEST PUSH2 0x8F6 DUP2 PUSH2 0x79E JUMP JUMPDEST DUP2 EQ PUSH2 0x901 JUMPI PUSH1 0x0 DUP1 REVERT JUMPDEST POP JUMP INVALID LOG2 PUSH5 0x6970667358 0x22 SLT KECCAK256 PUSH8 0x51A4BB7EDE52327A 0xCF STOP 0xD6 SGT CALLVALUE 0xE2 GAS PUSH24 0x142D382F898305CD997DDF67FF1BFF64736F6C6343000807 STOP CALLER "
				},
				"gasEstimates": {
					"creation": {
						"codeDepositCost": "472400",
						"executionCost": "infinite",
						"totalCost": "infinite"
					},
					"external": {
						"claimTimeout()": "31980",
						"close(uint256,bytes)": "infinite",
						"expiration()": "2451",
						"extend(uint256)": "26898",
						"recipient()": "2558",
						"sender()": "2577"
					},
					"internal": {
						"isValidSignature(uint256,bytes memory)": "infinite",
						"prefixed(bytes32)": "infinite",
						"recoverSigner(bytes32,bytes memory)": "infinite",
						"splitSignature(bytes memory)": "infinite"
					}
				},
				"methodIdentifiers": {
					"claimTimeout()": "0e1da6c3",
					"close(uint256,bytes)": "415ffba7",
					"expiration()": "4665096d",
					"extend(uint256)": "9714378c",
					"recipient()": "66d003ac",
					"sender()": "67e404ce"
				}
			},
			"storageLayout": {
				"storage": [
					{
						"astId": 3,
						"contract": "Besic/SolidityExample/simplePaymentChannel.sol:SimplePaymentChannel",
						"label": "sender",
						"offset": 0,
						"slot": "0",
						"type": "t_address_payable"
					},
					{
						"astId": 5,
						"contract": "Besic/SolidityExample/simplePaymentChannel.sol:SimplePaymentChannel",
						"label": "recipient",
						"offset": 0,
						"slot": "1",
						"type": "t_address_payable"
					},
					{
						"astId": 7,
						"contract": "Besic/SolidityExample/simplePaymentChannel.sol:SimplePaymentChannel",
						"label": "expiration",
						"offset": 0,
						"slot": "2",
						"type": "t_uint256"
					}
				],
				"types": {
					"t_address_payable": {
						"encoding": "inplace",
						"label": "address payable",
						"numberOfBytes": "20"
					},
					"t_uint256": {
						"encoding": "inplace",
						"label": "uint256",
						"numberOfBytes": "32"
					}
				}
			},
			"userdoc": {
				"kind": "user",
				"methods": {
					"claimTimeout()": {
						"notice": "if the timeout is reached without the recipient closing the channel, then the Ether is released back to the sender."
					},
					"close(uint256,bytes)": {
						"notice": "the recipient can close the channel at any time by presenting a signed amount from the sender. the recipient will be sent that amount, and the remainder will go back to the sender"
					},
					"extend(uint256)": {
						"notice": "the sender can extend the expiration at any time"
					}
				},
				"version": 1
			}
		}
	}
}