{
	"Besic/SolidityExample/creatingAndVerifyingSignatures.sol": {
		"ReceiverPays": {
			"abi": [
				{
					"inputs": [],
					"stateMutability": "payable",
					"type": "constructor"
				},
				{
					"inputs": [
						{
							"internalType": "uint256",
							"name": "amount",
							"type": "uint256"
						},
						{
							"internalType": "uint256",
							"name": "nonce",
							"type": "uint256"
						},
						{
							"internalType": "bytes",
							"name": "signature",
							"type": "bytes"
						}
					],
					"name": "claimPayment",
					"outputs": [],
					"stateMutability": "nonpayable",
					"type": "function"
				},
				{
					"inputs": [],
					"name": "shutdown",
					"outputs": [],
					"stateMutability": "nonpayable",
					"type": "function"
				}
			],
			"devdoc": {
				"kind": "dev",
				"methods": {},
				"version": 1
			},
			"evm": {
				"assembly": "    /* \"Besic/SolidityExample/creatingAndVerifyingSignatures.sol\":70:1881  contract ReceiverPays {\r... */\n  mstore(0x40, 0x80)\n    /* \"Besic/SolidityExample/creatingAndVerifyingSignatures.sol\":115:125  msg.sender */\n  caller\n    /* \"Besic/SolidityExample/creatingAndVerifyingSignatures.sol\":99:125  address owner = msg.sender */\n  0x00\n  dup1\n  0x0100\n  exp\n  dup2\n  sload\n  dup2\n  0xffffffffffffffffffffffffffffffffffffffff\n  mul\n  not\n  and\n  swap1\n  dup4\n  0xffffffffffffffffffffffffffffffffffffffff\n  and\n  mul\n  or\n  swap1\n  sstore\n  pop\n    /* \"Besic/SolidityExample/creatingAndVerifyingSignatures.sol\":70:1881  contract ReceiverPays {\r... */\n  dataSize(sub_0)\n  dup1\n  dataOffset(sub_0)\n  0x00\n  codecopy\n  0x00\n  return\nstop\n\nsub_0: assembly {\n        /* \"Besic/SolidityExample/creatingAndVerifyingSignatures.sol\":70:1881  contract ReceiverPays {\r... */\n      mstore(0x40, 0x80)\n      callvalue\n      dup1\n      iszero\n      tag_1\n      jumpi\n      0x00\n      dup1\n      revert\n    tag_1:\n      pop\n      jumpi(tag_2, lt(calldatasize, 0x04))\n      shr(0xe0, calldataload(0x00))\n      dup1\n      0xa90ae887\n      eq\n      tag_3\n      jumpi\n      dup1\n      0xfc0e74d1\n      eq\n      tag_4\n      jumpi\n    tag_2:\n      0x00\n      dup1\n      revert\n        /* \"Besic/SolidityExample/creatingAndVerifyingSignatures.sol\":210:660  function claimPayment(uint256 amount, uint256 nonce, bytes memory signature) external {\r... */\n    tag_3:\n      tag_5\n      0x04\n      dup1\n      calldatasize\n      sub\n      dup2\n      add\n      swap1\n      tag_6\n      swap2\n      swap1\n      tag_7\n      jump\t// in\n    tag_6:\n      tag_8\n      jump\t// in\n    tag_5:\n      stop\n        /* \"Besic/SolidityExample/creatingAndVerifyingSignatures.sol\":730:850  function shutdown() external {\r... */\n    tag_4:\n      tag_9\n      tag_10\n      jump\t// in\n    tag_9:\n      stop\n        /* \"Besic/SolidityExample/creatingAndVerifyingSignatures.sol\":210:660  function claimPayment(uint256 amount, uint256 nonce, bytes memory signature) external {\r... */\n    tag_8:\n        /* \"Besic/SolidityExample/creatingAndVerifyingSignatures.sol\":316:326  usedNonces */\n      0x01\n        /* \"Besic/SolidityExample/creatingAndVerifyingSignatures.sol\":316:333  usedNonces[nonce] */\n      0x00\n        /* \"Besic/SolidityExample/creatingAndVerifyingSignatures.sol\":327:332  nonce */\n      dup4\n        /* \"Besic/SolidityExample/creatingAndVerifyingSignatures.sol\":316:333  usedNonces[nonce] */\n      dup2\n      mstore\n      0x20\n      add\n      swap1\n      dup2\n      mstore\n      0x20\n      add\n      0x00\n      keccak256\n      0x00\n      swap1\n      sload\n      swap1\n      0x0100\n      exp\n      swap1\n      div\n      0xff\n      and\n        /* \"Besic/SolidityExample/creatingAndVerifyingSignatures.sol\":315:333  !usedNonces[nonce] */\n      iszero\n        /* \"Besic/SolidityExample/creatingAndVerifyingSignatures.sol\":307:334  require(!usedNonces[nonce]) */\n      tag_12\n      jumpi\n      0x00\n      dup1\n      revert\n    tag_12:\n        /* \"Besic/SolidityExample/creatingAndVerifyingSignatures.sol\":365:369  true */\n      0x01\n        /* \"Besic/SolidityExample/creatingAndVerifyingSignatures.sol\":345:355  usedNonces */\n      dup1\n        /* \"Besic/SolidityExample/creatingAndVerifyingSignatures.sol\":345:362  usedNonces[nonce] */\n      0x00\n        /* \"Besic/SolidityExample/creatingAndVerifyingSignatures.sol\":356:361  nonce */\n      dup5\n        /* \"Besic/SolidityExample/creatingAndVerifyingSignatures.sol\":345:362  usedNonces[nonce] */\n      dup2\n      mstore\n      0x20\n      add\n      swap1\n      dup2\n      mstore\n      0x20\n      add\n      0x00\n      keccak256\n      0x00\n        /* \"Besic/SolidityExample/creatingAndVerifyingSignatures.sol\":345:369  usedNonces[nonce] = true */\n      0x0100\n      exp\n      dup2\n      sload\n      dup2\n      0xff\n      mul\n      not\n      and\n      swap1\n      dup4\n      iszero\n      iszero\n      mul\n      or\n      swap1\n      sstore\n      pop\n        /* \"Besic/SolidityExample/creatingAndVerifyingSignatures.sol\":451:466  bytes32 message */\n      0x00\n        /* \"Besic/SolidityExample/creatingAndVerifyingSignatures.sol\":469:539  prefixed(keccak256(abi.encodePacked(msg.sender, amount, nonce, this))) */\n      tag_13\n        /* \"Besic/SolidityExample/creatingAndVerifyingSignatures.sol\":505:515  msg.sender */\n      caller\n        /* \"Besic/SolidityExample/creatingAndVerifyingSignatures.sol\":517:523  amount */\n      dup6\n        /* \"Besic/SolidityExample/creatingAndVerifyingSignatures.sol\":525:530  nonce */\n      dup6\n        /* \"Besic/SolidityExample/creatingAndVerifyingSignatures.sol\":532:536  this */\n      address\n        /* \"Besic/SolidityExample/creatingAndVerifyingSignatures.sol\":488:537  abi.encodePacked(msg.sender, amount, nonce, this) */\n      add(0x20, mload(0x40))\n      tag_14\n      swap5\n      swap4\n      swap3\n      swap2\n      swap1\n      tag_15\n      jump\t// in\n    tag_14:\n      mload(0x40)\n      0x20\n      dup2\n      dup4\n      sub\n      sub\n      dup2\n      mstore\n      swap1\n      0x40\n      mstore\n        /* \"Besic/SolidityExample/creatingAndVerifyingSignatures.sol\":478:538  keccak256(abi.encodePacked(msg.sender, amount, nonce, this)) */\n      dup1\n      mload\n      swap1\n      0x20\n      add\n      keccak256\n        /* \"Besic/SolidityExample/creatingAndVerifyingSignatures.sol\":469:477  prefixed */\n      tag_16\n        /* \"Besic/SolidityExample/creatingAndVerifyingSignatures.sol\":469:539  prefixed(keccak256(abi.encodePacked(msg.sender, amount, nonce, this))) */\n      jump\t// in\n    tag_13:\n        /* \"Besic/SolidityExample/creatingAndVerifyingSignatures.sol\":451:539  bytes32 message = prefixed(keccak256(abi.encodePacked(msg.sender, amount, nonce, this))) */\n      swap1\n      pop\n        /* \"Besic/SolidityExample/creatingAndVerifyingSignatures.sol\":597:602  owner */\n      0x00\n      dup1\n      sload\n      swap1\n      0x0100\n      exp\n      swap1\n      div\n      0xffffffffffffffffffffffffffffffffffffffff\n      and\n        /* \"Besic/SolidityExample/creatingAndVerifyingSignatures.sol\":560:602  recoverSigner(message, signature) == owner */\n      0xffffffffffffffffffffffffffffffffffffffff\n      and\n        /* \"Besic/SolidityExample/creatingAndVerifyingSignatures.sol\":560:593  recoverSigner(message, signature) */\n      tag_17\n        /* \"Besic/SolidityExample/creatingAndVerifyingSignatures.sol\":574:581  message */\n      dup3\n        /* \"Besic/SolidityExample/creatingAndVerifyingSignatures.sol\":583:592  signature */\n      dup5\n        /* \"Besic/SolidityExample/creatingAndVerifyingSignatures.sol\":560:573  recoverSigner */\n      tag_18\n        /* \"Besic/SolidityExample/creatingAndVerifyingSignatures.sol\":560:593  recoverSigner(message, signature) */\n      jump\t// in\n    tag_17:\n        /* \"Besic/SolidityExample/creatingAndVerifyingSignatures.sol\":560:602  recoverSigner(message, signature) == owner */\n      0xffffffffffffffffffffffffffffffffffffffff\n      and\n      eq\n        /* \"Besic/SolidityExample/creatingAndVerifyingSignatures.sol\":552:603  require(recoverSigner(message, signature) == owner) */\n      tag_19\n      jumpi\n      0x00\n      dup1\n      revert\n    tag_19:\n        /* \"Besic/SolidityExample/creatingAndVerifyingSignatures.sol\":624:634  msg.sender */\n      caller\n        /* \"Besic/SolidityExample/creatingAndVerifyingSignatures.sol\":616:644  payable(msg.sender).transfer */\n      0xffffffffffffffffffffffffffffffffffffffff\n      and\n        /* \"Besic/SolidityExample/creatingAndVerifyingSignatures.sol\":616:652  payable(msg.sender).transfer(amount) */\n      0x08fc\n        /* \"Besic/SolidityExample/creatingAndVerifyingSignatures.sol\":645:651  amount */\n      dup6\n        /* \"Besic/SolidityExample/creatingAndVerifyingSignatures.sol\":616:652  payable(msg.sender).transfer(amount) */\n      swap1\n      dup2\n      iszero\n      mul\n      swap1\n      mload(0x40)\n      0x00\n      mload(0x40)\n      dup1\n      dup4\n      sub\n      dup2\n      dup6\n      dup9\n      dup9\n      call\n      swap4\n      pop\n      pop\n      pop\n      pop\n      iszero\n      dup1\n      iszero\n      tag_21\n      jumpi\n      returndatasize\n      0x00\n      dup1\n      returndatacopy\n      revert(0x00, returndatasize)\n    tag_21:\n      pop\n        /* \"Besic/SolidityExample/creatingAndVerifyingSignatures.sol\":296:660  {\r... */\n      pop\n        /* \"Besic/SolidityExample/creatingAndVerifyingSignatures.sol\":210:660  function claimPayment(uint256 amount, uint256 nonce, bytes memory signature) external {\r... */\n      pop\n      pop\n      pop\n      jump\t// out\n        /* \"Besic/SolidityExample/creatingAndVerifyingSignatures.sol\":730:850  function shutdown() external {\r... */\n    tag_10:\n        /* \"Besic/SolidityExample/creatingAndVerifyingSignatures.sol\":792:797  owner */\n      0x00\n      dup1\n      sload\n      swap1\n      0x0100\n      exp\n      swap1\n      div\n      0xffffffffffffffffffffffffffffffffffffffff\n      and\n        /* \"Besic/SolidityExample/creatingAndVerifyingSignatures.sol\":778:797  msg.sender == owner */\n      0xffffffffffffffffffffffffffffffffffffffff\n      and\n        /* \"Besic/SolidityExample/creatingAndVerifyingSignatures.sol\":778:788  msg.sender */\n      caller\n        /* \"Besic/SolidityExample/creatingAndVerifyingSignatures.sol\":778:797  msg.sender == owner */\n      0xffffffffffffffffffffffffffffffffffffffff\n      and\n      eq\n        /* \"Besic/SolidityExample/creatingAndVerifyingSignatures.sol\":770:798  require(msg.sender == owner) */\n      tag_23\n      jumpi\n      0x00\n      dup1\n      revert\n    tag_23:\n        /* \"Besic/SolidityExample/creatingAndVerifyingSignatures.sol\":830:840  msg.sender */\n      caller\n        /* \"Besic/SolidityExample/creatingAndVerifyingSignatures.sol\":809:842  selfdestruct(payable(msg.sender)) */\n      0xffffffffffffffffffffffffffffffffffffffff\n      and\n      selfdestruct\n        /* \"Besic/SolidityExample/creatingAndVerifyingSignatures.sol\":1719:1878  function prefixed(bytes32 hash) internal pure returns (bytes32) {\r... */\n    tag_16:\n        /* \"Besic/SolidityExample/creatingAndVerifyingSignatures.sol\":1774:1781  bytes32 */\n      0x00\n        /* \"Besic/SolidityExample/creatingAndVerifyingSignatures.sol\":1864:1868  hash */\n      dup2\n        /* \"Besic/SolidityExample/creatingAndVerifyingSignatures.sol\":1811:1869  abi.encodePacked(\"\\x19Ethereum Signed Message:\\n32\", hash) */\n      add(0x20, mload(0x40))\n      tag_25\n      swap2\n      swap1\n      tag_26\n      jump\t// in\n    tag_25:\n      mload(0x40)\n      0x20\n      dup2\n      dup4\n      sub\n      sub\n      dup2\n      mstore\n      swap1\n      0x40\n      mstore\n        /* \"Besic/SolidityExample/creatingAndVerifyingSignatures.sol\":1801:1870  keccak256(abi.encodePacked(\"\\x19Ethereum Signed Message:\\n32\", hash)) */\n      dup1\n      mload\n      swap1\n      0x20\n      add\n      keccak256\n        /* \"Besic/SolidityExample/creatingAndVerifyingSignatures.sol\":1794:1870  return keccak256(abi.encodePacked(\"\\x19Ethereum Signed Message:\\n32\", hash)) */\n      swap1\n      pop\n        /* \"Besic/SolidityExample/creatingAndVerifyingSignatures.sol\":1719:1878  function prefixed(bytes32 hash) internal pure returns (bytes32) {\r... */\n      swap2\n      swap1\n      pop\n      jump\t// out\n        /* \"Besic/SolidityExample/creatingAndVerifyingSignatures.sol\":1403:1644  function recoverSigner(bytes32 message, bytes memory sig)\r... */\n    tag_18:\n        /* \"Besic/SolidityExample/creatingAndVerifyingSignatures.sol\":1511:1518  address */\n      0x00\n        /* \"Besic/SolidityExample/creatingAndVerifyingSignatures.sol\":1537:1544  uint8 v */\n      dup1\n        /* \"Besic/SolidityExample/creatingAndVerifyingSignatures.sol\":1546:1555  bytes32 r */\n      0x00\n        /* \"Besic/SolidityExample/creatingAndVerifyingSignatures.sol\":1557:1566  bytes32 s */\n      dup1\n        /* \"Besic/SolidityExample/creatingAndVerifyingSignatures.sol\":1570:1589  splitSignature(sig) */\n      tag_28\n        /* \"Besic/SolidityExample/creatingAndVerifyingSignatures.sol\":1585:1588  sig */\n      dup6\n        /* \"Besic/SolidityExample/creatingAndVerifyingSignatures.sol\":1570:1584  splitSignature */\n      tag_29\n        /* \"Besic/SolidityExample/creatingAndVerifyingSignatures.sol\":1570:1589  splitSignature(sig) */\n      jump\t// in\n    tag_28:\n        /* \"Besic/SolidityExample/creatingAndVerifyingSignatures.sol\":1536:1589  (uint8 v, bytes32 r, bytes32 s) = splitSignature(sig) */\n      swap3\n      pop\n      swap3\n      pop\n      swap3\n      pop\n        /* \"Besic/SolidityExample/creatingAndVerifyingSignatures.sol\":1609:1636  ecrecover(message, v, r, s) */\n      0x01\n        /* \"Besic/SolidityExample/creatingAndVerifyingSignatures.sol\":1619:1626  message */\n      dup7\n        /* \"Besic/SolidityExample/creatingAndVerifyingSignatures.sol\":1628:1629  v */\n      dup5\n        /* \"Besic/SolidityExample/creatingAndVerifyingSignatures.sol\":1631:1632  r */\n      dup5\n        /* \"Besic/SolidityExample/creatingAndVerifyingSignatures.sol\":1634:1635  s */\n      dup5\n        /* \"Besic/SolidityExample/creatingAndVerifyingSignatures.sol\":1609:1636  ecrecover(message, v, r, s) */\n      mload(0x40)\n      0x00\n      dup2\n      mstore\n      0x20\n      add\n      0x40\n      mstore\n      mload(0x40)\n      tag_30\n      swap5\n      swap4\n      swap3\n      swap2\n      swap1\n      tag_31\n      jump\t// in\n    tag_30:\n      0x20\n      mload(0x40)\n      0x20\n      dup2\n      sub\n      swap1\n      dup1\n      dup5\n      sub\n      swap1\n      dup6\n      gas\n      staticcall\n      iszero\n      dup1\n      iszero\n      tag_33\n      jumpi\n      returndatasize\n      0x00\n      dup1\n      returndatacopy\n      revert(0x00, returndatasize)\n    tag_33:\n      pop\n      pop\n      pop\n      mload(sub(mload(0x40), 0x20))\n        /* \"Besic/SolidityExample/creatingAndVerifyingSignatures.sol\":1602:1636  return ecrecover(message, v, r, s) */\n      swap4\n      pop\n      pop\n      pop\n      pop\n        /* \"Besic/SolidityExample/creatingAndVerifyingSignatures.sol\":1403:1644  function recoverSigner(bytes32 message, bytes memory sig)\r... */\n      swap3\n      swap2\n      pop\n      pop\n      jump\t// out\n        /* \"Besic/SolidityExample/creatingAndVerifyingSignatures.sol\":886:1395  function splitSignature(bytes memory sig)\r... */\n    tag_29:\n        /* \"Besic/SolidityExample/creatingAndVerifyingSignatures.sol\":978:985  uint8 v */\n      0x00\n        /* \"Besic/SolidityExample/creatingAndVerifyingSignatures.sol\":987:996  bytes32 r */\n      dup1\n        /* \"Besic/SolidityExample/creatingAndVerifyingSignatures.sol\":998:1007  bytes32 s */\n      0x00\n        /* \"Besic/SolidityExample/creatingAndVerifyingSignatures.sol\":1047:1049  65 */\n      0x41\n        /* \"Besic/SolidityExample/creatingAndVerifyingSignatures.sol\":1033:1036  sig */\n      dup5\n        /* \"Besic/SolidityExample/creatingAndVerifyingSignatures.sol\":1033:1043  sig.length */\n      mload\n        /* \"Besic/SolidityExample/creatingAndVerifyingSignatures.sol\":1033:1049  sig.length == 65 */\n      eq\n        /* \"Besic/SolidityExample/creatingAndVerifyingSignatures.sol\":1025:1050  require(sig.length == 65) */\n      tag_35\n      jumpi\n      0x00\n      dup1\n      revert\n    tag_35:\n        /* \"Besic/SolidityExample/creatingAndVerifyingSignatures.sol\":1164:1166  32 */\n      0x20\n        /* \"Besic/SolidityExample/creatingAndVerifyingSignatures.sol\":1159:1162  sig */\n      dup5\n        /* \"Besic/SolidityExample/creatingAndVerifyingSignatures.sol\":1155:1167  add(sig, 32) */\n      add\n        /* \"Besic/SolidityExample/creatingAndVerifyingSignatures.sol\":1149:1168  mload(add(sig, 32)) */\n      mload\n        /* \"Besic/SolidityExample/creatingAndVerifyingSignatures.sol\":1144:1168  r := mload(add(sig, 32)) */\n      swap2\n      pop\n        /* \"Besic/SolidityExample/creatingAndVerifyingSignatures.sol\":1235:1237  64 */\n      0x40\n        /* \"Besic/SolidityExample/creatingAndVerifyingSignatures.sol\":1230:1233  sig */\n      dup5\n        /* \"Besic/SolidityExample/creatingAndVerifyingSignatures.sol\":1226:1238  add(sig, 64) */\n      add\n        /* \"Besic/SolidityExample/creatingAndVerifyingSignatures.sol\":1220:1239  mload(add(sig, 64)) */\n      mload\n        /* \"Besic/SolidityExample/creatingAndVerifyingSignatures.sol\":1215:1239  s := mload(add(sig, 64)) */\n      swap1\n      pop\n        /* \"Besic/SolidityExample/creatingAndVerifyingSignatures.sol\":1343:1345  96 */\n      0x60\n        /* \"Besic/SolidityExample/creatingAndVerifyingSignatures.sol\":1338:1341  sig */\n      dup5\n        /* \"Besic/SolidityExample/creatingAndVerifyingSignatures.sol\":1334:1346  add(sig, 96) */\n      add\n        /* \"Besic/SolidityExample/creatingAndVerifyingSignatures.sol\":1328:1347  mload(add(sig, 96)) */\n      mload\n        /* \"Besic/SolidityExample/creatingAndVerifyingSignatures.sol\":1325:1326  0 */\n      0x00\n        /* \"Besic/SolidityExample/creatingAndVerifyingSignatures.sol\":1320:1348  byte(0, mload(add(sig, 96))) */\n      byte\n        /* \"Besic/SolidityExample/creatingAndVerifyingSignatures.sol\":1315:1348  v := byte(0, mload(add(sig, 96))) */\n      swap3\n      pop\n        /* \"Besic/SolidityExample/creatingAndVerifyingSignatures.sol\":886:1395  function splitSignature(bytes memory sig)\r... */\n      swap2\n      swap4\n      swap1\n      swap3\n      pop\n      jump\t// out\n        /* \"#utility.yul\":7:417   */\n    tag_37:\n        /* \"#utility.yul\":84:89   */\n      0x00\n        /* \"#utility.yul\":109:174   */\n      tag_39\n        /* \"#utility.yul\":125:173   */\n      tag_40\n        /* \"#utility.yul\":166:172   */\n      dup5\n        /* \"#utility.yul\":125:173   */\n      tag_41\n      jump\t// in\n    tag_40:\n        /* \"#utility.yul\":109:174   */\n      tag_42\n      jump\t// in\n    tag_39:\n        /* \"#utility.yul\":100:174   */\n      swap1\n      pop\n        /* \"#utility.yul\":197:203   */\n      dup3\n        /* \"#utility.yul\":190:195   */\n      dup2\n        /* \"#utility.yul\":183:204   */\n      mstore\n        /* \"#utility.yul\":235:239   */\n      0x20\n        /* \"#utility.yul\":228:233   */\n      dup2\n        /* \"#utility.yul\":224:240   */\n      add\n        /* \"#utility.yul\":273:276   */\n      dup5\n        /* \"#utility.yul\":264:270   */\n      dup5\n        /* \"#utility.yul\":259:262   */\n      dup5\n        /* \"#utility.yul\":255:271   */\n      add\n        /* \"#utility.yul\":252:277   */\n      gt\n        /* \"#utility.yul\":249:361   */\n      iszero\n      tag_43\n      jumpi\n        /* \"#utility.yul\":280:359   */\n      tag_44\n      tag_45\n      jump\t// in\n    tag_44:\n        /* \"#utility.yul\":249:361   */\n    tag_43:\n        /* \"#utility.yul\":370:411   */\n      tag_46\n        /* \"#utility.yul\":404:410   */\n      dup5\n        /* \"#utility.yul\":399:402   */\n      dup3\n        /* \"#utility.yul\":394:397   */\n      dup6\n        /* \"#utility.yul\":370:411   */\n      tag_47\n      jump\t// in\n    tag_46:\n        /* \"#utility.yul\":90:417   */\n      pop\n        /* \"#utility.yul\":7:417   */\n      swap4\n      swap3\n      pop\n      pop\n      pop\n      jump\t// out\n        /* \"#utility.yul\":436:774   */\n    tag_48:\n        /* \"#utility.yul\":491:496   */\n      0x00\n        /* \"#utility.yul\":540:543   */\n      dup3\n        /* \"#utility.yul\":533:537   */\n      0x1f\n        /* \"#utility.yul\":525:531   */\n      dup4\n        /* \"#utility.yul\":521:538   */\n      add\n        /* \"#utility.yul\":517:544   */\n      slt\n        /* \"#utility.yul\":507:629   */\n      tag_50\n      jumpi\n        /* \"#utility.yul\":548:627   */\n      tag_51\n      tag_52\n      jump\t// in\n    tag_51:\n        /* \"#utility.yul\":507:629   */\n    tag_50:\n        /* \"#utility.yul\":665:671   */\n      dup2\n        /* \"#utility.yul\":652:672   */\n      calldataload\n        /* \"#utility.yul\":690:768   */\n      tag_53\n        /* \"#utility.yul\":764:767   */\n      dup5\n        /* \"#utility.yul\":756:762   */\n      dup3\n        /* \"#utility.yul\":749:753   */\n      0x20\n        /* \"#utility.yul\":741:747   */\n      dup7\n        /* \"#utility.yul\":737:754   */\n      add\n        /* \"#utility.yul\":690:768   */\n      tag_37\n      jump\t// in\n    tag_53:\n        /* \"#utility.yul\":681:768   */\n      swap2\n      pop\n        /* \"#utility.yul\":497:774   */\n      pop\n        /* \"#utility.yul\":436:774   */\n      swap3\n      swap2\n      pop\n      pop\n      jump\t// out\n        /* \"#utility.yul\":780:919   */\n    tag_54:\n        /* \"#utility.yul\":826:831   */\n      0x00\n        /* \"#utility.yul\":864:870   */\n      dup2\n        /* \"#utility.yul\":851:871   */\n      calldataload\n        /* \"#utility.yul\":842:871   */\n      swap1\n      pop\n        /* \"#utility.yul\":880:913   */\n      tag_56\n        /* \"#utility.yul\":907:912   */\n      dup2\n        /* \"#utility.yul\":880:913   */\n      tag_57\n      jump\t// in\n    tag_56:\n        /* \"#utility.yul\":780:919   */\n      swap3\n      swap2\n      pop\n      pop\n      jump\t// out\n        /* \"#utility.yul\":925:1722   */\n    tag_7:\n        /* \"#utility.yul\":1011:1017   */\n      0x00\n        /* \"#utility.yul\":1019:1025   */\n      dup1\n        /* \"#utility.yul\":1027:1033   */\n      0x00\n        /* \"#utility.yul\":1076:1078   */\n      0x60\n        /* \"#utility.yul\":1064:1073   */\n      dup5\n        /* \"#utility.yul\":1055:1062   */\n      dup7\n        /* \"#utility.yul\":1051:1074   */\n      sub\n        /* \"#utility.yul\":1047:1079   */\n      slt\n        /* \"#utility.yul\":1044:1163   */\n      iszero\n      tag_59\n      jumpi\n        /* \"#utility.yul\":1082:1161   */\n      tag_60\n      tag_61\n      jump\t// in\n    tag_60:\n        /* \"#utility.yul\":1044:1163   */\n    tag_59:\n        /* \"#utility.yul\":1202:1203   */\n      0x00\n        /* \"#utility.yul\":1227:1280   */\n      tag_62\n        /* \"#utility.yul\":1272:1279   */\n      dup7\n        /* \"#utility.yul\":1263:1269   */\n      dup3\n        /* \"#utility.yul\":1252:1261   */\n      dup8\n        /* \"#utility.yul\":1248:1270   */\n      add\n        /* \"#utility.yul\":1227:1280   */\n      tag_54\n      jump\t// in\n    tag_62:\n        /* \"#utility.yul\":1217:1280   */\n      swap4\n      pop\n        /* \"#utility.yul\":1173:1290   */\n      pop\n        /* \"#utility.yul\":1329:1331   */\n      0x20\n        /* \"#utility.yul\":1355:1408   */\n      tag_63\n        /* \"#utility.yul\":1400:1407   */\n      dup7\n        /* \"#utility.yul\":1391:1397   */\n      dup3\n        /* \"#utility.yul\":1380:1389   */\n      dup8\n        /* \"#utility.yul\":1376:1398   */\n      add\n        /* \"#utility.yul\":1355:1408   */\n      tag_54\n      jump\t// in\n    tag_63:\n        /* \"#utility.yul\":1345:1408   */\n      swap3\n      pop\n        /* \"#utility.yul\":1300:1418   */\n      pop\n        /* \"#utility.yul\":1485:1487   */\n      0x40\n        /* \"#utility.yul\":1474:1483   */\n      dup5\n        /* \"#utility.yul\":1470:1488   */\n      add\n        /* \"#utility.yul\":1457:1489   */\n      calldataload\n        /* \"#utility.yul\":1516:1534   */\n      0xffffffffffffffff\n        /* \"#utility.yul\":1508:1514   */\n      dup2\n        /* \"#utility.yul\":1505:1535   */\n      gt\n        /* \"#utility.yul\":1502:1619   */\n      iszero\n      tag_64\n      jumpi\n        /* \"#utility.yul\":1538:1617   */\n      tag_65\n      tag_66\n      jump\t// in\n    tag_65:\n        /* \"#utility.yul\":1502:1619   */\n    tag_64:\n        /* \"#utility.yul\":1643:1705   */\n      tag_67\n        /* \"#utility.yul\":1697:1704   */\n      dup7\n        /* \"#utility.yul\":1688:1694   */\n      dup3\n        /* \"#utility.yul\":1677:1686   */\n      dup8\n        /* \"#utility.yul\":1673:1695   */\n      add\n        /* \"#utility.yul\":1643:1705   */\n      tag_48\n      jump\t// in\n    tag_67:\n        /* \"#utility.yul\":1633:1705   */\n      swap2\n      pop\n        /* \"#utility.yul\":1428:1715   */\n      pop\n        /* \"#utility.yul\":925:1722   */\n      swap3\n      pop\n      swap3\n      pop\n      swap3\n      jump\t// out\n        /* \"#utility.yul\":1728:1885   */\n    tag_68:\n        /* \"#utility.yul\":1833:1878   */\n      tag_70\n        /* \"#utility.yul\":1853:1877   */\n      tag_71\n        /* \"#utility.yul\":1871:1876   */\n      dup3\n        /* \"#utility.yul\":1853:1877   */\n      tag_72\n      jump\t// in\n    tag_71:\n        /* \"#utility.yul\":1833:1878   */\n      tag_73\n      jump\t// in\n    tag_70:\n        /* \"#utility.yul\":1828:1831   */\n      dup3\n        /* \"#utility.yul\":1821:1879   */\n      mstore\n        /* \"#utility.yul\":1728:1885   */\n      pop\n      pop\n      jump\t// out\n        /* \"#utility.yul\":1891:2009   */\n    tag_74:\n        /* \"#utility.yul\":1978:2002   */\n      tag_76\n        /* \"#utility.yul\":1996:2001   */\n      dup2\n        /* \"#utility.yul\":1978:2002   */\n      tag_77\n      jump\t// in\n    tag_76:\n        /* \"#utility.yul\":1973:1976   */\n      dup3\n        /* \"#utility.yul\":1966:2003   */\n      mstore\n        /* \"#utility.yul\":1891:2009   */\n      pop\n      pop\n      jump\t// out\n        /* \"#utility.yul\":2015:2172   */\n    tag_78:\n        /* \"#utility.yul\":2120:2165   */\n      tag_80\n        /* \"#utility.yul\":2140:2164   */\n      tag_81\n        /* \"#utility.yul\":2158:2163   */\n      dup3\n        /* \"#utility.yul\":2140:2164   */\n      tag_77\n      jump\t// in\n    tag_81:\n        /* \"#utility.yul\":2120:2165   */\n      tag_82\n      jump\t// in\n    tag_80:\n        /* \"#utility.yul\":2115:2118   */\n      dup3\n        /* \"#utility.yul\":2108:2166   */\n      mstore\n        /* \"#utility.yul\":2015:2172   */\n      pop\n      pop\n      jump\t// out\n        /* \"#utility.yul\":2178:2388   */\n    tag_83:\n        /* \"#utility.yul\":2303:2381   */\n      tag_85\n        /* \"#utility.yul\":2323:2380   */\n      tag_86\n        /* \"#utility.yul\":2374:2379   */\n      dup3\n        /* \"#utility.yul\":2323:2380   */\n      tag_87\n      jump\t// in\n    tag_86:\n        /* \"#utility.yul\":2303:2381   */\n      tag_73\n      jump\t// in\n    tag_85:\n        /* \"#utility.yul\":2298:2301   */\n      dup3\n        /* \"#utility.yul\":2291:2382   */\n      mstore\n        /* \"#utility.yul\":2178:2388   */\n      pop\n      pop\n      jump\t// out\n        /* \"#utility.yul\":2394:2796   */\n    tag_88:\n        /* \"#utility.yul\":2554:2557   */\n      0x00\n        /* \"#utility.yul\":2575:2660   */\n      tag_90\n        /* \"#utility.yul\":2657:2659   */\n      0x1c\n        /* \"#utility.yul\":2652:2655   */\n      dup4\n        /* \"#utility.yul\":2575:2660   */\n      tag_91\n      jump\t// in\n    tag_90:\n        /* \"#utility.yul\":2568:2660   */\n      swap2\n      pop\n        /* \"#utility.yul\":2669:2762   */\n      tag_92\n        /* \"#utility.yul\":2758:2761   */\n      dup3\n        /* \"#utility.yul\":2669:2762   */\n      tag_93\n      jump\t// in\n    tag_92:\n        /* \"#utility.yul\":2787:2789   */\n      0x1c\n        /* \"#utility.yul\":2782:2785   */\n      dup3\n        /* \"#utility.yul\":2778:2790   */\n      add\n        /* \"#utility.yul\":2771:2790   */\n      swap1\n      pop\n        /* \"#utility.yul\":2394:2796   */\n      swap2\n      swap1\n      pop\n      jump\t// out\n        /* \"#utility.yul\":2802:2959   */\n    tag_94:\n        /* \"#utility.yul\":2907:2952   */\n      tag_96\n        /* \"#utility.yul\":2927:2951   */\n      tag_97\n        /* \"#utility.yul\":2945:2950   */\n      dup3\n        /* \"#utility.yul\":2927:2951   */\n      tag_98\n      jump\t// in\n    tag_97:\n        /* \"#utility.yul\":2907:2952   */\n      tag_99\n      jump\t// in\n    tag_96:\n        /* \"#utility.yul\":2902:2905   */\n      dup3\n        /* \"#utility.yul\":2895:2953   */\n      mstore\n        /* \"#utility.yul\":2802:2959   */\n      pop\n      pop\n      jump\t// out\n        /* \"#utility.yul\":2965:3077   */\n    tag_100:\n        /* \"#utility.yul\":3048:3070   */\n      tag_102\n        /* \"#utility.yul\":3064:3069   */\n      dup2\n        /* \"#utility.yul\":3048:3070   */\n      tag_103\n      jump\t// in\n    tag_102:\n        /* \"#utility.yul\":3043:3046   */\n      dup3\n        /* \"#utility.yul\":3036:3071   */\n      mstore\n        /* \"#utility.yul\":2965:3077   */\n      pop\n      pop\n      jump\t// out\n        /* \"#utility.yul\":3083:3802   */\n    tag_15:\n        /* \"#utility.yul\":3299:3302   */\n      0x00\n        /* \"#utility.yul\":3314:3389   */\n      tag_105\n        /* \"#utility.yul\":3385:3388   */\n      dup3\n        /* \"#utility.yul\":3376:3382   */\n      dup8\n        /* \"#utility.yul\":3314:3389   */\n      tag_68\n      jump\t// in\n    tag_105:\n        /* \"#utility.yul\":3414:3416   */\n      0x14\n        /* \"#utility.yul\":3409:3412   */\n      dup3\n        /* \"#utility.yul\":3405:3417   */\n      add\n        /* \"#utility.yul\":3398:3417   */\n      swap2\n      pop\n        /* \"#utility.yul\":3427:3502   */\n      tag_106\n        /* \"#utility.yul\":3498:3501   */\n      dup3\n        /* \"#utility.yul\":3489:3495   */\n      dup7\n        /* \"#utility.yul\":3427:3502   */\n      tag_94\n      jump\t// in\n    tag_106:\n        /* \"#utility.yul\":3527:3529   */\n      0x20\n        /* \"#utility.yul\":3522:3525   */\n      dup3\n        /* \"#utility.yul\":3518:3530   */\n      add\n        /* \"#utility.yul\":3511:3530   */\n      swap2\n      pop\n        /* \"#utility.yul\":3540:3615   */\n      tag_107\n        /* \"#utility.yul\":3611:3614   */\n      dup3\n        /* \"#utility.yul\":3602:3608   */\n      dup6\n        /* \"#utility.yul\":3540:3615   */\n      tag_94\n      jump\t// in\n    tag_107:\n        /* \"#utility.yul\":3640:3642   */\n      0x20\n        /* \"#utility.yul\":3635:3638   */\n      dup3\n        /* \"#utility.yul\":3631:3643   */\n      add\n        /* \"#utility.yul\":3624:3643   */\n      swap2\n      pop\n        /* \"#utility.yul\":3653:3748   */\n      tag_108\n        /* \"#utility.yul\":3744:3747   */\n      dup3\n        /* \"#utility.yul\":3735:3741   */\n      dup5\n        /* \"#utility.yul\":3653:3748   */\n      tag_83\n      jump\t// in\n    tag_108:\n        /* \"#utility.yul\":3773:3775   */\n      0x14\n        /* \"#utility.yul\":3768:3771   */\n      dup3\n        /* \"#utility.yul\":3764:3776   */\n      add\n        /* \"#utility.yul\":3757:3776   */\n      swap2\n      pop\n        /* \"#utility.yul\":3793:3796   */\n      dup2\n        /* \"#utility.yul\":3786:3796   */\n      swap1\n      pop\n        /* \"#utility.yul\":3083:3802   */\n      swap6\n      swap5\n      pop\n      pop\n      pop\n      pop\n      pop\n      jump\t// out\n        /* \"#utility.yul\":3808:4330   */\n    tag_26:\n        /* \"#utility.yul\":4021:4024   */\n      0x00\n        /* \"#utility.yul\":4043:4191   */\n      tag_110\n        /* \"#utility.yul\":4187:4190   */\n      dup3\n        /* \"#utility.yul\":4043:4191   */\n      tag_88\n      jump\t// in\n    tag_110:\n        /* \"#utility.yul\":4036:4191   */\n      swap2\n      pop\n        /* \"#utility.yul\":4201:4276   */\n      tag_111\n        /* \"#utility.yul\":4272:4275   */\n      dup3\n        /* \"#utility.yul\":4263:4269   */\n      dup5\n        /* \"#utility.yul\":4201:4276   */\n      tag_78\n      jump\t// in\n    tag_111:\n        /* \"#utility.yul\":4301:4303   */\n      0x20\n        /* \"#utility.yul\":4296:4299   */\n      dup3\n        /* \"#utility.yul\":4292:4304   */\n      add\n        /* \"#utility.yul\":4285:4304   */\n      swap2\n      pop\n        /* \"#utility.yul\":4321:4324   */\n      dup2\n        /* \"#utility.yul\":4314:4324   */\n      swap1\n      pop\n        /* \"#utility.yul\":3808:4330   */\n      swap3\n      swap2\n      pop\n      pop\n      jump\t// out\n        /* \"#utility.yul\":4336:4881   */\n    tag_31:\n        /* \"#utility.yul\":4509:4513   */\n      0x00\n        /* \"#utility.yul\":4547:4550   */\n      0x80\n        /* \"#utility.yul\":4536:4545   */\n      dup3\n        /* \"#utility.yul\":4532:4551   */\n      add\n        /* \"#utility.yul\":4524:4551   */\n      swap1\n      pop\n        /* \"#utility.yul\":4561:4632   */\n      tag_113\n        /* \"#utility.yul\":4629:4630   */\n      0x00\n        /* \"#utility.yul\":4618:4627   */\n      dup4\n        /* \"#utility.yul\":4614:4631   */\n      add\n        /* \"#utility.yul\":4605:4611   */\n      dup8\n        /* \"#utility.yul\":4561:4632   */\n      tag_74\n      jump\t// in\n    tag_113:\n        /* \"#utility.yul\":4642:4710   */\n      tag_114\n        /* \"#utility.yul\":4706:4708   */\n      0x20\n        /* \"#utility.yul\":4695:4704   */\n      dup4\n        /* \"#utility.yul\":4691:4709   */\n      add\n        /* \"#utility.yul\":4682:4688   */\n      dup7\n        /* \"#utility.yul\":4642:4710   */\n      tag_100\n      jump\t// in\n    tag_114:\n        /* \"#utility.yul\":4720:4792   */\n      tag_115\n        /* \"#utility.yul\":4788:4790   */\n      0x40\n        /* \"#utility.yul\":4777:4786   */\n      dup4\n        /* \"#utility.yul\":4773:4791   */\n      add\n        /* \"#utility.yul\":4764:4770   */\n      dup6\n        /* \"#utility.yul\":4720:4792   */\n      tag_74\n      jump\t// in\n    tag_115:\n        /* \"#utility.yul\":4802:4874   */\n      tag_116\n        /* \"#utility.yul\":4870:4872   */\n      0x60\n        /* \"#utility.yul\":4859:4868   */\n      dup4\n        /* \"#utility.yul\":4855:4873   */\n      add\n        /* \"#utility.yul\":4846:4852   */\n      dup5\n        /* \"#utility.yul\":4802:4874   */\n      tag_74\n      jump\t// in\n    tag_116:\n        /* \"#utility.yul\":4336:4881   */\n      swap6\n      swap5\n      pop\n      pop\n      pop\n      pop\n      pop\n      jump\t// out\n        /* \"#utility.yul\":4887:5016   */\n    tag_42:\n        /* \"#utility.yul\":4921:4927   */\n      0x00\n        /* \"#utility.yul\":4948:4968   */\n      tag_118\n      tag_119\n      jump\t// in\n    tag_118:\n        /* \"#utility.yul\":4938:4968   */\n      swap1\n      pop\n        /* \"#utility.yul\":4977:5010   */\n      tag_120\n        /* \"#utility.yul\":5005:5009   */\n      dup3\n        /* \"#utility.yul\":4997:5003   */\n      dup3\n        /* \"#utility.yul\":4977:5010   */\n      tag_121\n      jump\t// in\n    tag_120:\n        /* \"#utility.yul\":4887:5016   */\n      swap2\n      swap1\n      pop\n      jump\t// out\n        /* \"#utility.yul\":5022:5097   */\n    tag_119:\n        /* \"#utility.yul\":5055:5061   */\n      0x00\n        /* \"#utility.yul\":5088:5090   */\n      0x40\n        /* \"#utility.yul\":5082:5091   */\n      mload\n        /* \"#utility.yul\":5072:5091   */\n      swap1\n      pop\n        /* \"#utility.yul\":5022:5097   */\n      swap1\n      jump\t// out\n        /* \"#utility.yul\":5103:5410   */\n    tag_41:\n        /* \"#utility.yul\":5164:5168   */\n      0x00\n        /* \"#utility.yul\":5254:5272   */\n      0xffffffffffffffff\n        /* \"#utility.yul\":5246:5252   */\n      dup3\n        /* \"#utility.yul\":5243:5273   */\n      gt\n        /* \"#utility.yul\":5240:5296   */\n      iszero\n      tag_124\n      jumpi\n        /* \"#utility.yul\":5276:5294   */\n      tag_125\n      tag_126\n      jump\t// in\n    tag_125:\n        /* \"#utility.yul\":5240:5296   */\n    tag_124:\n        /* \"#utility.yul\":5314:5343   */\n      tag_127\n        /* \"#utility.yul\":5336:5342   */\n      dup3\n        /* \"#utility.yul\":5314:5343   */\n      tag_128\n      jump\t// in\n    tag_127:\n        /* \"#utility.yul\":5306:5343   */\n      swap1\n      pop\n        /* \"#utility.yul\":5398:5402   */\n      0x20\n        /* \"#utility.yul\":5392:5396   */\n      dup2\n        /* \"#utility.yul\":5388:5403   */\n      add\n        /* \"#utility.yul\":5380:5403   */\n      swap1\n      pop\n        /* \"#utility.yul\":5103:5410   */\n      swap2\n      swap1\n      pop\n      jump\t// out\n        /* \"#utility.yul\":5416:5564   */\n    tag_91:\n        /* \"#utility.yul\":5518:5529   */\n      0x00\n        /* \"#utility.yul\":5555:5558   */\n      dup2\n        /* \"#utility.yul\":5540:5558   */\n      swap1\n      pop\n        /* \"#utility.yul\":5416:5564   */\n      swap3\n      swap2\n      pop\n      pop\n      jump\t// out\n        /* \"#utility.yul\":5570:5666   */\n    tag_72:\n        /* \"#utility.yul\":5607:5614   */\n      0x00\n        /* \"#utility.yul\":5636:5660   */\n      tag_131\n        /* \"#utility.yul\":5654:5659   */\n      dup3\n        /* \"#utility.yul\":5636:5660   */\n      tag_132\n      jump\t// in\n    tag_131:\n        /* \"#utility.yul\":5625:5660   */\n      swap1\n      pop\n        /* \"#utility.yul\":5570:5666   */\n      swap2\n      swap1\n      pop\n      jump\t// out\n        /* \"#utility.yul\":5672:5749   */\n    tag_77:\n        /* \"#utility.yul\":5709:5716   */\n      0x00\n        /* \"#utility.yul\":5738:5743   */\n      dup2\n        /* \"#utility.yul\":5727:5743   */\n      swap1\n      pop\n        /* \"#utility.yul\":5672:5749   */\n      swap2\n      swap1\n      pop\n      jump\t// out\n        /* \"#utility.yul\":5755:5881   */\n    tag_132:\n        /* \"#utility.yul\":5792:5799   */\n      0x00\n        /* \"#utility.yul\":5832:5874   */\n      0xffffffffffffffffffffffffffffffffffffffff\n        /* \"#utility.yul\":5825:5830   */\n      dup3\n        /* \"#utility.yul\":5821:5875   */\n      and\n        /* \"#utility.yul\":5810:5875   */\n      swap1\n      pop\n        /* \"#utility.yul\":5755:5881   */\n      swap2\n      swap1\n      pop\n      jump\t// out\n        /* \"#utility.yul\":5887:5964   */\n    tag_98:\n        /* \"#utility.yul\":5924:5931   */\n      0x00\n        /* \"#utility.yul\":5953:5958   */\n      dup2\n        /* \"#utility.yul\":5942:5958   */\n      swap1\n      pop\n        /* \"#utility.yul\":5887:5964   */\n      swap2\n      swap1\n      pop\n      jump\t// out\n        /* \"#utility.yul\":5970:6056   */\n    tag_103:\n        /* \"#utility.yul\":6005:6012   */\n      0x00\n        /* \"#utility.yul\":6045:6049   */\n      0xff\n        /* \"#utility.yul\":6038:6043   */\n      dup3\n        /* \"#utility.yul\":6034:6050   */\n      and\n        /* \"#utility.yul\":6023:6050   */\n      swap1\n      pop\n        /* \"#utility.yul\":5970:6056   */\n      swap2\n      swap1\n      pop\n      jump\t// out\n        /* \"#utility.yul\":6062:6208   */\n    tag_87:\n        /* \"#utility.yul\":6132:6141   */\n      0x00\n        /* \"#utility.yul\":6165:6202   */\n      tag_138\n        /* \"#utility.yul\":6196:6201   */\n      dup3\n        /* \"#utility.yul\":6165:6202   */\n      tag_139\n      jump\t// in\n    tag_138:\n        /* \"#utility.yul\":6152:6202   */\n      swap1\n      pop\n        /* \"#utility.yul\":6062:6208   */\n      swap2\n      swap1\n      pop\n      jump\t// out\n        /* \"#utility.yul\":6214:6340   */\n    tag_139:\n        /* \"#utility.yul\":6264:6273   */\n      0x00\n        /* \"#utility.yul\":6297:6334   */\n      tag_141\n        /* \"#utility.yul\":6328:6333   */\n      dup3\n        /* \"#utility.yul\":6297:6334   */\n      tag_142\n      jump\t// in\n    tag_141:\n        /* \"#utility.yul\":6284:6334   */\n      swap1\n      pop\n        /* \"#utility.yul\":6214:6340   */\n      swap2\n      swap1\n      pop\n      jump\t// out\n        /* \"#utility.yul\":6346:6459   */\n    tag_142:\n        /* \"#utility.yul\":6396:6405   */\n      0x00\n        /* \"#utility.yul\":6429:6453   */\n      tag_144\n        /* \"#utility.yul\":6447:6452   */\n      dup3\n        /* \"#utility.yul\":6429:6453   */\n      tag_132\n      jump\t// in\n    tag_144:\n        /* \"#utility.yul\":6416:6453   */\n      swap1\n      pop\n        /* \"#utility.yul\":6346:6459   */\n      swap2\n      swap1\n      pop\n      jump\t// out\n        /* \"#utility.yul\":6465:6619   */\n    tag_47:\n        /* \"#utility.yul\":6549:6555   */\n      dup3\n        /* \"#utility.yul\":6544:6547   */\n      dup2\n        /* \"#utility.yul\":6539:6542   */\n      dup4\n        /* \"#utility.yul\":6526:6556   */\n      calldatacopy\n        /* \"#utility.yul\":6611:6612   */\n      0x00\n        /* \"#utility.yul\":6602:6608   */\n      dup4\n        /* \"#utility.yul\":6597:6600   */\n      dup4\n        /* \"#utility.yul\":6593:6609   */\n      add\n        /* \"#utility.yul\":6586:6613   */\n      mstore\n        /* \"#utility.yul\":6465:6619   */\n      pop\n      pop\n      pop\n      jump\t// out\n        /* \"#utility.yul\":6625:6906   */\n    tag_121:\n        /* \"#utility.yul\":6708:6735   */\n      tag_147\n        /* \"#utility.yul\":6730:6734   */\n      dup3\n        /* \"#utility.yul\":6708:6735   */\n      tag_128\n      jump\t// in\n    tag_147:\n        /* \"#utility.yul\":6700:6706   */\n      dup2\n        /* \"#utility.yul\":6696:6736   */\n      add\n        /* \"#utility.yul\":6838:6844   */\n      dup2\n        /* \"#utility.yul\":6826:6836   */\n      dup2\n        /* \"#utility.yul\":6823:6845   */\n      lt\n        /* \"#utility.yul\":6802:6820   */\n      0xffffffffffffffff\n        /* \"#utility.yul\":6790:6800   */\n      dup3\n        /* \"#utility.yul\":6787:6821   */\n      gt\n        /* \"#utility.yul\":6784:6846   */\n      or\n        /* \"#utility.yul\":6781:6869   */\n      iszero\n      tag_148\n      jumpi\n        /* \"#utility.yul\":6849:6867   */\n      tag_149\n      tag_126\n      jump\t// in\n    tag_149:\n        /* \"#utility.yul\":6781:6869   */\n    tag_148:\n        /* \"#utility.yul\":6889:6899   */\n      dup1\n        /* \"#utility.yul\":6885:6887   */\n      0x40\n        /* \"#utility.yul\":6878:6900   */\n      mstore\n        /* \"#utility.yul\":6668:6906   */\n      pop\n        /* \"#utility.yul\":6625:6906   */\n      pop\n      pop\n      jump\t// out\n        /* \"#utility.yul\":6912:7012   */\n    tag_73:\n        /* \"#utility.yul\":6951:6958   */\n      0x00\n        /* \"#utility.yul\":6980:7006   */\n      tag_151\n        /* \"#utility.yul\":7000:7005   */\n      dup3\n        /* \"#utility.yul\":6980:7006   */\n      tag_152\n      jump\t// in\n    tag_151:\n        /* \"#utility.yul\":6969:7006   */\n      swap1\n      pop\n        /* \"#utility.yul\":6912:7012   */\n      swap2\n      swap1\n      pop\n      jump\t// out\n        /* \"#utility.yul\":7018:7097   */\n    tag_82:\n        /* \"#utility.yul\":7057:7064   */\n      0x00\n        /* \"#utility.yul\":7086:7091   */\n      dup2\n        /* \"#utility.yul\":7075:7091   */\n      swap1\n      pop\n        /* \"#utility.yul\":7018:7097   */\n      swap2\n      swap1\n      pop\n      jump\t// out\n        /* \"#utility.yul\":7103:7197   */\n    tag_152:\n        /* \"#utility.yul\":7142:7149   */\n      0x00\n        /* \"#utility.yul\":7171:7191   */\n      tag_155\n        /* \"#utility.yul\":7185:7190   */\n      dup3\n        /* \"#utility.yul\":7171:7191   */\n      tag_156\n      jump\t// in\n    tag_155:\n        /* \"#utility.yul\":7160:7191   */\n      swap1\n      pop\n        /* \"#utility.yul\":7103:7197   */\n      swap2\n      swap1\n      pop\n      jump\t// out\n        /* \"#utility.yul\":7203:7282   */\n    tag_99:\n        /* \"#utility.yul\":7242:7249   */\n      0x00\n        /* \"#utility.yul\":7271:7276   */\n      dup2\n        /* \"#utility.yul\":7260:7276   */\n      swap1\n      pop\n        /* \"#utility.yul\":7203:7282   */\n      swap2\n      swap1\n      pop\n      jump\t// out\n        /* \"#utility.yul\":7288:7468   */\n    tag_126:\n        /* \"#utility.yul\":7336:7413   */\n      0x4e487b7100000000000000000000000000000000000000000000000000000000\n        /* \"#utility.yul\":7333:7334   */\n      0x00\n        /* \"#utility.yul\":7326:7414   */\n      mstore\n        /* \"#utility.yul\":7433:7437   */\n      0x41\n        /* \"#utility.yul\":7430:7431   */\n      0x04\n        /* \"#utility.yul\":7423:7438   */\n      mstore\n        /* \"#utility.yul\":7457:7461   */\n      0x24\n        /* \"#utility.yul\":7454:7455   */\n      0x00\n        /* \"#utility.yul\":7447:7462   */\n      revert\n        /* \"#utility.yul\":7474:7591   */\n    tag_52:\n        /* \"#utility.yul\":7583:7584   */\n      0x00\n        /* \"#utility.yul\":7580:7581   */\n      dup1\n        /* \"#utility.yul\":7573:7585   */\n      revert\n        /* \"#utility.yul\":7597:7714   */\n    tag_45:\n        /* \"#utility.yul\":7706:7707   */\n      0x00\n        /* \"#utility.yul\":7703:7704   */\n      dup1\n        /* \"#utility.yul\":7696:7708   */\n      revert\n        /* \"#utility.yul\":7720:7837   */\n    tag_66:\n        /* \"#utility.yul\":7829:7830   */\n      0x00\n        /* \"#utility.yul\":7826:7827   */\n      dup1\n        /* \"#utility.yul\":7819:7831   */\n      revert\n        /* \"#utility.yul\":7843:7960   */\n    tag_61:\n        /* \"#utility.yul\":7952:7953   */\n      0x00\n        /* \"#utility.yul\":7949:7950   */\n      dup1\n        /* \"#utility.yul\":7942:7954   */\n      revert\n        /* \"#utility.yul\":7966:8068   */\n    tag_128:\n        /* \"#utility.yul\":8007:8013   */\n      0x00\n        /* \"#utility.yul\":8058:8060   */\n      0x1f\n        /* \"#utility.yul\":8054:8061   */\n      not\n        /* \"#utility.yul\":8049:8051   */\n      0x1f\n        /* \"#utility.yul\":8042:8047   */\n      dup4\n        /* \"#utility.yul\":8038:8052   */\n      add\n        /* \"#utility.yul\":8034:8062   */\n      and\n        /* \"#utility.yul\":8024:8062   */\n      swap1\n      pop\n        /* \"#utility.yul\":7966:8068   */\n      swap2\n      swap1\n      pop\n      jump\t// out\n        /* \"#utility.yul\":8074:8168   */\n    tag_156:\n        /* \"#utility.yul\":8107:8115   */\n      0x00\n        /* \"#utility.yul\":8155:8160   */\n      dup2\n        /* \"#utility.yul\":8151:8153   */\n      0x60\n        /* \"#utility.yul\":8147:8161   */\n      shl\n        /* \"#utility.yul\":8126:8161   */\n      swap1\n      pop\n        /* \"#utility.yul\":8074:8168   */\n      swap2\n      swap1\n      pop\n      jump\t// out\n        /* \"#utility.yul\":8174:8388   */\n    tag_93:\n        /* \"#utility.yul\":8314:8380   */\n      0x19457468657265756d205369676e6564204d6573736167653a0a333200000000\n        /* \"#utility.yul\":8310:8311   */\n      0x00\n        /* \"#utility.yul\":8302:8308   */\n      dup3\n        /* \"#utility.yul\":8298:8312   */\n      add\n        /* \"#utility.yul\":8291:8381   */\n      mstore\n        /* \"#utility.yul\":8174:8388   */\n      pop\n      jump\t// out\n        /* \"#utility.yul\":8394:8516   */\n    tag_57:\n        /* \"#utility.yul\":8467:8491   */\n      tag_167\n        /* \"#utility.yul\":8485:8490   */\n      dup2\n        /* \"#utility.yul\":8467:8491   */\n      tag_98\n      jump\t// in\n    tag_167:\n        /* \"#utility.yul\":8460:8465   */\n      dup2\n        /* \"#utility.yul\":8457:8492   */\n      eq\n        /* \"#utility.yul\":8447:8510   */\n      tag_168\n      jumpi\n        /* \"#utility.yul\":8506:8507   */\n      0x00\n        /* \"#utility.yul\":8503:8504   */\n      dup1\n        /* \"#utility.yul\":8496:8508   */\n      revert\n        /* \"#utility.yul\":8447:8510   */\n    tag_168:\n        /* \"#utility.yul\":8394:8516   */\n      pop\n      jump\t// out\n\n    auxdata: 0xa2646970667358221220015f0eafcf4285b0b82ffbb4910e2ed19bba0531609c2520f41c61fdb78a726464736f6c63430008070033\n}\n",
				"bytecode": {
					"linkReferences": {},
					"object": "6080604052336000806101000a81548173ffffffffffffffffffffffffffffffffffffffff021916908373ffffffffffffffffffffffffffffffffffffffff160217905550610763806100536000396000f3fe608060405234801561001057600080fd5b50600436106100365760003560e01c8063a90ae8871461003b578063fc0e74d114610057575b600080fd5b61005560048036038101906100509190610365565b610061565b005b61005f61019e565b005b6001600083815260200190815260200160002060009054906101000a900460ff161561008c57600080fd5b600180600084815260200190815260200160002060006101000a81548160ff02191690831515021790555060006100ee338585306040516020016100d39493929190610471565b6040516020818303038152906040528051906020012061020f565b905060008054906101000a900473ffffffffffffffffffffffffffffffffffffffff1673ffffffffffffffffffffffffffffffffffffffff16610131828461023f565b73ffffffffffffffffffffffffffffffffffffffff161461015157600080fd5b3373ffffffffffffffffffffffffffffffffffffffff166108fc859081150290604051600060405180830381858888f19350505050158015610197573d6000803e3d6000fd5b5050505050565b60008054906101000a900473ffffffffffffffffffffffffffffffffffffffff1673ffffffffffffffffffffffffffffffffffffffff163373ffffffffffffffffffffffffffffffffffffffff16146101f657600080fd5b3373ffffffffffffffffffffffffffffffffffffffff16ff5b60008160405160200161022291906104bf565b604051602081830303815290604052805190602001209050919050565b60008060008061024e856102ae565b9250925092506001868484846040516000815260200160405260405161027794939291906104e5565b6020604051602081039080840390855afa158015610299573d6000803e3d6000fd5b50505060206040510351935050505092915050565b600080600060418451146102c157600080fd5b6020840151915060408401519050606084015160001a92509193909250565b60006102f36102ee8461054f565b61052a565b90508281526020810184848401111561030f5761030e6106c0565b5b61031a848285610614565b509392505050565b600082601f830112610337576103366106bb565b5b81356103478482602086016102e0565b91505092915050565b60008135905061035f81610716565b92915050565b60008060006060848603121561037e5761037d6106ca565b5b600061038c86828701610350565b935050602061039d86828701610350565b925050604084013567ffffffffffffffff8111156103be576103bd6106c5565b5b6103ca86828701610322565b9150509250925092565b6103e56103e08261058b565b610654565b82525050565b6103f48161059d565b82525050565b61040b6104068261059d565b610666565b82525050565b61042261041d826105de565b610654565b82525050565b6000610435601c83610580565b9150610440826106ed565b601c82019050919050565b61045c610457826105c7565b610682565b82525050565b61046b816105d1565b82525050565b600061047d82876103d4565b60148201915061048d828661044b565b60208201915061049d828561044b565b6020820191506104ad8284610411565b60148201915081905095945050505050565b60006104ca82610428565b91506104d682846103fa565b60208201915081905092915050565b60006080820190506104fa60008301876103eb565b6105076020830186610462565b61051460408301856103eb565b61052160608301846103eb565b95945050505050565b6000610534610545565b90506105408282610623565b919050565b6000604051905090565b600067ffffffffffffffff82111561056a5761056961068c565b5b610573826106cf565b9050602081019050919050565b600081905092915050565b6000610596826105a7565b9050919050565b6000819050919050565b600073ffffffffffffffffffffffffffffffffffffffff82169050919050565b6000819050919050565b600060ff82169050919050565b60006105e9826105f0565b9050919050565b60006105fb82610602565b9050919050565b600061060d826105a7565b9050919050565b82818337600083830152505050565b61062c826106cf565b810181811067ffffffffffffffff8211171561064b5761064a61068c565b5b80604052505050565b600061065f82610670565b9050919050565b6000819050919050565b600061067b826106e0565b9050919050565b6000819050919050565b7f4e487b7100000000000000000000000000000000000000000000000000000000600052604160045260246000fd5b600080fd5b600080fd5b600080fd5b600080fd5b6000601f19601f8301169050919050565b60008160601b9050919050565b7f19457468657265756d205369676e6564204d6573736167653a0a333200000000600082015250565b61071f816105c7565b811461072a57600080fd5b5056fea2646970667358221220015f0eafcf4285b0b82ffbb4910e2ed19bba0531609c2520f41c61fdb78a726464736f6c63430008070033",
					"opcodes": "PUSH1 0x80 PUSH1 0x40 MSTORE CALLER PUSH1 0x0 DUP1 PUSH2 0x100 EXP DUP2 SLOAD DUP2 PUSH20 0xFFFFFFFFFFFFFFFFFFFFFFFFFFFFFFFFFFFFFFFF MUL NOT AND SWAP1 DUP4 PUSH20 0xFFFFFFFFFFFFFFFFFFFFFFFFFFFFFFFFFFFFFFFF AND MUL OR SWAP1 SSTORE POP PUSH2 0x763 DUP1 PUSH2 0x53 PUSH1 0x0 CODECOPY PUSH1 0x0 RETURN INVALID PUSH1 0x80 PUSH1 0x40 MSTORE CALLVALUE DUP1 ISZERO PUSH2 0x10 JUMPI PUSH1 0x0 DUP1 REVERT JUMPDEST POP PUSH1 0x4 CALLDATASIZE LT PUSH2 0x36 JUMPI PUSH1 0x0 CALLDATALOAD PUSH1 0xE0 SHR DUP1 PUSH4 0xA90AE887 EQ PUSH2 0x3B JUMPI DUP1 PUSH4 0xFC0E74D1 EQ PUSH2 0x57 JUMPI JUMPDEST PUSH1 0x0 DUP1 REVERT JUMPDEST PUSH2 0x55 PUSH1 0x4 DUP1 CALLDATASIZE SUB DUP2 ADD SWAP1 PUSH2 0x50 SWAP2 SWAP1 PUSH2 0x365 JUMP JUMPDEST PUSH2 0x61 JUMP JUMPDEST STOP JUMPDEST PUSH2 0x5F PUSH2 0x19E JUMP JUMPDEST STOP JUMPDEST PUSH1 0x1 PUSH1 0x0 DUP4 DUP2 MSTORE PUSH1 0x20 ADD SWAP1 DUP2 MSTORE PUSH1 0x20 ADD PUSH1 0x0 KECCAK256 PUSH1 0x0 SWAP1 SLOAD SWAP1 PUSH2 0x100 EXP SWAP1 DIV PUSH1 0xFF AND ISZERO PUSH2 0x8C JUMPI PUSH1 0x0 DUP1 REVERT JUMPDEST PUSH1 0x1 DUP1 PUSH1 0x0 DUP5 DUP2 MSTORE PUSH1 0x20 ADD SWAP1 DUP2 MSTORE PUSH1 0x20 ADD PUSH1 0x0 KECCAK256 PUSH1 0x0 PUSH2 0x100 EXP DUP2 SLOAD DUP2 PUSH1 0xFF MUL NOT AND SWAP1 DUP4 ISZERO ISZERO MUL OR SWAP1 SSTORE POP PUSH1 0x0 PUSH2 0xEE CALLER DUP6 DUP6 ADDRESS PUSH1 0x40 MLOAD PUSH1 0x20 ADD PUSH2 0xD3 SWAP5 SWAP4 SWAP3 SWAP2 SWAP1 PUSH2 0x471 JUMP JUMPDEST PUSH1 0x40 MLOAD PUSH1 0x20 DUP2 DUP4 SUB SUB DUP2 MSTORE SWAP1 PUSH1 0x40 MSTORE DUP1 MLOAD SWAP1 PUSH1 0x20 ADD KECCAK256 PUSH2 0x20F JUMP JUMPDEST SWAP1 POP PUSH1 0x0 DUP1 SLOAD SWAP1 PUSH2 0x100 EXP SWAP1 DIV PUSH20 0xFFFFFFFFFFFFFFFFFFFFFFFFFFFFFFFFFFFFFFFF AND PUSH20 0xFFFFFFFFFFFFFFFFFFFFFFFFFFFFFFFFFFFFFFFF AND PUSH2 0x131 DUP3 DUP5 PUSH2 0x23F JUMP JUMPDEST PUSH20 0xFFFFFFFFFFFFFFFFFFFFFFFFFFFFFFFFFFFFFFFF AND EQ PUSH2 0x151 JUMPI PUSH1 0x0 DUP1 REVERT JUMPDEST CALLER PUSH20 0xFFFFFFFFFFFFFFFFFFFFFFFFFFFFFFFFFFFFFFFF AND PUSH2 0x8FC DUP6 SWAP1 DUP2 ISZERO MUL SWAP1 PUSH1 0x40 MLOAD PUSH1 0x0 PUSH1 0x40 MLOAD DUP1 DUP4 SUB DUP2 DUP6 DUP9 DUP9 CALL SWAP4 POP POP POP POP ISZERO DUP1 ISZERO PUSH2 0x197 JUMPI RETURNDATASIZE PUSH1 0x0 DUP1 RETURNDATACOPY RETURNDATASIZE PUSH1 0x0 REVERT JUMPDEST POP POP POP POP POP JUMP JUMPDEST PUSH1 0x0 DUP1 SLOAD SWAP1 PUSH2 0x100 EXP SWAP1 DIV PUSH20 0xFFFFFFFFFFFFFFFFFFFFFFFFFFFFFFFFFFFFFFFF AND PUSH20 0xFFFFFFFFFFFFFFFFFFFFFFFFFFFFFFFFFFFFFFFF AND CALLER PUSH20 0xFFFFFFFFFFFFFFFFFFFFFFFFFFFFFFFFFFFFFFFF AND EQ PUSH2 0x1F6 JUMPI PUSH1 0x0 DUP1 REVERT JUMPDEST CALLER PUSH20 0xFFFFFFFFFFFFFFFFFFFFFFFFFFFFFFFFFFFFFFFF AND SELFDESTRUCT JUMPDEST PUSH1 0x0 DUP2 PUSH1 0x40 MLOAD PUSH1 0x20 ADD PUSH2 0x222 SWAP2 SWAP1 PUSH2 0x4BF JUMP JUMPDEST PUSH1 0x40 MLOAD PUSH1 0x20 DUP2 DUP4 SUB SUB DUP2 MSTORE SWAP1 PUSH1 0x40 MSTORE DUP1 MLOAD SWAP1 PUSH1 0x20 ADD KECCAK256 SWAP1 POP SWAP2 SWAP1 POP JUMP JUMPDEST PUSH1 0x0 DUP1 PUSH1 0x0 DUP1 PUSH2 0x24E DUP6 PUSH2 0x2AE JUMP JUMPDEST SWAP3 POP SWAP3 POP SWAP3 POP PUSH1 0x1 DUP7 DUP5 DUP5 DUP5 PUSH1 0x40 MLOAD PUSH1 0x0 DUP2 MSTORE PUSH1 0x20 ADD PUSH1 0x40 MSTORE PUSH1 0x40 MLOAD PUSH2 0x277 SWAP5 SWAP4 SWAP3 SWAP2 SWAP1 PUSH2 0x4E5 JUMP JUMPDEST PUSH1 0x20 PUSH1 0x40 MLOAD PUSH1 0x20 DUP2 SUB SWAP1 DUP1 DUP5 SUB SWAP1 DUP6 GAS STATICCALL ISZERO DUP1 ISZERO PUSH2 0x299 JUMPI RETURNDATASIZE PUSH1 0x0 DUP1 RETURNDATACOPY RETURNDATASIZE PUSH1 0x0 REVERT JUMPDEST POP POP POP PUSH1 0x20 PUSH1 0x40 MLOAD SUB MLOAD SWAP4 POP POP POP POP SWAP3 SWAP2 POP POP JUMP JUMPDEST PUSH1 0x0 DUP1 PUSH1 0x0 PUSH1 0x41 DUP5 MLOAD EQ PUSH2 0x2C1 JUMPI PUSH1 0x0 DUP1 REVERT JUMPDEST PUSH1 0x20 DUP5 ADD MLOAD SWAP2 POP PUSH1 0x40 DUP5 ADD MLOAD SWAP1 POP PUSH1 0x60 DUP5 ADD MLOAD PUSH1 0x0 BYTE SWAP3 POP SWAP2 SWAP4 SWAP1 SWAP3 POP JUMP JUMPDEST PUSH1 0x0 PUSH2 0x2F3 PUSH2 0x2EE DUP5 PUSH2 0x54F JUMP JUMPDEST PUSH2 0x52A JUMP JUMPDEST SWAP1 POP DUP3 DUP2 MSTORE PUSH1 0x20 DUP2 ADD DUP5 DUP5 DUP5 ADD GT ISZERO PUSH2 0x30F JUMPI PUSH2 0x30E PUSH2 0x6C0 JUMP JUMPDEST JUMPDEST PUSH2 0x31A DUP5 DUP3 DUP6 PUSH2 0x614 JUMP JUMPDEST POP SWAP4 SWAP3 POP POP POP JUMP JUMPDEST PUSH1 0x0 DUP3 PUSH1 0x1F DUP4 ADD SLT PUSH2 0x337 JUMPI PUSH2 0x336 PUSH2 0x6BB JUMP JUMPDEST JUMPDEST DUP2 CALLDATALOAD PUSH2 0x347 DUP5 DUP3 PUSH1 0x20 DUP7 ADD PUSH2 0x2E0 JUMP JUMPDEST SWAP2 POP POP SWAP3 SWAP2 POP POP JUMP JUMPDEST PUSH1 0x0 DUP2 CALLDATALOAD SWAP1 POP PUSH2 0x35F DUP2 PUSH2 0x716 JUMP JUMPDEST SWAP3 SWAP2 POP POP JUMP JUMPDEST PUSH1 0x0 DUP1 PUSH1 0x0 PUSH1 0x60 DUP5 DUP7 SUB SLT ISZERO PUSH2 0x37E JUMPI PUSH2 0x37D PUSH2 0x6CA JUMP JUMPDEST JUMPDEST PUSH1 0x0 PUSH2 0x38C DUP7 DUP3 DUP8 ADD PUSH2 0x350 JUMP JUMPDEST SWAP4 POP POP PUSH1 0x20 PUSH2 0x39D DUP7 DUP3 DUP8 ADD PUSH2 0x350 JUMP JUMPDEST SWAP3 POP POP PUSH1 0x40 DUP5 ADD CALLDATALOAD PUSH8 0xFFFFFFFFFFFFFFFF DUP2 GT ISZERO PUSH2 0x3BE JUMPI PUSH2 0x3BD PUSH2 0x6C5 JUMP JUMPDEST JUMPDEST PUSH2 0x3CA DUP7 DUP3 DUP8 ADD PUSH2 0x322 JUMP JUMPDEST SWAP2 POP POP SWAP3 POP SWAP3 POP SWAP3 JUMP JUMPDEST PUSH2 0x3E5 PUSH2 0x3E0 DUP3 PUSH2 0x58B JUMP JUMPDEST PUSH2 0x654 JUMP JUMPDEST DUP3 MSTORE POP POP JUMP JUMPDEST PUSH2 0x3F4 DUP2 PUSH2 0x59D JUMP JUMPDEST DUP3 MSTORE POP POP JUMP JUMPDEST PUSH2 0x40B PUSH2 0x406 DUP3 PUSH2 0x59D JUMP JUMPDEST PUSH2 0x666 JUMP JUMPDEST DUP3 MSTORE POP POP JUMP JUMPDEST PUSH2 0x422 PUSH2 0x41D DUP3 PUSH2 0x5DE JUMP JUMPDEST PUSH2 0x654 JUMP JUMPDEST DUP3 MSTORE POP POP JUMP JUMPDEST PUSH1 0x0 PUSH2 0x435 PUSH1 0x1C DUP4 PUSH2 0x580 JUMP JUMPDEST SWAP2 POP PUSH2 0x440 DUP3 PUSH2 0x6ED JUMP JUMPDEST PUSH1 0x1C DUP3 ADD SWAP1 POP SWAP2 SWAP1 POP JUMP JUMPDEST PUSH2 0x45C PUSH2 0x457 DUP3 PUSH2 0x5C7 JUMP JUMPDEST PUSH2 0x682 JUMP JUMPDEST DUP3 MSTORE POP POP JUMP JUMPDEST PUSH2 0x46B DUP2 PUSH2 0x5D1 JUMP JUMPDEST DUP3 MSTORE POP POP JUMP JUMPDEST PUSH1 0x0 PUSH2 0x47D DUP3 DUP8 PUSH2 0x3D4 JUMP JUMPDEST PUSH1 0x14 DUP3 ADD SWAP2 POP PUSH2 0x48D DUP3 DUP7 PUSH2 0x44B JUMP JUMPDEST PUSH1 0x20 DUP3 ADD SWAP2 POP PUSH2 0x49D DUP3 DUP6 PUSH2 0x44B JUMP JUMPDEST PUSH1 0x20 DUP3 ADD SWAP2 POP PUSH2 0x4AD DUP3 DUP5 PUSH2 0x411 JUMP JUMPDEST PUSH1 0x14 DUP3 ADD SWAP2 POP DUP2 SWAP1 POP SWAP6 SWAP5 POP POP POP POP POP JUMP JUMPDEST PUSH1 0x0 PUSH2 0x4CA DUP3 PUSH2 0x428 JUMP JUMPDEST SWAP2 POP PUSH2 0x4D6 DUP3 DUP5 PUSH2 0x3FA JUMP JUMPDEST PUSH1 0x20 DUP3 ADD SWAP2 POP DUP2 SWAP1 POP SWAP3 SWAP2 POP POP JUMP JUMPDEST PUSH1 0x0 PUSH1 0x80 DUP3 ADD SWAP1 POP PUSH2 0x4FA PUSH1 0x0 DUP4 ADD DUP8 PUSH2 0x3EB JUMP JUMPDEST PUSH2 0x507 PUSH1 0x20 DUP4 ADD DUP7 PUSH2 0x462 JUMP JUMPDEST PUSH2 0x514 PUSH1 0x40 DUP4 ADD DUP6 PUSH2 0x3EB JUMP JUMPDEST PUSH2 0x521 PUSH1 0x60 DUP4 ADD DUP5 PUSH2 0x3EB JUMP JUMPDEST SWAP6 SWAP5 POP POP POP POP POP JUMP JUMPDEST PUSH1 0x0 PUSH2 0x534 PUSH2 0x545 JUMP JUMPDEST SWAP1 POP PUSH2 0x540 DUP3 DUP3 PUSH2 0x623 JUMP JUMPDEST SWAP2 SWAP1 POP JUMP JUMPDEST PUSH1 0x0 PUSH1 0x40 MLOAD SWAP1 POP SWAP1 JUMP JUMPDEST PUSH1 0x0 PUSH8 0xFFFFFFFFFFFFFFFF DUP3 GT ISZERO PUSH2 0x56A JUMPI PUSH2 0x569 PUSH2 0x68C JUMP JUMPDEST JUMPDEST PUSH2 0x573 DUP3 PUSH2 0x6CF JUMP JUMPDEST SWAP1 POP PUSH1 0x20 DUP2 ADD SWAP1 POP SWAP2 SWAP1 POP JUMP JUMPDEST PUSH1 0x0 DUP2 SWAP1 POP SWAP3 SWAP2 POP POP JUMP JUMPDEST PUSH1 0x0 PUSH2 0x596 DUP3 PUSH2 0x5A7 JUMP JUMPDEST SWAP1 POP SWAP2 SWAP1 POP JUMP JUMPDEST PUSH1 0x0 DUP2 SWAP1 POP SWAP2 SWAP1 POP JUMP JUMPDEST PUSH1 0x0 PUSH20 0xFFFFFFFFFFFFFFFFFFFFFFFFFFFFFFFFFFFFFFFF DUP3 AND SWAP1 POP SWAP2 SWAP1 POP JUMP JUMPDEST PUSH1 0x0 DUP2 SWAP1 POP SWAP2 SWAP1 POP JUMP JUMPDEST PUSH1 0x0 PUSH1 0xFF DUP3 AND SWAP1 POP SWAP2 SWAP1 POP JUMP JUMPDEST PUSH1 0x0 PUSH2 0x5E9 DUP3 PUSH2 0x5F0 JUMP JUMPDEST SWAP1 POP SWAP2 SWAP1 POP JUMP JUMPDEST PUSH1 0x0 PUSH2 0x5FB DUP3 PUSH2 0x602 JUMP JUMPDEST SWAP1 POP SWAP2 SWAP1 POP JUMP JUMPDEST PUSH1 0x0 PUSH2 0x60D DUP3 PUSH2 0x5A7 JUMP JUMPDEST SWAP1 POP SWAP2 SWAP1 POP JUMP JUMPDEST DUP3 DUP2 DUP4 CALLDATACOPY PUSH1 0x0 DUP4 DUP4 ADD MSTORE POP POP POP JUMP JUMPDEST PUSH2 0x62C DUP3 PUSH2 0x6CF JUMP JUMPDEST DUP2 ADD DUP2 DUP2 LT PUSH8 0xFFFFFFFFFFFFFFFF DUP3 GT OR ISZERO PUSH2 0x64B JUMPI PUSH2 0x64A PUSH2 0x68C JUMP JUMPDEST JUMPDEST DUP1 PUSH1 0x40 MSTORE POP POP POP JUMP JUMPDEST PUSH1 0x0 PUSH2 0x65F DUP3 PUSH2 0x670 JUMP JUMPDEST SWAP1 POP SWAP2 SWAP1 POP JUMP JUMPDEST PUSH1 0x0 DUP2 SWAP1 POP SWAP2 SWAP1 POP JUMP JUMPDEST PUSH1 0x0 PUSH2 0x67B DUP3 PUSH2 0x6E0 JUMP JUMPDEST SWAP1 POP SWAP2 SWAP1 POP JUMP JUMPDEST PUSH1 0x0 DUP2 SWAP1 POP SWAP2 SWAP1 POP JUMP JUMPDEST PUSH32 0x4E487B7100000000000000000000000000000000000000000000000000000000 PUSH1 0x0 MSTORE PUSH1 0x41 PUSH1 0x4 MSTORE PUSH1 0x24 PUSH1 0x0 REVERT JUMPDEST PUSH1 0x0 DUP1 REVERT JUMPDEST PUSH1 0x0 DUP1 REVERT JUMPDEST PUSH1 0x0 DUP1 REVERT JUMPDEST PUSH1 0x0 DUP1 REVERT JUMPDEST PUSH1 0x0 PUSH1 0x1F NOT PUSH1 0x1F DUP4 ADD AND SWAP1 POP SWAP2 SWAP1 POP JUMP JUMPDEST PUSH1 0x0 DUP2 PUSH1 0x60 SHL SWAP1 POP SWAP2 SWAP1 POP JUMP JUMPDEST PUSH32 0x19457468657265756D205369676E6564204D6573736167653A0A333200000000 PUSH1 0x0 DUP3 ADD MSTORE POP JUMP JUMPDEST PUSH2 0x71F DUP2 PUSH2 0x5C7 JUMP JUMPDEST DUP2 EQ PUSH2 0x72A JUMPI PUSH1 0x0 DUP1 REVERT JUMPDEST POP JUMP INVALID LOG2 PUSH5 0x6970667358 0x22 SLT KECCAK256 ADD 0x5F 0xE 0xAF 0xCF TIMESTAMP DUP6 0xB0 0xB8 0x2F 0xFB 0xB4 SWAP2 0xE 0x2E 0xD1 SWAP12 0xBA SDIV BALANCE PUSH1 0x9C 0x25 KECCAK256 DELEGATECALL SHR PUSH2 0xFDB7 DUP11 PUSH19 0x6464736F6C6343000807003300000000000000 "
				},
				"gasEstimates": {
					"creation": {
						"codeDepositCost": "378200",
						"executionCost": "24660",
						"totalCost": "402860"
					},
					"external": {
						"claimPayment(uint256,uint256,bytes)": "infinite",
						"shutdown()": "29910"
					},
					"internal": {
						"prefixed(bytes32)": "infinite",
						"recoverSigner(bytes32,bytes memory)": "infinite",
						"splitSignature(bytes memory)": "infinite"
					}
				},
				"methodIdentifiers": {
					"claimPayment(uint256,uint256,bytes)": "a90ae887",
					"shutdown()": "fc0e74d1"
				}
			},
			"storageLayout": {
				"storage": [
					{
						"astId": 5,
						"contract": "Besic/SolidityExample/creatingAndVerifyingSignatures.sol:ReceiverPays",
						"label": "owner",
						"offset": 0,
						"slot": "0",
						"type": "t_address"
					},
					{
						"astId": 9,
						"contract": "Besic/SolidityExample/creatingAndVerifyingSignatures.sol:ReceiverPays",
						"label": "usedNonces",
						"offset": 0,
						"slot": "1",
						"type": "t_mapping(t_uint256,t_bool)"
					}
				],
				"types": {
					"t_address": {
						"encoding": "inplace",
						"label": "address",
						"numberOfBytes": "20"
					},
					"t_bool": {
						"encoding": "inplace",
						"label": "bool",
						"numberOfBytes": "1"
					},
					"t_mapping(t_uint256,t_bool)": {
						"encoding": "mapping",
						"key": "t_uint256",
						"label": "mapping(uint256 => bool)",
						"numberOfBytes": "32",
						"value": "t_bool"
					},
					"t_uint256": {
						"encoding": "inplace",
						"label": "uint256",
						"numberOfBytes": "32"
					}
				}
			},
			"userdoc": {
				"kind": "user",
				"methods": {
					"shutdown()": {
						"notice": "destroy the contract and reclaim the leftover funds."
					}
				},
				"version": 1
			}
		}
	}
}