{
	"Besic/SolidityExample/blindAuction.sol": {
		"BlindAuction": {
			"abi": [
				{
					"inputs": [
						{
							"internalType": "uint256",
							"name": "biddingTime",
							"type": "uint256"
						},
						{
							"internalType": "uint256",
							"name": "revealTime",
							"type": "uint256"
						},
						{
							"internalType": "address payable",
							"name": "beneficiaryAddress",
							"type": "address"
						}
					],
					"stateMutability": "nonpayable",
					"type": "constructor"
				},
				{
					"inputs": [],
					"name": "AuctionEndAlreadyCalled",
					"type": "error"
				},
				{
					"inputs": [
						{
							"internalType": "uint256",
							"name": "time",
							"type": "uint256"
						}
					],
					"name": "TooEarly",
					"type": "error"
				},
				{
					"inputs": [
						{
							"internalType": "uint256",
							"name": "time",
							"type": "uint256"
						}
					],
					"name": "TooLate",
					"type": "error"
				},
				{
					"anonymous": false,
					"inputs": [
						{
							"indexed": false,
							"internalType": "address",
							"name": "winner",
							"type": "address"
						},
						{
							"indexed": false,
							"internalType": "uint256",
							"name": "highestBid",
							"type": "uint256"
						}
					],
					"name": "AuctionEnded",
					"type": "event"
				},
				{
					"inputs": [],
					"name": "auctionEnd",
					"outputs": [],
					"stateMutability": "nonpayable",
					"type": "function"
				},
				{
					"inputs": [],
					"name": "beneficiary",
					"outputs": [
						{
							"internalType": "address payable",
							"name": "",
							"type": "address"
						}
					],
					"stateMutability": "view",
					"type": "function"
				},
				{
					"inputs": [
						{
							"internalType": "bytes32",
							"name": "blindedBid",
							"type": "bytes32"
						}
					],
					"name": "bid",
					"outputs": [],
					"stateMutability": "payable",
					"type": "function"
				},
				{
					"inputs": [],
					"name": "biddingEnd",
					"outputs": [
						{
							"internalType": "uint256",
							"name": "",
							"type": "uint256"
						}
					],
					"stateMutability": "view",
					"type": "function"
				},
				{
					"inputs": [
						{
							"internalType": "address",
							"name": "",
							"type": "address"
						},
						{
							"internalType": "uint256",
							"name": "",
							"type": "uint256"
						}
					],
					"name": "bids",
					"outputs": [
						{
							"internalType": "bytes32",
							"name": "blindedBid",
							"type": "bytes32"
						},
						{
							"internalType": "uint256",
							"name": "deposit",
							"type": "uint256"
						}
					],
					"stateMutability": "view",
					"type": "function"
				},
				{
					"inputs": [],
					"name": "ended",
					"outputs": [
						{
							"internalType": "bool",
							"name": "",
							"type": "bool"
						}
					],
					"stateMutability": "view",
					"type": "function"
				},
				{
					"inputs": [],
					"name": "highestBid",
					"outputs": [
						{
							"internalType": "uint256",
							"name": "",
							"type": "uint256"
						}
					],
					"stateMutability": "view",
					"type": "function"
				},
				{
					"inputs": [],
					"name": "highestBidder",
					"outputs": [
						{
							"internalType": "address",
							"name": "",
							"type": "address"
						}
					],
					"stateMutability": "view",
					"type": "function"
				},
				{
					"inputs": [
						{
							"internalType": "uint256[]",
							"name": "values",
							"type": "uint256[]"
						},
						{
							"internalType": "bool[]",
							"name": "fakes",
							"type": "bool[]"
						},
						{
							"internalType": "bytes32[]",
							"name": "secrets",
							"type": "bytes32[]"
						}
					],
					"name": "reveal",
					"outputs": [],
					"stateMutability": "nonpayable",
					"type": "function"
				},
				{
					"inputs": [],
					"name": "revealEnd",
					"outputs": [
						{
							"internalType": "uint256",
							"name": "",
							"type": "uint256"
						}
					],
					"stateMutability": "view",
					"type": "function"
				},
				{
					"inputs": [],
					"name": "withdraw",
					"outputs": [],
					"stateMutability": "nonpayable",
					"type": "function"
				}
			],
			"devdoc": {
				"kind": "dev",
				"methods": {},
				"version": 1
			},
			"evm": {
				"assembly": "    /* \"Besic/SolidityExample/blindAuction.sol\":62:5352  contract BlindAuction {\r... */\n  mstore(0x40, 0x80)\n    /* \"Besic/SolidityExample/blindAuction.sol\":1396:1663  constructor(\r... */\n  callvalue\n  dup1\n  iszero\n  tag_1\n  jumpi\n  0x00\n  dup1\n  revert\ntag_1:\n  pop\n  mload(0x40)\n  sub(codesize, bytecodeSize)\n  dup1\n  bytecodeSize\n  dup4\n  codecopy\n  dup2\n  dup2\n  add\n  0x40\n  mstore\n  dup2\n  add\n  swap1\n  tag_2\n  swap2\n  swap1\n  tag_3\n  jump\t// in\ntag_2:\n    /* \"Besic/SolidityExample/blindAuction.sol\":1538:1556  beneficiaryAddress */\n  dup1\n    /* \"Besic/SolidityExample/blindAuction.sol\":1524:1535  beneficiary */\n  0x00\n  dup1\n    /* \"Besic/SolidityExample/blindAuction.sol\":1524:1556  beneficiary = beneficiaryAddress */\n  0x0100\n  exp\n  dup2\n  sload\n  dup2\n  0xffffffffffffffffffffffffffffffffffffffff\n  mul\n  not\n  and\n  swap1\n  dup4\n  0xffffffffffffffffffffffffffffffffffffffff\n  and\n  mul\n  or\n  swap1\n  sstore\n  pop\n    /* \"Besic/SolidityExample/blindAuction.sol\":1598:1609  biddingTime */\n  dup3\n    /* \"Besic/SolidityExample/blindAuction.sol\":1580:1595  block.timestamp */\n  timestamp\n    /* \"Besic/SolidityExample/blindAuction.sol\":1580:1609  block.timestamp + biddingTime */\n  tag_6\n  swap2\n  swap1\n  tag_7\n  jump\t// in\ntag_6:\n    /* \"Besic/SolidityExample/blindAuction.sol\":1567:1577  biddingEnd */\n  0x01\n    /* \"Besic/SolidityExample/blindAuction.sol\":1567:1609  biddingEnd = block.timestamp + biddingTime */\n  dup2\n  swap1\n  sstore\n  pop\n    /* \"Besic/SolidityExample/blindAuction.sol\":1645:1655  revealTime */\n  dup2\n    /* \"Besic/SolidityExample/blindAuction.sol\":1632:1642  biddingEnd */\n  sload(0x01)\n    /* \"Besic/SolidityExample/blindAuction.sol\":1632:1655  biddingEnd + revealTime */\n  tag_8\n  swap2\n  swap1\n  tag_7\n  jump\t// in\ntag_8:\n    /* \"Besic/SolidityExample/blindAuction.sol\":1620:1629  revealEnd */\n  0x02\n    /* \"Besic/SolidityExample/blindAuction.sol\":1620:1655  revealEnd = biddingEnd + revealTime */\n  dup2\n  swap1\n  sstore\n  pop\n    /* \"Besic/SolidityExample/blindAuction.sol\":1396:1663  constructor(\r... */\n  pop\n  pop\n  pop\n    /* \"Besic/SolidityExample/blindAuction.sol\":62:5352  contract BlindAuction {\r... */\n  jump(tag_9)\n    /* \"#utility.yul\":7:166   */\ntag_11:\n    /* \"#utility.yul\":72:77   */\n  0x00\n    /* \"#utility.yul\":103:109   */\n  dup2\n    /* \"#utility.yul\":97:110   */\n  mload\n    /* \"#utility.yul\":88:110   */\n  swap1\n  pop\n    /* \"#utility.yul\":119:160   */\n  tag_13\n    /* \"#utility.yul\":154:159   */\n  dup2\n    /* \"#utility.yul\":119:160   */\n  tag_14\n  jump\t// in\ntag_13:\n    /* \"#utility.yul\":7:166   */\n  swap3\n  swap2\n  pop\n  pop\n  jump\t// out\n    /* \"#utility.yul\":172:315   */\ntag_15:\n    /* \"#utility.yul\":229:234   */\n  0x00\n    /* \"#utility.yul\":260:266   */\n  dup2\n    /* \"#utility.yul\":254:267   */\n  mload\n    /* \"#utility.yul\":245:267   */\n  swap1\n  pop\n    /* \"#utility.yul\":276:309   */\n  tag_17\n    /* \"#utility.yul\":303:308   */\n  dup2\n    /* \"#utility.yul\":276:309   */\n  tag_18\n  jump\t// in\ntag_17:\n    /* \"#utility.yul\":172:315   */\n  swap3\n  swap2\n  pop\n  pop\n  jump\t// out\n    /* \"#utility.yul\":321:1000   */\ntag_3:\n    /* \"#utility.yul\":417:423   */\n  0x00\n    /* \"#utility.yul\":425:431   */\n  dup1\n    /* \"#utility.yul\":433:439   */\n  0x00\n    /* \"#utility.yul\":482:484   */\n  0x60\n    /* \"#utility.yul\":470:479   */\n  dup5\n    /* \"#utility.yul\":461:468   */\n  dup7\n    /* \"#utility.yul\":457:480   */\n  sub\n    /* \"#utility.yul\":453:485   */\n  slt\n    /* \"#utility.yul\":450:569   */\n  iszero\n  tag_20\n  jumpi\n    /* \"#utility.yul\":488:567   */\n  tag_21\n  tag_22\n  jump\t// in\ntag_21:\n    /* \"#utility.yul\":450:569   */\ntag_20:\n    /* \"#utility.yul\":608:609   */\n  0x00\n    /* \"#utility.yul\":633:697   */\n  tag_23\n    /* \"#utility.yul\":689:696   */\n  dup7\n    /* \"#utility.yul\":680:686   */\n  dup3\n    /* \"#utility.yul\":669:678   */\n  dup8\n    /* \"#utility.yul\":665:687   */\n  add\n    /* \"#utility.yul\":633:697   */\n  tag_15\n  jump\t// in\ntag_23:\n    /* \"#utility.yul\":623:697   */\n  swap4\n  pop\n    /* \"#utility.yul\":579:707   */\n  pop\n    /* \"#utility.yul\":746:748   */\n  0x20\n    /* \"#utility.yul\":772:836   */\n  tag_24\n    /* \"#utility.yul\":828:835   */\n  dup7\n    /* \"#utility.yul\":819:825   */\n  dup3\n    /* \"#utility.yul\":808:817   */\n  dup8\n    /* \"#utility.yul\":804:826   */\n  add\n    /* \"#utility.yul\":772:836   */\n  tag_15\n  jump\t// in\ntag_24:\n    /* \"#utility.yul\":762:836   */\n  swap3\n  pop\n    /* \"#utility.yul\":717:846   */\n  pop\n    /* \"#utility.yul\":885:887   */\n  0x40\n    /* \"#utility.yul\":911:983   */\n  tag_25\n    /* \"#utility.yul\":975:982   */\n  dup7\n    /* \"#utility.yul\":966:972   */\n  dup3\n    /* \"#utility.yul\":955:964   */\n  dup8\n    /* \"#utility.yul\":951:973   */\n  add\n    /* \"#utility.yul\":911:983   */\n  tag_11\n  jump\t// in\ntag_25:\n    /* \"#utility.yul\":901:983   */\n  swap2\n  pop\n    /* \"#utility.yul\":856:993   */\n  pop\n    /* \"#utility.yul\":321:1000   */\n  swap3\n  pop\n  swap3\n  pop\n  swap3\n  jump\t// out\n    /* \"#utility.yul\":1087:1392   */\ntag_7:\n    /* \"#utility.yul\":1127:1130   */\n  0x00\n    /* \"#utility.yul\":1146:1166   */\n  tag_29\n    /* \"#utility.yul\":1164:1165   */\n  dup3\n    /* \"#utility.yul\":1146:1166   */\n  tag_30\n  jump\t// in\ntag_29:\n    /* \"#utility.yul\":1141:1166   */\n  swap2\n  pop\n    /* \"#utility.yul\":1180:1200   */\n  tag_31\n    /* \"#utility.yul\":1198:1199   */\n  dup4\n    /* \"#utility.yul\":1180:1200   */\n  tag_30\n  jump\t// in\ntag_31:\n    /* \"#utility.yul\":1175:1200   */\n  swap3\n  pop\n    /* \"#utility.yul\":1334:1335   */\n  dup3\n    /* \"#utility.yul\":1266:1332   */\n  0xffffffffffffffffffffffffffffffffffffffffffffffffffffffffffffffff\n    /* \"#utility.yul\":1262:1336   */\n  sub\n    /* \"#utility.yul\":1259:1260   */\n  dup3\n    /* \"#utility.yul\":1256:1337   */\n  gt\n    /* \"#utility.yul\":1253:1360   */\n  iszero\n  tag_32\n  jumpi\n    /* \"#utility.yul\":1340:1358   */\n  tag_33\n  tag_34\n  jump\t// in\ntag_33:\n    /* \"#utility.yul\":1253:1360   */\ntag_32:\n    /* \"#utility.yul\":1384:1385   */\n  dup3\n    /* \"#utility.yul\":1381:1382   */\n  dup3\n    /* \"#utility.yul\":1377:1386   */\n  add\n    /* \"#utility.yul\":1370:1386   */\n  swap1\n  pop\n    /* \"#utility.yul\":1087:1392   */\n  swap3\n  swap2\n  pop\n  pop\n  jump\t// out\n    /* \"#utility.yul\":1398:1502   */\ntag_35:\n    /* \"#utility.yul\":1443:1450   */\n  0x00\n    /* \"#utility.yul\":1472:1496   */\n  tag_37\n    /* \"#utility.yul\":1490:1495   */\n  dup3\n    /* \"#utility.yul\":1472:1496   */\n  tag_38\n  jump\t// in\ntag_37:\n    /* \"#utility.yul\":1461:1496   */\n  swap1\n  pop\n    /* \"#utility.yul\":1398:1502   */\n  swap2\n  swap1\n  pop\n  jump\t// out\n    /* \"#utility.yul\":1508:1634   */\ntag_38:\n    /* \"#utility.yul\":1545:1552   */\n  0x00\n    /* \"#utility.yul\":1585:1627   */\n  0xffffffffffffffffffffffffffffffffffffffff\n    /* \"#utility.yul\":1578:1583   */\n  dup3\n    /* \"#utility.yul\":1574:1628   */\n  and\n    /* \"#utility.yul\":1563:1628   */\n  swap1\n  pop\n    /* \"#utility.yul\":1508:1634   */\n  swap2\n  swap1\n  pop\n  jump\t// out\n    /* \"#utility.yul\":1640:1717   */\ntag_30:\n    /* \"#utility.yul\":1677:1684   */\n  0x00\n    /* \"#utility.yul\":1706:1711   */\n  dup2\n    /* \"#utility.yul\":1695:1711   */\n  swap1\n  pop\n    /* \"#utility.yul\":1640:1717   */\n  swap2\n  swap1\n  pop\n  jump\t// out\n    /* \"#utility.yul\":1723:1903   */\ntag_34:\n    /* \"#utility.yul\":1771:1848   */\n  0x4e487b7100000000000000000000000000000000000000000000000000000000\n    /* \"#utility.yul\":1768:1769   */\n  0x00\n    /* \"#utility.yul\":1761:1849   */\n  mstore\n    /* \"#utility.yul\":1868:1872   */\n  0x11\n    /* \"#utility.yul\":1865:1866   */\n  0x04\n    /* \"#utility.yul\":1858:1873   */\n  mstore\n    /* \"#utility.yul\":1892:1896   */\n  0x24\n    /* \"#utility.yul\":1889:1890   */\n  0x00\n    /* \"#utility.yul\":1882:1897   */\n  revert\n    /* \"#utility.yul\":2032:2149   */\ntag_22:\n    /* \"#utility.yul\":2141:2142   */\n  0x00\n    /* \"#utility.yul\":2138:2139   */\n  dup1\n    /* \"#utility.yul\":2131:2143   */\n  revert\n    /* \"#utility.yul\":2155:2293   */\ntag_14:\n    /* \"#utility.yul\":2236:2268   */\n  tag_46\n    /* \"#utility.yul\":2262:2267   */\n  dup2\n    /* \"#utility.yul\":2236:2268   */\n  tag_35\n  jump\t// in\ntag_46:\n    /* \"#utility.yul\":2229:2234   */\n  dup2\n    /* \"#utility.yul\":2226:2269   */\n  eq\n    /* \"#utility.yul\":2216:2287   */\n  tag_47\n  jumpi\n    /* \"#utility.yul\":2283:2284   */\n  0x00\n    /* \"#utility.yul\":2280:2281   */\n  dup1\n    /* \"#utility.yul\":2273:2285   */\n  revert\n    /* \"#utility.yul\":2216:2287   */\ntag_47:\n    /* \"#utility.yul\":2155:2293   */\n  pop\n  jump\t// out\n    /* \"#utility.yul\":2299:2421   */\ntag_18:\n    /* \"#utility.yul\":2372:2396   */\n  tag_49\n    /* \"#utility.yul\":2390:2395   */\n  dup2\n    /* \"#utility.yul\":2372:2396   */\n  tag_30\n  jump\t// in\ntag_49:\n    /* \"#utility.yul\":2365:2370   */\n  dup2\n    /* \"#utility.yul\":2362:2397   */\n  eq\n    /* \"#utility.yul\":2352:2415   */\n  tag_50\n  jumpi\n    /* \"#utility.yul\":2411:2412   */\n  0x00\n    /* \"#utility.yul\":2408:2409   */\n  dup1\n    /* \"#utility.yul\":2401:2413   */\n  revert\n    /* \"#utility.yul\":2352:2415   */\ntag_50:\n    /* \"#utility.yul\":2299:2421   */\n  pop\n  jump\t// out\n    /* \"Besic/SolidityExample/blindAuction.sol\":62:5352  contract BlindAuction {\r... */\ntag_9:\n  dataSize(sub_0)\n  dup1\n  dataOffset(sub_0)\n  0x00\n  codecopy\n  0x00\n  return\nstop\n\nsub_0: assembly {\n        /* \"Besic/SolidityExample/blindAuction.sol\":62:5352  contract BlindAuction {\r... */\n      mstore(0x40, 0x80)\n      jumpi(tag_1, lt(calldatasize, 0x04))\n      shr(0xe0, calldataload(0x00))\n      dup1\n      0x423b217f\n      gt\n      tag_13\n      jumpi\n      dup1\n      0x423b217f\n      eq\n      tag_7\n      jumpi\n      dup1\n      0x900f080a\n      eq\n      tag_8\n      jumpi\n      dup1\n      0x91f90157\n      eq\n      tag_9\n      jumpi\n      dup1\n      0x957bb1e0\n      eq\n      tag_10\n      jumpi\n      dup1\n      0xa6e66477\n      eq\n      tag_11\n      jumpi\n      dup1\n      0xd57bde79\n      eq\n      tag_12\n      jumpi\n      jump(tag_1)\n    tag_13:\n      dup1\n      0x01495c1c\n      eq\n      tag_2\n      jumpi\n      dup1\n      0x12fa6feb\n      eq\n      tag_3\n      jumpi\n      dup1\n      0x2a24f46c\n      eq\n      tag_4\n      jumpi\n      dup1\n      0x38af3eed\n      eq\n      tag_5\n      jumpi\n      dup1\n      0x3ccfd60b\n      eq\n      tag_6\n      jumpi\n    tag_1:\n      0x00\n      dup1\n      revert\n        /* \"Besic/SolidityExample/blindAuction.sol\":294:331  mapping(address => Bid[]) public bids */\n    tag_2:\n      callvalue\n      dup1\n      iszero\n      tag_14\n      jumpi\n      0x00\n      dup1\n      revert\n    tag_14:\n      pop\n      tag_15\n      0x04\n      dup1\n      calldatasize\n      sub\n      dup2\n      add\n      swap1\n      tag_16\n      swap2\n      swap1\n      tag_17\n      jump\t// in\n    tag_16:\n      tag_18\n      jump\t// in\n    tag_15:\n      mload(0x40)\n      tag_19\n      swap3\n      swap2\n      swap1\n      tag_20\n      jump\t// in\n    tag_19:\n      mload(0x40)\n      dup1\n      swap2\n      sub\n      swap1\n      return\n        /* \"Besic/SolidityExample/blindAuction.sol\":268:285  bool public ended */\n    tag_3:\n      callvalue\n      dup1\n      iszero\n      tag_21\n      jumpi\n      0x00\n      dup1\n      revert\n    tag_21:\n      pop\n      tag_22\n      tag_23\n      jump\t// in\n    tag_22:\n      mload(0x40)\n      tag_24\n      swap2\n      swap1\n      tag_25\n      jump\t// in\n    tag_24:\n      mload(0x40)\n      dup1\n      swap2\n      sub\n      swap1\n      return\n        /* \"Besic/SolidityExample/blindAuction.sol\":4506:4764  function auctionEnd()\r... */\n    tag_4:\n      callvalue\n      dup1\n      iszero\n      tag_26\n      jumpi\n      0x00\n      dup1\n      revert\n    tag_26:\n      pop\n      tag_27\n      tag_28\n      jump\t// in\n    tag_27:\n      stop\n        /* \"Besic/SolidityExample/blindAuction.sol\":170:204  address payable public beneficiary */\n    tag_5:\n      callvalue\n      dup1\n      iszero\n      tag_29\n      jumpi\n      0x00\n      dup1\n      revert\n    tag_29:\n      pop\n      tag_30\n      tag_31\n      jump\t// in\n    tag_30:\n      mload(0x40)\n      tag_32\n      swap2\n      swap1\n      tag_33\n      jump\t// in\n    tag_32:\n      mload(0x40)\n      dup1\n      swap2\n      sub\n      swap1\n      return\n        /* \"Besic/SolidityExample/blindAuction.sol\":3921:4419  function withdraw() external {\r... */\n    tag_6:\n      callvalue\n      dup1\n      iszero\n      tag_34\n      jumpi\n      0x00\n      dup1\n      revert\n    tag_34:\n      pop\n      tag_35\n      tag_36\n      jump\t// in\n    tag_35:\n      stop\n        /* \"Besic/SolidityExample/blindAuction.sol\":211:233  uint public biddingEnd */\n    tag_7:\n      callvalue\n      dup1\n      iszero\n      tag_37\n      jumpi\n      0x00\n      dup1\n      revert\n    tag_37:\n      pop\n      tag_38\n      tag_39\n      jump\t// in\n    tag_38:\n      mload(0x40)\n      tag_40\n      swap2\n      swap1\n      tag_41\n      jump\t// in\n    tag_40:\n      mload(0x40)\n      dup1\n      swap2\n      sub\n      swap1\n      return\n        /* \"Besic/SolidityExample/blindAuction.sol\":2601:3871  function reveal(\r... */\n    tag_8:\n      callvalue\n      dup1\n      iszero\n      tag_42\n      jumpi\n      0x00\n      dup1\n      revert\n    tag_42:\n      pop\n      tag_43\n      0x04\n      dup1\n      calldatasize\n      sub\n      dup2\n      add\n      swap1\n      tag_44\n      swap2\n      swap1\n      tag_45\n      jump\t// in\n    tag_44:\n      tag_46\n      jump\t// in\n    tag_43:\n      stop\n        /* \"Besic/SolidityExample/blindAuction.sol\":340:368  address public highestBidder */\n    tag_9:\n      callvalue\n      dup1\n      iszero\n      tag_47\n      jumpi\n      0x00\n      dup1\n      revert\n    tag_47:\n      pop\n      tag_48\n      tag_49\n      jump\t// in\n    tag_48:\n      mload(0x40)\n      tag_50\n      swap2\n      swap1\n      tag_51\n      jump\t// in\n    tag_50:\n      mload(0x40)\n      dup1\n      swap2\n      sub\n      swap1\n      return\n        /* \"Besic/SolidityExample/blindAuction.sol\":2197:2430  function bid(bytes32 blindedBid)\r... */\n    tag_10:\n      tag_52\n      0x04\n      dup1\n      calldatasize\n      sub\n      dup2\n      add\n      swap1\n      tag_53\n      swap2\n      swap1\n      tag_54\n      jump\t// in\n    tag_53:\n      tag_55\n      jump\t// in\n    tag_52:\n      stop\n        /* \"Besic/SolidityExample/blindAuction.sol\":240:261  uint public revealEnd */\n    tag_11:\n      callvalue\n      dup1\n      iszero\n      tag_56\n      jumpi\n      0x00\n      dup1\n      revert\n    tag_56:\n      pop\n      tag_57\n      tag_58\n      jump\t// in\n    tag_57:\n      mload(0x40)\n      tag_59\n      swap2\n      swap1\n      tag_41\n      jump\t// in\n    tag_59:\n      mload(0x40)\n      dup1\n      swap2\n      sub\n      swap1\n      return\n        /* \"Besic/SolidityExample/blindAuction.sol\":375:397  uint public highestBid */\n    tag_12:\n      callvalue\n      dup1\n      iszero\n      tag_60\n      jumpi\n      0x00\n      dup1\n      revert\n    tag_60:\n      pop\n      tag_61\n      tag_62\n      jump\t// in\n    tag_61:\n      mload(0x40)\n      tag_63\n      swap2\n      swap1\n      tag_41\n      jump\t// in\n    tag_63:\n      mload(0x40)\n      dup1\n      swap2\n      sub\n      swap1\n      return\n        /* \"Besic/SolidityExample/blindAuction.sol\":294:331  mapping(address => Bid[]) public bids */\n    tag_18:\n      mstore(0x20, 0x04)\n      dup2\n      0x00\n      mstore\n      keccak256(0x00, 0x40)\n      dup2\n      dup2\n      sload\n      dup2\n      lt\n      tag_64\n      jumpi\n      0x00\n      dup1\n      revert\n    tag_64:\n      swap1\n      0x00\n      mstore\n      keccak256(0x00, 0x20)\n      swap1\n      0x02\n      mul\n      add\n      0x00\n      swap2\n      pop\n      swap2\n      pop\n      pop\n      dup1\n      0x00\n      add\n      sload\n      swap1\n      dup1\n      0x01\n      add\n      sload\n      swap1\n      pop\n      dup3\n      jump\t// out\n        /* \"Besic/SolidityExample/blindAuction.sol\":268:285  bool public ended */\n    tag_23:\n      0x03\n      0x00\n      swap1\n      sload\n      swap1\n      0x0100\n      exp\n      swap1\n      div\n      0xff\n      and\n      dup2\n      jump\t// out\n        /* \"Besic/SolidityExample/blindAuction.sol\":4506:4764  function auctionEnd()\r... */\n    tag_28:\n        /* \"Besic/SolidityExample/blindAuction.sol\":4565:4574  revealEnd */\n      sload(0x02)\n        /* \"Besic/SolidityExample/blindAuction.sol\":1341:1345  time */\n      dup1\n        /* \"Besic/SolidityExample/blindAuction.sol\":1322:1337  block.timestamp */\n      timestamp\n        /* \"Besic/SolidityExample/blindAuction.sol\":1322:1345  block.timestamp <= time */\n      gt\n        /* \"Besic/SolidityExample/blindAuction.sol\":1318:1368  if (block.timestamp <= time) revert TooEarly(time) */\n      tag_67\n      jumpi\n        /* \"Besic/SolidityExample/blindAuction.sol\":1363:1367  time */\n      dup1\n        /* \"Besic/SolidityExample/blindAuction.sol\":1354:1368  TooEarly(time) */\n      mload(0x40)\n      0x2a35a32400000000000000000000000000000000000000000000000000000000\n      dup2\n      mstore\n      0x04\n      add\n      tag_68\n      swap2\n      swap1\n      tag_41\n      jump\t// in\n    tag_68:\n      mload(0x40)\n      dup1\n      swap2\n      sub\n      swap1\n      revert\n        /* \"Besic/SolidityExample/blindAuction.sol\":1318:1368  if (block.timestamp <= time) revert TooEarly(time) */\n    tag_67:\n        /* \"Besic/SolidityExample/blindAuction.sol\":4596:4601  ended */\n      0x03\n      0x00\n      swap1\n      sload\n      swap1\n      0x0100\n      exp\n      swap1\n      div\n      0xff\n      and\n        /* \"Besic/SolidityExample/blindAuction.sol\":4592:4635  if (ended) revert AuctionEndAlreadyCalled() */\n      iszero\n      tag_70\n      jumpi\n        /* \"Besic/SolidityExample/blindAuction.sol\":4610:4635  AuctionEndAlreadyCalled() */\n      mload(0x40)\n      0x61cfdcf800000000000000000000000000000000000000000000000000000000\n      dup2\n      mstore\n      0x04\n      add\n      mload(0x40)\n      dup1\n      swap2\n      sub\n      swap1\n      revert\n        /* \"Besic/SolidityExample/blindAuction.sol\":4592:4635  if (ended) revert AuctionEndAlreadyCalled() */\n    tag_70:\n        /* \"Besic/SolidityExample/blindAuction.sol\":4651:4690  AuctionEnded(highestBidder, highestBid) */\n      0xdaec4582d5d9595688c8c98545fdd1c696d41c6aeaeb636737e84ed2f5c00eda\n        /* \"Besic/SolidityExample/blindAuction.sol\":4664:4677  highestBidder */\n      0x05\n      0x00\n      swap1\n      sload\n      swap1\n      0x0100\n      exp\n      swap1\n      div\n      0xffffffffffffffffffffffffffffffffffffffff\n      and\n        /* \"Besic/SolidityExample/blindAuction.sol\":4679:4689  highestBid */\n      sload(0x06)\n        /* \"Besic/SolidityExample/blindAuction.sol\":4651:4690  AuctionEnded(highestBidder, highestBid) */\n      mload(0x40)\n      tag_71\n      swap3\n      swap2\n      swap1\n      tag_72\n      jump\t// in\n    tag_71:\n      mload(0x40)\n      dup1\n      swap2\n      sub\n      swap1\n      log1\n        /* \"Besic/SolidityExample/blindAuction.sol\":4709:4713  true */\n      0x01\n        /* \"Besic/SolidityExample/blindAuction.sol\":4701:4706  ended */\n      0x03\n      0x00\n        /* \"Besic/SolidityExample/blindAuction.sol\":4701:4713  ended = true */\n      0x0100\n      exp\n      dup2\n      sload\n      dup2\n      0xff\n      mul\n      not\n      and\n      swap1\n      dup4\n      iszero\n      iszero\n      mul\n      or\n      swap1\n      sstore\n      pop\n        /* \"Besic/SolidityExample/blindAuction.sol\":4724:4735  beneficiary */\n      0x00\n      dup1\n      sload\n      swap1\n      0x0100\n      exp\n      swap1\n      div\n      0xffffffffffffffffffffffffffffffffffffffff\n      and\n        /* \"Besic/SolidityExample/blindAuction.sol\":4724:4744  beneficiary.transfer */\n      0xffffffffffffffffffffffffffffffffffffffff\n      and\n        /* \"Besic/SolidityExample/blindAuction.sol\":4724:4756  beneficiary.transfer(highestBid) */\n      0x08fc\n        /* \"Besic/SolidityExample/blindAuction.sol\":4745:4755  highestBid */\n      sload(0x06)\n        /* \"Besic/SolidityExample/blindAuction.sol\":4724:4756  beneficiary.transfer(highestBid) */\n      swap1\n      dup2\n      iszero\n      mul\n      swap1\n      mload(0x40)\n      0x00\n      mload(0x40)\n      dup1\n      dup4\n      sub\n      dup2\n      dup6\n      dup9\n      dup9\n      call\n      swap4\n      pop\n      pop\n      pop\n      pop\n      iszero\n      dup1\n      iszero\n      tag_74\n      jumpi\n      returndatasize\n      0x00\n      dup1\n      returndatacopy\n      revert(0x00, returndatasize)\n    tag_74:\n      pop\n        /* \"Besic/SolidityExample/blindAuction.sol\":4506:4764  function auctionEnd()\r... */\n      pop\n      jump\t// out\n        /* \"Besic/SolidityExample/blindAuction.sol\":170:204  address payable public beneficiary */\n    tag_31:\n      0x00\n      dup1\n      sload\n      swap1\n      0x0100\n      exp\n      swap1\n      div\n      0xffffffffffffffffffffffffffffffffffffffff\n      and\n      dup2\n      jump\t// out\n        /* \"Besic/SolidityExample/blindAuction.sol\":3921:4419  function withdraw() external {\r... */\n    tag_36:\n        /* \"Besic/SolidityExample/blindAuction.sol\":3961:3972  uint amount */\n      0x00\n        /* \"Besic/SolidityExample/blindAuction.sol\":3975:3989  pendingReturns */\n      0x07\n        /* \"Besic/SolidityExample/blindAuction.sol\":3975:4001  pendingReturns[msg.sender] */\n      0x00\n        /* \"Besic/SolidityExample/blindAuction.sol\":3990:4000  msg.sender */\n      caller\n        /* \"Besic/SolidityExample/blindAuction.sol\":3975:4001  pendingReturns[msg.sender] */\n      0xffffffffffffffffffffffffffffffffffffffff\n      and\n      0xffffffffffffffffffffffffffffffffffffffff\n      and\n      dup2\n      mstore\n      0x20\n      add\n      swap1\n      dup2\n      mstore\n      0x20\n      add\n      0x00\n      keccak256\n      sload\n        /* \"Besic/SolidityExample/blindAuction.sol\":3961:4001  uint amount = pendingReturns[msg.sender] */\n      swap1\n      pop\n        /* \"Besic/SolidityExample/blindAuction.sol\":4025:4026  0 */\n      0x00\n        /* \"Besic/SolidityExample/blindAuction.sol\":4016:4022  amount */\n      dup2\n        /* \"Besic/SolidityExample/blindAuction.sol\":4016:4026  amount > 0 */\n      gt\n        /* \"Besic/SolidityExample/blindAuction.sol\":4012:4412  if (amount > 0) {\r... */\n      iszero\n      tag_76\n      jumpi\n        /* \"Besic/SolidityExample/blindAuction.sol\":4346:4347  0 */\n      0x00\n        /* \"Besic/SolidityExample/blindAuction.sol\":4317:4331  pendingReturns */\n      0x07\n        /* \"Besic/SolidityExample/blindAuction.sol\":4317:4343  pendingReturns[msg.sender] */\n      0x00\n        /* \"Besic/SolidityExample/blindAuction.sol\":4332:4342  msg.sender */\n      caller\n        /* \"Besic/SolidityExample/blindAuction.sol\":4317:4343  pendingReturns[msg.sender] */\n      0xffffffffffffffffffffffffffffffffffffffff\n      and\n      0xffffffffffffffffffffffffffffffffffffffff\n      and\n      dup2\n      mstore\n      0x20\n      add\n      swap1\n      dup2\n      mstore\n      0x20\n      add\n      0x00\n      keccak256\n        /* \"Besic/SolidityExample/blindAuction.sol\":4317:4347  pendingReturns[msg.sender] = 0 */\n      dup2\n      swap1\n      sstore\n      pop\n        /* \"Besic/SolidityExample/blindAuction.sol\":4372:4382  msg.sender */\n      caller\n        /* \"Besic/SolidityExample/blindAuction.sol\":4364:4392  payable(msg.sender).transfer */\n      0xffffffffffffffffffffffffffffffffffffffff\n      and\n        /* \"Besic/SolidityExample/blindAuction.sol\":4364:4400  payable(msg.sender).transfer(amount) */\n      0x08fc\n        /* \"Besic/SolidityExample/blindAuction.sol\":4393:4399  amount */\n      dup3\n        /* \"Besic/SolidityExample/blindAuction.sol\":4364:4400  payable(msg.sender).transfer(amount) */\n      swap1\n      dup2\n      iszero\n      mul\n      swap1\n      mload(0x40)\n      0x00\n      mload(0x40)\n      dup1\n      dup4\n      sub\n      dup2\n      dup6\n      dup9\n      dup9\n      call\n      swap4\n      pop\n      pop\n      pop\n      pop\n      iszero\n      dup1\n      iszero\n      tag_78\n      jumpi\n      returndatasize\n      0x00\n      dup1\n      returndatacopy\n      revert(0x00, returndatasize)\n    tag_78:\n      pop\n        /* \"Besic/SolidityExample/blindAuction.sol\":4012:4412  if (amount > 0) {\r... */\n    tag_76:\n        /* \"Besic/SolidityExample/blindAuction.sol\":3950:4419  {\r... */\n      pop\n        /* \"Besic/SolidityExample/blindAuction.sol\":3921:4419  function withdraw() external {\r... */\n      jump\t// out\n        /* \"Besic/SolidityExample/blindAuction.sol\":211:233  uint public biddingEnd */\n    tag_39:\n      sload(0x01)\n      dup2\n      jump\t// out\n        /* \"Besic/SolidityExample/blindAuction.sol\":2601:3871  function reveal(\r... */\n    tag_46:\n        /* \"Besic/SolidityExample/blindAuction.sol\":2763:2773  biddingEnd */\n      sload(0x01)\n        /* \"Besic/SolidityExample/blindAuction.sol\":1341:1345  time */\n      dup1\n        /* \"Besic/SolidityExample/blindAuction.sol\":1322:1337  block.timestamp */\n      timestamp\n        /* \"Besic/SolidityExample/blindAuction.sol\":1322:1345  block.timestamp <= time */\n      gt\n        /* \"Besic/SolidityExample/blindAuction.sol\":1318:1368  if (block.timestamp <= time) revert TooEarly(time) */\n      tag_80\n      jumpi\n        /* \"Besic/SolidityExample/blindAuction.sol\":1363:1367  time */\n      dup1\n        /* \"Besic/SolidityExample/blindAuction.sol\":1354:1368  TooEarly(time) */\n      mload(0x40)\n      0x2a35a32400000000000000000000000000000000000000000000000000000000\n      dup2\n      mstore\n      0x04\n      add\n      tag_81\n      swap2\n      swap1\n      tag_41\n      jump\t// in\n    tag_81:\n      mload(0x40)\n      dup1\n      swap2\n      sub\n      swap1\n      revert\n        /* \"Besic/SolidityExample/blindAuction.sol\":1318:1368  if (block.timestamp <= time) revert TooEarly(time) */\n    tag_80:\n        /* \"Besic/SolidityExample/blindAuction.sol\":2795:2804  revealEnd */\n      sload(0x02)\n        /* \"Besic/SolidityExample/blindAuction.sol\":1225:1229  time */\n      dup1\n        /* \"Besic/SolidityExample/blindAuction.sol\":1206:1221  block.timestamp */\n      timestamp\n        /* \"Besic/SolidityExample/blindAuction.sol\":1206:1229  block.timestamp >= time */\n      lt\n        /* \"Besic/SolidityExample/blindAuction.sol\":1202:1251  if (block.timestamp >= time) revert TooLate(time) */\n      tag_83\n      jumpi\n        /* \"Besic/SolidityExample/blindAuction.sol\":1246:1250  time */\n      dup1\n        /* \"Besic/SolidityExample/blindAuction.sol\":1238:1251  TooLate(time) */\n      mload(0x40)\n      0x691e568200000000000000000000000000000000000000000000000000000000\n      dup2\n      mstore\n      0x04\n      add\n      tag_84\n      swap2\n      swap1\n      tag_41\n      jump\t// in\n    tag_84:\n      mload(0x40)\n      dup1\n      swap2\n      sub\n      swap1\n      revert\n        /* \"Besic/SolidityExample/blindAuction.sol\":1202:1251  if (block.timestamp >= time) revert TooLate(time) */\n    tag_83:\n        /* \"Besic/SolidityExample/blindAuction.sol\":2822:2833  uint length */\n      0x00\n        /* \"Besic/SolidityExample/blindAuction.sol\":2836:2840  bids */\n      0x04\n        /* \"Besic/SolidityExample/blindAuction.sol\":2836:2852  bids[msg.sender] */\n      0x00\n        /* \"Besic/SolidityExample/blindAuction.sol\":2841:2851  msg.sender */\n      caller\n        /* \"Besic/SolidityExample/blindAuction.sol\":2836:2852  bids[msg.sender] */\n      0xffffffffffffffffffffffffffffffffffffffff\n      and\n      0xffffffffffffffffffffffffffffffffffffffff\n      and\n      dup2\n      mstore\n      0x20\n      add\n      swap1\n      dup2\n      mstore\n      0x20\n      add\n      0x00\n      keccak256\n        /* \"Besic/SolidityExample/blindAuction.sol\":2836:2859  bids[msg.sender].length */\n      dup1\n      sload\n      swap1\n      pop\n        /* \"Besic/SolidityExample/blindAuction.sol\":2822:2859  uint length = bids[msg.sender].length */\n      swap1\n      pop\n        /* \"Besic/SolidityExample/blindAuction.sol\":2895:2901  length */\n      dup1\n        /* \"Besic/SolidityExample/blindAuction.sol\":2878:2884  values */\n      dup10\n      dup10\n        /* \"Besic/SolidityExample/blindAuction.sol\":2878:2891  values.length */\n      swap1\n      pop\n        /* \"Besic/SolidityExample/blindAuction.sol\":2878:2901  values.length == length */\n      eq\n        /* \"Besic/SolidityExample/blindAuction.sol\":2870:2902  require(values.length == length) */\n      tag_86\n      jumpi\n      0x00\n      dup1\n      revert\n    tag_86:\n        /* \"Besic/SolidityExample/blindAuction.sol\":2937:2943  length */\n      dup1\n        /* \"Besic/SolidityExample/blindAuction.sol\":2921:2926  fakes */\n      dup8\n      dup8\n        /* \"Besic/SolidityExample/blindAuction.sol\":2921:2933  fakes.length */\n      swap1\n      pop\n        /* \"Besic/SolidityExample/blindAuction.sol\":2921:2943  fakes.length == length */\n      eq\n        /* \"Besic/SolidityExample/blindAuction.sol\":2913:2944  require(fakes.length == length) */\n      tag_87\n      jumpi\n      0x00\n      dup1\n      revert\n    tag_87:\n        /* \"Besic/SolidityExample/blindAuction.sol\":2981:2987  length */\n      dup1\n        /* \"Besic/SolidityExample/blindAuction.sol\":2963:2970  secrets */\n      dup6\n      dup6\n        /* \"Besic/SolidityExample/blindAuction.sol\":2963:2977  secrets.length */\n      swap1\n      pop\n        /* \"Besic/SolidityExample/blindAuction.sol\":2963:2987  secrets.length == length */\n      eq\n        /* \"Besic/SolidityExample/blindAuction.sol\":2955:2988  require(secrets.length == length) */\n      tag_88\n      jumpi\n      0x00\n      dup1\n      revert\n    tag_88:\n        /* \"Besic/SolidityExample/blindAuction.sol\":3001:3012  uint refund */\n      0x00\n        /* \"Besic/SolidityExample/blindAuction.sol\":3028:3034  uint i */\n      dup1\n        /* \"Besic/SolidityExample/blindAuction.sol\":3037:3038  0 */\n      0x00\n        /* \"Besic/SolidityExample/blindAuction.sol\":3028:3038  uint i = 0 */\n      swap1\n      pop\n        /* \"Besic/SolidityExample/blindAuction.sol\":3023:3817  for (uint i = 0; i < length; i++) {\r... */\n    tag_89:\n        /* \"Besic/SolidityExample/blindAuction.sol\":3044:3050  length */\n      dup3\n        /* \"Besic/SolidityExample/blindAuction.sol\":3040:3041  i */\n      dup2\n        /* \"Besic/SolidityExample/blindAuction.sol\":3040:3050  i < length */\n      lt\n        /* \"Besic/SolidityExample/blindAuction.sol\":3023:3817  for (uint i = 0; i < length; i++) {\r... */\n      iszero\n      tag_90\n      jumpi\n        /* \"Besic/SolidityExample/blindAuction.sol\":3072:3094  Bid storage bidToCheck */\n      0x00\n        /* \"Besic/SolidityExample/blindAuction.sol\":3097:3101  bids */\n      0x04\n        /* \"Besic/SolidityExample/blindAuction.sol\":3097:3113  bids[msg.sender] */\n      0x00\n        /* \"Besic/SolidityExample/blindAuction.sol\":3102:3112  msg.sender */\n      caller\n        /* \"Besic/SolidityExample/blindAuction.sol\":3097:3113  bids[msg.sender] */\n      0xffffffffffffffffffffffffffffffffffffffff\n      and\n      0xffffffffffffffffffffffffffffffffffffffff\n      and\n      dup2\n      mstore\n      0x20\n      add\n      swap1\n      dup2\n      mstore\n      0x20\n      add\n      0x00\n      keccak256\n        /* \"Besic/SolidityExample/blindAuction.sol\":3114:3115  i */\n      dup3\n        /* \"Besic/SolidityExample/blindAuction.sol\":3097:3116  bids[msg.sender][i] */\n      dup2\n      sload\n      dup2\n      lt\n      tag_92\n      jumpi\n      tag_93\n      tag_94\n      jump\t// in\n    tag_93:\n    tag_92:\n      swap1\n      0x00\n      mstore\n      keccak256(0x00, 0x20)\n      swap1\n      0x02\n      mul\n      add\n        /* \"Besic/SolidityExample/blindAuction.sol\":3072:3116  Bid storage bidToCheck = bids[msg.sender][i] */\n      swap1\n      pop\n        /* \"Besic/SolidityExample/blindAuction.sol\":3132:3142  uint value */\n      0x00\n        /* \"Besic/SolidityExample/blindAuction.sol\":3144:3153  bool fake */\n      dup1\n        /* \"Besic/SolidityExample/blindAuction.sol\":3155:3169  bytes32 secret */\n      0x00\n        /* \"Besic/SolidityExample/blindAuction.sol\":3195:3201  values */\n      dup15\n      dup15\n        /* \"Besic/SolidityExample/blindAuction.sol\":3202:3203  i */\n      dup7\n        /* \"Besic/SolidityExample/blindAuction.sol\":3195:3204  values[i] */\n      dup2\n      dup2\n      lt\n      tag_96\n      jumpi\n      tag_97\n      tag_94\n      jump\t// in\n    tag_97:\n    tag_96:\n      swap1\n      pop\n      0x20\n      mul\n      add\n      calldataload\n        /* \"Besic/SolidityExample/blindAuction.sol\":3206:3211  fakes */\n      dup14\n      dup14\n        /* \"Besic/SolidityExample/blindAuction.sol\":3212:3213  i */\n      dup8\n        /* \"Besic/SolidityExample/blindAuction.sol\":3206:3214  fakes[i] */\n      dup2\n      dup2\n      lt\n      tag_98\n      jumpi\n      tag_99\n      tag_94\n      jump\t// in\n    tag_99:\n    tag_98:\n      swap1\n      pop\n      0x20\n      mul\n      add\n      0x20\n      dup2\n      add\n      swap1\n      tag_100\n      swap2\n      swap1\n      tag_101\n      jump\t// in\n    tag_100:\n        /* \"Besic/SolidityExample/blindAuction.sol\":3216:3223  secrets */\n      dup13\n      dup13\n        /* \"Besic/SolidityExample/blindAuction.sol\":3224:3225  i */\n      dup9\n        /* \"Besic/SolidityExample/blindAuction.sol\":3216:3226  secrets[i] */\n      dup2\n      dup2\n      lt\n      tag_102\n      jumpi\n      tag_103\n      tag_94\n      jump\t// in\n    tag_103:\n    tag_102:\n      swap1\n      pop\n      0x20\n      mul\n      add\n      calldataload\n        /* \"Besic/SolidityExample/blindAuction.sol\":3131:3227  (uint value, bool fake, bytes32 secret) =\r... */\n      swap3\n      pop\n      swap3\n      pop\n      swap3\n      pop\n        /* \"Besic/SolidityExample/blindAuction.sol\":3298:3303  value */\n      dup3\n        /* \"Besic/SolidityExample/blindAuction.sol\":3305:3309  fake */\n      dup3\n        /* \"Besic/SolidityExample/blindAuction.sol\":3311:3317  secret */\n      dup3\n        /* \"Besic/SolidityExample/blindAuction.sol\":3281:3318  abi.encodePacked(value, fake, secret) */\n      add(0x20, mload(0x40))\n      tag_104\n      swap4\n      swap3\n      swap2\n      swap1\n      tag_105\n      jump\t// in\n    tag_104:\n      mload(0x40)\n      0x20\n      dup2\n      dup4\n      sub\n      sub\n      dup2\n      mstore\n      swap1\n      0x40\n      mstore\n        /* \"Besic/SolidityExample/blindAuction.sol\":3271:3319  keccak256(abi.encodePacked(value, fake, secret)) */\n      dup1\n      mload\n      swap1\n      0x20\n      add\n      keccak256\n        /* \"Besic/SolidityExample/blindAuction.sol\":3246:3256  bidToCheck */\n      dup5\n        /* \"Besic/SolidityExample/blindAuction.sol\":3246:3267  bidToCheck.blindedBid */\n      0x00\n      add\n      sload\n        /* \"Besic/SolidityExample/blindAuction.sol\":3246:3319  bidToCheck.blindedBid != keccak256(abi.encodePacked(value, fake, secret)) */\n      eq\n        /* \"Besic/SolidityExample/blindAuction.sol\":3242:3458  if (bidToCheck.blindedBid != keccak256(abi.encodePacked(value, fake, secret))) {\r... */\n      tag_106\n      jumpi\n        /* \"Besic/SolidityExample/blindAuction.sol\":3434:3442  continue */\n      pop\n      pop\n      pop\n      pop\n      jump(tag_91)\n        /* \"Besic/SolidityExample/blindAuction.sol\":3242:3458  if (bidToCheck.blindedBid != keccak256(abi.encodePacked(value, fake, secret))) {\r... */\n    tag_106:\n        /* \"Besic/SolidityExample/blindAuction.sol\":3482:3492  bidToCheck */\n      dup4\n        /* \"Besic/SolidityExample/blindAuction.sol\":3482:3500  bidToCheck.deposit */\n      0x01\n      add\n      sload\n        /* \"Besic/SolidityExample/blindAuction.sol\":3472:3500  refund += bidToCheck.deposit */\n      dup7\n      tag_107\n      swap2\n      swap1\n      tag_108\n      jump\t// in\n    tag_107:\n      swap6\n      pop\n        /* \"Besic/SolidityExample/blindAuction.sol\":3520:3524  fake */\n      dup2\n        /* \"Besic/SolidityExample/blindAuction.sol\":3519:3524  !fake */\n      iszero\n        /* \"Besic/SolidityExample/blindAuction.sol\":3519:3555  !fake && bidToCheck.deposit >= value */\n      dup1\n      iszero\n      tag_109\n      jumpi\n      pop\n        /* \"Besic/SolidityExample/blindAuction.sol\":3550:3555  value */\n      dup3\n        /* \"Besic/SolidityExample/blindAuction.sol\":3528:3538  bidToCheck */\n      dup5\n        /* \"Besic/SolidityExample/blindAuction.sol\":3528:3546  bidToCheck.deposit */\n      0x01\n      add\n      sload\n        /* \"Besic/SolidityExample/blindAuction.sol\":3528:3555  bidToCheck.deposit >= value */\n      lt\n      iszero\n        /* \"Besic/SolidityExample/blindAuction.sol\":3519:3555  !fake && bidToCheck.deposit >= value */\n    tag_109:\n        /* \"Besic/SolidityExample/blindAuction.sol\":3515:3661  if (!fake && bidToCheck.deposit >= value) {\r... */\n      iszero\n      tag_110\n      jumpi\n        /* \"Besic/SolidityExample/blindAuction.sol\":3580:3607  placeBid(msg.sender, value) */\n      tag_111\n        /* \"Besic/SolidityExample/blindAuction.sol\":3589:3599  msg.sender */\n      caller\n        /* \"Besic/SolidityExample/blindAuction.sol\":3601:3606  value */\n      dup5\n        /* \"Besic/SolidityExample/blindAuction.sol\":3580:3588  placeBid */\n      tag_112\n        /* \"Besic/SolidityExample/blindAuction.sol\":3580:3607  placeBid(msg.sender, value) */\n      jump\t// in\n    tag_111:\n        /* \"Besic/SolidityExample/blindAuction.sol\":3576:3645  if (placeBid(msg.sender, value))\r... */\n      iszero\n      tag_113\n      jumpi\n        /* \"Besic/SolidityExample/blindAuction.sol\":3640:3645  value */\n      dup3\n        /* \"Besic/SolidityExample/blindAuction.sol\":3630:3645  refund -= value */\n      dup7\n      tag_114\n      swap2\n      swap1\n      tag_115\n      jump\t// in\n    tag_114:\n      swap6\n      pop\n        /* \"Besic/SolidityExample/blindAuction.sol\":3576:3645  if (placeBid(msg.sender, value))\r... */\n    tag_113:\n        /* \"Besic/SolidityExample/blindAuction.sol\":3515:3661  if (!fake && bidToCheck.deposit >= value) {\r... */\n    tag_110:\n        /* \"Besic/SolidityExample/blindAuction.sol\":3803:3804  0 */\n      0x00\n        /* \"Besic/SolidityExample/blindAuction.sol\":3795:3805  bytes32(0) */\n      dup1\n      shl\n        /* \"Besic/SolidityExample/blindAuction.sol\":3771:3781  bidToCheck */\n      dup5\n        /* \"Besic/SolidityExample/blindAuction.sol\":3771:3792  bidToCheck.blindedBid */\n      0x00\n      add\n        /* \"Besic/SolidityExample/blindAuction.sol\":3771:3805  bidToCheck.blindedBid = bytes32(0) */\n      dup2\n      swap1\n      sstore\n      pop\n        /* \"Besic/SolidityExample/blindAuction.sol\":3057:3817  {\r... */\n      pop\n      pop\n      pop\n      pop\n        /* \"Besic/SolidityExample/blindAuction.sol\":3023:3817  for (uint i = 0; i < length; i++) {\r... */\n    tag_91:\n        /* \"Besic/SolidityExample/blindAuction.sol\":3052:3055  i++ */\n      dup1\n      dup1\n      tag_116\n      swap1\n      tag_117\n      jump\t// in\n    tag_116:\n      swap2\n      pop\n      pop\n        /* \"Besic/SolidityExample/blindAuction.sol\":3023:3817  for (uint i = 0; i < length; i++) {\r... */\n      jump(tag_89)\n    tag_90:\n      pop\n        /* \"Besic/SolidityExample/blindAuction.sol\":3835:3845  msg.sender */\n      caller\n        /* \"Besic/SolidityExample/blindAuction.sol\":3827:3855  payable(msg.sender).transfer */\n      0xffffffffffffffffffffffffffffffffffffffff\n      and\n        /* \"Besic/SolidityExample/blindAuction.sol\":3827:3863  payable(msg.sender).transfer(refund) */\n      0x08fc\n        /* \"Besic/SolidityExample/blindAuction.sol\":3856:3862  refund */\n      dup3\n        /* \"Besic/SolidityExample/blindAuction.sol\":3827:3863  payable(msg.sender).transfer(refund) */\n      swap1\n      dup2\n      iszero\n      mul\n      swap1\n      mload(0x40)\n      0x00\n      mload(0x40)\n      dup1\n      dup4\n      sub\n      dup2\n      dup6\n      dup9\n      dup9\n      call\n      swap4\n      pop\n      pop\n      pop\n      pop\n      iszero\n      dup1\n      iszero\n      tag_119\n      jumpi\n      returndatasize\n      0x00\n      dup1\n      returndatacopy\n      revert(0x00, returndatasize)\n    tag_119:\n      pop\n        /* \"Besic/SolidityExample/blindAuction.sol\":2811:3871  {\r... */\n      pop\n      pop\n        /* \"Besic/SolidityExample/blindAuction.sol\":1379:1380  _ */\n      pop\n        /* \"Besic/SolidityExample/blindAuction.sol\":2601:3871  function reveal(\r... */\n      pop\n      pop\n      pop\n      pop\n      pop\n      pop\n      pop\n      jump\t// out\n        /* \"Besic/SolidityExample/blindAuction.sol\":340:368  address public highestBidder */\n    tag_49:\n      0x05\n      0x00\n      swap1\n      sload\n      swap1\n      0x0100\n      exp\n      swap1\n      div\n      0xffffffffffffffffffffffffffffffffffffffff\n      and\n      dup2\n      jump\t// out\n        /* \"Besic/SolidityExample/blindAuction.sol\":2197:2430  function bid(bytes32 blindedBid)\r... */\n    tag_55:\n        /* \"Besic/SolidityExample/blindAuction.sol\":2285:2295  biddingEnd */\n      sload(0x01)\n        /* \"Besic/SolidityExample/blindAuction.sol\":1225:1229  time */\n      dup1\n        /* \"Besic/SolidityExample/blindAuction.sol\":1206:1221  block.timestamp */\n      timestamp\n        /* \"Besic/SolidityExample/blindAuction.sol\":1206:1229  block.timestamp >= time */\n      lt\n        /* \"Besic/SolidityExample/blindAuction.sol\":1202:1251  if (block.timestamp >= time) revert TooLate(time) */\n      tag_121\n      jumpi\n        /* \"Besic/SolidityExample/blindAuction.sol\":1246:1250  time */\n      dup1\n        /* \"Besic/SolidityExample/blindAuction.sol\":1238:1251  TooLate(time) */\n      mload(0x40)\n      0x691e568200000000000000000000000000000000000000000000000000000000\n      dup2\n      mstore\n      0x04\n      add\n      tag_122\n      swap2\n      swap1\n      tag_41\n      jump\t// in\n    tag_122:\n      mload(0x40)\n      dup1\n      swap2\n      sub\n      swap1\n      revert\n        /* \"Besic/SolidityExample/blindAuction.sol\":1202:1251  if (block.timestamp >= time) revert TooLate(time) */\n    tag_121:\n        /* \"Besic/SolidityExample/blindAuction.sol\":2313:2317  bids */\n      0x04\n        /* \"Besic/SolidityExample/blindAuction.sol\":2313:2329  bids[msg.sender] */\n      0x00\n        /* \"Besic/SolidityExample/blindAuction.sol\":2318:2328  msg.sender */\n      caller\n        /* \"Besic/SolidityExample/blindAuction.sol\":2313:2329  bids[msg.sender] */\n      0xffffffffffffffffffffffffffffffffffffffff\n      and\n      0xffffffffffffffffffffffffffffffffffffffff\n      and\n      dup2\n      mstore\n      0x20\n      add\n      swap1\n      dup2\n      mstore\n      0x20\n      add\n      0x00\n      keccak256\n        /* \"Besic/SolidityExample/blindAuction.sol\":2335:2421  Bid({\r... */\n      mload(0x40)\n      dup1\n      0x40\n      add\n      0x40\n      mstore\n      dup1\n        /* \"Besic/SolidityExample/blindAuction.sol\":2366:2376  blindedBid */\n      dup5\n        /* \"Besic/SolidityExample/blindAuction.sol\":2335:2421  Bid({\r... */\n      dup2\n      mstore\n      0x20\n      add\n        /* \"Besic/SolidityExample/blindAuction.sol\":2400:2409  msg.value */\n      callvalue\n        /* \"Besic/SolidityExample/blindAuction.sol\":2335:2421  Bid({\r... */\n      dup2\n      mstore\n      pop\n        /* \"Besic/SolidityExample/blindAuction.sol\":2313:2422  bids[msg.sender].push(Bid({\r... */\n      swap1\n      dup1\n      0x01\n      dup2\n      sload\n      add\n      dup1\n      dup3\n      sstore\n      dup1\n      swap2\n      pop\n      pop\n      0x01\n      swap1\n      sub\n      swap1\n      0x00\n      mstore\n      keccak256(0x00, 0x20)\n      swap1\n      0x02\n      mul\n      add\n      0x00\n      swap1\n      swap2\n      swap1\n      swap2\n      swap1\n      swap2\n      pop\n      0x00\n      dup3\n      add\n      mload\n      dup2\n      0x00\n      add\n      sstore\n      0x20\n      dup3\n      add\n      mload\n      dup2\n      0x01\n      add\n      sstore\n      pop\n      pop\n        /* \"Besic/SolidityExample/blindAuction.sol\":2197:2430  function bid(bytes32 blindedBid)\r... */\n      pop\n      pop\n      jump\t// out\n        /* \"Besic/SolidityExample/blindAuction.sol\":240:261  uint public revealEnd */\n    tag_58:\n      sload(0x02)\n      dup2\n      jump\t// out\n        /* \"Besic/SolidityExample/blindAuction.sol\":375:397  uint public highestBid */\n    tag_62:\n      sload(0x06)\n      dup2\n      jump\t// out\n        /* \"Besic/SolidityExample/blindAuction.sol\":4920:5349  function placeBid(address bidder, uint value) internal\r... */\n    tag_112:\n        /* \"Besic/SolidityExample/blindAuction.sol\":4997:5009  bool success */\n      0x00\n        /* \"Besic/SolidityExample/blindAuction.sol\":5040:5050  highestBid */\n      sload(0x06)\n        /* \"Besic/SolidityExample/blindAuction.sol\":5031:5036  value */\n      dup3\n        /* \"Besic/SolidityExample/blindAuction.sol\":5031:5050  value <= highestBid */\n      gt\n        /* \"Besic/SolidityExample/blindAuction.sol\":5027:5091  if (value <= highestBid) {\r... */\n      tag_126\n      jumpi\n        /* \"Besic/SolidityExample/blindAuction.sol\":5074:5079  false */\n      0x00\n        /* \"Besic/SolidityExample/blindAuction.sol\":5067:5079  return false */\n      swap1\n      pop\n      jump(tag_125)\n        /* \"Besic/SolidityExample/blindAuction.sol\":5027:5091  if (value <= highestBid) {\r... */\n    tag_126:\n        /* \"Besic/SolidityExample/blindAuction.sol\":5130:5131  0 */\n      0x00\n        /* \"Besic/SolidityExample/blindAuction.sol\":5105:5132  highestBidder != address(0) */\n      0xffffffffffffffffffffffffffffffffffffffff\n      and\n        /* \"Besic/SolidityExample/blindAuction.sol\":5105:5118  highestBidder */\n      0x05\n      0x00\n      swap1\n      sload\n      swap1\n      0x0100\n      exp\n      swap1\n      div\n      0xffffffffffffffffffffffffffffffffffffffff\n      and\n        /* \"Besic/SolidityExample/blindAuction.sol\":5105:5132  highestBidder != address(0) */\n      0xffffffffffffffffffffffffffffffffffffffff\n      and\n      eq\n        /* \"Besic/SolidityExample/blindAuction.sol\":5101:5258  if (highestBidder != address(0)) {\r... */\n      tag_127\n      jumpi\n        /* \"Besic/SolidityExample/blindAuction.sol\":5236:5246  highestBid */\n      sload(0x06)\n        /* \"Besic/SolidityExample/blindAuction.sol\":5203:5217  pendingReturns */\n      0x07\n        /* \"Besic/SolidityExample/blindAuction.sol\":5203:5232  pendingReturns[highestBidder] */\n      0x00\n        /* \"Besic/SolidityExample/blindAuction.sol\":5218:5231  highestBidder */\n      0x05\n      0x00\n      swap1\n      sload\n      swap1\n      0x0100\n      exp\n      swap1\n      div\n      0xffffffffffffffffffffffffffffffffffffffff\n      and\n        /* \"Besic/SolidityExample/blindAuction.sol\":5203:5232  pendingReturns[highestBidder] */\n      0xffffffffffffffffffffffffffffffffffffffff\n      and\n      0xffffffffffffffffffffffffffffffffffffffff\n      and\n      dup2\n      mstore\n      0x20\n      add\n      swap1\n      dup2\n      mstore\n      0x20\n      add\n      0x00\n      keccak256\n      0x00\n        /* \"Besic/SolidityExample/blindAuction.sol\":5203:5246  pendingReturns[highestBidder] += highestBid */\n      dup3\n      dup3\n      sload\n      tag_128\n      swap2\n      swap1\n      tag_108\n      jump\t// in\n    tag_128:\n      swap3\n      pop\n      pop\n      dup2\n      swap1\n      sstore\n      pop\n        /* \"Besic/SolidityExample/blindAuction.sol\":5101:5258  if (highestBidder != address(0)) {\r... */\n    tag_127:\n        /* \"Besic/SolidityExample/blindAuction.sol\":5281:5286  value */\n      dup2\n        /* \"Besic/SolidityExample/blindAuction.sol\":5268:5278  highestBid */\n      0x06\n        /* \"Besic/SolidityExample/blindAuction.sol\":5268:5286  highestBid = value */\n      dup2\n      swap1\n      sstore\n      pop\n        /* \"Besic/SolidityExample/blindAuction.sol\":5313:5319  bidder */\n      dup3\n        /* \"Besic/SolidityExample/blindAuction.sol\":5297:5310  highestBidder */\n      0x05\n      0x00\n        /* \"Besic/SolidityExample/blindAuction.sol\":5297:5319  highestBidder = bidder */\n      0x0100\n      exp\n      dup2\n      sload\n      dup2\n      0xffffffffffffffffffffffffffffffffffffffff\n      mul\n      not\n      and\n      swap1\n      dup4\n      0xffffffffffffffffffffffffffffffffffffffff\n      and\n      mul\n      or\n      swap1\n      sstore\n      pop\n        /* \"Besic/SolidityExample/blindAuction.sol\":5337:5341  true */\n      0x01\n        /* \"Besic/SolidityExample/blindAuction.sol\":5330:5341  return true */\n      swap1\n      pop\n        /* \"Besic/SolidityExample/blindAuction.sol\":4920:5349  function placeBid(address bidder, uint value) internal\r... */\n    tag_125:\n      swap3\n      swap2\n      pop\n      pop\n      jump\t// out\n        /* \"#utility.yul\":7:146   */\n    tag_130:\n        /* \"#utility.yul\":53:58   */\n      0x00\n        /* \"#utility.yul\":91:97   */\n      dup2\n        /* \"#utility.yul\":78:98   */\n      calldataload\n        /* \"#utility.yul\":69:98   */\n      swap1\n      pop\n        /* \"#utility.yul\":107:140   */\n      tag_132\n        /* \"#utility.yul\":134:139   */\n      dup2\n        /* \"#utility.yul\":107:140   */\n      tag_133\n      jump\t// in\n    tag_132:\n        /* \"#utility.yul\":7:146   */\n      swap3\n      swap2\n      pop\n      pop\n      jump\t// out\n        /* \"#utility.yul\":166:731   */\n    tag_134:\n        /* \"#utility.yul\":236:244   */\n      0x00\n        /* \"#utility.yul\":246:252   */\n      dup1\n        /* \"#utility.yul\":296:299   */\n      dup4\n        /* \"#utility.yul\":289:293   */\n      0x1f\n        /* \"#utility.yul\":281:287   */\n      dup5\n        /* \"#utility.yul\":277:294   */\n      add\n        /* \"#utility.yul\":273:300   */\n      slt\n        /* \"#utility.yul\":263:385   */\n      tag_136\n      jumpi\n        /* \"#utility.yul\":304:383   */\n      tag_137\n      tag_138\n      jump\t// in\n    tag_137:\n        /* \"#utility.yul\":263:385   */\n    tag_136:\n        /* \"#utility.yul\":417:423   */\n      dup3\n        /* \"#utility.yul\":404:424   */\n      calldataload\n        /* \"#utility.yul\":394:424   */\n      swap1\n      pop\n        /* \"#utility.yul\":447:465   */\n      0xffffffffffffffff\n        /* \"#utility.yul\":439:445   */\n      dup2\n        /* \"#utility.yul\":436:466   */\n      gt\n        /* \"#utility.yul\":433:550   */\n      iszero\n      tag_139\n      jumpi\n        /* \"#utility.yul\":469:548   */\n      tag_140\n      tag_141\n      jump\t// in\n    tag_140:\n        /* \"#utility.yul\":433:550   */\n    tag_139:\n        /* \"#utility.yul\":583:587   */\n      0x20\n        /* \"#utility.yul\":575:581   */\n      dup4\n        /* \"#utility.yul\":571:588   */\n      add\n        /* \"#utility.yul\":559:588   */\n      swap2\n      pop\n        /* \"#utility.yul\":637:640   */\n      dup4\n        /* \"#utility.yul\":629:633   */\n      0x20\n        /* \"#utility.yul\":621:627   */\n      dup3\n        /* \"#utility.yul\":617:634   */\n      mul\n        /* \"#utility.yul\":607:615   */\n      dup4\n        /* \"#utility.yul\":603:635   */\n      add\n        /* \"#utility.yul\":600:641   */\n      gt\n        /* \"#utility.yul\":597:725   */\n      iszero\n      tag_142\n      jumpi\n        /* \"#utility.yul\":644:723   */\n      tag_143\n      tag_144\n      jump\t// in\n    tag_143:\n        /* \"#utility.yul\":597:725   */\n    tag_142:\n        /* \"#utility.yul\":166:731   */\n      swap3\n      pop\n      swap3\n      swap1\n      pop\n      jump\t// out\n        /* \"#utility.yul\":754:1322   */\n    tag_145:\n        /* \"#utility.yul\":827:835   */\n      0x00\n        /* \"#utility.yul\":837:843   */\n      dup1\n        /* \"#utility.yul\":887:890   */\n      dup4\n        /* \"#utility.yul\":880:884   */\n      0x1f\n        /* \"#utility.yul\":872:878   */\n      dup5\n        /* \"#utility.yul\":868:885   */\n      add\n        /* \"#utility.yul\":864:891   */\n      slt\n        /* \"#utility.yul\":854:976   */\n      tag_147\n      jumpi\n        /* \"#utility.yul\":895:974   */\n      tag_148\n      tag_138\n      jump\t// in\n    tag_148:\n        /* \"#utility.yul\":854:976   */\n    tag_147:\n        /* \"#utility.yul\":1008:1014   */\n      dup3\n        /* \"#utility.yul\":995:1015   */\n      calldataload\n        /* \"#utility.yul\":985:1015   */\n      swap1\n      pop\n        /* \"#utility.yul\":1038:1056   */\n      0xffffffffffffffff\n        /* \"#utility.yul\":1030:1036   */\n      dup2\n        /* \"#utility.yul\":1027:1057   */\n      gt\n        /* \"#utility.yul\":1024:1141   */\n      iszero\n      tag_149\n      jumpi\n        /* \"#utility.yul\":1060:1139   */\n      tag_150\n      tag_141\n      jump\t// in\n    tag_150:\n        /* \"#utility.yul\":1024:1141   */\n    tag_149:\n        /* \"#utility.yul\":1174:1178   */\n      0x20\n        /* \"#utility.yul\":1166:1172   */\n      dup4\n        /* \"#utility.yul\":1162:1179   */\n      add\n        /* \"#utility.yul\":1150:1179   */\n      swap2\n      pop\n        /* \"#utility.yul\":1228:1231   */\n      dup4\n        /* \"#utility.yul\":1220:1224   */\n      0x20\n        /* \"#utility.yul\":1212:1218   */\n      dup3\n        /* \"#utility.yul\":1208:1225   */\n      mul\n        /* \"#utility.yul\":1198:1206   */\n      dup4\n        /* \"#utility.yul\":1194:1226   */\n      add\n        /* \"#utility.yul\":1191:1232   */\n      gt\n        /* \"#utility.yul\":1188:1316   */\n      iszero\n      tag_151\n      jumpi\n        /* \"#utility.yul\":1235:1314   */\n      tag_152\n      tag_144\n      jump\t// in\n    tag_152:\n        /* \"#utility.yul\":1188:1316   */\n    tag_151:\n        /* \"#utility.yul\":754:1322   */\n      swap3\n      pop\n      swap3\n      swap1\n      pop\n      jump\t// out\n        /* \"#utility.yul\":1345:1913   */\n    tag_153:\n        /* \"#utility.yul\":1418:1426   */\n      0x00\n        /* \"#utility.yul\":1428:1434   */\n      dup1\n        /* \"#utility.yul\":1478:1481   */\n      dup4\n        /* \"#utility.yul\":1471:1475   */\n      0x1f\n        /* \"#utility.yul\":1463:1469   */\n      dup5\n        /* \"#utility.yul\":1459:1476   */\n      add\n        /* \"#utility.yul\":1455:1482   */\n      slt\n        /* \"#utility.yul\":1445:1567   */\n      tag_155\n      jumpi\n        /* \"#utility.yul\":1486:1565   */\n      tag_156\n      tag_138\n      jump\t// in\n    tag_156:\n        /* \"#utility.yul\":1445:1567   */\n    tag_155:\n        /* \"#utility.yul\":1599:1605   */\n      dup3\n        /* \"#utility.yul\":1586:1606   */\n      calldataload\n        /* \"#utility.yul\":1576:1606   */\n      swap1\n      pop\n        /* \"#utility.yul\":1629:1647   */\n      0xffffffffffffffff\n        /* \"#utility.yul\":1621:1627   */\n      dup2\n        /* \"#utility.yul\":1618:1648   */\n      gt\n        /* \"#utility.yul\":1615:1732   */\n      iszero\n      tag_157\n      jumpi\n        /* \"#utility.yul\":1651:1730   */\n      tag_158\n      tag_141\n      jump\t// in\n    tag_158:\n        /* \"#utility.yul\":1615:1732   */\n    tag_157:\n        /* \"#utility.yul\":1765:1769   */\n      0x20\n        /* \"#utility.yul\":1757:1763   */\n      dup4\n        /* \"#utility.yul\":1753:1770   */\n      add\n        /* \"#utility.yul\":1741:1770   */\n      swap2\n      pop\n        /* \"#utility.yul\":1819:1822   */\n      dup4\n        /* \"#utility.yul\":1811:1815   */\n      0x20\n        /* \"#utility.yul\":1803:1809   */\n      dup3\n        /* \"#utility.yul\":1799:1816   */\n      mul\n        /* \"#utility.yul\":1789:1797   */\n      dup4\n        /* \"#utility.yul\":1785:1817   */\n      add\n        /* \"#utility.yul\":1782:1823   */\n      gt\n        /* \"#utility.yul\":1779:1907   */\n      iszero\n      tag_159\n      jumpi\n        /* \"#utility.yul\":1826:1905   */\n      tag_160\n      tag_144\n      jump\t// in\n    tag_160:\n        /* \"#utility.yul\":1779:1907   */\n    tag_159:\n        /* \"#utility.yul\":1345:1913   */\n      swap3\n      pop\n      swap3\n      swap1\n      pop\n      jump\t// out\n        /* \"#utility.yul\":1919:2052   */\n    tag_161:\n        /* \"#utility.yul\":1962:1967   */\n      0x00\n        /* \"#utility.yul\":2000:2006   */\n      dup2\n        /* \"#utility.yul\":1987:2007   */\n      calldataload\n        /* \"#utility.yul\":1978:2007   */\n      swap1\n      pop\n        /* \"#utility.yul\":2016:2046   */\n      tag_163\n        /* \"#utility.yul\":2040:2045   */\n      dup2\n        /* \"#utility.yul\":2016:2046   */\n      tag_164\n      jump\t// in\n    tag_163:\n        /* \"#utility.yul\":1919:2052   */\n      swap3\n      swap2\n      pop\n      pop\n      jump\t// out\n        /* \"#utility.yul\":2058:2197   */\n    tag_165:\n        /* \"#utility.yul\":2104:2109   */\n      0x00\n        /* \"#utility.yul\":2142:2148   */\n      dup2\n        /* \"#utility.yul\":2129:2149   */\n      calldataload\n        /* \"#utility.yul\":2120:2149   */\n      swap1\n      pop\n        /* \"#utility.yul\":2158:2191   */\n      tag_167\n        /* \"#utility.yul\":2185:2190   */\n      dup2\n        /* \"#utility.yul\":2158:2191   */\n      tag_168\n      jump\t// in\n    tag_167:\n        /* \"#utility.yul\":2058:2197   */\n      swap3\n      swap2\n      pop\n      pop\n      jump\t// out\n        /* \"#utility.yul\":2203:2342   */\n    tag_169:\n        /* \"#utility.yul\":2249:2254   */\n      0x00\n        /* \"#utility.yul\":2287:2293   */\n      dup2\n        /* \"#utility.yul\":2274:2294   */\n      calldataload\n        /* \"#utility.yul\":2265:2294   */\n      swap1\n      pop\n        /* \"#utility.yul\":2303:2336   */\n      tag_171\n        /* \"#utility.yul\":2330:2335   */\n      dup2\n        /* \"#utility.yul\":2303:2336   */\n      tag_172\n      jump\t// in\n    tag_171:\n        /* \"#utility.yul\":2203:2342   */\n      swap3\n      swap2\n      pop\n      pop\n      jump\t// out\n        /* \"#utility.yul\":2348:2822   */\n    tag_17:\n        /* \"#utility.yul\":2416:2422   */\n      0x00\n        /* \"#utility.yul\":2424:2430   */\n      dup1\n        /* \"#utility.yul\":2473:2475   */\n      0x40\n        /* \"#utility.yul\":2461:2470   */\n      dup4\n        /* \"#utility.yul\":2452:2459   */\n      dup6\n        /* \"#utility.yul\":2448:2471   */\n      sub\n        /* \"#utility.yul\":2444:2476   */\n      slt\n        /* \"#utility.yul\":2441:2560   */\n      iszero\n      tag_174\n      jumpi\n        /* \"#utility.yul\":2479:2558   */\n      tag_175\n      tag_176\n      jump\t// in\n    tag_175:\n        /* \"#utility.yul\":2441:2560   */\n    tag_174:\n        /* \"#utility.yul\":2599:2600   */\n      0x00\n        /* \"#utility.yul\":2624:2677   */\n      tag_177\n        /* \"#utility.yul\":2669:2676   */\n      dup6\n        /* \"#utility.yul\":2660:2666   */\n      dup3\n        /* \"#utility.yul\":2649:2658   */\n      dup7\n        /* \"#utility.yul\":2645:2667   */\n      add\n        /* \"#utility.yul\":2624:2677   */\n      tag_130\n      jump\t// in\n    tag_177:\n        /* \"#utility.yul\":2614:2677   */\n      swap3\n      pop\n        /* \"#utility.yul\":2570:2687   */\n      pop\n        /* \"#utility.yul\":2726:2728   */\n      0x20\n        /* \"#utility.yul\":2752:2805   */\n      tag_178\n        /* \"#utility.yul\":2797:2804   */\n      dup6\n        /* \"#utility.yul\":2788:2794   */\n      dup3\n        /* \"#utility.yul\":2777:2786   */\n      dup7\n        /* \"#utility.yul\":2773:2795   */\n      add\n        /* \"#utility.yul\":2752:2805   */\n      tag_169\n      jump\t// in\n    tag_178:\n        /* \"#utility.yul\":2742:2805   */\n      swap2\n      pop\n        /* \"#utility.yul\":2697:2815   */\n      pop\n        /* \"#utility.yul\":2348:2822   */\n      swap3\n      pop\n      swap3\n      swap1\n      pop\n      jump\t// out\n        /* \"#utility.yul\":2828:4131   */\n    tag_45:\n        /* \"#utility.yul\":2983:2989   */\n      0x00\n        /* \"#utility.yul\":2991:2997   */\n      dup1\n        /* \"#utility.yul\":2999:3005   */\n      0x00\n        /* \"#utility.yul\":3007:3013   */\n      dup1\n        /* \"#utility.yul\":3015:3021   */\n      0x00\n        /* \"#utility.yul\":3023:3029   */\n      dup1\n        /* \"#utility.yul\":3072:3074   */\n      0x60\n        /* \"#utility.yul\":3060:3069   */\n      dup8\n        /* \"#utility.yul\":3051:3058   */\n      dup10\n        /* \"#utility.yul\":3047:3070   */\n      sub\n        /* \"#utility.yul\":3043:3075   */\n      slt\n        /* \"#utility.yul\":3040:3159   */\n      iszero\n      tag_180\n      jumpi\n        /* \"#utility.yul\":3078:3157   */\n      tag_181\n      tag_176\n      jump\t// in\n    tag_181:\n        /* \"#utility.yul\":3040:3159   */\n    tag_180:\n        /* \"#utility.yul\":3226:3227   */\n      0x00\n        /* \"#utility.yul\":3215:3224   */\n      dup8\n        /* \"#utility.yul\":3211:3228   */\n      add\n        /* \"#utility.yul\":3198:3229   */\n      calldataload\n        /* \"#utility.yul\":3256:3274   */\n      0xffffffffffffffff\n        /* \"#utility.yul\":3248:3254   */\n      dup2\n        /* \"#utility.yul\":3245:3275   */\n      gt\n        /* \"#utility.yul\":3242:3359   */\n      iszero\n      tag_182\n      jumpi\n        /* \"#utility.yul\":3278:3357   */\n      tag_183\n      tag_184\n      jump\t// in\n    tag_183:\n        /* \"#utility.yul\":3242:3359   */\n    tag_182:\n        /* \"#utility.yul\":3391:3471   */\n      tag_185\n        /* \"#utility.yul\":3463:3470   */\n      dup10\n        /* \"#utility.yul\":3454:3460   */\n      dup3\n        /* \"#utility.yul\":3443:3452   */\n      dup11\n        /* \"#utility.yul\":3439:3461   */\n      add\n        /* \"#utility.yul\":3391:3471   */\n      tag_153\n      jump\t// in\n    tag_185:\n        /* \"#utility.yul\":3373:3471   */\n      swap7\n      pop\n      swap7\n      pop\n        /* \"#utility.yul\":3169:3481   */\n      pop\n        /* \"#utility.yul\":3548:3550   */\n      0x20\n        /* \"#utility.yul\":3537:3546   */\n      dup8\n        /* \"#utility.yul\":3533:3551   */\n      add\n        /* \"#utility.yul\":3520:3552   */\n      calldataload\n        /* \"#utility.yul\":3579:3597   */\n      0xffffffffffffffff\n        /* \"#utility.yul\":3571:3577   */\n      dup2\n        /* \"#utility.yul\":3568:3598   */\n      gt\n        /* \"#utility.yul\":3565:3682   */\n      iszero\n      tag_186\n      jumpi\n        /* \"#utility.yul\":3601:3680   */\n      tag_187\n      tag_184\n      jump\t// in\n    tag_187:\n        /* \"#utility.yul\":3565:3682   */\n    tag_186:\n        /* \"#utility.yul\":3714:3791   */\n      tag_188\n        /* \"#utility.yul\":3783:3790   */\n      dup10\n        /* \"#utility.yul\":3774:3780   */\n      dup3\n        /* \"#utility.yul\":3763:3772   */\n      dup11\n        /* \"#utility.yul\":3759:3781   */\n      add\n        /* \"#utility.yul\":3714:3791   */\n      tag_134\n      jump\t// in\n    tag_188:\n        /* \"#utility.yul\":3696:3791   */\n      swap5\n      pop\n      swap5\n      pop\n        /* \"#utility.yul\":3491:3801   */\n      pop\n        /* \"#utility.yul\":3868:3870   */\n      0x40\n        /* \"#utility.yul\":3857:3866   */\n      dup8\n        /* \"#utility.yul\":3853:3871   */\n      add\n        /* \"#utility.yul\":3840:3872   */\n      calldataload\n        /* \"#utility.yul\":3899:3917   */\n      0xffffffffffffffff\n        /* \"#utility.yul\":3891:3897   */\n      dup2\n        /* \"#utility.yul\":3888:3918   */\n      gt\n        /* \"#utility.yul\":3885:4002   */\n      iszero\n      tag_189\n      jumpi\n        /* \"#utility.yul\":3921:4000   */\n      tag_190\n      tag_184\n      jump\t// in\n    tag_190:\n        /* \"#utility.yul\":3885:4002   */\n    tag_189:\n        /* \"#utility.yul\":4034:4114   */\n      tag_191\n        /* \"#utility.yul\":4106:4113   */\n      dup10\n        /* \"#utility.yul\":4097:4103   */\n      dup3\n        /* \"#utility.yul\":4086:4095   */\n      dup11\n        /* \"#utility.yul\":4082:4104   */\n      add\n        /* \"#utility.yul\":4034:4114   */\n      tag_145\n      jump\t// in\n    tag_191:\n        /* \"#utility.yul\":4016:4114   */\n      swap3\n      pop\n      swap3\n      pop\n        /* \"#utility.yul\":3811:4124   */\n      pop\n        /* \"#utility.yul\":2828:4131   */\n      swap3\n      swap6\n      pop\n      swap3\n      swap6\n      pop\n      swap3\n      swap6\n      jump\t// out\n        /* \"#utility.yul\":4137:4460   */\n    tag_101:\n        /* \"#utility.yul\":4193:4199   */\n      0x00\n        /* \"#utility.yul\":4242:4244   */\n      0x20\n        /* \"#utility.yul\":4230:4239   */\n      dup3\n        /* \"#utility.yul\":4221:4228   */\n      dup5\n        /* \"#utility.yul\":4217:4240   */\n      sub\n        /* \"#utility.yul\":4213:4245   */\n      slt\n        /* \"#utility.yul\":4210:4329   */\n      iszero\n      tag_193\n      jumpi\n        /* \"#utility.yul\":4248:4327   */\n      tag_194\n      tag_176\n      jump\t// in\n    tag_194:\n        /* \"#utility.yul\":4210:4329   */\n    tag_193:\n        /* \"#utility.yul\":4368:4369   */\n      0x00\n        /* \"#utility.yul\":4393:4443   */\n      tag_195\n        /* \"#utility.yul\":4435:4442   */\n      dup5\n        /* \"#utility.yul\":4426:4432   */\n      dup3\n        /* \"#utility.yul\":4415:4424   */\n      dup6\n        /* \"#utility.yul\":4411:4433   */\n      add\n        /* \"#utility.yul\":4393:4443   */\n      tag_161\n      jump\t// in\n    tag_195:\n        /* \"#utility.yul\":4383:4443   */\n      swap2\n      pop\n        /* \"#utility.yul\":4339:4453   */\n      pop\n        /* \"#utility.yul\":4137:4460   */\n      swap3\n      swap2\n      pop\n      pop\n      jump\t// out\n        /* \"#utility.yul\":4466:4795   */\n    tag_54:\n        /* \"#utility.yul\":4525:4531   */\n      0x00\n        /* \"#utility.yul\":4574:4576   */\n      0x20\n        /* \"#utility.yul\":4562:4571   */\n      dup3\n        /* \"#utility.yul\":4553:4560   */\n      dup5\n        /* \"#utility.yul\":4549:4572   */\n      sub\n        /* \"#utility.yul\":4545:4577   */\n      slt\n        /* \"#utility.yul\":4542:4661   */\n      iszero\n      tag_197\n      jumpi\n        /* \"#utility.yul\":4580:4659   */\n      tag_198\n      tag_176\n      jump\t// in\n    tag_198:\n        /* \"#utility.yul\":4542:4661   */\n    tag_197:\n        /* \"#utility.yul\":4700:4701   */\n      0x00\n        /* \"#utility.yul\":4725:4778   */\n      tag_199\n        /* \"#utility.yul\":4770:4777   */\n      dup5\n        /* \"#utility.yul\":4761:4767   */\n      dup3\n        /* \"#utility.yul\":4750:4759   */\n      dup6\n        /* \"#utility.yul\":4746:4768   */\n      add\n        /* \"#utility.yul\":4725:4778   */\n      tag_165\n      jump\t// in\n    tag_199:\n        /* \"#utility.yul\":4715:4778   */\n      swap2\n      pop\n        /* \"#utility.yul\":4671:4788   */\n      pop\n        /* \"#utility.yul\":4466:4795   */\n      swap3\n      swap2\n      pop\n      pop\n      jump\t// out\n        /* \"#utility.yul\":4801:4943   */\n    tag_200:\n        /* \"#utility.yul\":4904:4936   */\n      tag_202\n        /* \"#utility.yul\":4930:4935   */\n      dup2\n        /* \"#utility.yul\":4904:4936   */\n      tag_203\n      jump\t// in\n    tag_202:\n        /* \"#utility.yul\":4899:4902   */\n      dup3\n        /* \"#utility.yul\":4892:4937   */\n      mstore\n        /* \"#utility.yul\":4801:4943   */\n      pop\n      pop\n      jump\t// out\n        /* \"#utility.yul\":4949:5067   */\n    tag_204:\n        /* \"#utility.yul\":5036:5060   */\n      tag_206\n        /* \"#utility.yul\":5054:5059   */\n      dup2\n        /* \"#utility.yul\":5036:5060   */\n      tag_207\n      jump\t// in\n    tag_206:\n        /* \"#utility.yul\":5031:5034   */\n      dup3\n        /* \"#utility.yul\":5024:5061   */\n      mstore\n        /* \"#utility.yul\":4949:5067   */\n      pop\n      pop\n      jump\t// out\n        /* \"#utility.yul\":5073:5182   */\n    tag_208:\n        /* \"#utility.yul\":5154:5175   */\n      tag_210\n        /* \"#utility.yul\":5169:5174   */\n      dup2\n        /* \"#utility.yul\":5154:5175   */\n      tag_211\n      jump\t// in\n    tag_210:\n        /* \"#utility.yul\":5149:5152   */\n      dup3\n        /* \"#utility.yul\":5142:5176   */\n      mstore\n        /* \"#utility.yul\":5073:5182   */\n      pop\n      pop\n      jump\t// out\n        /* \"#utility.yul\":5188:5333   */\n    tag_212:\n        /* \"#utility.yul\":5287:5326   */\n      tag_214\n        /* \"#utility.yul\":5304:5325   */\n      tag_215\n        /* \"#utility.yul\":5319:5324   */\n      dup3\n        /* \"#utility.yul\":5304:5325   */\n      tag_211\n      jump\t// in\n    tag_215:\n        /* \"#utility.yul\":5287:5326   */\n      tag_216\n      jump\t// in\n    tag_214:\n        /* \"#utility.yul\":5282:5285   */\n      dup3\n        /* \"#utility.yul\":5275:5327   */\n      mstore\n        /* \"#utility.yul\":5188:5333   */\n      pop\n      pop\n      jump\t// out\n        /* \"#utility.yul\":5339:5457   */\n    tag_217:\n        /* \"#utility.yul\":5426:5450   */\n      tag_219\n        /* \"#utility.yul\":5444:5449   */\n      dup2\n        /* \"#utility.yul\":5426:5450   */\n      tag_220\n      jump\t// in\n    tag_219:\n        /* \"#utility.yul\":5421:5424   */\n      dup3\n        /* \"#utility.yul\":5414:5451   */\n      mstore\n        /* \"#utility.yul\":5339:5457   */\n      pop\n      pop\n      jump\t// out\n        /* \"#utility.yul\":5463:5620   */\n    tag_221:\n        /* \"#utility.yul\":5568:5613   */\n      tag_223\n        /* \"#utility.yul\":5588:5612   */\n      tag_224\n        /* \"#utility.yul\":5606:5611   */\n      dup3\n        /* \"#utility.yul\":5588:5612   */\n      tag_220\n      jump\t// in\n    tag_224:\n        /* \"#utility.yul\":5568:5613   */\n      tag_225\n      jump\t// in\n    tag_223:\n        /* \"#utility.yul\":5563:5566   */\n      dup3\n        /* \"#utility.yul\":5556:5614   */\n      mstore\n        /* \"#utility.yul\":5463:5620   */\n      pop\n      pop\n      jump\t// out\n        /* \"#utility.yul\":5626:5744   */\n    tag_226:\n        /* \"#utility.yul\":5713:5737   */\n      tag_228\n        /* \"#utility.yul\":5731:5736   */\n      dup2\n        /* \"#utility.yul\":5713:5737   */\n      tag_229\n      jump\t// in\n    tag_228:\n        /* \"#utility.yul\":5708:5711   */\n      dup3\n        /* \"#utility.yul\":5701:5738   */\n      mstore\n        /* \"#utility.yul\":5626:5744   */\n      pop\n      pop\n      jump\t// out\n        /* \"#utility.yul\":5750:5907   */\n    tag_230:\n        /* \"#utility.yul\":5855:5900   */\n      tag_232\n        /* \"#utility.yul\":5875:5899   */\n      tag_233\n        /* \"#utility.yul\":5893:5898   */\n      dup3\n        /* \"#utility.yul\":5875:5899   */\n      tag_229\n      jump\t// in\n    tag_233:\n        /* \"#utility.yul\":5855:5900   */\n      tag_234\n      jump\t// in\n    tag_232:\n        /* \"#utility.yul\":5850:5853   */\n      dup3\n        /* \"#utility.yul\":5843:5901   */\n      mstore\n        /* \"#utility.yul\":5750:5907   */\n      pop\n      pop\n      jump\t// out\n        /* \"#utility.yul\":5913:6438   */\n    tag_105:\n        /* \"#utility.yul\":6075:6078   */\n      0x00\n        /* \"#utility.yul\":6090:6165   */\n      tag_236\n        /* \"#utility.yul\":6161:6164   */\n      dup3\n        /* \"#utility.yul\":6152:6158   */\n      dup7\n        /* \"#utility.yul\":6090:6165   */\n      tag_230\n      jump\t// in\n    tag_236:\n        /* \"#utility.yul\":6190:6192   */\n      0x20\n        /* \"#utility.yul\":6185:6188   */\n      dup3\n        /* \"#utility.yul\":6181:6193   */\n      add\n        /* \"#utility.yul\":6174:6193   */\n      swap2\n      pop\n        /* \"#utility.yul\":6203:6272   */\n      tag_237\n        /* \"#utility.yul\":6268:6271   */\n      dup3\n        /* \"#utility.yul\":6259:6265   */\n      dup6\n        /* \"#utility.yul\":6203:6272   */\n      tag_212\n      jump\t// in\n    tag_237:\n        /* \"#utility.yul\":6297:6298   */\n      0x01\n        /* \"#utility.yul\":6292:6295   */\n      dup3\n        /* \"#utility.yul\":6288:6299   */\n      add\n        /* \"#utility.yul\":6281:6299   */\n      swap2\n      pop\n        /* \"#utility.yul\":6309:6384   */\n      tag_238\n        /* \"#utility.yul\":6380:6383   */\n      dup3\n        /* \"#utility.yul\":6371:6377   */\n      dup5\n        /* \"#utility.yul\":6309:6384   */\n      tag_221\n      jump\t// in\n    tag_238:\n        /* \"#utility.yul\":6409:6411   */\n      0x20\n        /* \"#utility.yul\":6404:6407   */\n      dup3\n        /* \"#utility.yul\":6400:6412   */\n      add\n        /* \"#utility.yul\":6393:6412   */\n      swap2\n      pop\n        /* \"#utility.yul\":6429:6432   */\n      dup2\n        /* \"#utility.yul\":6422:6432   */\n      swap1\n      pop\n        /* \"#utility.yul\":5913:6438   */\n      swap5\n      swap4\n      pop\n      pop\n      pop\n      pop\n      jump\t// out\n        /* \"#utility.yul\":6444:6666   */\n    tag_51:\n        /* \"#utility.yul\":6537:6541   */\n      0x00\n        /* \"#utility.yul\":6575:6577   */\n      0x20\n        /* \"#utility.yul\":6564:6573   */\n      dup3\n        /* \"#utility.yul\":6560:6578   */\n      add\n        /* \"#utility.yul\":6552:6578   */\n      swap1\n      pop\n        /* \"#utility.yul\":6588:6659   */\n      tag_240\n        /* \"#utility.yul\":6656:6657   */\n      0x00\n        /* \"#utility.yul\":6645:6654   */\n      dup4\n        /* \"#utility.yul\":6641:6658   */\n      add\n        /* \"#utility.yul\":6632:6638   */\n      dup5\n        /* \"#utility.yul\":6588:6659   */\n      tag_204\n      jump\t// in\n    tag_240:\n        /* \"#utility.yul\":6444:6666   */\n      swap3\n      swap2\n      pop\n      pop\n      jump\t// out\n        /* \"#utility.yul\":6672:6926   */\n    tag_33:\n        /* \"#utility.yul\":6781:6785   */\n      0x00\n        /* \"#utility.yul\":6819:6821   */\n      0x20\n        /* \"#utility.yul\":6808:6817   */\n      dup3\n        /* \"#utility.yul\":6804:6822   */\n      add\n        /* \"#utility.yul\":6796:6822   */\n      swap1\n      pop\n        /* \"#utility.yul\":6832:6919   */\n      tag_242\n        /* \"#utility.yul\":6916:6917   */\n      0x00\n        /* \"#utility.yul\":6905:6914   */\n      dup4\n        /* \"#utility.yul\":6901:6918   */\n      add\n        /* \"#utility.yul\":6892:6898   */\n      dup5\n        /* \"#utility.yul\":6832:6919   */\n      tag_200\n      jump\t// in\n    tag_242:\n        /* \"#utility.yul\":6672:6926   */\n      swap3\n      swap2\n      pop\n      pop\n      jump\t// out\n        /* \"#utility.yul\":6932:7264   */\n    tag_72:\n        /* \"#utility.yul\":7053:7057   */\n      0x00\n        /* \"#utility.yul\":7091:7093   */\n      0x40\n        /* \"#utility.yul\":7080:7089   */\n      dup3\n        /* \"#utility.yul\":7076:7094   */\n      add\n        /* \"#utility.yul\":7068:7094   */\n      swap1\n      pop\n        /* \"#utility.yul\":7104:7175   */\n      tag_244\n        /* \"#utility.yul\":7172:7173   */\n      0x00\n        /* \"#utility.yul\":7161:7170   */\n      dup4\n        /* \"#utility.yul\":7157:7174   */\n      add\n        /* \"#utility.yul\":7148:7154   */\n      dup6\n        /* \"#utility.yul\":7104:7175   */\n      tag_204\n      jump\t// in\n    tag_244:\n        /* \"#utility.yul\":7185:7257   */\n      tag_245\n        /* \"#utility.yul\":7253:7255   */\n      0x20\n        /* \"#utility.yul\":7242:7251   */\n      dup4\n        /* \"#utility.yul\":7238:7256   */\n      add\n        /* \"#utility.yul\":7229:7235   */\n      dup5\n        /* \"#utility.yul\":7185:7257   */\n      tag_226\n      jump\t// in\n    tag_245:\n        /* \"#utility.yul\":6932:7264   */\n      swap4\n      swap3\n      pop\n      pop\n      pop\n      jump\t// out\n        /* \"#utility.yul\":7270:7480   */\n    tag_25:\n        /* \"#utility.yul\":7357:7361   */\n      0x00\n        /* \"#utility.yul\":7395:7397   */\n      0x20\n        /* \"#utility.yul\":7384:7393   */\n      dup3\n        /* \"#utility.yul\":7380:7398   */\n      add\n        /* \"#utility.yul\":7372:7398   */\n      swap1\n      pop\n        /* \"#utility.yul\":7408:7473   */\n      tag_247\n        /* \"#utility.yul\":7470:7471   */\n      0x00\n        /* \"#utility.yul\":7459:7468   */\n      dup4\n        /* \"#utility.yul\":7455:7472   */\n      add\n        /* \"#utility.yul\":7446:7452   */\n      dup5\n        /* \"#utility.yul\":7408:7473   */\n      tag_208\n      jump\t// in\n    tag_247:\n        /* \"#utility.yul\":7270:7480   */\n      swap3\n      swap2\n      pop\n      pop\n      jump\t// out\n        /* \"#utility.yul\":7486:7818   */\n    tag_20:\n        /* \"#utility.yul\":7607:7611   */\n      0x00\n        /* \"#utility.yul\":7645:7647   */\n      0x40\n        /* \"#utility.yul\":7634:7643   */\n      dup3\n        /* \"#utility.yul\":7630:7648   */\n      add\n        /* \"#utility.yul\":7622:7648   */\n      swap1\n      pop\n        /* \"#utility.yul\":7658:7729   */\n      tag_249\n        /* \"#utility.yul\":7726:7727   */\n      0x00\n        /* \"#utility.yul\":7715:7724   */\n      dup4\n        /* \"#utility.yul\":7711:7728   */\n      add\n        /* \"#utility.yul\":7702:7708   */\n      dup6\n        /* \"#utility.yul\":7658:7729   */\n      tag_217\n      jump\t// in\n    tag_249:\n        /* \"#utility.yul\":7739:7811   */\n      tag_250\n        /* \"#utility.yul\":7807:7809   */\n      0x20\n        /* \"#utility.yul\":7796:7805   */\n      dup4\n        /* \"#utility.yul\":7792:7810   */\n      add\n        /* \"#utility.yul\":7783:7789   */\n      dup5\n        /* \"#utility.yul\":7739:7811   */\n      tag_226\n      jump\t// in\n    tag_250:\n        /* \"#utility.yul\":7486:7818   */\n      swap4\n      swap3\n      pop\n      pop\n      pop\n      jump\t// out\n        /* \"#utility.yul\":7824:8046   */\n    tag_41:\n        /* \"#utility.yul\":7917:7921   */\n      0x00\n        /* \"#utility.yul\":7955:7957   */\n      0x20\n        /* \"#utility.yul\":7944:7953   */\n      dup3\n        /* \"#utility.yul\":7940:7958   */\n      add\n        /* \"#utility.yul\":7932:7958   */\n      swap1\n      pop\n        /* \"#utility.yul\":7968:8039   */\n      tag_252\n        /* \"#utility.yul\":8036:8037   */\n      0x00\n        /* \"#utility.yul\":8025:8034   */\n      dup4\n        /* \"#utility.yul\":8021:8038   */\n      add\n        /* \"#utility.yul\":8012:8018   */\n      dup5\n        /* \"#utility.yul\":7968:8039   */\n      tag_226\n      jump\t// in\n    tag_252:\n        /* \"#utility.yul\":7824:8046   */\n      swap3\n      swap2\n      pop\n      pop\n      jump\t// out\n        /* \"#utility.yul\":8133:8438   */\n    tag_108:\n        /* \"#utility.yul\":8173:8176   */\n      0x00\n        /* \"#utility.yul\":8192:8212   */\n      tag_256\n        /* \"#utility.yul\":8210:8211   */\n      dup3\n        /* \"#utility.yul\":8192:8212   */\n      tag_229\n      jump\t// in\n    tag_256:\n        /* \"#utility.yul\":8187:8212   */\n      swap2\n      pop\n        /* \"#utility.yul\":8226:8246   */\n      tag_257\n        /* \"#utility.yul\":8244:8245   */\n      dup4\n        /* \"#utility.yul\":8226:8246   */\n      tag_229\n      jump\t// in\n    tag_257:\n        /* \"#utility.yul\":8221:8246   */\n      swap3\n      pop\n        /* \"#utility.yul\":8380:8381   */\n      dup3\n        /* \"#utility.yul\":8312:8378   */\n      0xffffffffffffffffffffffffffffffffffffffffffffffffffffffffffffffff\n        /* \"#utility.yul\":8308:8382   */\n      sub\n        /* \"#utility.yul\":8305:8306   */\n      dup3\n        /* \"#utility.yul\":8302:8383   */\n      gt\n        /* \"#utility.yul\":8299:8406   */\n      iszero\n      tag_258\n      jumpi\n        /* \"#utility.yul\":8386:8404   */\n      tag_259\n      tag_260\n      jump\t// in\n    tag_259:\n        /* \"#utility.yul\":8299:8406   */\n    tag_258:\n        /* \"#utility.yul\":8430:8431   */\n      dup3\n        /* \"#utility.yul\":8427:8428   */\n      dup3\n        /* \"#utility.yul\":8423:8432   */\n      add\n        /* \"#utility.yul\":8416:8432   */\n      swap1\n      pop\n        /* \"#utility.yul\":8133:8438   */\n      swap3\n      swap2\n      pop\n      pop\n      jump\t// out\n        /* \"#utility.yul\":8444:8635   */\n    tag_115:\n        /* \"#utility.yul\":8484:8488   */\n      0x00\n        /* \"#utility.yul\":8504:8524   */\n      tag_262\n        /* \"#utility.yul\":8522:8523   */\n      dup3\n        /* \"#utility.yul\":8504:8524   */\n      tag_229\n      jump\t// in\n    tag_262:\n        /* \"#utility.yul\":8499:8524   */\n      swap2\n      pop\n        /* \"#utility.yul\":8538:8558   */\n      tag_263\n        /* \"#utility.yul\":8556:8557   */\n      dup4\n        /* \"#utility.yul\":8538:8558   */\n      tag_229\n      jump\t// in\n    tag_263:\n        /* \"#utility.yul\":8533:8558   */\n      swap3\n      pop\n        /* \"#utility.yul\":8577:8578   */\n      dup3\n        /* \"#utility.yul\":8574:8575   */\n      dup3\n        /* \"#utility.yul\":8571:8579   */\n      lt\n        /* \"#utility.yul\":8568:8602   */\n      iszero\n      tag_264\n      jumpi\n        /* \"#utility.yul\":8582:8600   */\n      tag_265\n      tag_260\n      jump\t// in\n    tag_265:\n        /* \"#utility.yul\":8568:8602   */\n    tag_264:\n        /* \"#utility.yul\":8627:8628   */\n      dup3\n        /* \"#utility.yul\":8624:8625   */\n      dup3\n        /* \"#utility.yul\":8620:8629   */\n      sub\n        /* \"#utility.yul\":8612:8629   */\n      swap1\n      pop\n        /* \"#utility.yul\":8444:8635   */\n      swap3\n      swap2\n      pop\n      pop\n      jump\t// out\n        /* \"#utility.yul\":8641:8737   */\n    tag_207:\n        /* \"#utility.yul\":8678:8685   */\n      0x00\n        /* \"#utility.yul\":8707:8731   */\n      tag_267\n        /* \"#utility.yul\":8725:8730   */\n      dup3\n        /* \"#utility.yul\":8707:8731   */\n      tag_268\n      jump\t// in\n    tag_267:\n        /* \"#utility.yul\":8696:8731   */\n      swap1\n      pop\n        /* \"#utility.yul\":8641:8737   */\n      swap2\n      swap1\n      pop\n      jump\t// out\n        /* \"#utility.yul\":8743:8847   */\n    tag_203:\n        /* \"#utility.yul\":8788:8795   */\n      0x00\n        /* \"#utility.yul\":8817:8841   */\n      tag_270\n        /* \"#utility.yul\":8835:8840   */\n      dup3\n        /* \"#utility.yul\":8817:8841   */\n      tag_268\n      jump\t// in\n    tag_270:\n        /* \"#utility.yul\":8806:8841   */\n      swap1\n      pop\n        /* \"#utility.yul\":8743:8847   */\n      swap2\n      swap1\n      pop\n      jump\t// out\n        /* \"#utility.yul\":8853:8943   */\n    tag_211:\n        /* \"#utility.yul\":8887:8894   */\n      0x00\n        /* \"#utility.yul\":8930:8935   */\n      dup2\n        /* \"#utility.yul\":8923:8936   */\n      iszero\n        /* \"#utility.yul\":8916:8937   */\n      iszero\n        /* \"#utility.yul\":8905:8937   */\n      swap1\n      pop\n        /* \"#utility.yul\":8853:8943   */\n      swap2\n      swap1\n      pop\n      jump\t// out\n        /* \"#utility.yul\":8949:9026   */\n    tag_220:\n        /* \"#utility.yul\":8986:8993   */\n      0x00\n        /* \"#utility.yul\":9015:9020   */\n      dup2\n        /* \"#utility.yul\":9004:9020   */\n      swap1\n      pop\n        /* \"#utility.yul\":8949:9026   */\n      swap2\n      swap1\n      pop\n      jump\t// out\n        /* \"#utility.yul\":9032:9158   */\n    tag_268:\n        /* \"#utility.yul\":9069:9076   */\n      0x00\n        /* \"#utility.yul\":9109:9151   */\n      0xffffffffffffffffffffffffffffffffffffffff\n        /* \"#utility.yul\":9102:9107   */\n      dup3\n        /* \"#utility.yul\":9098:9152   */\n      and\n        /* \"#utility.yul\":9087:9152   */\n      swap1\n      pop\n        /* \"#utility.yul\":9032:9158   */\n      swap2\n      swap1\n      pop\n      jump\t// out\n        /* \"#utility.yul\":9164:9241   */\n    tag_229:\n        /* \"#utility.yul\":9201:9208   */\n      0x00\n        /* \"#utility.yul\":9230:9235   */\n      dup2\n        /* \"#utility.yul\":9219:9235   */\n      swap1\n      pop\n        /* \"#utility.yul\":9164:9241   */\n      swap2\n      swap1\n      pop\n      jump\t// out\n        /* \"#utility.yul\":9247:9480   */\n    tag_117:\n        /* \"#utility.yul\":9286:9289   */\n      0x00\n        /* \"#utility.yul\":9309:9333   */\n      tag_276\n        /* \"#utility.yul\":9327:9332   */\n      dup3\n        /* \"#utility.yul\":9309:9333   */\n      tag_229\n      jump\t// in\n    tag_276:\n        /* \"#utility.yul\":9300:9333   */\n      swap2\n      pop\n        /* \"#utility.yul\":9355:9421   */\n      0xffffffffffffffffffffffffffffffffffffffffffffffffffffffffffffffff\n        /* \"#utility.yul\":9348:9353   */\n      dup3\n        /* \"#utility.yul\":9345:9422   */\n      eq\n        /* \"#utility.yul\":9342:9445   */\n      iszero\n      tag_277\n      jumpi\n        /* \"#utility.yul\":9425:9443   */\n      tag_278\n      tag_260\n      jump\t// in\n    tag_278:\n        /* \"#utility.yul\":9342:9445   */\n    tag_277:\n        /* \"#utility.yul\":9472:9473   */\n      0x01\n        /* \"#utility.yul\":9465:9470   */\n      dup3\n        /* \"#utility.yul\":9461:9474   */\n      add\n        /* \"#utility.yul\":9454:9474   */\n      swap1\n      pop\n        /* \"#utility.yul\":9247:9480   */\n      swap2\n      swap1\n      pop\n      jump\t// out\n        /* \"#utility.yul\":9486:9581   */\n    tag_216:\n        /* \"#utility.yul\":9522:9529   */\n      0x00\n        /* \"#utility.yul\":9551:9575   */\n      tag_280\n        /* \"#utility.yul\":9569:9574   */\n      dup3\n        /* \"#utility.yul\":9551:9575   */\n      tag_281\n      jump\t// in\n    tag_280:\n        /* \"#utility.yul\":9540:9575   */\n      swap1\n      pop\n        /* \"#utility.yul\":9486:9581   */\n      swap2\n      swap1\n      pop\n      jump\t// out\n        /* \"#utility.yul\":9587:9666   */\n    tag_225:\n        /* \"#utility.yul\":9626:9633   */\n      0x00\n        /* \"#utility.yul\":9655:9660   */\n      dup2\n        /* \"#utility.yul\":9644:9660   */\n      swap1\n      pop\n        /* \"#utility.yul\":9587:9666   */\n      swap2\n      swap1\n      pop\n      jump\t// out\n        /* \"#utility.yul\":9672:9751   */\n    tag_234:\n        /* \"#utility.yul\":9711:9718   */\n      0x00\n        /* \"#utility.yul\":9740:9745   */\n      dup2\n        /* \"#utility.yul\":9729:9745   */\n      swap1\n      pop\n        /* \"#utility.yul\":9672:9751   */\n      swap2\n      swap1\n      pop\n      jump\t// out\n        /* \"#utility.yul\":9757:9850   */\n    tag_281:\n        /* \"#utility.yul\":9794:9801   */\n      0x00\n        /* \"#utility.yul\":9823:9844   */\n      tag_285\n        /* \"#utility.yul\":9838:9843   */\n      dup3\n        /* \"#utility.yul\":9823:9844   */\n      tag_286\n      jump\t// in\n    tag_285:\n        /* \"#utility.yul\":9812:9844   */\n      swap1\n      pop\n        /* \"#utility.yul\":9757:9850   */\n      swap2\n      swap1\n      pop\n      jump\t// out\n        /* \"#utility.yul\":9856:10036   */\n    tag_260:\n        /* \"#utility.yul\":9904:9981   */\n      0x4e487b7100000000000000000000000000000000000000000000000000000000\n        /* \"#utility.yul\":9901:9902   */\n      0x00\n        /* \"#utility.yul\":9894:9982   */\n      mstore\n        /* \"#utility.yul\":10001:10005   */\n      0x11\n        /* \"#utility.yul\":9998:9999   */\n      0x04\n        /* \"#utility.yul\":9991:10006   */\n      mstore\n        /* \"#utility.yul\":10025:10029   */\n      0x24\n        /* \"#utility.yul\":10022:10023   */\n      0x00\n        /* \"#utility.yul\":10015:10030   */\n      revert\n        /* \"#utility.yul\":10042:10222   */\n    tag_94:\n        /* \"#utility.yul\":10090:10167   */\n      0x4e487b7100000000000000000000000000000000000000000000000000000000\n        /* \"#utility.yul\":10087:10088   */\n      0x00\n        /* \"#utility.yul\":10080:10168   */\n      mstore\n        /* \"#utility.yul\":10187:10191   */\n      0x32\n        /* \"#utility.yul\":10184:10185   */\n      0x04\n        /* \"#utility.yul\":10177:10192   */\n      mstore\n        /* \"#utility.yul\":10211:10215   */\n      0x24\n        /* \"#utility.yul\":10208:10209   */\n      0x00\n        /* \"#utility.yul\":10201:10216   */\n      revert\n        /* \"#utility.yul\":10228:10345   */\n    tag_141:\n        /* \"#utility.yul\":10337:10338   */\n      0x00\n        /* \"#utility.yul\":10334:10335   */\n      dup1\n        /* \"#utility.yul\":10327:10339   */\n      revert\n        /* \"#utility.yul\":10351:10468   */\n    tag_138:\n        /* \"#utility.yul\":10460:10461   */\n      0x00\n        /* \"#utility.yul\":10457:10458   */\n      dup1\n        /* \"#utility.yul\":10450:10462   */\n      revert\n        /* \"#utility.yul\":10474:10591   */\n    tag_144:\n        /* \"#utility.yul\":10583:10584   */\n      0x00\n        /* \"#utility.yul\":10580:10581   */\n      dup1\n        /* \"#utility.yul\":10573:10585   */\n      revert\n        /* \"#utility.yul\":10597:10714   */\n    tag_184:\n        /* \"#utility.yul\":10706:10707   */\n      0x00\n        /* \"#utility.yul\":10703:10704   */\n      dup1\n        /* \"#utility.yul\":10696:10708   */\n      revert\n        /* \"#utility.yul\":10720:10837   */\n    tag_176:\n        /* \"#utility.yul\":10829:10830   */\n      0x00\n        /* \"#utility.yul\":10826:10827   */\n      dup1\n        /* \"#utility.yul\":10819:10831   */\n      revert\n        /* \"#utility.yul\":10843:10939   */\n    tag_286:\n        /* \"#utility.yul\":10877:10885   */\n      0x00\n        /* \"#utility.yul\":10926:10931   */\n      dup2\n        /* \"#utility.yul\":10921:10924   */\n      0xf8\n        /* \"#utility.yul\":10917:10932   */\n      shl\n        /* \"#utility.yul\":10896:10932   */\n      swap1\n      pop\n        /* \"#utility.yul\":10843:10939   */\n      swap2\n      swap1\n      pop\n      jump\t// out\n        /* \"#utility.yul\":10945:11067   */\n    tag_133:\n        /* \"#utility.yul\":11018:11042   */\n      tag_296\n        /* \"#utility.yul\":11036:11041   */\n      dup2\n        /* \"#utility.yul\":11018:11042   */\n      tag_207\n      jump\t// in\n    tag_296:\n        /* \"#utility.yul\":11011:11016   */\n      dup2\n        /* \"#utility.yul\":11008:11043   */\n      eq\n        /* \"#utility.yul\":10998:11061   */\n      tag_297\n      jumpi\n        /* \"#utility.yul\":11057:11058   */\n      0x00\n        /* \"#utility.yul\":11054:11055   */\n      dup1\n        /* \"#utility.yul\":11047:11059   */\n      revert\n        /* \"#utility.yul\":10998:11061   */\n    tag_297:\n        /* \"#utility.yul\":10945:11067   */\n      pop\n      jump\t// out\n        /* \"#utility.yul\":11073:11189   */\n    tag_164:\n        /* \"#utility.yul\":11143:11164   */\n      tag_299\n        /* \"#utility.yul\":11158:11163   */\n      dup2\n        /* \"#utility.yul\":11143:11164   */\n      tag_211\n      jump\t// in\n    tag_299:\n        /* \"#utility.yul\":11136:11141   */\n      dup2\n        /* \"#utility.yul\":11133:11165   */\n      eq\n        /* \"#utility.yul\":11123:11183   */\n      tag_300\n      jumpi\n        /* \"#utility.yul\":11179:11180   */\n      0x00\n        /* \"#utility.yul\":11176:11177   */\n      dup1\n        /* \"#utility.yul\":11169:11181   */\n      revert\n        /* \"#utility.yul\":11123:11183   */\n    tag_300:\n        /* \"#utility.yul\":11073:11189   */\n      pop\n      jump\t// out\n        /* \"#utility.yul\":11195:11317   */\n    tag_168:\n        /* \"#utility.yul\":11268:11292   */\n      tag_302\n        /* \"#utility.yul\":11286:11291   */\n      dup2\n        /* \"#utility.yul\":11268:11292   */\n      tag_220\n      jump\t// in\n    tag_302:\n        /* \"#utility.yul\":11261:11266   */\n      dup2\n        /* \"#utility.yul\":11258:11293   */\n      eq\n        /* \"#utility.yul\":11248:11311   */\n      tag_303\n      jumpi\n        /* \"#utility.yul\":11307:11308   */\n      0x00\n        /* \"#utility.yul\":11304:11305   */\n      dup1\n        /* \"#utility.yul\":11297:11309   */\n      revert\n        /* \"#utility.yul\":11248:11311   */\n    tag_303:\n        /* \"#utility.yul\":11195:11317   */\n      pop\n      jump\t// out\n        /* \"#utility.yul\":11323:11445   */\n    tag_172:\n        /* \"#utility.yul\":11396:11420   */\n      tag_305\n        /* \"#utility.yul\":11414:11419   */\n      dup2\n        /* \"#utility.yul\":11396:11420   */\n      tag_229\n      jump\t// in\n    tag_305:\n        /* \"#utility.yul\":11389:11394   */\n      dup2\n        /* \"#utility.yul\":11386:11421   */\n      eq\n        /* \"#utility.yul\":11376:11439   */\n      tag_306\n      jumpi\n        /* \"#utility.yul\":11435:11436   */\n      0x00\n        /* \"#utility.yul\":11432:11433   */\n      dup1\n        /* \"#utility.yul\":11425:11437   */\n      revert\n        /* \"#utility.yul\":11376:11439   */\n    tag_306:\n        /* \"#utility.yul\":11323:11445   */\n      pop\n      jump\t// out\n\n    auxdata: 0xa2646970667358221220df1cc24ec7ee91b72afa1e6f2138839f64fd0d43b8c51af9604176e371bf267464736f6c63430008070033\n}\n",
				"bytecode": {
					"linkReferences": {},
					"object": "60806040523480156200001157600080fd5b506040516200133e3803806200133e8339818101604052810190620000379190620000d8565b806000806101000a81548173ffffffffffffffffffffffffffffffffffffffff021916908373ffffffffffffffffffffffffffffffffffffffff160217905550824262000085919062000134565b600181905550816001546200009b919062000134565b60028190555050505062000237565b600081519050620000bb8162000203565b92915050565b600081519050620000d2816200021d565b92915050565b600080600060608486031215620000f457620000f3620001fe565b5b60006200010486828701620000c1565b93505060206200011786828701620000c1565b92505060406200012a86828701620000aa565b9150509250925092565b60006200014182620001c5565b91506200014e83620001c5565b9250827fffffffffffffffffffffffffffffffffffffffffffffffffffffffffffffffff03821115620001865762000185620001cf565b5b828201905092915050565b60006200019e82620001a5565b9050919050565b600073ffffffffffffffffffffffffffffffffffffffff82169050919050565b6000819050919050565b7f4e487b7100000000000000000000000000000000000000000000000000000000600052601160045260246000fd5b600080fd5b6200020e8162000191565b81146200021a57600080fd5b50565b6200022881620001c5565b81146200023457600080fd5b50565b6110f780620002476000396000f3fe60806040526004361061009c5760003560e01c8063423b217f11610064578063423b217f14610163578063900f080a1461018e57806391f90157146101b7578063957bb1e0146101e2578063a6e66477146101fe578063d57bde79146102295761009c565b806301495c1c146100a157806312fa6feb146100df5780632a24f46c1461010a57806338af3eed146101215780633ccfd60b1461014c575b600080fd5b3480156100ad57600080fd5b506100c860048036038101906100c39190610b99565b610254565b6040516100d6929190610e2e565b60405180910390f35b3480156100eb57600080fd5b506100f4610295565b6040516101019190610e13565b60405180910390f35b34801561011657600080fd5b5061011f6102a8565b005b34801561012d57600080fd5b5061013661041a565b6040516101439190610dcf565b60405180910390f35b34801561015857600080fd5b5061016161043e565b005b34801561016f57600080fd5b5061017861051b565b6040516101859190610e57565b60405180910390f35b34801561019a57600080fd5b506101b560048036038101906101b09190610bd9565b610521565b005b3480156101c357600080fd5b506101cc6107fb565b6040516101d99190610db4565b60405180910390f35b6101fc60048036038101906101f79190610cba565b610821565b005b34801561020a57600080fd5b506102136108ff565b6040516102209190610e57565b60405180910390f35b34801561023557600080fd5b5061023e610905565b60405161024b9190610e57565b60405180910390f35b6004602052816000526040600020818154811061027057600080fd5b9060005260206000209060020201600091509150508060000154908060010154905082565b600360009054906101000a900460ff1681565b6002548042116102ef57806040517f2a35a3240000000000000000000000000000000000000000000000000000000081526004016102e69190610e57565b60405180910390fd5b600360009054906101000a900460ff1615610336576040517f61cfdcf800000000000000000000000000000000000000000000000000000000815260040160405180910390fd5b7fdaec4582d5d9595688c8c98545fdd1c696d41c6aeaeb636737e84ed2f5c00eda600560009054906101000a900473ffffffffffffffffffffffffffffffffffffffff1660065460405161038b929190610dea565b60405180910390a16001600360006101000a81548160ff02191690831515021790555060008054906101000a900473ffffffffffffffffffffffffffffffffffffffff1673ffffffffffffffffffffffffffffffffffffffff166108fc6006549081150290604051600060405180830381858888f19350505050158015610416573d6000803e3d6000fd5b5050565b60008054906101000a900473ffffffffffffffffffffffffffffffffffffffff1681565b6000600760003373ffffffffffffffffffffffffffffffffffffffff1673ffffffffffffffffffffffffffffffffffffffff1681526020019081526020016000205490506000811115610518576000600760003373ffffffffffffffffffffffffffffffffffffffff1673ffffffffffffffffffffffffffffffffffffffff168152602001908152602001600020819055503373ffffffffffffffffffffffffffffffffffffffff166108fc829081150290604051600060405180830381858888f19350505050158015610516573d6000803e3d6000fd5b505b50565b60015481565b60015480421161056857806040517f2a35a32400000000000000000000000000000000000000000000000000000000815260040161055f9190610e57565b60405180910390fd5b6002548042106105af57806040517f691e56820000000000000000000000000000000000000000000000000000000081526004016105a69190610e57565b60405180910390fd5b6000600460003373ffffffffffffffffffffffffffffffffffffffff1673ffffffffffffffffffffffffffffffffffffffff16815260200190815260200160002080549050905080898990501461060557600080fd5b80878790501461061457600080fd5b80858590501461062357600080fd5b600080600090505b828110156107a7576000600460003373ffffffffffffffffffffffffffffffffffffffff1673ffffffffffffffffffffffffffffffffffffffff168152602001908152602001600020828154811061068657610685611010565b5b9060005260206000209060020201905060008060008e8e868181106106ae576106ad611010565b5b905060200201358d8d878181106106c8576106c7611010565b5b90506020020160208101906106dd9190610c8d565b8c8c888181106106f0576106ef611010565b5b9050602002013592509250925082828260405160200161071293929190610d77565b6040516020818303038152906040528051906020012084600001541461073b5750505050610794565b83600101548661074b9190610e72565b95508115801561075f575082846001015410155b156107835761076e338461090b565b1561078257828661077f9190610ec8565b95505b5b6000801b8460000181905550505050505b808061079f90610f60565b91505061062b565b503373ffffffffffffffffffffffffffffffffffffffff166108fc829081150290604051600060405180830381858888f193505050501580156107ee573d6000803e3d6000fd5b5050505050505050505050565b600560009054906101000a900473ffffffffffffffffffffffffffffffffffffffff1681565b60015480421061086857806040517f691e568200000000000000000000000000000000000000000000000000000000815260040161085f9190610e57565b60405180910390fd5b600460003373ffffffffffffffffffffffffffffffffffffffff1673ffffffffffffffffffffffffffffffffffffffff1681526020019081526020016000206040518060400160405280848152602001348152509080600181540180825580915050600190039060005260206000209060020201600090919091909150600082015181600001556020820151816001015550505050565b60025481565b60065481565b6000600654821161091f5760009050610a3d565b600073ffffffffffffffffffffffffffffffffffffffff16600560009054906101000a900473ffffffffffffffffffffffffffffffffffffffff1673ffffffffffffffffffffffffffffffffffffffff16146109f05760065460076000600560009054906101000a900473ffffffffffffffffffffffffffffffffffffffff1673ffffffffffffffffffffffffffffffffffffffff1673ffffffffffffffffffffffffffffffffffffffff16815260200190815260200160002060008282546109e89190610e72565b925050819055505b8160068190555082600560006101000a81548173ffffffffffffffffffffffffffffffffffffffff021916908373ffffffffffffffffffffffffffffffffffffffff160217905550600190505b92915050565b600081359050610a5281611065565b92915050565b60008083601f840112610a6e57610a6d611044565b5b8235905067ffffffffffffffff811115610a8b57610a8a61103f565b5b602083019150836020820283011115610aa757610aa6611049565b5b9250929050565b60008083601f840112610ac457610ac3611044565b5b8235905067ffffffffffffffff811115610ae157610ae061103f565b5b602083019150836020820283011115610afd57610afc611049565b5b9250929050565b60008083601f840112610b1a57610b19611044565b5b8235905067ffffffffffffffff811115610b3757610b3661103f565b5b602083019150836020820283011115610b5357610b52611049565b5b9250929050565b600081359050610b698161107c565b92915050565b600081359050610b7e81611093565b92915050565b600081359050610b93816110aa565b92915050565b60008060408385031215610bb057610baf611053565b5b6000610bbe85828601610a43565b9250506020610bcf85828601610b84565b9150509250929050565b60008060008060008060608789031215610bf657610bf5611053565b5b600087013567ffffffffffffffff811115610c1457610c1361104e565b5b610c2089828a01610b04565b9650965050602087013567ffffffffffffffff811115610c4357610c4261104e565b5b610c4f89828a01610a58565b9450945050604087013567ffffffffffffffff811115610c7257610c7161104e565b5b610c7e89828a01610aae565b92509250509295509295509295565b600060208284031215610ca357610ca2611053565b5b6000610cb184828501610b5a565b91505092915050565b600060208284031215610cd057610ccf611053565b5b6000610cde84828501610b6f565b91505092915050565b610cf081610f0e565b82525050565b610cff81610efc565b82525050565b610d0e81610f20565b82525050565b610d25610d2082610f20565b610fa9565b82525050565b610d3481610f2c565b82525050565b610d4b610d4682610f2c565b610fbb565b82525050565b610d5a81610f56565b82525050565b610d71610d6c82610f56565b610fc5565b82525050565b6000610d838286610d60565b602082019150610d938285610d14565b600182019150610da38284610d3a565b602082019150819050949350505050565b6000602082019050610dc96000830184610cf6565b92915050565b6000602082019050610de46000830184610ce7565b92915050565b6000604082019050610dff6000830185610cf6565b610e0c6020830184610d51565b9392505050565b6000602082019050610e286000830184610d05565b92915050565b6000604082019050610e436000830185610d2b565b610e506020830184610d51565b9392505050565b6000602082019050610e6c6000830184610d51565b92915050565b6000610e7d82610f56565b9150610e8883610f56565b9250827fffffffffffffffffffffffffffffffffffffffffffffffffffffffffffffffff03821115610ebd57610ebc610fe1565b5b828201905092915050565b6000610ed382610f56565b9150610ede83610f56565b925082821015610ef157610ef0610fe1565b5b828203905092915050565b6000610f0782610f36565b9050919050565b6000610f1982610f36565b9050919050565b60008115159050919050565b6000819050919050565b600073ffffffffffffffffffffffffffffffffffffffff82169050919050565b6000819050919050565b6000610f6b82610f56565b91507fffffffffffffffffffffffffffffffffffffffffffffffffffffffffffffffff821415610f9e57610f9d610fe1565b5b600182019050919050565b6000610fb482610fcf565b9050919050565b6000819050919050565b6000819050919050565b6000610fda82611058565b9050919050565b7f4e487b7100000000000000000000000000000000000000000000000000000000600052601160045260246000fd5b7f4e487b7100000000000000000000000000000000000000000000000000000000600052603260045260246000fd5b600080fd5b600080fd5b600080fd5b600080fd5b600080fd5b60008160f81b9050919050565b61106e81610efc565b811461107957600080fd5b50565b61108581610f20565b811461109057600080fd5b50565b61109c81610f2c565b81146110a757600080fd5b50565b6110b381610f56565b81146110be57600080fd5b5056fea2646970667358221220df1cc24ec7ee91b72afa1e6f2138839f64fd0d43b8c51af9604176e371bf267464736f6c63430008070033",
					"opcodes": "PUSH1 0x80 PUSH1 0x40 MSTORE CALLVALUE DUP1 ISZERO PUSH3 0x11 JUMPI PUSH1 0x0 DUP1 REVERT JUMPDEST POP PUSH1 0x40 MLOAD PUSH3 0x133E CODESIZE SUB DUP1 PUSH3 0x133E DUP4 CODECOPY DUP2 DUP2 ADD PUSH1 0x40 MSTORE DUP2 ADD SWAP1 PUSH3 0x37 SWAP2 SWAP1 PUSH3 0xD8 JUMP JUMPDEST DUP1 PUSH1 0x0 DUP1 PUSH2 0x100 EXP DUP2 SLOAD DUP2 PUSH20 0xFFFFFFFFFFFFFFFFFFFFFFFFFFFFFFFFFFFFFFFF MUL NOT AND SWAP1 DUP4 PUSH20 0xFFFFFFFFFFFFFFFFFFFFFFFFFFFFFFFFFFFFFFFF AND MUL OR SWAP1 SSTORE POP DUP3 TIMESTAMP PUSH3 0x85 SWAP2 SWAP1 PUSH3 0x134 JUMP JUMPDEST PUSH1 0x1 DUP2 SWAP1 SSTORE POP DUP2 PUSH1 0x1 SLOAD PUSH3 0x9B SWAP2 SWAP1 PUSH3 0x134 JUMP JUMPDEST PUSH1 0x2 DUP2 SWAP1 SSTORE POP POP POP POP PUSH3 0x237 JUMP JUMPDEST PUSH1 0x0 DUP2 MLOAD SWAP1 POP PUSH3 0xBB DUP2 PUSH3 0x203 JUMP JUMPDEST SWAP3 SWAP2 POP POP JUMP JUMPDEST PUSH1 0x0 DUP2 MLOAD SWAP1 POP PUSH3 0xD2 DUP2 PUSH3 0x21D JUMP JUMPDEST SWAP3 SWAP2 POP POP JUMP JUMPDEST PUSH1 0x0 DUP1 PUSH1 0x0 PUSH1 0x60 DUP5 DUP7 SUB SLT ISZERO PUSH3 0xF4 JUMPI PUSH3 0xF3 PUSH3 0x1FE JUMP JUMPDEST JUMPDEST PUSH1 0x0 PUSH3 0x104 DUP7 DUP3 DUP8 ADD PUSH3 0xC1 JUMP JUMPDEST SWAP4 POP POP PUSH1 0x20 PUSH3 0x117 DUP7 DUP3 DUP8 ADD PUSH3 0xC1 JUMP JUMPDEST SWAP3 POP POP PUSH1 0x40 PUSH3 0x12A DUP7 DUP3 DUP8 ADD PUSH3 0xAA JUMP JUMPDEST SWAP2 POP POP SWAP3 POP SWAP3 POP SWAP3 JUMP JUMPDEST PUSH1 0x0 PUSH3 0x141 DUP3 PUSH3 0x1C5 JUMP JUMPDEST SWAP2 POP PUSH3 0x14E DUP4 PUSH3 0x1C5 JUMP JUMPDEST SWAP3 POP DUP3 PUSH32 0xFFFFFFFFFFFFFFFFFFFFFFFFFFFFFFFFFFFFFFFFFFFFFFFFFFFFFFFFFFFFFFFF SUB DUP3 GT ISZERO PUSH3 0x186 JUMPI PUSH3 0x185 PUSH3 0x1CF JUMP JUMPDEST JUMPDEST DUP3 DUP3 ADD SWAP1 POP SWAP3 SWAP2 POP POP JUMP JUMPDEST PUSH1 0x0 PUSH3 0x19E DUP3 PUSH3 0x1A5 JUMP JUMPDEST SWAP1 POP SWAP2 SWAP1 POP JUMP JUMPDEST PUSH1 0x0 PUSH20 0xFFFFFFFFFFFFFFFFFFFFFFFFFFFFFFFFFFFFFFFF DUP3 AND SWAP1 POP SWAP2 SWAP1 POP JUMP JUMPDEST PUSH1 0x0 DUP2 SWAP1 POP SWAP2 SWAP1 POP JUMP JUMPDEST PUSH32 0x4E487B7100000000000000000000000000000000000000000000000000000000 PUSH1 0x0 MSTORE PUSH1 0x11 PUSH1 0x4 MSTORE PUSH1 0x24 PUSH1 0x0 REVERT JUMPDEST PUSH1 0x0 DUP1 REVERT JUMPDEST PUSH3 0x20E DUP2 PUSH3 0x191 JUMP JUMPDEST DUP2 EQ PUSH3 0x21A JUMPI PUSH1 0x0 DUP1 REVERT JUMPDEST POP JUMP JUMPDEST PUSH3 0x228 DUP2 PUSH3 0x1C5 JUMP JUMPDEST DUP2 EQ PUSH3 0x234 JUMPI PUSH1 0x0 DUP1 REVERT JUMPDEST POP JUMP JUMPDEST PUSH2 0x10F7 DUP1 PUSH3 0x247 PUSH1 0x0 CODECOPY PUSH1 0x0 RETURN INVALID PUSH1 0x80 PUSH1 0x40 MSTORE PUSH1 0x4 CALLDATASIZE LT PUSH2 0x9C JUMPI PUSH1 0x0 CALLDATALOAD PUSH1 0xE0 SHR DUP1 PUSH4 0x423B217F GT PUSH2 0x64 JUMPI DUP1 PUSH4 0x423B217F EQ PUSH2 0x163 JUMPI DUP1 PUSH4 0x900F080A EQ PUSH2 0x18E JUMPI DUP1 PUSH4 0x91F90157 EQ PUSH2 0x1B7 JUMPI DUP1 PUSH4 0x957BB1E0 EQ PUSH2 0x1E2 JUMPI DUP1 PUSH4 0xA6E66477 EQ PUSH2 0x1FE JUMPI DUP1 PUSH4 0xD57BDE79 EQ PUSH2 0x229 JUMPI PUSH2 0x9C JUMP JUMPDEST DUP1 PUSH4 0x1495C1C EQ PUSH2 0xA1 JUMPI DUP1 PUSH4 0x12FA6FEB EQ PUSH2 0xDF JUMPI DUP1 PUSH4 0x2A24F46C EQ PUSH2 0x10A JUMPI DUP1 PUSH4 0x38AF3EED EQ PUSH2 0x121 JUMPI DUP1 PUSH4 0x3CCFD60B EQ PUSH2 0x14C JUMPI JUMPDEST PUSH1 0x0 DUP1 REVERT JUMPDEST CALLVALUE DUP1 ISZERO PUSH2 0xAD JUMPI PUSH1 0x0 DUP1 REVERT JUMPDEST POP PUSH2 0xC8 PUSH1 0x4 DUP1 CALLDATASIZE SUB DUP2 ADD SWAP1 PUSH2 0xC3 SWAP2 SWAP1 PUSH2 0xB99 JUMP JUMPDEST PUSH2 0x254 JUMP JUMPDEST PUSH1 0x40 MLOAD PUSH2 0xD6 SWAP3 SWAP2 SWAP1 PUSH2 0xE2E JUMP JUMPDEST PUSH1 0x40 MLOAD DUP1 SWAP2 SUB SWAP1 RETURN JUMPDEST CALLVALUE DUP1 ISZERO PUSH2 0xEB JUMPI PUSH1 0x0 DUP1 REVERT JUMPDEST POP PUSH2 0xF4 PUSH2 0x295 JUMP JUMPDEST PUSH1 0x40 MLOAD PUSH2 0x101 SWAP2 SWAP1 PUSH2 0xE13 JUMP JUMPDEST PUSH1 0x40 MLOAD DUP1 SWAP2 SUB SWAP1 RETURN JUMPDEST CALLVALUE DUP1 ISZERO PUSH2 0x116 JUMPI PUSH1 0x0 DUP1 REVERT JUMPDEST POP PUSH2 0x11F PUSH2 0x2A8 JUMP JUMPDEST STOP JUMPDEST CALLVALUE DUP1 ISZERO PUSH2 0x12D JUMPI PUSH1 0x0 DUP1 REVERT JUMPDEST POP PUSH2 0x136 PUSH2 0x41A JUMP JUMPDEST PUSH1 0x40 MLOAD PUSH2 0x143 SWAP2 SWAP1 PUSH2 0xDCF JUMP JUMPDEST PUSH1 0x40 MLOAD DUP1 SWAP2 SUB SWAP1 RETURN JUMPDEST CALLVALUE DUP1 ISZERO PUSH2 0x158 JUMPI PUSH1 0x0 DUP1 REVERT JUMPDEST POP PUSH2 0x161 PUSH2 0x43E JUMP JUMPDEST STOP JUMPDEST CALLVALUE DUP1 ISZERO PUSH2 0x16F JUMPI PUSH1 0x0 DUP1 REVERT JUMPDEST POP PUSH2 0x178 PUSH2 0x51B JUMP JUMPDEST PUSH1 0x40 MLOAD PUSH2 0x185 SWAP2 SWAP1 PUSH2 0xE57 JUMP JUMPDEST PUSH1 0x40 MLOAD DUP1 SWAP2 SUB SWAP1 RETURN JUMPDEST CALLVALUE DUP1 ISZERO PUSH2 0x19A JUMPI PUSH1 0x0 DUP1 REVERT JUMPDEST POP PUSH2 0x1B5 PUSH1 0x4 DUP1 CALLDATASIZE SUB DUP2 ADD SWAP1 PUSH2 0x1B0 SWAP2 SWAP1 PUSH2 0xBD9 JUMP JUMPDEST PUSH2 0x521 JUMP JUMPDEST STOP JUMPDEST CALLVALUE DUP1 ISZERO PUSH2 0x1C3 JUMPI PUSH1 0x0 DUP1 REVERT JUMPDEST POP PUSH2 0x1CC PUSH2 0x7FB JUMP JUMPDEST PUSH1 0x40 MLOAD PUSH2 0x1D9 SWAP2 SWAP1 PUSH2 0xDB4 JUMP JUMPDEST PUSH1 0x40 MLOAD DUP1 SWAP2 SUB SWAP1 RETURN JUMPDEST PUSH2 0x1FC PUSH1 0x4 DUP1 CALLDATASIZE SUB DUP2 ADD SWAP1 PUSH2 0x1F7 SWAP2 SWAP1 PUSH2 0xCBA JUMP JUMPDEST PUSH2 0x821 JUMP JUMPDEST STOP JUMPDEST CALLVALUE DUP1 ISZERO PUSH2 0x20A JUMPI PUSH1 0x0 DUP1 REVERT JUMPDEST POP PUSH2 0x213 PUSH2 0x8FF JUMP JUMPDEST PUSH1 0x40 MLOAD PUSH2 0x220 SWAP2 SWAP1 PUSH2 0xE57 JUMP JUMPDEST PUSH1 0x40 MLOAD DUP1 SWAP2 SUB SWAP1 RETURN JUMPDEST CALLVALUE DUP1 ISZERO PUSH2 0x235 JUMPI PUSH1 0x0 DUP1 REVERT JUMPDEST POP PUSH2 0x23E PUSH2 0x905 JUMP JUMPDEST PUSH1 0x40 MLOAD PUSH2 0x24B SWAP2 SWAP1 PUSH2 0xE57 JUMP JUMPDEST PUSH1 0x40 MLOAD DUP1 SWAP2 SUB SWAP1 RETURN JUMPDEST PUSH1 0x4 PUSH1 0x20 MSTORE DUP2 PUSH1 0x0 MSTORE PUSH1 0x40 PUSH1 0x0 KECCAK256 DUP2 DUP2 SLOAD DUP2 LT PUSH2 0x270 JUMPI PUSH1 0x0 DUP1 REVERT JUMPDEST SWAP1 PUSH1 0x0 MSTORE PUSH1 0x20 PUSH1 0x0 KECCAK256 SWAP1 PUSH1 0x2 MUL ADD PUSH1 0x0 SWAP2 POP SWAP2 POP POP DUP1 PUSH1 0x0 ADD SLOAD SWAP1 DUP1 PUSH1 0x1 ADD SLOAD SWAP1 POP DUP3 JUMP JUMPDEST PUSH1 0x3 PUSH1 0x0 SWAP1 SLOAD SWAP1 PUSH2 0x100 EXP SWAP1 DIV PUSH1 0xFF AND DUP2 JUMP JUMPDEST PUSH1 0x2 SLOAD DUP1 TIMESTAMP GT PUSH2 0x2EF JUMPI DUP1 PUSH1 0x40 MLOAD PUSH32 0x2A35A32400000000000000000000000000000000000000000000000000000000 DUP2 MSTORE PUSH1 0x4 ADD PUSH2 0x2E6 SWAP2 SWAP1 PUSH2 0xE57 JUMP JUMPDEST PUSH1 0x40 MLOAD DUP1 SWAP2 SUB SWAP1 REVERT JUMPDEST PUSH1 0x3 PUSH1 0x0 SWAP1 SLOAD SWAP1 PUSH2 0x100 EXP SWAP1 DIV PUSH1 0xFF AND ISZERO PUSH2 0x336 JUMPI PUSH1 0x40 MLOAD PUSH32 0x61CFDCF800000000000000000000000000000000000000000000000000000000 DUP2 MSTORE PUSH1 0x4 ADD PUSH1 0x40 MLOAD DUP1 SWAP2 SUB SWAP1 REVERT JUMPDEST PUSH32 0xDAEC4582D5D9595688C8C98545FDD1C696D41C6AEAEB636737E84ED2F5C00EDA PUSH1 0x5 PUSH1 0x0 SWAP1 SLOAD SWAP1 PUSH2 0x100 EXP SWAP1 DIV PUSH20 0xFFFFFFFFFFFFFFFFFFFFFFFFFFFFFFFFFFFFFFFF AND PUSH1 0x6 SLOAD PUSH1 0x40 MLOAD PUSH2 0x38B SWAP3 SWAP2 SWAP1 PUSH2 0xDEA JUMP JUMPDEST PUSH1 0x40 MLOAD DUP1 SWAP2 SUB SWAP1 LOG1 PUSH1 0x1 PUSH1 0x3 PUSH1 0x0 PUSH2 0x100 EXP DUP2 SLOAD DUP2 PUSH1 0xFF MUL NOT AND SWAP1 DUP4 ISZERO ISZERO MUL OR SWAP1 SSTORE POP PUSH1 0x0 DUP1 SLOAD SWAP1 PUSH2 0x100 EXP SWAP1 DIV PUSH20 0xFFFFFFFFFFFFFFFFFFFFFFFFFFFFFFFFFFFFFFFF AND PUSH20 0xFFFFFFFFFFFFFFFFFFFFFFFFFFFFFFFFFFFFFFFF AND PUSH2 0x8FC PUSH1 0x6 SLOAD SWAP1 DUP2 ISZERO MUL SWAP1 PUSH1 0x40 MLOAD PUSH1 0x0 PUSH1 0x40 MLOAD DUP1 DUP4 SUB DUP2 DUP6 DUP9 DUP9 CALL SWAP4 POP POP POP POP ISZERO DUP1 ISZERO PUSH2 0x416 JUMPI RETURNDATASIZE PUSH1 0x0 DUP1 RETURNDATACOPY RETURNDATASIZE PUSH1 0x0 REVERT JUMPDEST POP POP JUMP JUMPDEST PUSH1 0x0 DUP1 SLOAD SWAP1 PUSH2 0x100 EXP SWAP1 DIV PUSH20 0xFFFFFFFFFFFFFFFFFFFFFFFFFFFFFFFFFFFFFFFF AND DUP2 JUMP JUMPDEST PUSH1 0x0 PUSH1 0x7 PUSH1 0x0 CALLER PUSH20 0xFFFFFFFFFFFFFFFFFFFFFFFFFFFFFFFFFFFFFFFF AND PUSH20 0xFFFFFFFFFFFFFFFFFFFFFFFFFFFFFFFFFFFFFFFF AND DUP2 MSTORE PUSH1 0x20 ADD SWAP1 DUP2 MSTORE PUSH1 0x20 ADD PUSH1 0x0 KECCAK256 SLOAD SWAP1 POP PUSH1 0x0 DUP2 GT ISZERO PUSH2 0x518 JUMPI PUSH1 0x0 PUSH1 0x7 PUSH1 0x0 CALLER PUSH20 0xFFFFFFFFFFFFFFFFFFFFFFFFFFFFFFFFFFFFFFFF AND PUSH20 0xFFFFFFFFFFFFFFFFFFFFFFFFFFFFFFFFFFFFFFFF AND DUP2 MSTORE PUSH1 0x20 ADD SWAP1 DUP2 MSTORE PUSH1 0x20 ADD PUSH1 0x0 KECCAK256 DUP2 SWAP1 SSTORE POP CALLER PUSH20 0xFFFFFFFFFFFFFFFFFFFFFFFFFFFFFFFFFFFFFFFF AND PUSH2 0x8FC DUP3 SWAP1 DUP2 ISZERO MUL SWAP1 PUSH1 0x40 MLOAD PUSH1 0x0 PUSH1 0x40 MLOAD DUP1 DUP4 SUB DUP2 DUP6 DUP9 DUP9 CALL SWAP4 POP POP POP POP ISZERO DUP1 ISZERO PUSH2 0x516 JUMPI RETURNDATASIZE PUSH1 0x0 DUP1 RETURNDATACOPY RETURNDATASIZE PUSH1 0x0 REVERT JUMPDEST POP JUMPDEST POP JUMP JUMPDEST PUSH1 0x1 SLOAD DUP2 JUMP JUMPDEST PUSH1 0x1 SLOAD DUP1 TIMESTAMP GT PUSH2 0x568 JUMPI DUP1 PUSH1 0x40 MLOAD PUSH32 0x2A35A32400000000000000000000000000000000000000000000000000000000 DUP2 MSTORE PUSH1 0x4 ADD PUSH2 0x55F SWAP2 SWAP1 PUSH2 0xE57 JUMP JUMPDEST PUSH1 0x40 MLOAD DUP1 SWAP2 SUB SWAP1 REVERT JUMPDEST PUSH1 0x2 SLOAD DUP1 TIMESTAMP LT PUSH2 0x5AF JUMPI DUP1 PUSH1 0x40 MLOAD PUSH32 0x691E568200000000000000000000000000000000000000000000000000000000 DUP2 MSTORE PUSH1 0x4 ADD PUSH2 0x5A6 SWAP2 SWAP1 PUSH2 0xE57 JUMP JUMPDEST PUSH1 0x40 MLOAD DUP1 SWAP2 SUB SWAP1 REVERT JUMPDEST PUSH1 0x0 PUSH1 0x4 PUSH1 0x0 CALLER PUSH20 0xFFFFFFFFFFFFFFFFFFFFFFFFFFFFFFFFFFFFFFFF AND PUSH20 0xFFFFFFFFFFFFFFFFFFFFFFFFFFFFFFFFFFFFFFFF AND DUP2 MSTORE PUSH1 0x20 ADD SWAP1 DUP2 MSTORE PUSH1 0x20 ADD PUSH1 0x0 KECCAK256 DUP1 SLOAD SWAP1 POP SWAP1 POP DUP1 DUP10 DUP10 SWAP1 POP EQ PUSH2 0x605 JUMPI PUSH1 0x0 DUP1 REVERT JUMPDEST DUP1 DUP8 DUP8 SWAP1 POP EQ PUSH2 0x614 JUMPI PUSH1 0x0 DUP1 REVERT JUMPDEST DUP1 DUP6 DUP6 SWAP1 POP EQ PUSH2 0x623 JUMPI PUSH1 0x0 DUP1 REVERT JUMPDEST PUSH1 0x0 DUP1 PUSH1 0x0 SWAP1 POP JUMPDEST DUP3 DUP2 LT ISZERO PUSH2 0x7A7 JUMPI PUSH1 0x0 PUSH1 0x4 PUSH1 0x0 CALLER PUSH20 0xFFFFFFFFFFFFFFFFFFFFFFFFFFFFFFFFFFFFFFFF AND PUSH20 0xFFFFFFFFFFFFFFFFFFFFFFFFFFFFFFFFFFFFFFFF AND DUP2 MSTORE PUSH1 0x20 ADD SWAP1 DUP2 MSTORE PUSH1 0x20 ADD PUSH1 0x0 KECCAK256 DUP3 DUP2 SLOAD DUP2 LT PUSH2 0x686 JUMPI PUSH2 0x685 PUSH2 0x1010 JUMP JUMPDEST JUMPDEST SWAP1 PUSH1 0x0 MSTORE PUSH1 0x20 PUSH1 0x0 KECCAK256 SWAP1 PUSH1 0x2 MUL ADD SWAP1 POP PUSH1 0x0 DUP1 PUSH1 0x0 DUP15 DUP15 DUP7 DUP2 DUP2 LT PUSH2 0x6AE JUMPI PUSH2 0x6AD PUSH2 0x1010 JUMP JUMPDEST JUMPDEST SWAP1 POP PUSH1 0x20 MUL ADD CALLDATALOAD DUP14 DUP14 DUP8 DUP2 DUP2 LT PUSH2 0x6C8 JUMPI PUSH2 0x6C7 PUSH2 0x1010 JUMP JUMPDEST JUMPDEST SWAP1 POP PUSH1 0x20 MUL ADD PUSH1 0x20 DUP2 ADD SWAP1 PUSH2 0x6DD SWAP2 SWAP1 PUSH2 0xC8D JUMP JUMPDEST DUP13 DUP13 DUP9 DUP2 DUP2 LT PUSH2 0x6F0 JUMPI PUSH2 0x6EF PUSH2 0x1010 JUMP JUMPDEST JUMPDEST SWAP1 POP PUSH1 0x20 MUL ADD CALLDATALOAD SWAP3 POP SWAP3 POP SWAP3 POP DUP3 DUP3 DUP3 PUSH1 0x40 MLOAD PUSH1 0x20 ADD PUSH2 0x712 SWAP4 SWAP3 SWAP2 SWAP1 PUSH2 0xD77 JUMP JUMPDEST PUSH1 0x40 MLOAD PUSH1 0x20 DUP2 DUP4 SUB SUB DUP2 MSTORE SWAP1 PUSH1 0x40 MSTORE DUP1 MLOAD SWAP1 PUSH1 0x20 ADD KECCAK256 DUP5 PUSH1 0x0 ADD SLOAD EQ PUSH2 0x73B JUMPI POP POP POP POP PUSH2 0x794 JUMP JUMPDEST DUP4 PUSH1 0x1 ADD SLOAD DUP7 PUSH2 0x74B SWAP2 SWAP1 PUSH2 0xE72 JUMP JUMPDEST SWAP6 POP DUP2 ISZERO DUP1 ISZERO PUSH2 0x75F JUMPI POP DUP3 DUP5 PUSH1 0x1 ADD SLOAD LT ISZERO JUMPDEST ISZERO PUSH2 0x783 JUMPI PUSH2 0x76E CALLER DUP5 PUSH2 0x90B JUMP JUMPDEST ISZERO PUSH2 0x782 JUMPI DUP3 DUP7 PUSH2 0x77F SWAP2 SWAP1 PUSH2 0xEC8 JUMP JUMPDEST SWAP6 POP JUMPDEST JUMPDEST PUSH1 0x0 DUP1 SHL DUP5 PUSH1 0x0 ADD DUP2 SWAP1 SSTORE POP POP POP POP POP JUMPDEST DUP1 DUP1 PUSH2 0x79F SWAP1 PUSH2 0xF60 JUMP JUMPDEST SWAP2 POP POP PUSH2 0x62B JUMP JUMPDEST POP CALLER PUSH20 0xFFFFFFFFFFFFFFFFFFFFFFFFFFFFFFFFFFFFFFFF AND PUSH2 0x8FC DUP3 SWAP1 DUP2 ISZERO MUL SWAP1 PUSH1 0x40 MLOAD PUSH1 0x0 PUSH1 0x40 MLOAD DUP1 DUP4 SUB DUP2 DUP6 DUP9 DUP9 CALL SWAP4 POP POP POP POP ISZERO DUP1 ISZERO PUSH2 0x7EE JUMPI RETURNDATASIZE PUSH1 0x0 DUP1 RETURNDATACOPY RETURNDATASIZE PUSH1 0x0 REVERT JUMPDEST POP POP POP POP POP POP POP POP POP POP POP JUMP JUMPDEST PUSH1 0x5 PUSH1 0x0 SWAP1 SLOAD SWAP1 PUSH2 0x100 EXP SWAP1 DIV PUSH20 0xFFFFFFFFFFFFFFFFFFFFFFFFFFFFFFFFFFFFFFFF AND DUP2 JUMP JUMPDEST PUSH1 0x1 SLOAD DUP1 TIMESTAMP LT PUSH2 0x868 JUMPI DUP1 PUSH1 0x40 MLOAD PUSH32 0x691E568200000000000000000000000000000000000000000000000000000000 DUP2 MSTORE PUSH1 0x4 ADD PUSH2 0x85F SWAP2 SWAP1 PUSH2 0xE57 JUMP JUMPDEST PUSH1 0x40 MLOAD DUP1 SWAP2 SUB SWAP1 REVERT JUMPDEST PUSH1 0x4 PUSH1 0x0 CALLER PUSH20 0xFFFFFFFFFFFFFFFFFFFFFFFFFFFFFFFFFFFFFFFF AND PUSH20 0xFFFFFFFFFFFFFFFFFFFFFFFFFFFFFFFFFFFFFFFF AND DUP2 MSTORE PUSH1 0x20 ADD SWAP1 DUP2 MSTORE PUSH1 0x20 ADD PUSH1 0x0 KECCAK256 PUSH1 0x40 MLOAD DUP1 PUSH1 0x40 ADD PUSH1 0x40 MSTORE DUP1 DUP5 DUP2 MSTORE PUSH1 0x20 ADD CALLVALUE DUP2 MSTORE POP SWAP1 DUP1 PUSH1 0x1 DUP2 SLOAD ADD DUP1 DUP3 SSTORE DUP1 SWAP2 POP POP PUSH1 0x1 SWAP1 SUB SWAP1 PUSH1 0x0 MSTORE PUSH1 0x20 PUSH1 0x0 KECCAK256 SWAP1 PUSH1 0x2 MUL ADD PUSH1 0x0 SWAP1 SWAP2 SWAP1 SWAP2 SWAP1 SWAP2 POP PUSH1 0x0 DUP3 ADD MLOAD DUP2 PUSH1 0x0 ADD SSTORE PUSH1 0x20 DUP3 ADD MLOAD DUP2 PUSH1 0x1 ADD SSTORE POP POP POP POP JUMP JUMPDEST PUSH1 0x2 SLOAD DUP2 JUMP JUMPDEST PUSH1 0x6 SLOAD DUP2 JUMP JUMPDEST PUSH1 0x0 PUSH1 0x6 SLOAD DUP3 GT PUSH2 0x91F JUMPI PUSH1 0x0 SWAP1 POP PUSH2 0xA3D JUMP JUMPDEST PUSH1 0x0 PUSH20 0xFFFFFFFFFFFFFFFFFFFFFFFFFFFFFFFFFFFFFFFF AND PUSH1 0x5 PUSH1 0x0 SWAP1 SLOAD SWAP1 PUSH2 0x100 EXP SWAP1 DIV PUSH20 0xFFFFFFFFFFFFFFFFFFFFFFFFFFFFFFFFFFFFFFFF AND PUSH20 0xFFFFFFFFFFFFFFFFFFFFFFFFFFFFFFFFFFFFFFFF AND EQ PUSH2 0x9F0 JUMPI PUSH1 0x6 SLOAD PUSH1 0x7 PUSH1 0x0 PUSH1 0x5 PUSH1 0x0 SWAP1 SLOAD SWAP1 PUSH2 0x100 EXP SWAP1 DIV PUSH20 0xFFFFFFFFFFFFFFFFFFFFFFFFFFFFFFFFFFFFFFFF AND PUSH20 0xFFFFFFFFFFFFFFFFFFFFFFFFFFFFFFFFFFFFFFFF AND PUSH20 0xFFFFFFFFFFFFFFFFFFFFFFFFFFFFFFFFFFFFFFFF AND DUP2 MSTORE PUSH1 0x20 ADD SWAP1 DUP2 MSTORE PUSH1 0x20 ADD PUSH1 0x0 KECCAK256 PUSH1 0x0 DUP3 DUP3 SLOAD PUSH2 0x9E8 SWAP2 SWAP1 PUSH2 0xE72 JUMP JUMPDEST SWAP3 POP POP DUP2 SWAP1 SSTORE POP JUMPDEST DUP2 PUSH1 0x6 DUP2 SWAP1 SSTORE POP DUP3 PUSH1 0x5 PUSH1 0x0 PUSH2 0x100 EXP DUP2 SLOAD DUP2 PUSH20 0xFFFFFFFFFFFFFFFFFFFFFFFFFFFFFFFFFFFFFFFF MUL NOT AND SWAP1 DUP4 PUSH20 0xFFFFFFFFFFFFFFFFFFFFFFFFFFFFFFFFFFFFFFFF AND MUL OR SWAP1 SSTORE POP PUSH1 0x1 SWAP1 POP JUMPDEST SWAP3 SWAP2 POP POP JUMP JUMPDEST PUSH1 0x0 DUP2 CALLDATALOAD SWAP1 POP PUSH2 0xA52 DUP2 PUSH2 0x1065 JUMP JUMPDEST SWAP3 SWAP2 POP POP JUMP JUMPDEST PUSH1 0x0 DUP1 DUP4 PUSH1 0x1F DUP5 ADD SLT PUSH2 0xA6E JUMPI PUSH2 0xA6D PUSH2 0x1044 JUMP JUMPDEST JUMPDEST DUP3 CALLDATALOAD SWAP1 POP PUSH8 0xFFFFFFFFFFFFFFFF DUP2 GT ISZERO PUSH2 0xA8B JUMPI PUSH2 0xA8A PUSH2 0x103F JUMP JUMPDEST JUMPDEST PUSH1 0x20 DUP4 ADD SWAP2 POP DUP4 PUSH1 0x20 DUP3 MUL DUP4 ADD GT ISZERO PUSH2 0xAA7 JUMPI PUSH2 0xAA6 PUSH2 0x1049 JUMP JUMPDEST JUMPDEST SWAP3 POP SWAP3 SWAP1 POP JUMP JUMPDEST PUSH1 0x0 DUP1 DUP4 PUSH1 0x1F DUP5 ADD SLT PUSH2 0xAC4 JUMPI PUSH2 0xAC3 PUSH2 0x1044 JUMP JUMPDEST JUMPDEST DUP3 CALLDATALOAD SWAP1 POP PUSH8 0xFFFFFFFFFFFFFFFF DUP2 GT ISZERO PUSH2 0xAE1 JUMPI PUSH2 0xAE0 PUSH2 0x103F JUMP JUMPDEST JUMPDEST PUSH1 0x20 DUP4 ADD SWAP2 POP DUP4 PUSH1 0x20 DUP3 MUL DUP4 ADD GT ISZERO PUSH2 0xAFD JUMPI PUSH2 0xAFC PUSH2 0x1049 JUMP JUMPDEST JUMPDEST SWAP3 POP SWAP3 SWAP1 POP JUMP JUMPDEST PUSH1 0x0 DUP1 DUP4 PUSH1 0x1F DUP5 ADD SLT PUSH2 0xB1A JUMPI PUSH2 0xB19 PUSH2 0x1044 JUMP JUMPDEST JUMPDEST DUP3 CALLDATALOAD SWAP1 POP PUSH8 0xFFFFFFFFFFFFFFFF DUP2 GT ISZERO PUSH2 0xB37 JUMPI PUSH2 0xB36 PUSH2 0x103F JUMP JUMPDEST JUMPDEST PUSH1 0x20 DUP4 ADD SWAP2 POP DUP4 PUSH1 0x20 DUP3 MUL DUP4 ADD GT ISZERO PUSH2 0xB53 JUMPI PUSH2 0xB52 PUSH2 0x1049 JUMP JUMPDEST JUMPDEST SWAP3 POP SWAP3 SWAP1 POP JUMP JUMPDEST PUSH1 0x0 DUP2 CALLDATALOAD SWAP1 POP PUSH2 0xB69 DUP2 PUSH2 0x107C JUMP JUMPDEST SWAP3 SWAP2 POP POP JUMP JUMPDEST PUSH1 0x0 DUP2 CALLDATALOAD SWAP1 POP PUSH2 0xB7E DUP2 PUSH2 0x1093 JUMP JUMPDEST SWAP3 SWAP2 POP POP JUMP JUMPDEST PUSH1 0x0 DUP2 CALLDATALOAD SWAP1 POP PUSH2 0xB93 DUP2 PUSH2 0x10AA JUMP JUMPDEST SWAP3 SWAP2 POP POP JUMP JUMPDEST PUSH1 0x0 DUP1 PUSH1 0x40 DUP4 DUP6 SUB SLT ISZERO PUSH2 0xBB0 JUMPI PUSH2 0xBAF PUSH2 0x1053 JUMP JUMPDEST JUMPDEST PUSH1 0x0 PUSH2 0xBBE DUP6 DUP3 DUP7 ADD PUSH2 0xA43 JUMP JUMPDEST SWAP3 POP POP PUSH1 0x20 PUSH2 0xBCF DUP6 DUP3 DUP7 ADD PUSH2 0xB84 JUMP JUMPDEST SWAP2 POP POP SWAP3 POP SWAP3 SWAP1 POP JUMP JUMPDEST PUSH1 0x0 DUP1 PUSH1 0x0 DUP1 PUSH1 0x0 DUP1 PUSH1 0x60 DUP8 DUP10 SUB SLT ISZERO PUSH2 0xBF6 JUMPI PUSH2 0xBF5 PUSH2 0x1053 JUMP JUMPDEST JUMPDEST PUSH1 0x0 DUP8 ADD CALLDATALOAD PUSH8 0xFFFFFFFFFFFFFFFF DUP2 GT ISZERO PUSH2 0xC14 JUMPI PUSH2 0xC13 PUSH2 0x104E JUMP JUMPDEST JUMPDEST PUSH2 0xC20 DUP10 DUP3 DUP11 ADD PUSH2 0xB04 JUMP JUMPDEST SWAP7 POP SWAP7 POP POP PUSH1 0x20 DUP8 ADD CALLDATALOAD PUSH8 0xFFFFFFFFFFFFFFFF DUP2 GT ISZERO PUSH2 0xC43 JUMPI PUSH2 0xC42 PUSH2 0x104E JUMP JUMPDEST JUMPDEST PUSH2 0xC4F DUP10 DUP3 DUP11 ADD PUSH2 0xA58 JUMP JUMPDEST SWAP5 POP SWAP5 POP POP PUSH1 0x40 DUP8 ADD CALLDATALOAD PUSH8 0xFFFFFFFFFFFFFFFF DUP2 GT ISZERO PUSH2 0xC72 JUMPI PUSH2 0xC71 PUSH2 0x104E JUMP JUMPDEST JUMPDEST PUSH2 0xC7E DUP10 DUP3 DUP11 ADD PUSH2 0xAAE JUMP JUMPDEST SWAP3 POP SWAP3 POP POP SWAP3 SWAP6 POP SWAP3 SWAP6 POP SWAP3 SWAP6 JUMP JUMPDEST PUSH1 0x0 PUSH1 0x20 DUP3 DUP5 SUB SLT ISZERO PUSH2 0xCA3 JUMPI PUSH2 0xCA2 PUSH2 0x1053 JUMP JUMPDEST JUMPDEST PUSH1 0x0 PUSH2 0xCB1 DUP5 DUP3 DUP6 ADD PUSH2 0xB5A JUMP JUMPDEST SWAP2 POP POP SWAP3 SWAP2 POP POP JUMP JUMPDEST PUSH1 0x0 PUSH1 0x20 DUP3 DUP5 SUB SLT ISZERO PUSH2 0xCD0 JUMPI PUSH2 0xCCF PUSH2 0x1053 JUMP JUMPDEST JUMPDEST PUSH1 0x0 PUSH2 0xCDE DUP5 DUP3 DUP6 ADD PUSH2 0xB6F JUMP JUMPDEST SWAP2 POP POP SWAP3 SWAP2 POP POP JUMP JUMPDEST PUSH2 0xCF0 DUP2 PUSH2 0xF0E JUMP JUMPDEST DUP3 MSTORE POP POP JUMP JUMPDEST PUSH2 0xCFF DUP2 PUSH2 0xEFC JUMP JUMPDEST DUP3 MSTORE POP POP JUMP JUMPDEST PUSH2 0xD0E DUP2 PUSH2 0xF20 JUMP JUMPDEST DUP3 MSTORE POP POP JUMP JUMPDEST PUSH2 0xD25 PUSH2 0xD20 DUP3 PUSH2 0xF20 JUMP JUMPDEST PUSH2 0xFA9 JUMP JUMPDEST DUP3 MSTORE POP POP JUMP JUMPDEST PUSH2 0xD34 DUP2 PUSH2 0xF2C JUMP JUMPDEST DUP3 MSTORE POP POP JUMP JUMPDEST PUSH2 0xD4B PUSH2 0xD46 DUP3 PUSH2 0xF2C JUMP JUMPDEST PUSH2 0xFBB JUMP JUMPDEST DUP3 MSTORE POP POP JUMP JUMPDEST PUSH2 0xD5A DUP2 PUSH2 0xF56 JUMP JUMPDEST DUP3 MSTORE POP POP JUMP JUMPDEST PUSH2 0xD71 PUSH2 0xD6C DUP3 PUSH2 0xF56 JUMP JUMPDEST PUSH2 0xFC5 JUMP JUMPDEST DUP3 MSTORE POP POP JUMP JUMPDEST PUSH1 0x0 PUSH2 0xD83 DUP3 DUP7 PUSH2 0xD60 JUMP JUMPDEST PUSH1 0x20 DUP3 ADD SWAP2 POP PUSH2 0xD93 DUP3 DUP6 PUSH2 0xD14 JUMP JUMPDEST PUSH1 0x1 DUP3 ADD SWAP2 POP PUSH2 0xDA3 DUP3 DUP5 PUSH2 0xD3A JUMP JUMPDEST PUSH1 0x20 DUP3 ADD SWAP2 POP DUP2 SWAP1 POP SWAP5 SWAP4 POP POP POP POP JUMP JUMPDEST PUSH1 0x0 PUSH1 0x20 DUP3 ADD SWAP1 POP PUSH2 0xDC9 PUSH1 0x0 DUP4 ADD DUP5 PUSH2 0xCF6 JUMP JUMPDEST SWAP3 SWAP2 POP POP JUMP JUMPDEST PUSH1 0x0 PUSH1 0x20 DUP3 ADD SWAP1 POP PUSH2 0xDE4 PUSH1 0x0 DUP4 ADD DUP5 PUSH2 0xCE7 JUMP JUMPDEST SWAP3 SWAP2 POP POP JUMP JUMPDEST PUSH1 0x0 PUSH1 0x40 DUP3 ADD SWAP1 POP PUSH2 0xDFF PUSH1 0x0 DUP4 ADD DUP6 PUSH2 0xCF6 JUMP JUMPDEST PUSH2 0xE0C PUSH1 0x20 DUP4 ADD DUP5 PUSH2 0xD51 JUMP JUMPDEST SWAP4 SWAP3 POP POP POP JUMP JUMPDEST PUSH1 0x0 PUSH1 0x20 DUP3 ADD SWAP1 POP PUSH2 0xE28 PUSH1 0x0 DUP4 ADD DUP5 PUSH2 0xD05 JUMP JUMPDEST SWAP3 SWAP2 POP POP JUMP JUMPDEST PUSH1 0x0 PUSH1 0x40 DUP3 ADD SWAP1 POP PUSH2 0xE43 PUSH1 0x0 DUP4 ADD DUP6 PUSH2 0xD2B JUMP JUMPDEST PUSH2 0xE50 PUSH1 0x20 DUP4 ADD DUP5 PUSH2 0xD51 JUMP JUMPDEST SWAP4 SWAP3 POP POP POP JUMP JUMPDEST PUSH1 0x0 PUSH1 0x20 DUP3 ADD SWAP1 POP PUSH2 0xE6C PUSH1 0x0 DUP4 ADD DUP5 PUSH2 0xD51 JUMP JUMPDEST SWAP3 SWAP2 POP POP JUMP JUMPDEST PUSH1 0x0 PUSH2 0xE7D DUP3 PUSH2 0xF56 JUMP JUMPDEST SWAP2 POP PUSH2 0xE88 DUP4 PUSH2 0xF56 JUMP JUMPDEST SWAP3 POP DUP3 PUSH32 0xFFFFFFFFFFFFFFFFFFFFFFFFFFFFFFFFFFFFFFFFFFFFFFFFFFFFFFFFFFFFFFFF SUB DUP3 GT ISZERO PUSH2 0xEBD JUMPI PUSH2 0xEBC PUSH2 0xFE1 JUMP JUMPDEST JUMPDEST DUP3 DUP3 ADD SWAP1 POP SWAP3 SWAP2 POP POP JUMP JUMPDEST PUSH1 0x0 PUSH2 0xED3 DUP3 PUSH2 0xF56 JUMP JUMPDEST SWAP2 POP PUSH2 0xEDE DUP4 PUSH2 0xF56 JUMP JUMPDEST SWAP3 POP DUP3 DUP3 LT ISZERO PUSH2 0xEF1 JUMPI PUSH2 0xEF0 PUSH2 0xFE1 JUMP JUMPDEST JUMPDEST DUP3 DUP3 SUB SWAP1 POP SWAP3 SWAP2 POP POP JUMP JUMPDEST PUSH1 0x0 PUSH2 0xF07 DUP3 PUSH2 0xF36 JUMP JUMPDEST SWAP1 POP SWAP2 SWAP1 POP JUMP JUMPDEST PUSH1 0x0 PUSH2 0xF19 DUP3 PUSH2 0xF36 JUMP JUMPDEST SWAP1 POP SWAP2 SWAP1 POP JUMP JUMPDEST PUSH1 0x0 DUP2 ISZERO ISZERO SWAP1 POP SWAP2 SWAP1 POP JUMP JUMPDEST PUSH1 0x0 DUP2 SWAP1 POP SWAP2 SWAP1 POP JUMP JUMPDEST PUSH1 0x0 PUSH20 0xFFFFFFFFFFFFFFFFFFFFFFFFFFFFFFFFFFFFFFFF DUP3 AND SWAP1 POP SWAP2 SWAP1 POP JUMP JUMPDEST PUSH1 0x0 DUP2 SWAP1 POP SWAP2 SWAP1 POP JUMP JUMPDEST PUSH1 0x0 PUSH2 0xF6B DUP3 PUSH2 0xF56 JUMP JUMPDEST SWAP2 POP PUSH32 0xFFFFFFFFFFFFFFFFFFFFFFFFFFFFFFFFFFFFFFFFFFFFFFFFFFFFFFFFFFFFFFFF DUP3 EQ ISZERO PUSH2 0xF9E JUMPI PUSH2 0xF9D PUSH2 0xFE1 JUMP JUMPDEST JUMPDEST PUSH1 0x1 DUP3 ADD SWAP1 POP SWAP2 SWAP1 POP JUMP JUMPDEST PUSH1 0x0 PUSH2 0xFB4 DUP3 PUSH2 0xFCF JUMP JUMPDEST SWAP1 POP SWAP2 SWAP1 POP JUMP JUMPDEST PUSH1 0x0 DUP2 SWAP1 POP SWAP2 SWAP1 POP JUMP JUMPDEST PUSH1 0x0 DUP2 SWAP1 POP SWAP2 SWAP1 POP JUMP JUMPDEST PUSH1 0x0 PUSH2 0xFDA DUP3 PUSH2 0x1058 JUMP JUMPDEST SWAP1 POP SWAP2 SWAP1 POP JUMP JUMPDEST PUSH32 0x4E487B7100000000000000000000000000000000000000000000000000000000 PUSH1 0x0 MSTORE PUSH1 0x11 PUSH1 0x4 MSTORE PUSH1 0x24 PUSH1 0x0 REVERT JUMPDEST PUSH32 0x4E487B7100000000000000000000000000000000000000000000000000000000 PUSH1 0x0 MSTORE PUSH1 0x32 PUSH1 0x4 MSTORE PUSH1 0x24 PUSH1 0x0 REVERT JUMPDEST PUSH1 0x0 DUP1 REVERT JUMPDEST PUSH1 0x0 DUP1 REVERT JUMPDEST PUSH1 0x0 DUP1 REVERT JUMPDEST PUSH1 0x0 DUP1 REVERT JUMPDEST PUSH1 0x0 DUP1 REVERT JUMPDEST PUSH1 0x0 DUP2 PUSH1 0xF8 SHL SWAP1 POP SWAP2 SWAP1 POP JUMP JUMPDEST PUSH2 0x106E DUP2 PUSH2 0xEFC JUMP JUMPDEST DUP2 EQ PUSH2 0x1079 JUMPI PUSH1 0x0 DUP1 REVERT JUMPDEST POP JUMP JUMPDEST PUSH2 0x1085 DUP2 PUSH2 0xF20 JUMP JUMPDEST DUP2 EQ PUSH2 0x1090 JUMPI PUSH1 0x0 DUP1 REVERT JUMPDEST POP JUMP JUMPDEST PUSH2 0x109C DUP2 PUSH2 0xF2C JUMP JUMPDEST DUP2 EQ PUSH2 0x10A7 JUMPI PUSH1 0x0 DUP1 REVERT JUMPDEST POP JUMP JUMPDEST PUSH2 0x10B3 DUP2 PUSH2 0xF56 JUMP JUMPDEST DUP2 EQ PUSH2 0x10BE JUMPI PUSH1 0x0 DUP1 REVERT JUMPDEST POP JUMP INVALID LOG2 PUSH5 0x6970667358 0x22 SLT KECCAK256 0xDF SHR 0xC2 0x4E 0xC7 0xEE SWAP2 0xB7 0x2A STATICCALL 0x1E PUSH16 0x2138839F64FD0D43B8C51AF9604176E3 PUSH18 0xBF267464736F6C6343000807003300000000 "
				},
				"gasEstimates": {
					"creation": {
						"codeDepositCost": "868600",
						"executionCost": "infinite",
						"totalCost": "infinite"
					},
					"external": {
						"auctionEnd()": "infinite",
						"beneficiary()": "2578",
						"bid(bytes32)": "71299",
						"biddingEnd()": "2429",
						"bids(address,uint256)": "infinite",
						"ended()": "2494",
						"highestBid()": "2539",
						"highestBidder()": "2558",
						"reveal(uint256[],bool[],bytes32[])": "infinite",
						"revealEnd()": "2517",
						"withdraw()": "infinite"
					},
					"internal": {
						"placeBid(address,uint256)": "infinite"
					}
				},
				"methodIdentifiers": {
					"auctionEnd()": "2a24f46c",
					"beneficiary()": "38af3eed",
					"bid(bytes32)": "957bb1e0",
					"biddingEnd()": "423b217f",
					"bids(address,uint256)": "01495c1c",
					"ended()": "12fa6feb",
					"highestBid()": "d57bde79",
					"highestBidder()": "91f90157",
					"reveal(uint256[],bool[],bytes32[])": "900f080a",
					"revealEnd()": "a6e66477",
					"withdraw()": "3ccfd60b"
				}
			},
			"storageLayout": {
				"storage": [
					{
						"astId": 8,
						"contract": "Besic/SolidityExample/blindAuction.sol:BlindAuction",
						"label": "beneficiary",
						"offset": 0,
						"slot": "0",
						"type": "t_address_payable"
					},
					{
						"astId": 10,
						"contract": "Besic/SolidityExample/blindAuction.sol:BlindAuction",
						"label": "biddingEnd",
						"offset": 0,
						"slot": "1",
						"type": "t_uint256"
					},
					{
						"astId": 12,
						"contract": "Besic/SolidityExample/blindAuction.sol:BlindAuction",
						"label": "revealEnd",
						"offset": 0,
						"slot": "2",
						"type": "t_uint256"
					},
					{
						"astId": 14,
						"contract": "Besic/SolidityExample/blindAuction.sol:BlindAuction",
						"label": "ended",
						"offset": 0,
						"slot": "3",
						"type": "t_bool"
					},
					{
						"astId": 20,
						"contract": "Besic/SolidityExample/blindAuction.sol:BlindAuction",
						"label": "bids",
						"offset": 0,
						"slot": "4",
						"type": "t_mapping(t_address,t_array(t_struct(Bid)6_storage)dyn_storage)"
					},
					{
						"astId": 22,
						"contract": "Besic/SolidityExample/blindAuction.sol:BlindAuction",
						"label": "highestBidder",
						"offset": 0,
						"slot": "5",
						"type": "t_address"
					},
					{
						"astId": 24,
						"contract": "Besic/SolidityExample/blindAuction.sol:BlindAuction",
						"label": "highestBid",
						"offset": 0,
						"slot": "6",
						"type": "t_uint256"
					},
					{
						"astId": 28,
						"contract": "Besic/SolidityExample/blindAuction.sol:BlindAuction",
						"label": "pendingReturns",
						"offset": 0,
						"slot": "7",
						"type": "t_mapping(t_address,t_uint256)"
					}
				],
				"types": {
					"t_address": {
						"encoding": "inplace",
						"label": "address",
						"numberOfBytes": "20"
					},
					"t_address_payable": {
						"encoding": "inplace",
						"label": "address payable",
						"numberOfBytes": "20"
					},
					"t_array(t_struct(Bid)6_storage)dyn_storage": {
						"base": "t_struct(Bid)6_storage",
						"encoding": "dynamic_array",
						"label": "struct BlindAuction.Bid[]",
						"numberOfBytes": "32"
					},
					"t_bool": {
						"encoding": "inplace",
						"label": "bool",
						"numberOfBytes": "1"
					},
					"t_bytes32": {
						"encoding": "inplace",
						"label": "bytes32",
						"numberOfBytes": "32"
					},
					"t_mapping(t_address,t_array(t_struct(Bid)6_storage)dyn_storage)": {
						"encoding": "mapping",
						"key": "t_address",
						"label": "mapping(address => struct BlindAuction.Bid[])",
						"numberOfBytes": "32",
						"value": "t_array(t_struct(Bid)6_storage)dyn_storage"
					},
					"t_mapping(t_address,t_uint256)": {
						"encoding": "mapping",
						"key": "t_address",
						"label": "mapping(address => uint256)",
						"numberOfBytes": "32",
						"value": "t_uint256"
					},
					"t_struct(Bid)6_storage": {
						"encoding": "inplace",
						"label": "struct BlindAuction.Bid",
						"members": [
							{
								"astId": 3,
								"contract": "Besic/SolidityExample/blindAuction.sol:BlindAuction",
								"label": "blindedBid",
								"offset": 0,
								"slot": "0",
								"type": "t_bytes32"
							},
							{
								"astId": 5,
								"contract": "Besic/SolidityExample/blindAuction.sol:BlindAuction",
								"label": "deposit",
								"offset": 0,
								"slot": "1",
								"type": "t_uint256"
							}
						],
						"numberOfBytes": "64"
					},
					"t_uint256": {
						"encoding": "inplace",
						"label": "uint256",
						"numberOfBytes": "32"
					}
				}
			},
			"userdoc": {
				"errors": {
					"AuctionEndAlreadyCalled()": [
						{
							"notice": "The function auctionEnd has already been called."
						}
					],
					"TooEarly(uint256)": [
						{
							"notice": "The function has been called too early. Try again at `time`."
						}
					],
					"TooLate(uint256)": [
						{
							"notice": "The function has been called too late. It cannot be called after `time`."
						}
					]
				},
				"kind": "user",
				"methods": {
					"auctionEnd()": {
						"notice": "End the auction and send the highest bid to the beneficiary."
					},
					"bid(bytes32)": {
						"notice": "Place a blinded bid with `blindedBid` = keccak256(abi.encodePacked(value, fake, secret)). The sent ether is only refunded if the bid is correctly revealed in the revealing phase. The bid is valid if the ether sent together with the bid is at least \"value\" and \"fake\" is not true. Setting \"fake\" to true and sending not the exact amount are ways to hide the real bid but still make the required deposit. The same address can place multiple bids."
					},
					"reveal(uint256[],bool[],bytes32[])": {
						"notice": "Reveal your blinded bids. You will get a refund for all correctly blinded invalid bids and for all bids except for the totally highest."
					},
					"withdraw()": {
						"notice": "Withdraw a bid that was overbid."
					}
				},
				"version": 1
			}
		}
	}
}