{
	"Besic/SolidityExample/modularContracts.sol": {
		"Token": {
			"abi": [
				{
					"anonymous": false,
					"inputs": [
						{
							"indexed": false,
							"internalType": "address",
							"name": "owner",
							"type": "address"
						},
						{
							"indexed": false,
							"internalType": "address",
							"name": "spender",
							"type": "address"
						},
						{
							"indexed": false,
							"internalType": "uint256",
							"name": "amount",
							"type": "uint256"
						}
					],
					"name": "Approval",
					"type": "event"
				},
				{
					"anonymous": false,
					"inputs": [
						{
							"indexed": false,
							"internalType": "address",
							"name": "from",
							"type": "address"
						},
						{
							"indexed": false,
							"internalType": "address",
							"name": "to",
							"type": "address"
						},
						{
							"indexed": false,
							"internalType": "uint256",
							"name": "amount",
							"type": "uint256"
						}
					],
					"name": "Transfer",
					"type": "event"
				},
				{
					"inputs": [
						{
							"internalType": "address",
							"name": "spender",
							"type": "address"
						},
						{
							"internalType": "uint256",
							"name": "tokens",
							"type": "uint256"
						}
					],
					"name": "approve",
					"outputs": [
						{
							"internalType": "bool",
							"name": "success",
							"type": "bool"
						}
					],
					"stateMutability": "nonpayable",
					"type": "function"
				},
				{
					"inputs": [
						{
							"internalType": "address",
							"name": "tokenOwner",
							"type": "address"
						}
					],
					"name": "balanceOf",
					"outputs": [
						{
							"internalType": "uint256",
							"name": "balance",
							"type": "uint256"
						}
					],
					"stateMutability": "view",
					"type": "function"
				},
				{
					"inputs": [
						{
							"internalType": "address",
							"name": "to",
							"type": "address"
						},
						{
							"internalType": "uint256",
							"name": "amount",
							"type": "uint256"
						}
					],
					"name": "transfer",
					"outputs": [
						{
							"internalType": "bool",
							"name": "success",
							"type": "bool"
						}
					],
					"stateMutability": "nonpayable",
					"type": "function"
				},
				{
					"inputs": [
						{
							"internalType": "address",
							"name": "from",
							"type": "address"
						},
						{
							"internalType": "address",
							"name": "to",
							"type": "address"
						},
						{
							"internalType": "uint256",
							"name": "amount",
							"type": "uint256"
						}
					],
					"name": "transferFrom",
					"outputs": [
						{
							"internalType": "bool",
							"name": "success",
							"type": "bool"
						}
					],
					"stateMutability": "nonpayable",
					"type": "function"
				}
			],
			"devdoc": {
				"kind": "dev",
				"methods": {},
				"version": 1
			},
			"evm": {
				"assembly": "    /* \"Besic/SolidityExample/modularContracts.sol\":388:1600  contract Token {\r... */\n  mstore(0x40, 0x80)\n  callvalue\n  dup1\n  iszero\n  tag_1\n  jumpi\n  0x00\n  dup1\n  revert\ntag_1:\n  pop\n  dataSize(sub_0)\n  dup1\n  dataOffset(sub_0)\n  0x00\n  codecopy\n  0x00\n  return\nstop\n\nsub_0: assembly {\n        /* \"Besic/SolidityExample/modularContracts.sol\":388:1600  contract Token {\r... */\n      mstore(0x40, 0x80)\n      callvalue\n      dup1\n      iszero\n      tag_1\n      jumpi\n      0x00\n      dup1\n      revert\n    tag_1:\n      pop\n      jumpi(tag_2, lt(calldatasize, 0x04))\n      shr(0xe0, calldataload(0x00))\n      dup1\n      0x095ea7b3\n      eq\n      tag_3\n      jumpi\n      dup1\n      0x23b872dd\n      eq\n      tag_4\n      jumpi\n      dup1\n      0x70a08231\n      eq\n      tag_5\n      jumpi\n      dup1\n      0xa9059cbb\n      eq\n      tag_6\n      jumpi\n    tag_2:\n      0x00\n      dup1\n      revert\n        /* \"Besic/SolidityExample/modularContracts.sol\":1200:1467  function approve(address spender, uint tokens) external returns (bool success) {\r... */\n    tag_3:\n      tag_7\n      0x04\n      dup1\n      calldatasize\n      sub\n      dup2\n      add\n      swap1\n      tag_8\n      swap2\n      swap1\n      tag_9\n      jump\t// in\n    tag_8:\n      tag_10\n      jump\t// in\n    tag_7:\n      mload(0x40)\n      tag_11\n      swap2\n      swap1\n      tag_12\n      jump\t// in\n    tag_11:\n      mload(0x40)\n      dup1\n      swap2\n      sub\n      swap1\n      return\n        /* \"Besic/SolidityExample/modularContracts.sol\":884:1192  function transferFrom(address from, address to, uint amount) external returns (bool success) {\r... */\n    tag_4:\n      tag_13\n      0x04\n      dup1\n      calldatasize\n      sub\n      dup2\n      add\n      swap1\n      tag_14\n      swap2\n      swap1\n      tag_15\n      jump\t// in\n    tag_14:\n      tag_16\n      jump\t// in\n    tag_13:\n      mload(0x40)\n      tag_17\n      swap2\n      swap1\n      tag_12\n      jump\t// in\n    tag_17:\n      mload(0x40)\n      dup1\n      swap2\n      sub\n      swap1\n      return\n        /* \"Besic/SolidityExample/modularContracts.sol\":1475:1597  function balanceOf(address tokenOwner) external view returns (uint balance) {\r... */\n    tag_5:\n      tag_18\n      0x04\n      dup1\n      calldatasize\n      sub\n      dup2\n      add\n      swap1\n      tag_19\n      swap2\n      swap1\n      tag_20\n      jump\t// in\n    tag_19:\n      tag_21\n      jump\t// in\n    tag_18:\n      mload(0x40)\n      tag_22\n      swap2\n      swap1\n      tag_23\n      jump\t// in\n    tag_22:\n      mload(0x40)\n      dup1\n      swap2\n      sub\n      swap1\n      return\n        /* \"Besic/SolidityExample/modularContracts.sol\":673:876  function transfer(address to, uint amount) external returns (bool success) {\r... */\n    tag_6:\n      tag_24\n      0x04\n      dup1\n      calldatasize\n      sub\n      dup2\n      add\n      swap1\n      tag_25\n      swap2\n      swap1\n      tag_9\n      jump\t// in\n    tag_25:\n      tag_26\n      jump\t// in\n    tag_24:\n      mload(0x40)\n      tag_27\n      swap2\n      swap1\n      tag_12\n      jump\t// in\n    tag_27:\n      mload(0x40)\n      dup1\n      swap2\n      sub\n      swap1\n      return\n        /* \"Besic/SolidityExample/modularContracts.sol\":1200:1467  function approve(address spender, uint tokens) external returns (bool success) {\r... */\n    tag_10:\n        /* \"Besic/SolidityExample/modularContracts.sol\":1265:1277  bool success */\n      0x00\n        /* \"Besic/SolidityExample/modularContracts.sol\":1330:1331  0 */\n      dup1\n        /* \"Besic/SolidityExample/modularContracts.sol\":1298:1305  allowed */\n      0x01\n        /* \"Besic/SolidityExample/modularContracts.sol\":1298:1317  allowed[msg.sender] */\n      0x00\n        /* \"Besic/SolidityExample/modularContracts.sol\":1306:1316  msg.sender */\n      caller\n        /* \"Besic/SolidityExample/modularContracts.sol\":1298:1317  allowed[msg.sender] */\n      0xffffffffffffffffffffffffffffffffffffffff\n      and\n      0xffffffffffffffffffffffffffffffffffffffff\n      and\n      dup2\n      mstore\n      0x20\n      add\n      swap1\n      dup2\n      mstore\n      0x20\n      add\n      0x00\n      keccak256\n        /* \"Besic/SolidityExample/modularContracts.sol\":1298:1326  allowed[msg.sender][spender] */\n      0x00\n        /* \"Besic/SolidityExample/modularContracts.sol\":1318:1325  spender */\n      dup6\n        /* \"Besic/SolidityExample/modularContracts.sol\":1298:1326  allowed[msg.sender][spender] */\n      0xffffffffffffffffffffffffffffffffffffffff\n      and\n      0xffffffffffffffffffffffffffffffffffffffff\n      and\n      dup2\n      mstore\n      0x20\n      add\n      swap1\n      dup2\n      mstore\n      0x20\n      add\n      0x00\n      keccak256\n      sload\n        /* \"Besic/SolidityExample/modularContracts.sol\":1298:1331  allowed[msg.sender][spender] == 0 */\n      eq\n        /* \"Besic/SolidityExample/modularContracts.sol\":1290:1336  require(allowed[msg.sender][spender] == 0, \"\") */\n      tag_29\n      jumpi\n      mload(0x40)\n      0x08c379a000000000000000000000000000000000000000000000000000000000\n      dup2\n      mstore\n      0x04\n      add\n      tag_30\n      swap1\n      tag_31\n      jump\t// in\n    tag_30:\n      mload(0x40)\n      dup1\n      swap2\n      sub\n      swap1\n      revert\n    tag_29:\n        /* \"Besic/SolidityExample/modularContracts.sol\":1378:1384  tokens */\n      dup2\n        /* \"Besic/SolidityExample/modularContracts.sol\":1347:1354  allowed */\n      0x01\n        /* \"Besic/SolidityExample/modularContracts.sol\":1347:1366  allowed[msg.sender] */\n      0x00\n        /* \"Besic/SolidityExample/modularContracts.sol\":1355:1365  msg.sender */\n      caller\n        /* \"Besic/SolidityExample/modularContracts.sol\":1347:1366  allowed[msg.sender] */\n      0xffffffffffffffffffffffffffffffffffffffff\n      and\n      0xffffffffffffffffffffffffffffffffffffffff\n      and\n      dup2\n      mstore\n      0x20\n      add\n      swap1\n      dup2\n      mstore\n      0x20\n      add\n      0x00\n      keccak256\n        /* \"Besic/SolidityExample/modularContracts.sol\":1347:1375  allowed[msg.sender][spender] */\n      0x00\n        /* \"Besic/SolidityExample/modularContracts.sol\":1367:1374  spender */\n      dup6\n        /* \"Besic/SolidityExample/modularContracts.sol\":1347:1375  allowed[msg.sender][spender] */\n      0xffffffffffffffffffffffffffffffffffffffff\n      and\n      0xffffffffffffffffffffffffffffffffffffffff\n      and\n      dup2\n      mstore\n      0x20\n      add\n      swap1\n      dup2\n      mstore\n      0x20\n      add\n      0x00\n      keccak256\n        /* \"Besic/SolidityExample/modularContracts.sol\":1347:1384  allowed[msg.sender][spender] = tokens */\n      dup2\n      swap1\n      sstore\n      pop\n        /* \"Besic/SolidityExample/modularContracts.sol\":1400:1437  Approval(msg.sender, spender, tokens) */\n      0x8c5be1e5ebec7d5bd14f71427d1e84f3dd0314c0f7b2291e5b200ac8c7c3b925\n        /* \"Besic/SolidityExample/modularContracts.sol\":1409:1419  msg.sender */\n      caller\n        /* \"Besic/SolidityExample/modularContracts.sol\":1421:1428  spender */\n      dup5\n        /* \"Besic/SolidityExample/modularContracts.sol\":1430:1436  tokens */\n      dup5\n        /* \"Besic/SolidityExample/modularContracts.sol\":1400:1437  Approval(msg.sender, spender, tokens) */\n      mload(0x40)\n      tag_32\n      swap4\n      swap3\n      swap2\n      swap1\n      tag_33\n      jump\t// in\n    tag_32:\n      mload(0x40)\n      dup1\n      swap2\n      sub\n      swap1\n      log1\n        /* \"Besic/SolidityExample/modularContracts.sol\":1455:1459  true */\n      0x01\n        /* \"Besic/SolidityExample/modularContracts.sol\":1448:1459  return true */\n      swap1\n      pop\n        /* \"Besic/SolidityExample/modularContracts.sol\":1200:1467  function approve(address spender, uint tokens) external returns (bool success) {\r... */\n      swap3\n      swap2\n      pop\n      pop\n      jump\t// out\n        /* \"Besic/SolidityExample/modularContracts.sol\":884:1192  function transferFrom(address from, address to, uint amount) external returns (bool success) {\r... */\n    tag_16:\n        /* \"Besic/SolidityExample/modularContracts.sol\":963:975  bool success */\n      0x00\n        /* \"Besic/SolidityExample/modularContracts.sol\":1025:1031  amount */\n      dup2\n        /* \"Besic/SolidityExample/modularContracts.sol\":996:1003  allowed */\n      0x01\n        /* \"Besic/SolidityExample/modularContracts.sol\":996:1009  allowed[from] */\n      0x00\n        /* \"Besic/SolidityExample/modularContracts.sol\":1004:1008  from */\n      dup7\n        /* \"Besic/SolidityExample/modularContracts.sol\":996:1009  allowed[from] */\n      0xffffffffffffffffffffffffffffffffffffffff\n      and\n      0xffffffffffffffffffffffffffffffffffffffff\n      and\n      dup2\n      mstore\n      0x20\n      add\n      swap1\n      dup2\n      mstore\n      0x20\n      add\n      0x00\n      keccak256\n        /* \"Besic/SolidityExample/modularContracts.sol\":996:1021  allowed[from][msg.sender] */\n      0x00\n        /* \"Besic/SolidityExample/modularContracts.sol\":1010:1020  msg.sender */\n      caller\n        /* \"Besic/SolidityExample/modularContracts.sol\":996:1021  allowed[from][msg.sender] */\n      0xffffffffffffffffffffffffffffffffffffffff\n      and\n      0xffffffffffffffffffffffffffffffffffffffff\n      and\n      dup2\n      mstore\n      0x20\n      add\n      swap1\n      dup2\n      mstore\n      0x20\n      add\n      0x00\n      keccak256\n      sload\n        /* \"Besic/SolidityExample/modularContracts.sol\":996:1031  allowed[from][msg.sender] >= amount */\n      lt\n      iszero\n        /* \"Besic/SolidityExample/modularContracts.sol\":988:1032  require(allowed[from][msg.sender] >= amount) */\n      tag_35\n      jumpi\n      0x00\n      dup1\n      revert\n    tag_35:\n        /* \"Besic/SolidityExample/modularContracts.sol\":1072:1078  amount */\n      dup2\n        /* \"Besic/SolidityExample/modularContracts.sol\":1043:1050  allowed */\n      0x01\n        /* \"Besic/SolidityExample/modularContracts.sol\":1043:1056  allowed[from] */\n      0x00\n        /* \"Besic/SolidityExample/modularContracts.sol\":1051:1055  from */\n      dup7\n        /* \"Besic/SolidityExample/modularContracts.sol\":1043:1056  allowed[from] */\n      0xffffffffffffffffffffffffffffffffffffffff\n      and\n      0xffffffffffffffffffffffffffffffffffffffff\n      and\n      dup2\n      mstore\n      0x20\n      add\n      swap1\n      dup2\n      mstore\n      0x20\n      add\n      0x00\n      keccak256\n        /* \"Besic/SolidityExample/modularContracts.sol\":1043:1068  allowed[from][msg.sender] */\n      0x00\n        /* \"Besic/SolidityExample/modularContracts.sol\":1057:1067  msg.sender */\n      caller\n        /* \"Besic/SolidityExample/modularContracts.sol\":1043:1068  allowed[from][msg.sender] */\n      0xffffffffffffffffffffffffffffffffffffffff\n      and\n      0xffffffffffffffffffffffffffffffffffffffff\n      and\n      dup2\n      mstore\n      0x20\n      add\n      swap1\n      dup2\n      mstore\n      0x20\n      add\n      0x00\n      keccak256\n      0x00\n        /* \"Besic/SolidityExample/modularContracts.sol\":1043:1078  allowed[from][msg.sender] -= amount */\n      dup3\n      dup3\n      sload\n      tag_36\n      swap2\n      swap1\n      tag_37\n      jump\t// in\n    tag_36:\n      swap3\n      pop\n      pop\n      dup2\n      swap1\n      sstore\n      pop\n        /* \"Besic/SolidityExample/modularContracts.sol\":1089:1120  balances.move(from, to, amount) */\n      tag_38\n        /* \"Besic/SolidityExample/modularContracts.sol\":1103:1107  from */\n      dup5\n        /* \"Besic/SolidityExample/modularContracts.sol\":1109:1111  to */\n      dup5\n        /* \"Besic/SolidityExample/modularContracts.sol\":1113:1119  amount */\n      dup5\n        /* \"Besic/SolidityExample/modularContracts.sol\":1089:1097  balances */\n      0x00\n        /* \"Besic/SolidityExample/modularContracts.sol\":1089:1102  balances.move */\n      tag_39\n      swap1\n        /* \"Besic/SolidityExample/modularContracts.sol\":1089:1120  balances.move(from, to, amount) */\n      swap4\n      swap3\n      swap2\n      swap1\n      0xffffffff\n      and\n      jump\t// in\n    tag_38:\n        /* \"Besic/SolidityExample/modularContracts.sol\":1136:1162  Transfer(from, to, amount) */\n      0xddf252ad1be2c89b69c2b068fc378daa952ba7f163c4a11628f55a4df523b3ef\n        /* \"Besic/SolidityExample/modularContracts.sol\":1145:1149  from */\n      dup5\n        /* \"Besic/SolidityExample/modularContracts.sol\":1151:1153  to */\n      dup5\n        /* \"Besic/SolidityExample/modularContracts.sol\":1155:1161  amount */\n      dup5\n        /* \"Besic/SolidityExample/modularContracts.sol\":1136:1162  Transfer(from, to, amount) */\n      mload(0x40)\n      tag_40\n      swap4\n      swap3\n      swap2\n      swap1\n      tag_33\n      jump\t// in\n    tag_40:\n      mload(0x40)\n      dup1\n      swap2\n      sub\n      swap1\n      log1\n        /* \"Besic/SolidityExample/modularContracts.sol\":1180:1184  true */\n      0x01\n        /* \"Besic/SolidityExample/modularContracts.sol\":1173:1184  return true */\n      swap1\n      pop\n        /* \"Besic/SolidityExample/modularContracts.sol\":884:1192  function transferFrom(address from, address to, uint amount) external returns (bool success) {\r... */\n      swap4\n      swap3\n      pop\n      pop\n      pop\n      jump\t// out\n        /* \"Besic/SolidityExample/modularContracts.sol\":1475:1597  function balanceOf(address tokenOwner) external view returns (uint balance) {\r... */\n    tag_21:\n        /* \"Besic/SolidityExample/modularContracts.sol\":1537:1549  uint balance */\n      0x00\n        /* \"Besic/SolidityExample/modularContracts.sol\":1569:1577  balances */\n      dup1\n        /* \"Besic/SolidityExample/modularContracts.sol\":1569:1589  balances[tokenOwner] */\n      0x00\n        /* \"Besic/SolidityExample/modularContracts.sol\":1578:1588  tokenOwner */\n      dup4\n        /* \"Besic/SolidityExample/modularContracts.sol\":1569:1589  balances[tokenOwner] */\n      0xffffffffffffffffffffffffffffffffffffffff\n      and\n      0xffffffffffffffffffffffffffffffffffffffff\n      and\n      dup2\n      mstore\n      0x20\n      add\n      swap1\n      dup2\n      mstore\n      0x20\n      add\n      0x00\n      keccak256\n      sload\n        /* \"Besic/SolidityExample/modularContracts.sol\":1562:1589  return balances[tokenOwner] */\n      swap1\n      pop\n        /* \"Besic/SolidityExample/modularContracts.sol\":1475:1597  function balanceOf(address tokenOwner) external view returns (uint balance) {\r... */\n      swap2\n      swap1\n      pop\n      jump\t// out\n        /* \"Besic/SolidityExample/modularContracts.sol\":673:876  function transfer(address to, uint amount) external returns (bool success) {\r... */\n    tag_26:\n        /* \"Besic/SolidityExample/modularContracts.sol\":734:746  bool success */\n      0x00\n        /* \"Besic/SolidityExample/modularContracts.sol\":759:796  balances.move(msg.sender, to, amount) */\n      tag_43\n        /* \"Besic/SolidityExample/modularContracts.sol\":773:783  msg.sender */\n      caller\n        /* \"Besic/SolidityExample/modularContracts.sol\":785:787  to */\n      dup5\n        /* \"Besic/SolidityExample/modularContracts.sol\":789:795  amount */\n      dup5\n        /* \"Besic/SolidityExample/modularContracts.sol\":759:767  balances */\n      0x00\n        /* \"Besic/SolidityExample/modularContracts.sol\":759:772  balances.move */\n      tag_39\n      swap1\n        /* \"Besic/SolidityExample/modularContracts.sol\":759:796  balances.move(msg.sender, to, amount) */\n      swap4\n      swap3\n      swap2\n      swap1\n      0xffffffff\n      and\n      jump\t// in\n    tag_43:\n        /* \"Besic/SolidityExample/modularContracts.sol\":812:844  Transfer(msg.sender, to, amount) */\n      0xddf252ad1be2c89b69c2b068fc378daa952ba7f163c4a11628f55a4df523b3ef\n        /* \"Besic/SolidityExample/modularContracts.sol\":821:831  msg.sender */\n      caller\n        /* \"Besic/SolidityExample/modularContracts.sol\":833:835  to */\n      dup5\n        /* \"Besic/SolidityExample/modularContracts.sol\":837:843  amount */\n      dup5\n        /* \"Besic/SolidityExample/modularContracts.sol\":812:844  Transfer(msg.sender, to, amount) */\n      mload(0x40)\n      tag_44\n      swap4\n      swap3\n      swap2\n      swap1\n      tag_33\n      jump\t// in\n    tag_44:\n      mload(0x40)\n      dup1\n      swap2\n      sub\n      swap1\n      log1\n        /* \"Besic/SolidityExample/modularContracts.sol\":862:866  true */\n      0x01\n        /* \"Besic/SolidityExample/modularContracts.sol\":855:866  return true */\n      swap1\n      pop\n        /* \"Besic/SolidityExample/modularContracts.sol\":673:876  function transfer(address to, uint amount) external returns (bool success) {\r... */\n      swap3\n      swap2\n      pop\n      pop\n      jump\t// out\n        /* \"Besic/SolidityExample/modularContracts.sol\":96:381  function move(mapping(address => uint256) storage balances, address from, address to, uint amount) internal {\r... */\n    tag_39:\n        /* \"Besic/SolidityExample/modularContracts.sol\":241:247  amount */\n      dup1\n        /* \"Besic/SolidityExample/modularContracts.sol\":223:231  balances */\n      dup5\n        /* \"Besic/SolidityExample/modularContracts.sol\":223:237  balances[from] */\n      0x00\n        /* \"Besic/SolidityExample/modularContracts.sol\":232:236  from */\n      dup6\n        /* \"Besic/SolidityExample/modularContracts.sol\":223:237  balances[from] */\n      0xffffffffffffffffffffffffffffffffffffffff\n      and\n      0xffffffffffffffffffffffffffffffffffffffff\n      and\n      dup2\n      mstore\n      0x20\n      add\n      swap1\n      dup2\n      mstore\n      0x20\n      add\n      0x00\n      keccak256\n      sload\n        /* \"Besic/SolidityExample/modularContracts.sol\":223:247  balances[from] >= amount */\n      lt\n      iszero\n        /* \"Besic/SolidityExample/modularContracts.sol\":215:248  require(balances[from] >= amount) */\n      tag_46\n      jumpi\n      0x00\n      dup1\n      revert\n    tag_46:\n        /* \"Besic/SolidityExample/modularContracts.sol\":292:300  balances */\n      dup4\n        /* \"Besic/SolidityExample/modularContracts.sol\":292:304  balances[to] */\n      0x00\n        /* \"Besic/SolidityExample/modularContracts.sol\":301:303  to */\n      dup4\n        /* \"Besic/SolidityExample/modularContracts.sol\":292:304  balances[to] */\n      0xffffffffffffffffffffffffffffffffffffffff\n      and\n      0xffffffffffffffffffffffffffffffffffffffff\n      and\n      dup2\n      mstore\n      0x20\n      add\n      swap1\n      dup2\n      mstore\n      0x20\n      add\n      0x00\n      keccak256\n      sload\n        /* \"Besic/SolidityExample/modularContracts.sol\":282:288  amount */\n      dup2\n        /* \"Besic/SolidityExample/modularContracts.sol\":267:275  balances */\n      dup6\n        /* \"Besic/SolidityExample/modularContracts.sol\":267:279  balances[to] */\n      0x00\n        /* \"Besic/SolidityExample/modularContracts.sol\":276:278  to */\n      dup6\n        /* \"Besic/SolidityExample/modularContracts.sol\":267:279  balances[to] */\n      0xffffffffffffffffffffffffffffffffffffffff\n      and\n      0xffffffffffffffffffffffffffffffffffffffff\n      and\n      dup2\n      mstore\n      0x20\n      add\n      swap1\n      dup2\n      mstore\n      0x20\n      add\n      0x00\n      keccak256\n      sload\n        /* \"Besic/SolidityExample/modularContracts.sol\":267:288  balances[to] + amount */\n      tag_47\n      swap2\n      swap1\n      tag_48\n      jump\t// in\n    tag_47:\n        /* \"Besic/SolidityExample/modularContracts.sol\":267:304  balances[to] + amount >= balances[to] */\n      lt\n      iszero\n        /* \"Besic/SolidityExample/modularContracts.sol\":259:305  require(balances[to] + amount >= balances[to]) */\n      tag_49\n      jumpi\n      0x00\n      dup1\n      revert\n    tag_49:\n        /* \"Besic/SolidityExample/modularContracts.sol\":334:340  amount */\n      dup1\n        /* \"Besic/SolidityExample/modularContracts.sol\":316:324  balances */\n      dup5\n        /* \"Besic/SolidityExample/modularContracts.sol\":316:330  balances[from] */\n      0x00\n        /* \"Besic/SolidityExample/modularContracts.sol\":325:329  from */\n      dup6\n        /* \"Besic/SolidityExample/modularContracts.sol\":316:330  balances[from] */\n      0xffffffffffffffffffffffffffffffffffffffff\n      and\n      0xffffffffffffffffffffffffffffffffffffffff\n      and\n      dup2\n      mstore\n      0x20\n      add\n      swap1\n      dup2\n      mstore\n      0x20\n      add\n      0x00\n      keccak256\n      0x00\n        /* \"Besic/SolidityExample/modularContracts.sol\":316:340  balances[from] -= amount */\n      dup3\n      dup3\n      sload\n      tag_50\n      swap2\n      swap1\n      tag_37\n      jump\t// in\n    tag_50:\n      swap3\n      pop\n      pop\n      dup2\n      swap1\n      sstore\n      pop\n        /* \"Besic/SolidityExample/modularContracts.sol\":367:373  amount */\n      dup1\n        /* \"Besic/SolidityExample/modularContracts.sol\":351:359  balances */\n      dup5\n        /* \"Besic/SolidityExample/modularContracts.sol\":351:363  balances[to] */\n      0x00\n        /* \"Besic/SolidityExample/modularContracts.sol\":360:362  to */\n      dup5\n        /* \"Besic/SolidityExample/modularContracts.sol\":351:363  balances[to] */\n      0xffffffffffffffffffffffffffffffffffffffff\n      and\n      0xffffffffffffffffffffffffffffffffffffffff\n      and\n      dup2\n      mstore\n      0x20\n      add\n      swap1\n      dup2\n      mstore\n      0x20\n      add\n      0x00\n      keccak256\n      0x00\n        /* \"Besic/SolidityExample/modularContracts.sol\":351:373  balances[to] += amount */\n      dup3\n      dup3\n      sload\n      tag_51\n      swap2\n      swap1\n      tag_48\n      jump\t// in\n    tag_51:\n      swap3\n      pop\n      pop\n      dup2\n      swap1\n      sstore\n      pop\n        /* \"Besic/SolidityExample/modularContracts.sol\":96:381  function move(mapping(address => uint256) storage balances, address from, address to, uint amount) internal {\r... */\n      pop\n      pop\n      pop\n      pop\n      jump\t// out\n        /* \"#utility.yul\":7:146   */\n    tag_53:\n        /* \"#utility.yul\":53:58   */\n      0x00\n        /* \"#utility.yul\":91:97   */\n      dup2\n        /* \"#utility.yul\":78:98   */\n      calldataload\n        /* \"#utility.yul\":69:98   */\n      swap1\n      pop\n        /* \"#utility.yul\":107:140   */\n      tag_55\n        /* \"#utility.yul\":134:139   */\n      dup2\n        /* \"#utility.yul\":107:140   */\n      tag_56\n      jump\t// in\n    tag_55:\n        /* \"#utility.yul\":7:146   */\n      swap3\n      swap2\n      pop\n      pop\n      jump\t// out\n        /* \"#utility.yul\":152:291   */\n    tag_57:\n        /* \"#utility.yul\":198:203   */\n      0x00\n        /* \"#utility.yul\":236:242   */\n      dup2\n        /* \"#utility.yul\":223:243   */\n      calldataload\n        /* \"#utility.yul\":214:243   */\n      swap1\n      pop\n        /* \"#utility.yul\":252:285   */\n      tag_59\n        /* \"#utility.yul\":279:284   */\n      dup2\n        /* \"#utility.yul\":252:285   */\n      tag_60\n      jump\t// in\n    tag_59:\n        /* \"#utility.yul\":152:291   */\n      swap3\n      swap2\n      pop\n      pop\n      jump\t// out\n        /* \"#utility.yul\":297:626   */\n    tag_20:\n        /* \"#utility.yul\":356:362   */\n      0x00\n        /* \"#utility.yul\":405:407   */\n      0x20\n        /* \"#utility.yul\":393:402   */\n      dup3\n        /* \"#utility.yul\":384:391   */\n      dup5\n        /* \"#utility.yul\":380:403   */\n      sub\n        /* \"#utility.yul\":376:408   */\n      slt\n        /* \"#utility.yul\":373:492   */\n      iszero\n      tag_62\n      jumpi\n        /* \"#utility.yul\":411:490   */\n      tag_63\n      tag_64\n      jump\t// in\n    tag_63:\n        /* \"#utility.yul\":373:492   */\n    tag_62:\n        /* \"#utility.yul\":531:532   */\n      0x00\n        /* \"#utility.yul\":556:609   */\n      tag_65\n        /* \"#utility.yul\":601:608   */\n      dup5\n        /* \"#utility.yul\":592:598   */\n      dup3\n        /* \"#utility.yul\":581:590   */\n      dup6\n        /* \"#utility.yul\":577:599   */\n      add\n        /* \"#utility.yul\":556:609   */\n      tag_53\n      jump\t// in\n    tag_65:\n        /* \"#utility.yul\":546:609   */\n      swap2\n      pop\n        /* \"#utility.yul\":502:619   */\n      pop\n        /* \"#utility.yul\":297:626   */\n      swap3\n      swap2\n      pop\n      pop\n      jump\t// out\n        /* \"#utility.yul\":632:1251   */\n    tag_15:\n        /* \"#utility.yul\":709:715   */\n      0x00\n        /* \"#utility.yul\":717:723   */\n      dup1\n        /* \"#utility.yul\":725:731   */\n      0x00\n        /* \"#utility.yul\":774:776   */\n      0x60\n        /* \"#utility.yul\":762:771   */\n      dup5\n        /* \"#utility.yul\":753:760   */\n      dup7\n        /* \"#utility.yul\":749:772   */\n      sub\n        /* \"#utility.yul\":745:777   */\n      slt\n        /* \"#utility.yul\":742:861   */\n      iszero\n      tag_67\n      jumpi\n        /* \"#utility.yul\":780:859   */\n      tag_68\n      tag_64\n      jump\t// in\n    tag_68:\n        /* \"#utility.yul\":742:861   */\n    tag_67:\n        /* \"#utility.yul\":900:901   */\n      0x00\n        /* \"#utility.yul\":925:978   */\n      tag_69\n        /* \"#utility.yul\":970:977   */\n      dup7\n        /* \"#utility.yul\":961:967   */\n      dup3\n        /* \"#utility.yul\":950:959   */\n      dup8\n        /* \"#utility.yul\":946:968   */\n      add\n        /* \"#utility.yul\":925:978   */\n      tag_53\n      jump\t// in\n    tag_69:\n        /* \"#utility.yul\":915:978   */\n      swap4\n      pop\n        /* \"#utility.yul\":871:988   */\n      pop\n        /* \"#utility.yul\":1027:1029   */\n      0x20\n        /* \"#utility.yul\":1053:1106   */\n      tag_70\n        /* \"#utility.yul\":1098:1105   */\n      dup7\n        /* \"#utility.yul\":1089:1095   */\n      dup3\n        /* \"#utility.yul\":1078:1087   */\n      dup8\n        /* \"#utility.yul\":1074:1096   */\n      add\n        /* \"#utility.yul\":1053:1106   */\n      tag_53\n      jump\t// in\n    tag_70:\n        /* \"#utility.yul\":1043:1106   */\n      swap3\n      pop\n        /* \"#utility.yul\":998:1116   */\n      pop\n        /* \"#utility.yul\":1155:1157   */\n      0x40\n        /* \"#utility.yul\":1181:1234   */\n      tag_71\n        /* \"#utility.yul\":1226:1233   */\n      dup7\n        /* \"#utility.yul\":1217:1223   */\n      dup3\n        /* \"#utility.yul\":1206:1215   */\n      dup8\n        /* \"#utility.yul\":1202:1224   */\n      add\n        /* \"#utility.yul\":1181:1234   */\n      tag_57\n      jump\t// in\n    tag_71:\n        /* \"#utility.yul\":1171:1234   */\n      swap2\n      pop\n        /* \"#utility.yul\":1126:1244   */\n      pop\n        /* \"#utility.yul\":632:1251   */\n      swap3\n      pop\n      swap3\n      pop\n      swap3\n      jump\t// out\n        /* \"#utility.yul\":1257:1731   */\n    tag_9:\n        /* \"#utility.yul\":1325:1331   */\n      0x00\n        /* \"#utility.yul\":1333:1339   */\n      dup1\n        /* \"#utility.yul\":1382:1384   */\n      0x40\n        /* \"#utility.yul\":1370:1379   */\n      dup4\n        /* \"#utility.yul\":1361:1368   */\n      dup6\n        /* \"#utility.yul\":1357:1380   */\n      sub\n        /* \"#utility.yul\":1353:1385   */\n      slt\n        /* \"#utility.yul\":1350:1469   */\n      iszero\n      tag_73\n      jumpi\n        /* \"#utility.yul\":1388:1467   */\n      tag_74\n      tag_64\n      jump\t// in\n    tag_74:\n        /* \"#utility.yul\":1350:1469   */\n    tag_73:\n        /* \"#utility.yul\":1508:1509   */\n      0x00\n        /* \"#utility.yul\":1533:1586   */\n      tag_75\n        /* \"#utility.yul\":1578:1585   */\n      dup6\n        /* \"#utility.yul\":1569:1575   */\n      dup3\n        /* \"#utility.yul\":1558:1567   */\n      dup7\n        /* \"#utility.yul\":1554:1576   */\n      add\n        /* \"#utility.yul\":1533:1586   */\n      tag_53\n      jump\t// in\n    tag_75:\n        /* \"#utility.yul\":1523:1586   */\n      swap3\n      pop\n        /* \"#utility.yul\":1479:1596   */\n      pop\n        /* \"#utility.yul\":1635:1637   */\n      0x20\n        /* \"#utility.yul\":1661:1714   */\n      tag_76\n        /* \"#utility.yul\":1706:1713   */\n      dup6\n        /* \"#utility.yul\":1697:1703   */\n      dup3\n        /* \"#utility.yul\":1686:1695   */\n      dup7\n        /* \"#utility.yul\":1682:1704   */\n      add\n        /* \"#utility.yul\":1661:1714   */\n      tag_57\n      jump\t// in\n    tag_76:\n        /* \"#utility.yul\":1651:1714   */\n      swap2\n      pop\n        /* \"#utility.yul\":1606:1724   */\n      pop\n        /* \"#utility.yul\":1257:1731   */\n      swap3\n      pop\n      swap3\n      swap1\n      pop\n      jump\t// out\n        /* \"#utility.yul\":1737:1855   */\n    tag_77:\n        /* \"#utility.yul\":1824:1848   */\n      tag_79\n        /* \"#utility.yul\":1842:1847   */\n      dup2\n        /* \"#utility.yul\":1824:1848   */\n      tag_80\n      jump\t// in\n    tag_79:\n        /* \"#utility.yul\":1819:1822   */\n      dup3\n        /* \"#utility.yul\":1812:1849   */\n      mstore\n        /* \"#utility.yul\":1737:1855   */\n      pop\n      pop\n      jump\t// out\n        /* \"#utility.yul\":1861:1970   */\n    tag_81:\n        /* \"#utility.yul\":1942:1963   */\n      tag_83\n        /* \"#utility.yul\":1957:1962   */\n      dup2\n        /* \"#utility.yul\":1942:1963   */\n      tag_84\n      jump\t// in\n    tag_83:\n        /* \"#utility.yul\":1937:1940   */\n      dup3\n        /* \"#utility.yul\":1930:1964   */\n      mstore\n        /* \"#utility.yul\":1861:1970   */\n      pop\n      pop\n      jump\t// out\n        /* \"#utility.yul\":1976:2340   */\n    tag_85:\n        /* \"#utility.yul\":2118:2121   */\n      0x00\n        /* \"#utility.yul\":2139:2205   */\n      tag_87\n        /* \"#utility.yul\":2203:2204   */\n      0x00\n        /* \"#utility.yul\":2198:2201   */\n      dup4\n        /* \"#utility.yul\":2139:2205   */\n      tag_88\n      jump\t// in\n    tag_87:\n        /* \"#utility.yul\":2132:2205   */\n      swap2\n      pop\n        /* \"#utility.yul\":2214:2307   */\n      tag_89\n        /* \"#utility.yul\":2303:2306   */\n      dup3\n        /* \"#utility.yul\":2214:2307   */\n      tag_90\n      jump\t// in\n    tag_89:\n        /* \"#utility.yul\":2332:2333   */\n      0x00\n        /* \"#utility.yul\":2327:2330   */\n      dup3\n        /* \"#utility.yul\":2323:2334   */\n      add\n        /* \"#utility.yul\":2316:2334   */\n      swap1\n      pop\n        /* \"#utility.yul\":1976:2340   */\n      swap2\n      swap1\n      pop\n      jump\t// out\n        /* \"#utility.yul\":2346:2464   */\n    tag_91:\n        /* \"#utility.yul\":2433:2457   */\n      tag_93\n        /* \"#utility.yul\":2451:2456   */\n      dup2\n        /* \"#utility.yul\":2433:2457   */\n      tag_94\n      jump\t// in\n    tag_93:\n        /* \"#utility.yul\":2428:2431   */\n      dup3\n        /* \"#utility.yul\":2421:2458   */\n      mstore\n        /* \"#utility.yul\":2346:2464   */\n      pop\n      pop\n      jump\t// out\n        /* \"#utility.yul\":2470:2912   */\n    tag_33:\n        /* \"#utility.yul\":2619:2623   */\n      0x00\n        /* \"#utility.yul\":2657:2659   */\n      0x60\n        /* \"#utility.yul\":2646:2655   */\n      dup3\n        /* \"#utility.yul\":2642:2660   */\n      add\n        /* \"#utility.yul\":2634:2660   */\n      swap1\n      pop\n        /* \"#utility.yul\":2670:2741   */\n      tag_96\n        /* \"#utility.yul\":2738:2739   */\n      0x00\n        /* \"#utility.yul\":2727:2736   */\n      dup4\n        /* \"#utility.yul\":2723:2740   */\n      add\n        /* \"#utility.yul\":2714:2720   */\n      dup7\n        /* \"#utility.yul\":2670:2741   */\n      tag_77\n      jump\t// in\n    tag_96:\n        /* \"#utility.yul\":2751:2823   */\n      tag_97\n        /* \"#utility.yul\":2819:2821   */\n      0x20\n        /* \"#utility.yul\":2808:2817   */\n      dup4\n        /* \"#utility.yul\":2804:2822   */\n      add\n        /* \"#utility.yul\":2795:2801   */\n      dup6\n        /* \"#utility.yul\":2751:2823   */\n      tag_77\n      jump\t// in\n    tag_97:\n        /* \"#utility.yul\":2833:2905   */\n      tag_98\n        /* \"#utility.yul\":2901:2903   */\n      0x40\n        /* \"#utility.yul\":2890:2899   */\n      dup4\n        /* \"#utility.yul\":2886:2904   */\n      add\n        /* \"#utility.yul\":2877:2883   */\n      dup5\n        /* \"#utility.yul\":2833:2905   */\n      tag_91\n      jump\t// in\n    tag_98:\n        /* \"#utility.yul\":2470:2912   */\n      swap5\n      swap4\n      pop\n      pop\n      pop\n      pop\n      jump\t// out\n        /* \"#utility.yul\":2918:3128   */\n    tag_12:\n        /* \"#utility.yul\":3005:3009   */\n      0x00\n        /* \"#utility.yul\":3043:3045   */\n      0x20\n        /* \"#utility.yul\":3032:3041   */\n      dup3\n        /* \"#utility.yul\":3028:3046   */\n      add\n        /* \"#utility.yul\":3020:3046   */\n      swap1\n      pop\n        /* \"#utility.yul\":3056:3121   */\n      tag_100\n        /* \"#utility.yul\":3118:3119   */\n      0x00\n        /* \"#utility.yul\":3107:3116   */\n      dup4\n        /* \"#utility.yul\":3103:3120   */\n      add\n        /* \"#utility.yul\":3094:3100   */\n      dup5\n        /* \"#utility.yul\":3056:3121   */\n      tag_81\n      jump\t// in\n    tag_100:\n        /* \"#utility.yul\":2918:3128   */\n      swap3\n      swap2\n      pop\n      pop\n      jump\t// out\n        /* \"#utility.yul\":3134:3553   */\n    tag_31:\n        /* \"#utility.yul\":3300:3304   */\n      0x00\n        /* \"#utility.yul\":3338:3340   */\n      0x20\n        /* \"#utility.yul\":3327:3336   */\n      dup3\n        /* \"#utility.yul\":3323:3341   */\n      add\n        /* \"#utility.yul\":3315:3341   */\n      swap1\n      pop\n        /* \"#utility.yul\":3387:3396   */\n      dup2\n        /* \"#utility.yul\":3381:3385   */\n      dup2\n        /* \"#utility.yul\":3377:3397   */\n      sub\n        /* \"#utility.yul\":3373:3374   */\n      0x00\n        /* \"#utility.yul\":3362:3371   */\n      dup4\n        /* \"#utility.yul\":3358:3375   */\n      add\n        /* \"#utility.yul\":3351:3398   */\n      mstore\n        /* \"#utility.yul\":3415:3546   */\n      tag_102\n        /* \"#utility.yul\":3541:3545   */\n      dup2\n        /* \"#utility.yul\":3415:3546   */\n      tag_85\n      jump\t// in\n    tag_102:\n        /* \"#utility.yul\":3407:3546   */\n      swap1\n      pop\n        /* \"#utility.yul\":3134:3553   */\n      swap2\n      swap1\n      pop\n      jump\t// out\n        /* \"#utility.yul\":3559:3781   */\n    tag_23:\n        /* \"#utility.yul\":3652:3656   */\n      0x00\n        /* \"#utility.yul\":3690:3692   */\n      0x20\n        /* \"#utility.yul\":3679:3688   */\n      dup3\n        /* \"#utility.yul\":3675:3693   */\n      add\n        /* \"#utility.yul\":3667:3693   */\n      swap1\n      pop\n        /* \"#utility.yul\":3703:3774   */\n      tag_104\n        /* \"#utility.yul\":3771:3772   */\n      0x00\n        /* \"#utility.yul\":3760:3769   */\n      dup4\n        /* \"#utility.yul\":3756:3773   */\n      add\n        /* \"#utility.yul\":3747:3753   */\n      dup5\n        /* \"#utility.yul\":3703:3774   */\n      tag_91\n      jump\t// in\n    tag_104:\n        /* \"#utility.yul\":3559:3781   */\n      swap3\n      swap2\n      pop\n      pop\n      jump\t// out\n        /* \"#utility.yul\":3868:4037   */\n    tag_88:\n        /* \"#utility.yul\":3952:3963   */\n      0x00\n        /* \"#utility.yul\":3986:3992   */\n      dup3\n        /* \"#utility.yul\":3981:3984   */\n      dup3\n        /* \"#utility.yul\":3974:3993   */\n      mstore\n        /* \"#utility.yul\":4026:4030   */\n      0x20\n        /* \"#utility.yul\":4021:4024   */\n      dup3\n        /* \"#utility.yul\":4017:4031   */\n      add\n        /* \"#utility.yul\":4002:4031   */\n      swap1\n      pop\n        /* \"#utility.yul\":3868:4037   */\n      swap3\n      swap2\n      pop\n      pop\n      jump\t// out\n        /* \"#utility.yul\":4043:4348   */\n    tag_48:\n        /* \"#utility.yul\":4083:4086   */\n      0x00\n        /* \"#utility.yul\":4102:4122   */\n      tag_109\n        /* \"#utility.yul\":4120:4121   */\n      dup3\n        /* \"#utility.yul\":4102:4122   */\n      tag_94\n      jump\t// in\n    tag_109:\n        /* \"#utility.yul\":4097:4122   */\n      swap2\n      pop\n        /* \"#utility.yul\":4136:4156   */\n      tag_110\n        /* \"#utility.yul\":4154:4155   */\n      dup4\n        /* \"#utility.yul\":4136:4156   */\n      tag_94\n      jump\t// in\n    tag_110:\n        /* \"#utility.yul\":4131:4156   */\n      swap3\n      pop\n        /* \"#utility.yul\":4290:4291   */\n      dup3\n        /* \"#utility.yul\":4222:4288   */\n      0xffffffffffffffffffffffffffffffffffffffffffffffffffffffffffffffff\n        /* \"#utility.yul\":4218:4292   */\n      sub\n        /* \"#utility.yul\":4215:4216   */\n      dup3\n        /* \"#utility.yul\":4212:4293   */\n      gt\n        /* \"#utility.yul\":4209:4316   */\n      iszero\n      tag_111\n      jumpi\n        /* \"#utility.yul\":4296:4314   */\n      tag_112\n      tag_113\n      jump\t// in\n    tag_112:\n        /* \"#utility.yul\":4209:4316   */\n    tag_111:\n        /* \"#utility.yul\":4340:4341   */\n      dup3\n        /* \"#utility.yul\":4337:4338   */\n      dup3\n        /* \"#utility.yul\":4333:4342   */\n      add\n        /* \"#utility.yul\":4326:4342   */\n      swap1\n      pop\n        /* \"#utility.yul\":4043:4348   */\n      swap3\n      swap2\n      pop\n      pop\n      jump\t// out\n        /* \"#utility.yul\":4354:4545   */\n    tag_37:\n        /* \"#utility.yul\":4394:4398   */\n      0x00\n        /* \"#utility.yul\":4414:4434   */\n      tag_115\n        /* \"#utility.yul\":4432:4433   */\n      dup3\n        /* \"#utility.yul\":4414:4434   */\n      tag_94\n      jump\t// in\n    tag_115:\n        /* \"#utility.yul\":4409:4434   */\n      swap2\n      pop\n        /* \"#utility.yul\":4448:4468   */\n      tag_116\n        /* \"#utility.yul\":4466:4467   */\n      dup4\n        /* \"#utility.yul\":4448:4468   */\n      tag_94\n      jump\t// in\n    tag_116:\n        /* \"#utility.yul\":4443:4468   */\n      swap3\n      pop\n        /* \"#utility.yul\":4487:4488   */\n      dup3\n        /* \"#utility.yul\":4484:4485   */\n      dup3\n        /* \"#utility.yul\":4481:4489   */\n      lt\n        /* \"#utility.yul\":4478:4512   */\n      iszero\n      tag_117\n      jumpi\n        /* \"#utility.yul\":4492:4510   */\n      tag_118\n      tag_113\n      jump\t// in\n    tag_118:\n        /* \"#utility.yul\":4478:4512   */\n    tag_117:\n        /* \"#utility.yul\":4537:4538   */\n      dup3\n        /* \"#utility.yul\":4534:4535   */\n      dup3\n        /* \"#utility.yul\":4530:4539   */\n      sub\n        /* \"#utility.yul\":4522:4539   */\n      swap1\n      pop\n        /* \"#utility.yul\":4354:4545   */\n      swap3\n      swap2\n      pop\n      pop\n      jump\t// out\n        /* \"#utility.yul\":4551:4647   */\n    tag_80:\n        /* \"#utility.yul\":4588:4595   */\n      0x00\n        /* \"#utility.yul\":4617:4641   */\n      tag_120\n        /* \"#utility.yul\":4635:4640   */\n      dup3\n        /* \"#utility.yul\":4617:4641   */\n      tag_121\n      jump\t// in\n    tag_120:\n        /* \"#utility.yul\":4606:4641   */\n      swap1\n      pop\n        /* \"#utility.yul\":4551:4647   */\n      swap2\n      swap1\n      pop\n      jump\t// out\n        /* \"#utility.yul\":4653:4743   */\n    tag_84:\n        /* \"#utility.yul\":4687:4694   */\n      0x00\n        /* \"#utility.yul\":4730:4735   */\n      dup2\n        /* \"#utility.yul\":4723:4736   */\n      iszero\n        /* \"#utility.yul\":4716:4737   */\n      iszero\n        /* \"#utility.yul\":4705:4737   */\n      swap1\n      pop\n        /* \"#utility.yul\":4653:4743   */\n      swap2\n      swap1\n      pop\n      jump\t// out\n        /* \"#utility.yul\":4749:4875   */\n    tag_121:\n        /* \"#utility.yul\":4786:4793   */\n      0x00\n        /* \"#utility.yul\":4826:4868   */\n      0xffffffffffffffffffffffffffffffffffffffff\n        /* \"#utility.yul\":4819:4824   */\n      dup3\n        /* \"#utility.yul\":4815:4869   */\n      and\n        /* \"#utility.yul\":4804:4869   */\n      swap1\n      pop\n        /* \"#utility.yul\":4749:4875   */\n      swap2\n      swap1\n      pop\n      jump\t// out\n        /* \"#utility.yul\":4881:4958   */\n    tag_94:\n        /* \"#utility.yul\":4918:4925   */\n      0x00\n        /* \"#utility.yul\":4947:4952   */\n      dup2\n        /* \"#utility.yul\":4936:4952   */\n      swap1\n      pop\n        /* \"#utility.yul\":4881:4958   */\n      swap2\n      swap1\n      pop\n      jump\t// out\n        /* \"#utility.yul\":4964:5144   */\n    tag_113:\n        /* \"#utility.yul\":5012:5089   */\n      0x4e487b7100000000000000000000000000000000000000000000000000000000\n        /* \"#utility.yul\":5009:5010   */\n      0x00\n        /* \"#utility.yul\":5002:5090   */\n      mstore\n        /* \"#utility.yul\":5109:5113   */\n      0x11\n        /* \"#utility.yul\":5106:5107   */\n      0x04\n        /* \"#utility.yul\":5099:5114   */\n      mstore\n        /* \"#utility.yul\":5133:5137   */\n      0x24\n        /* \"#utility.yul\":5130:5131   */\n      0x00\n        /* \"#utility.yul\":5123:5138   */\n      revert\n        /* \"#utility.yul\":5273:5390   */\n    tag_64:\n        /* \"#utility.yul\":5382:5383   */\n      0x00\n        /* \"#utility.yul\":5379:5380   */\n      dup1\n        /* \"#utility.yul\":5372:5384   */\n      revert\n        /* \"#utility.yul\":5396:5510   */\n    tag_90:\n      pop\n      jump\t// out\n        /* \"#utility.yul\":5516:5638   */\n    tag_56:\n        /* \"#utility.yul\":5589:5613   */\n      tag_131\n        /* \"#utility.yul\":5607:5612   */\n      dup2\n        /* \"#utility.yul\":5589:5613   */\n      tag_80\n      jump\t// in\n    tag_131:\n        /* \"#utility.yul\":5582:5587   */\n      dup2\n        /* \"#utility.yul\":5579:5614   */\n      eq\n        /* \"#utility.yul\":5569:5632   */\n      tag_132\n      jumpi\n        /* \"#utility.yul\":5628:5629   */\n      0x00\n        /* \"#utility.yul\":5625:5626   */\n      dup1\n        /* \"#utility.yul\":5618:5630   */\n      revert\n        /* \"#utility.yul\":5569:5632   */\n    tag_132:\n        /* \"#utility.yul\":5516:5638   */\n      pop\n      jump\t// out\n        /* \"#utility.yul\":5644:5766   */\n    tag_60:\n        /* \"#utility.yul\":5717:5741   */\n      tag_134\n        /* \"#utility.yul\":5735:5740   */\n      dup2\n        /* \"#utility.yul\":5717:5741   */\n      tag_94\n      jump\t// in\n    tag_134:\n        /* \"#utility.yul\":5710:5715   */\n      dup2\n        /* \"#utility.yul\":5707:5742   */\n      eq\n        /* \"#utility.yul\":5697:5760   */\n      tag_135\n      jumpi\n        /* \"#utility.yul\":5756:5757   */\n      0x00\n        /* \"#utility.yul\":5753:5754   */\n      dup1\n        /* \"#utility.yul\":5746:5758   */\n      revert\n        /* \"#utility.yul\":5697:5760   */\n    tag_135:\n        /* \"#utility.yul\":5644:5766   */\n      pop\n      jump\t// out\n\n    auxdata: 0xa26469706673582212205ac2d03f891974c6c95c757f8282052f75a9d4088532ff8f7cd49b0bd521d6d364736f6c63430008070033\n}\n",
				"bytecode": {
					"linkReferences": {},
					"object": "608060405234801561001057600080fd5b5061098e806100206000396000f3fe608060405234801561001057600080fd5b506004361061004c5760003560e01c8063095ea7b31461005157806323b872dd1461008157806370a08231146100b1578063a9059cbb146100e1575b600080fd5b61006b600480360381019061006691906106f3565b610111565b60405161007891906107ba565b60405180910390f35b61009b600480360381019061009691906106a0565b610297565b6040516100a891906107ba565b60405180910390f35b6100cb60048036038101906100c69190610673565b610413565b6040516100d891906107f5565b60405180910390f35b6100fb60048036038101906100f691906106f3565b61045b565b60405161010891906107ba565b60405180910390f35b600080600160003373ffffffffffffffffffffffffffffffffffffffff1673ffffffffffffffffffffffffffffffffffffffff16815260200190815260200160002060008573ffffffffffffffffffffffffffffffffffffffff1673ffffffffffffffffffffffffffffffffffffffff16815260200190815260200160002054146101d1576040517f08c379a00000000000000000000000000000000000000000000000000000000081526004016101c8906107d5565b60405180910390fd5b81600160003373ffffffffffffffffffffffffffffffffffffffff1673ffffffffffffffffffffffffffffffffffffffff16815260200190815260200160002060008573ffffffffffffffffffffffffffffffffffffffff1673ffffffffffffffffffffffffffffffffffffffff168152602001908152602001600020819055507f8c5be1e5ebec7d5bd14f71427d1e84f3dd0314c0f7b2291e5b200ac8c7c3b92533848460405161028593929190610783565b60405180910390a16001905092915050565b600081600160008673ffffffffffffffffffffffffffffffffffffffff1673ffffffffffffffffffffffffffffffffffffffff16815260200190815260200160002060003373ffffffffffffffffffffffffffffffffffffffff1673ffffffffffffffffffffffffffffffffffffffff16815260200190815260200160002054101561032257600080fd5b81600160008673ffffffffffffffffffffffffffffffffffffffff1673ffffffffffffffffffffffffffffffffffffffff16815260200190815260200160002060003373ffffffffffffffffffffffffffffffffffffffff1673ffffffffffffffffffffffffffffffffffffffff16815260200190815260200160002060008282546103ae9190610877565b925050819055506103cd84848460006104ba909392919063ffffffff16565b7fddf252ad1be2c89b69c2b068fc378daa952ba7f163c4a11628f55a4df523b3ef84848460405161040093929190610783565b60405180910390a1600190509392505050565b60008060008373ffffffffffffffffffffffffffffffffffffffff1673ffffffffffffffffffffffffffffffffffffffff168152602001908152602001600020549050919050565b600061047533848460006104ba909392919063ffffffff16565b7fddf252ad1be2c89b69c2b068fc378daa952ba7f163c4a11628f55a4df523b3ef3384846040516104a893929190610783565b60405180910390a16001905092915050565b808460008573ffffffffffffffffffffffffffffffffffffffff1673ffffffffffffffffffffffffffffffffffffffff16815260200190815260200160002054101561050557600080fd5b8360008373ffffffffffffffffffffffffffffffffffffffff1673ffffffffffffffffffffffffffffffffffffffff16815260200190815260200160002054818560008573ffffffffffffffffffffffffffffffffffffffff1673ffffffffffffffffffffffffffffffffffffffff1681526020019081526020016000205461058e9190610821565b101561059957600080fd5b808460008573ffffffffffffffffffffffffffffffffffffffff1673ffffffffffffffffffffffffffffffffffffffff16815260200190815260200160002060008282546105e79190610877565b92505081905550808460008473ffffffffffffffffffffffffffffffffffffffff1673ffffffffffffffffffffffffffffffffffffffff168152602001908152602001600020600082825461063c9190610821565b9250508190555050505050565b6000813590506106588161092a565b92915050565b60008135905061066d81610941565b92915050565b60006020828403121561068957610688610922565b5b600061069784828501610649565b91505092915050565b6000806000606084860312156106b9576106b8610922565b5b60006106c786828701610649565b93505060206106d886828701610649565b92505060406106e98682870161065e565b9150509250925092565b6000806040838503121561070a57610709610922565b5b600061071885828601610649565b92505060206107298582860161065e565b9150509250929050565b61073c816108ab565b82525050565b61074b816108bd565b82525050565b600061075e600083610810565b915061076982610927565b600082019050919050565b61077d816108e9565b82525050565b60006060820190506107986000830186610733565b6107a56020830185610733565b6107b26040830184610774565b949350505050565b60006020820190506107cf6000830184610742565b92915050565b600060208201905081810360008301526107ee81610751565b9050919050565b600060208201905061080a6000830184610774565b92915050565b600082825260208201905092915050565b600061082c826108e9565b9150610837836108e9565b9250827fffffffffffffffffffffffffffffffffffffffffffffffffffffffffffffffff0382111561086c5761086b6108f3565b5b828201905092915050565b6000610882826108e9565b915061088d836108e9565b9250828210156108a05761089f6108f3565b5b828203905092915050565b60006108b6826108c9565b9050919050565b60008115159050919050565b600073ffffffffffffffffffffffffffffffffffffffff82169050919050565b6000819050919050565b7f4e487b7100000000000000000000000000000000000000000000000000000000600052601160045260246000fd5b600080fd5b50565b610933816108ab565b811461093e57600080fd5b50565b61094a816108e9565b811461095557600080fd5b5056fea26469706673582212205ac2d03f891974c6c95c757f8282052f75a9d4088532ff8f7cd49b0bd521d6d364736f6c63430008070033",
					"opcodes": "PUSH1 0x80 PUSH1 0x40 MSTORE CALLVALUE DUP1 ISZERO PUSH2 0x10 JUMPI PUSH1 0x0 DUP1 REVERT JUMPDEST POP PUSH2 0x98E DUP1 PUSH2 0x20 PUSH1 0x0 CODECOPY PUSH1 0x0 RETURN INVALID PUSH1 0x80 PUSH1 0x40 MSTORE CALLVALUE DUP1 ISZERO PUSH2 0x10 JUMPI PUSH1 0x0 DUP1 REVERT JUMPDEST POP PUSH1 0x4 CALLDATASIZE LT PUSH2 0x4C JUMPI PUSH1 0x0 CALLDATALOAD PUSH1 0xE0 SHR DUP1 PUSH4 0x95EA7B3 EQ PUSH2 0x51 JUMPI DUP1 PUSH4 0x23B872DD EQ PUSH2 0x81 JUMPI DUP1 PUSH4 0x70A08231 EQ PUSH2 0xB1 JUMPI DUP1 PUSH4 0xA9059CBB EQ PUSH2 0xE1 JUMPI JUMPDEST PUSH1 0x0 DUP1 REVERT JUMPDEST PUSH2 0x6B PUSH1 0x4 DUP1 CALLDATASIZE SUB DUP2 ADD SWAP1 PUSH2 0x66 SWAP2 SWAP1 PUSH2 0x6F3 JUMP JUMPDEST PUSH2 0x111 JUMP JUMPDEST PUSH1 0x40 MLOAD PUSH2 0x78 SWAP2 SWAP1 PUSH2 0x7BA JUMP JUMPDEST PUSH1 0x40 MLOAD DUP1 SWAP2 SUB SWAP1 RETURN JUMPDEST PUSH2 0x9B PUSH1 0x4 DUP1 CALLDATASIZE SUB DUP2 ADD SWAP1 PUSH2 0x96 SWAP2 SWAP1 PUSH2 0x6A0 JUMP JUMPDEST PUSH2 0x297 JUMP JUMPDEST PUSH1 0x40 MLOAD PUSH2 0xA8 SWAP2 SWAP1 PUSH2 0x7BA JUMP JUMPDEST PUSH1 0x40 MLOAD DUP1 SWAP2 SUB SWAP1 RETURN JUMPDEST PUSH2 0xCB PUSH1 0x4 DUP1 CALLDATASIZE SUB DUP2 ADD SWAP1 PUSH2 0xC6 SWAP2 SWAP1 PUSH2 0x673 JUMP JUMPDEST PUSH2 0x413 JUMP JUMPDEST PUSH1 0x40 MLOAD PUSH2 0xD8 SWAP2 SWAP1 PUSH2 0x7F5 JUMP JUMPDEST PUSH1 0x40 MLOAD DUP1 SWAP2 SUB SWAP1 RETURN JUMPDEST PUSH2 0xFB PUSH1 0x4 DUP1 CALLDATASIZE SUB DUP2 ADD SWAP1 PUSH2 0xF6 SWAP2 SWAP1 PUSH2 0x6F3 JUMP JUMPDEST PUSH2 0x45B JUMP JUMPDEST PUSH1 0x40 MLOAD PUSH2 0x108 SWAP2 SWAP1 PUSH2 0x7BA JUMP JUMPDEST PUSH1 0x40 MLOAD DUP1 SWAP2 SUB SWAP1 RETURN JUMPDEST PUSH1 0x0 DUP1 PUSH1 0x1 PUSH1 0x0 CALLER PUSH20 0xFFFFFFFFFFFFFFFFFFFFFFFFFFFFFFFFFFFFFFFF AND PUSH20 0xFFFFFFFFFFFFFFFFFFFFFFFFFFFFFFFFFFFFFFFF AND DUP2 MSTORE PUSH1 0x20 ADD SWAP1 DUP2 MSTORE PUSH1 0x20 ADD PUSH1 0x0 KECCAK256 PUSH1 0x0 DUP6 PUSH20 0xFFFFFFFFFFFFFFFFFFFFFFFFFFFFFFFFFFFFFFFF AND PUSH20 0xFFFFFFFFFFFFFFFFFFFFFFFFFFFFFFFFFFFFFFFF AND DUP2 MSTORE PUSH1 0x20 ADD SWAP1 DUP2 MSTORE PUSH1 0x20 ADD PUSH1 0x0 KECCAK256 SLOAD EQ PUSH2 0x1D1 JUMPI PUSH1 0x40 MLOAD PUSH32 0x8C379A000000000000000000000000000000000000000000000000000000000 DUP2 MSTORE PUSH1 0x4 ADD PUSH2 0x1C8 SWAP1 PUSH2 0x7D5 JUMP JUMPDEST PUSH1 0x40 MLOAD DUP1 SWAP2 SUB SWAP1 REVERT JUMPDEST DUP2 PUSH1 0x1 PUSH1 0x0 CALLER PUSH20 0xFFFFFFFFFFFFFFFFFFFFFFFFFFFFFFFFFFFFFFFF AND PUSH20 0xFFFFFFFFFFFFFFFFFFFFFFFFFFFFFFFFFFFFFFFF AND DUP2 MSTORE PUSH1 0x20 ADD SWAP1 DUP2 MSTORE PUSH1 0x20 ADD PUSH1 0x0 KECCAK256 PUSH1 0x0 DUP6 PUSH20 0xFFFFFFFFFFFFFFFFFFFFFFFFFFFFFFFFFFFFFFFF AND PUSH20 0xFFFFFFFFFFFFFFFFFFFFFFFFFFFFFFFFFFFFFFFF AND DUP2 MSTORE PUSH1 0x20 ADD SWAP1 DUP2 MSTORE PUSH1 0x20 ADD PUSH1 0x0 KECCAK256 DUP2 SWAP1 SSTORE POP PUSH32 0x8C5BE1E5EBEC7D5BD14F71427D1E84F3DD0314C0F7B2291E5B200AC8C7C3B925 CALLER DUP5 DUP5 PUSH1 0x40 MLOAD PUSH2 0x285 SWAP4 SWAP3 SWAP2 SWAP1 PUSH2 0x783 JUMP JUMPDEST PUSH1 0x40 MLOAD DUP1 SWAP2 SUB SWAP1 LOG1 PUSH1 0x1 SWAP1 POP SWAP3 SWAP2 POP POP JUMP JUMPDEST PUSH1 0x0 DUP2 PUSH1 0x1 PUSH1 0x0 DUP7 PUSH20 0xFFFFFFFFFFFFFFFFFFFFFFFFFFFFFFFFFFFFFFFF AND PUSH20 0xFFFFFFFFFFFFFFFFFFFFFFFFFFFFFFFFFFFFFFFF AND DUP2 MSTORE PUSH1 0x20 ADD SWAP1 DUP2 MSTORE PUSH1 0x20 ADD PUSH1 0x0 KECCAK256 PUSH1 0x0 CALLER PUSH20 0xFFFFFFFFFFFFFFFFFFFFFFFFFFFFFFFFFFFFFFFF AND PUSH20 0xFFFFFFFFFFFFFFFFFFFFFFFFFFFFFFFFFFFFFFFF AND DUP2 MSTORE PUSH1 0x20 ADD SWAP1 DUP2 MSTORE PUSH1 0x20 ADD PUSH1 0x0 KECCAK256 SLOAD LT ISZERO PUSH2 0x322 JUMPI PUSH1 0x0 DUP1 REVERT JUMPDEST DUP2 PUSH1 0x1 PUSH1 0x0 DUP7 PUSH20 0xFFFFFFFFFFFFFFFFFFFFFFFFFFFFFFFFFFFFFFFF AND PUSH20 0xFFFFFFFFFFFFFFFFFFFFFFFFFFFFFFFFFFFFFFFF AND DUP2 MSTORE PUSH1 0x20 ADD SWAP1 DUP2 MSTORE PUSH1 0x20 ADD PUSH1 0x0 KECCAK256 PUSH1 0x0 CALLER PUSH20 0xFFFFFFFFFFFFFFFFFFFFFFFFFFFFFFFFFFFFFFFF AND PUSH20 0xFFFFFFFFFFFFFFFFFFFFFFFFFFFFFFFFFFFFFFFF AND DUP2 MSTORE PUSH1 0x20 ADD SWAP1 DUP2 MSTORE PUSH1 0x20 ADD PUSH1 0x0 KECCAK256 PUSH1 0x0 DUP3 DUP3 SLOAD PUSH2 0x3AE SWAP2 SWAP1 PUSH2 0x877 JUMP JUMPDEST SWAP3 POP POP DUP2 SWAP1 SSTORE POP PUSH2 0x3CD DUP5 DUP5 DUP5 PUSH1 0x0 PUSH2 0x4BA SWAP1 SWAP4 SWAP3 SWAP2 SWAP1 PUSH4 0xFFFFFFFF AND JUMP JUMPDEST PUSH32 0xDDF252AD1BE2C89B69C2B068FC378DAA952BA7F163C4A11628F55A4DF523B3EF DUP5 DUP5 DUP5 PUSH1 0x40 MLOAD PUSH2 0x400 SWAP4 SWAP3 SWAP2 SWAP1 PUSH2 0x783 JUMP JUMPDEST PUSH1 0x40 MLOAD DUP1 SWAP2 SUB SWAP1 LOG1 PUSH1 0x1 SWAP1 POP SWAP4 SWAP3 POP POP POP JUMP JUMPDEST PUSH1 0x0 DUP1 PUSH1 0x0 DUP4 PUSH20 0xFFFFFFFFFFFFFFFFFFFFFFFFFFFFFFFFFFFFFFFF AND PUSH20 0xFFFFFFFFFFFFFFFFFFFFFFFFFFFFFFFFFFFFFFFF AND DUP2 MSTORE PUSH1 0x20 ADD SWAP1 DUP2 MSTORE PUSH1 0x20 ADD PUSH1 0x0 KECCAK256 SLOAD SWAP1 POP SWAP2 SWAP1 POP JUMP JUMPDEST PUSH1 0x0 PUSH2 0x475 CALLER DUP5 DUP5 PUSH1 0x0 PUSH2 0x4BA SWAP1 SWAP4 SWAP3 SWAP2 SWAP1 PUSH4 0xFFFFFFFF AND JUMP JUMPDEST PUSH32 0xDDF252AD1BE2C89B69C2B068FC378DAA952BA7F163C4A11628F55A4DF523B3EF CALLER DUP5 DUP5 PUSH1 0x40 MLOAD PUSH2 0x4A8 SWAP4 SWAP3 SWAP2 SWAP1 PUSH2 0x783 JUMP JUMPDEST PUSH1 0x40 MLOAD DUP1 SWAP2 SUB SWAP1 LOG1 PUSH1 0x1 SWAP1 POP SWAP3 SWAP2 POP POP JUMP JUMPDEST DUP1 DUP5 PUSH1 0x0 DUP6 PUSH20 0xFFFFFFFFFFFFFFFFFFFFFFFFFFFFFFFFFFFFFFFF AND PUSH20 0xFFFFFFFFFFFFFFFFFFFFFFFFFFFFFFFFFFFFFFFF AND DUP2 MSTORE PUSH1 0x20 ADD SWAP1 DUP2 MSTORE PUSH1 0x20 ADD PUSH1 0x0 KECCAK256 SLOAD LT ISZERO PUSH2 0x505 JUMPI PUSH1 0x0 DUP1 REVERT JUMPDEST DUP4 PUSH1 0x0 DUP4 PUSH20 0xFFFFFFFFFFFFFFFFFFFFFFFFFFFFFFFFFFFFFFFF AND PUSH20 0xFFFFFFFFFFFFFFFFFFFFFFFFFFFFFFFFFFFFFFFF AND DUP2 MSTORE PUSH1 0x20 ADD SWAP1 DUP2 MSTORE PUSH1 0x20 ADD PUSH1 0x0 KECCAK256 SLOAD DUP2 DUP6 PUSH1 0x0 DUP6 PUSH20 0xFFFFFFFFFFFFFFFFFFFFFFFFFFFFFFFFFFFFFFFF AND PUSH20 0xFFFFFFFFFFFFFFFFFFFFFFFFFFFFFFFFFFFFFFFF AND DUP2 MSTORE PUSH1 0x20 ADD SWAP1 DUP2 MSTORE PUSH1 0x20 ADD PUSH1 0x0 KECCAK256 SLOAD PUSH2 0x58E SWAP2 SWAP1 PUSH2 0x821 JUMP JUMPDEST LT ISZERO PUSH2 0x599 JUMPI PUSH1 0x0 DUP1 REVERT JUMPDEST DUP1 DUP5 PUSH1 0x0 DUP6 PUSH20 0xFFFFFFFFFFFFFFFFFFFFFFFFFFFFFFFFFFFFFFFF AND PUSH20 0xFFFFFFFFFFFFFFFFFFFFFFFFFFFFFFFFFFFFFFFF AND DUP2 MSTORE PUSH1 0x20 ADD SWAP1 DUP2 MSTORE PUSH1 0x20 ADD PUSH1 0x0 KECCAK256 PUSH1 0x0 DUP3 DUP3 SLOAD PUSH2 0x5E7 SWAP2 SWAP1 PUSH2 0x877 JUMP JUMPDEST SWAP3 POP POP DUP2 SWAP1 SSTORE POP DUP1 DUP5 PUSH1 0x0 DUP5 PUSH20 0xFFFFFFFFFFFFFFFFFFFFFFFFFFFFFFFFFFFFFFFF AND PUSH20 0xFFFFFFFFFFFFFFFFFFFFFFFFFFFFFFFFFFFFFFFF AND DUP2 MSTORE PUSH1 0x20 ADD SWAP1 DUP2 MSTORE PUSH1 0x20 ADD PUSH1 0x0 KECCAK256 PUSH1 0x0 DUP3 DUP3 SLOAD PUSH2 0x63C SWAP2 SWAP1 PUSH2 0x821 JUMP JUMPDEST SWAP3 POP POP DUP2 SWAP1 SSTORE POP POP POP POP POP JUMP JUMPDEST PUSH1 0x0 DUP2 CALLDATALOAD SWAP1 POP PUSH2 0x658 DUP2 PUSH2 0x92A JUMP JUMPDEST SWAP3 SWAP2 POP POP JUMP JUMPDEST PUSH1 0x0 DUP2 CALLDATALOAD SWAP1 POP PUSH2 0x66D DUP2 PUSH2 0x941 JUMP JUMPDEST SWAP3 SWAP2 POP POP JUMP JUMPDEST PUSH1 0x0 PUSH1 0x20 DUP3 DUP5 SUB SLT ISZERO PUSH2 0x689 JUMPI PUSH2 0x688 PUSH2 0x922 JUMP JUMPDEST JUMPDEST PUSH1 0x0 PUSH2 0x697 DUP5 DUP3 DUP6 ADD PUSH2 0x649 JUMP JUMPDEST SWAP2 POP POP SWAP3 SWAP2 POP POP JUMP JUMPDEST PUSH1 0x0 DUP1 PUSH1 0x0 PUSH1 0x60 DUP5 DUP7 SUB SLT ISZERO PUSH2 0x6B9 JUMPI PUSH2 0x6B8 PUSH2 0x922 JUMP JUMPDEST JUMPDEST PUSH1 0x0 PUSH2 0x6C7 DUP7 DUP3 DUP8 ADD PUSH2 0x649 JUMP JUMPDEST SWAP4 POP POP PUSH1 0x20 PUSH2 0x6D8 DUP7 DUP3 DUP8 ADD PUSH2 0x649 JUMP JUMPDEST SWAP3 POP POP PUSH1 0x40 PUSH2 0x6E9 DUP7 DUP3 DUP8 ADD PUSH2 0x65E JUMP JUMPDEST SWAP2 POP POP SWAP3 POP SWAP3 POP SWAP3 JUMP JUMPDEST PUSH1 0x0 DUP1 PUSH1 0x40 DUP4 DUP6 SUB SLT ISZERO PUSH2 0x70A JUMPI PUSH2 0x709 PUSH2 0x922 JUMP JUMPDEST JUMPDEST PUSH1 0x0 PUSH2 0x718 DUP6 DUP3 DUP7 ADD PUSH2 0x649 JUMP JUMPDEST SWAP3 POP POP PUSH1 0x20 PUSH2 0x729 DUP6 DUP3 DUP7 ADD PUSH2 0x65E JUMP JUMPDEST SWAP2 POP POP SWAP3 POP SWAP3 SWAP1 POP JUMP JUMPDEST PUSH2 0x73C DUP2 PUSH2 0x8AB JUMP JUMPDEST DUP3 MSTORE POP POP JUMP JUMPDEST PUSH2 0x74B DUP2 PUSH2 0x8BD JUMP JUMPDEST DUP3 MSTORE POP POP JUMP JUMPDEST PUSH1 0x0 PUSH2 0x75E PUSH1 0x0 DUP4 PUSH2 0x810 JUMP JUMPDEST SWAP2 POP PUSH2 0x769 DUP3 PUSH2 0x927 JUMP JUMPDEST PUSH1 0x0 DUP3 ADD SWAP1 POP SWAP2 SWAP1 POP JUMP JUMPDEST PUSH2 0x77D DUP2 PUSH2 0x8E9 JUMP JUMPDEST DUP3 MSTORE POP POP JUMP JUMPDEST PUSH1 0x0 PUSH1 0x60 DUP3 ADD SWAP1 POP PUSH2 0x798 PUSH1 0x0 DUP4 ADD DUP7 PUSH2 0x733 JUMP JUMPDEST PUSH2 0x7A5 PUSH1 0x20 DUP4 ADD DUP6 PUSH2 0x733 JUMP JUMPDEST PUSH2 0x7B2 PUSH1 0x40 DUP4 ADD DUP5 PUSH2 0x774 JUMP JUMPDEST SWAP5 SWAP4 POP POP POP POP JUMP JUMPDEST PUSH1 0x0 PUSH1 0x20 DUP3 ADD SWAP1 POP PUSH2 0x7CF PUSH1 0x0 DUP4 ADD DUP5 PUSH2 0x742 JUMP JUMPDEST SWAP3 SWAP2 POP POP JUMP JUMPDEST PUSH1 0x0 PUSH1 0x20 DUP3 ADD SWAP1 POP DUP2 DUP2 SUB PUSH1 0x0 DUP4 ADD MSTORE PUSH2 0x7EE DUP2 PUSH2 0x751 JUMP JUMPDEST SWAP1 POP SWAP2 SWAP1 POP JUMP JUMPDEST PUSH1 0x0 PUSH1 0x20 DUP3 ADD SWAP1 POP PUSH2 0x80A PUSH1 0x0 DUP4 ADD DUP5 PUSH2 0x774 JUMP JUMPDEST SWAP3 SWAP2 POP POP JUMP JUMPDEST PUSH1 0x0 DUP3 DUP3 MSTORE PUSH1 0x20 DUP3 ADD SWAP1 POP SWAP3 SWAP2 POP POP JUMP JUMPDEST PUSH1 0x0 PUSH2 0x82C DUP3 PUSH2 0x8E9 JUMP JUMPDEST SWAP2 POP PUSH2 0x837 DUP4 PUSH2 0x8E9 JUMP JUMPDEST SWAP3 POP DUP3 PUSH32 0xFFFFFFFFFFFFFFFFFFFFFFFFFFFFFFFFFFFFFFFFFFFFFFFFFFFFFFFFFFFFFFFF SUB DUP3 GT ISZERO PUSH2 0x86C JUMPI PUSH2 0x86B PUSH2 0x8F3 JUMP JUMPDEST JUMPDEST DUP3 DUP3 ADD SWAP1 POP SWAP3 SWAP2 POP POP JUMP JUMPDEST PUSH1 0x0 PUSH2 0x882 DUP3 PUSH2 0x8E9 JUMP JUMPDEST SWAP2 POP PUSH2 0x88D DUP4 PUSH2 0x8E9 JUMP JUMPDEST SWAP3 POP DUP3 DUP3 LT ISZERO PUSH2 0x8A0 JUMPI PUSH2 0x89F PUSH2 0x8F3 JUMP JUMPDEST JUMPDEST DUP3 DUP3 SUB SWAP1 POP SWAP3 SWAP2 POP POP JUMP JUMPDEST PUSH1 0x0 PUSH2 0x8B6 DUP3 PUSH2 0x8C9 JUMP JUMPDEST SWAP1 POP SWAP2 SWAP1 POP JUMP JUMPDEST PUSH1 0x0 DUP2 ISZERO ISZERO SWAP1 POP SWAP2 SWAP1 POP JUMP JUMPDEST PUSH1 0x0 PUSH20 0xFFFFFFFFFFFFFFFFFFFFFFFFFFFFFFFFFFFFFFFF DUP3 AND SWAP1 POP SWAP2 SWAP1 POP JUMP JUMPDEST PUSH1 0x0 DUP2 SWAP1 POP SWAP2 SWAP1 POP JUMP JUMPDEST PUSH32 0x4E487B7100000000000000000000000000000000000000000000000000000000 PUSH1 0x0 MSTORE PUSH1 0x11 PUSH1 0x4 MSTORE PUSH1 0x24 PUSH1 0x0 REVERT JUMPDEST PUSH1 0x0 DUP1 REVERT JUMPDEST POP JUMP JUMPDEST PUSH2 0x933 DUP2 PUSH2 0x8AB JUMP JUMPDEST DUP2 EQ PUSH2 0x93E JUMPI PUSH1 0x0 DUP1 REVERT JUMPDEST POP JUMP JUMPDEST PUSH2 0x94A DUP2 PUSH2 0x8E9 JUMP JUMPDEST DUP2 EQ PUSH2 0x955 JUMPI PUSH1 0x0 DUP1 REVERT JUMPDEST POP JUMP INVALID LOG2 PUSH5 0x6970667358 0x22 SLT KECCAK256 GAS 0xC2 0xD0 EXTCODEHASH DUP10 NOT PUSH21 0xC6C95C757F8282052F75A9D4088532FF8F7CD49B0B 0xD5 0x21 0xD6 0xD3 PUSH5 0x736F6C6343 STOP ADDMOD SMOD STOP CALLER "
				},
				"gasEstimates": {
					"creation": {
						"codeDepositCost": "489200",
						"executionCost": "524",
						"totalCost": "489724"
					},
					"external": {
						"approve(address,uint256)": "infinite",
						"balanceOf(address)": "2863",
						"transfer(address,uint256)": "infinite",
						"transferFrom(address,address,uint256)": "infinite"
					}
				},
				"methodIdentifiers": {
					"approve(address,uint256)": "095ea7b3",
					"balanceOf(address)": "70a08231",
					"transfer(address,uint256)": "a9059cbb",
					"transferFrom(address,address,uint256)": "23b872dd"
				}
			},
			"storageLayout": {
				"storage": [
					{
						"astId": 52,
						"contract": "Besic/SolidityExample/modularContracts.sol:Token",
						"label": "balances",
						"offset": 0,
						"slot": "0",
						"type": "t_mapping(t_address,t_uint256)"
					},
					{
						"astId": 60,
						"contract": "Besic/SolidityExample/modularContracts.sol:Token",
						"label": "allowed",
						"offset": 0,
						"slot": "1",
						"type": "t_mapping(t_address,t_mapping(t_address,t_uint256))"
					}
				],
				"types": {
					"t_address": {
						"encoding": "inplace",
						"label": "address",
						"numberOfBytes": "20"
					},
					"t_mapping(t_address,t_mapping(t_address,t_uint256))": {
						"encoding": "mapping",
						"key": "t_address",
						"label": "mapping(address => mapping(address => uint256))",
						"numberOfBytes": "32",
						"value": "t_mapping(t_address,t_uint256)"
					},
					"t_mapping(t_address,t_uint256)": {
						"encoding": "mapping",
						"key": "t_address",
						"label": "mapping(address => uint256)",
						"numberOfBytes": "32",
						"value": "t_uint256"
					},
					"t_uint256": {
						"encoding": "inplace",
						"label": "uint256",
						"numberOfBytes": "32"
					}
				}
			},
			"userdoc": {
				"kind": "user",
				"methods": {},
				"version": 1
			}
		}
	}
}